:020000040800F2
:10000000FFFFFFFFFFFFFFFFFFFFFFFFFFFFFFFF00
:10001000FFFFFFFFFFFFFFFFFFFFFFFFFFFFFFFFF0
:10002000FFFFFFFFFFFFFFFFFFFFFFFFFFFFFFFFE0
:10003000FFFFFFFFFFFFFFFFFFFFFFFFFFFFFFFFD0
:1004000046434642000000000000000001030300D4
:1004100001000000010200000002000000000000D6
:1004200000000000000000000000000000000000CC
:1004300000000000000000000000000000000000BC
:1004400000000000010407000000000000000000A0
:10045000000000010000000000000000000000009B
:10046000000000000000000000000000000000008C
:10047000000000000000000000000000000000007C
:10048000EB04180A001E04320426000000000000DD
:10049000050404240000000000000000000000002B
:1004A0000104022000000000000000000000000025
:1004B0000604000000000000000000000000000032
:1004C000000000000000000000000000000000002C
:1004D00020041808000000000000000000000000D8
:1004E000000000000000000000000000000000000C
:1004F00000000000000000000000000000000000FC
:100500005204180800000000000000000000000075
:100510000204180800200000000000000000000095
:1005200000000000000000000000000000000000CB
:100530006004000000000000000000000000000057
:1005400000000000000000000000000000000000AB
:10055000000000000000000000000000000000009B
:10056000000000000000000000000000000000008B
:10057000000000000000000000000000000000007B
:10058000000000000000000000000000000000006B
:10059000000000000000000000000000000000005B
:1005A000000000000000000000000000000000004B
:1005B000000000000000000000000000000000003B
:1005C000000100000010000000000000000000001A
:1005D000008000000000000000000000000000009B
:1005E000000000000000000000000000000000000B
:1005F00000000000000000000000000000000000FB
:10060000FFFFFFFF000000000000000000000000EE
:1006100000000000000000000000000000000000DA
:1006200000000000000000000000000000000000CA
:1006300000000000000000000000000000000000BA
:1006400000000000000000000000000000000000AA
:10100000003012203D130008D5130008D913000842
:10101000D1130008D1130008D1130008D113000820
:10102000C0AB0A000000000000000000812C00207E
:10103000D113000800100008112C0020AD29002059
:10104000E9130008ED130008F1130008F513000878
:10105000F9130008FD130008011400080514000826
:10106000091400080D1400081114000815140008D4
:10107000191400081D140008211400082514000884
:10108000291400082D140008311400083514000834
:10109000391400083D1400084114000845140008E4
:1010A000491400084D140008511400085514000894
:1010B000591400085D140008611400086514000844
:1010C000D92C00086D14000871140008751400086C
:1010D000791400087D1400088114000885140008A4
:1010E000891400088D140008911400089514000854
:1010F000991400089D140008A1140008A514000804
:10110000A9140008AD140008B1140008B5140008B3
:10111000B9140008BD140008C1140008C514000863
:10112000C9140008CD140008D1140008D514000813
:10113000D9140008DD140008E1140008E5140008C3
:10114000E9140008ED140008F1140008F514000873
:10115000F9140008FD140008011500080515000821
:10116000091500080D1500081115000815150008CF
:10117000191500081D15000821150008251500087F
:10118000291500082D15000831150008351500082F
:10119000391500083D1500084115000845150008DF
:1011A000491500084D15000851150008551500088F
:1011B000591500085D15000861150008651500083F
:1011C000691500086D1500087115000875150008EF
:1011D00079150008192D00088115000885150008EB
:1011E000891500088D15000891150008951500084F
:1011F000991500089D150008A1150008A5150008FF
:10120000A9150008AD150008B1150008B5150008AE
:10121000B9150008BD150008C1150008C51500085E
:10122000C9150008CD150008D1150008D51500080E
:10123000D9150008DD150008E1150008E5150008BE
:10124000E915000800000000000000000000000098
:10125000000000000000000000000000000000008E
:10126000000000000000000000000000000000007E
:10127000000000000000000000000000000000006E
:1012800010B5054C237833B9044B13B1044800E082
:1012900000BF0123237010BDC0B201200000000078
:1012A00070FD080808B5034B1BB10349034800E073
:1012B00000BF08BD00000000C4B2012070FD080896
:1012C000A3F5803A704700BF174B002B08BF134BA4
:1012D0009D46FFF7F5FF00218B460F461348144A41
:1012E000121A6FF0E5F90E4B002B00D098470D4B0A
:1012F000002B00D098470020002104000D000D486D
:10130000002802D00C4800E000BF6FF083F92000F5
:10131000290002F0F5FA6FF069F900BF000008003B
:10132000000000000000000000301220C0B20120C8
:10133000DCB70620000000000000000072B617486D
:10134000174901600A6882F30888164880F30A8802
:10135000154880471549164A164B9A42BEBF51F8A8
:10136000040B42F8040BF8E71349144A0020914299
:10137000BCBF41F8040BFAE700201149114A914221
:10138000BCBF41F8040BFAE706490F4A9142BCBFC3
:1013900041F8040BFAE762B60C48804708ED00E01C
:1013A00000100008002C1220BD640008080909087C
:1013B00000000020B8B20120C0B20120DCB7062036
:1013C000E0B70620E0BB062000301220C91200085A
:1013D000FFF7FEBF8548004785480047854800471E
:1013E00085480047854800478548004785480047AD
:1013F000854800478548004785480047854800479D
:10140000854800478548004785480047854800478C
:10141000854800478548004785480047854800477C
:10142000854800478548004785480047854800476C
:10143000854800478548004785480047854800475C
:10144000854800478548004785480047854800474C
:10145000854800478548004785480047854800473C
:10146000854800478548004785480047854800472C
:10147000854800478548004785480047854800471C
:10148000854800478548004785480047854800470C
:1014900085480047854800478548004785480047FC
:1014A00085480047854800478548004785480047EC
:1014B00085480047854800478548004785480047DC
:1014C00085480047854800478548004785480047CC
:1014D00085480047854800478548004785480047BC
:1014E00085480047854800478548004785480047AC
:1014F000854800478548004785480047854800479C
:10150000854800478548004785480047854800478B
:10151000854800478548004785480047854800477B
:10152000854800478548004785480047854800476B
:10153000854800478548004785480047854800475B
:10154000854800478548004785480047854800474B
:10155000854800478548004785480047854800473B
:10156000854800478548004785480047854800472B
:10157000854800478548004785480047854800471B
:10158000854800478548004785480047854800470B
:1015900085480047854800478548004785480047FB
:1015A00085480047854800478548004785480047EB
:1015B00085480047854800478548004785480047DB
:1015C00085480047854800478548004785480047CB
:1015D00085480047854800478548004785480047BB
:1015E000854800478548004785480047D5130008CF
:1015F000D9130008812C0020112C0020AD290020D7
:10160000D1130008D1130008D1130008D11300082A
:10161000D1130008D1130008D1130008D11300081A
:10162000D1130008D1130008D1130008D11300080A
:10163000D1130008D113000891940008F994000810
:1016400061950008C9950008D1130008D11300085E
:1016500031960008D1130008D1130008D1130008F7
:10166000D1130008D1130008D1130008D1130008CA
:10167000D1130008D1130008D1130008D1130008BA
:10168000D1130008D1130008D1130008D1130008AA
:10169000D1130008D1130008D1130008D11300089A
:1016A000D1130008D1130008FDA90008D1130008C8
:1016B000D1130008D1130008D1130008D11300087A
:1016C000D1130008D1130008D1130008D11300086A
:1016D000D1130008D1130008D1130008D11300085A
:1016E000D1130008D1130008D1130008D11300084A
:1016F000D1130008D113000815B50008D113000854
:10170000CB5F0120D1130008D1130008D1130008CA
:10171000D1130008D1130008D1130008D113000819
:1017200021810120D1130008D1130008D113000832
:10173000D1130008D1130008D1130008D1130008F9
:10174000D1130008D1130008D1130008D1130008E9
:10175000D1130008D1130008D1130008D1130008D9
:10176000D1130008D113000869810120D1130008AA
:10177000D1130008D1130008D1130008D1130008B9
:10178000D1130008D1130008D1130008D1130008A9
:10179000D1130008D1130008D1130008D113000899
:1017A000D1130008D1130008D1130008D113000889
:1017B000D1130008D1130008D1130008D113000879
:1017C000D1130008D1130008D1130008D113000869
:1017D000D1130008D1130008D1130008D113000859
:1017E000D1130008D1130008D1130008D113000849
:1017F000D1130008D1130008D1130008D113000839
:1018000021AA000810F8012B11F8013B012A28BF7A
:101810009A42F7D0D01A7047034613F8012B002ADA
:10182000FBD1181A0138704781F0004102E000BF77
:1018300083F0004330B54FEA41044FEA430594EA90
:10184000050F08BF90EA020F1FBF54EA000C55EACB
:10185000020C7FEA645C7FEA655C00F0E2804FEA9C
:101860005454D4EB5555B8BF6D420CDD2C4480EA7E
:10187000020281EA030382EA000083EA010180EAAE
:10188000020281EA0303362D88BF30BD11F0004FFC
:101890004FEA01314FF4801C4CEA113102D0404232
:1018A00061EB410113F0004F4FEA03334CEA13336D
:1018B00002D0524263EB430394EA050F00F0A78085
:1018C000A4F10104D5F1200E0DDB02FA0EFC22FA80
:1018D00005F2801841F1000103FA0EF2801843FA74
:1018E00005F359410EE0A5F120050EF1200E012A65
:1018F00003FA0EFC28BF4CF0020C43FA05F3C018A3
:1019000051EBE37101F0004507D54FF0000EDCF11B
:10191000000C7EEB00006EEB0101B1F5801F1BD3C4
:10192000B1F5001F0CD349085FEA30004FEA3C0CC8
:1019300004F101044FEA445212F5800F80F09A80BE
:10194000BCF1004F08BF5FEA500C50F1000041EBC2
:10195000045141EA050130BD5FEA4C0C404141EBC6
:101960000101013C28BFB1F5801FE9D291F0000FC1
:1019700004BF01460020B1FA81F308BF2033A3F170
:101980000B03B3F120020CDA0C3208DD02F1140C67
:10199000C2F10C0201FA0CF021FA02F10CE002F1A2
:1019A0001402D8BFC2F1200C01FA02F120FA0CFC9B
:1019B000DCBF41EA0C019040E41AA2BF01EB0451E4
:1019C000294330BD6FEA04041F3C1CDA0C340EDCE2
:1019D00004F11404C4F1200220FA04F001FA02F325
:1019E00040EA030021FA04F345EA030130BDC4F1E3
:1019F0000C04C4F1200220FA02F001FA04F340EAD8
:101A00000300294630BD21FA04F0294630BD94F088
:101A1000000F83F4801306BF81F480110134013D6F
:101A20004EE77FEA645C18BF7FEA655C29D094EAE0
:101A3000050F08BF90EA020F05D054EA000C04BF5E
:101A40001946104630BD91EA030F1EBF0021002049
:101A500030BD5FEA545C05D14000494128BF41F0E8
:101A6000004130BD14F580043CBF01F5801130BD4C
:101A700001F0004545F0FE4141F470014FF00000D7
:101A800030BD7FEA645C1ABF194610467FEA655C88
:101A90001CBF0B46024650EA013406BF52EA03352A
:101AA00091EA030F41F4002130BD00BF90F0000F18
:101AB00004BF0021704730B54FF4806404F1320454
:101AC0004FF000054FF0000150E700BF90F0000F0D
:101AD00004BF0021704730B54FF4806404F1320434
:101AE00010F0004548BF40424FF000013EE700BF04
:101AF00042004FEAE2014FEA31014FEA02701FBF94
:101B000012F07F4393F07F4F81F06051704732F0C5
:101B10007F4208BF704793F07F4F04BF41F400211C
:101B2000704730B54FF4607401F0004521F000417A
:101B30001CE700BF50EA010208BF704730B54FF004
:101B400000050AE050EA010208BF704730B511F005
:101B5000004502D5404261EB41014FF4806404F13D
:101B600032045FEA915C3FF4D8AE4FF003025FEAC3
:101B7000DC0C18BF03325FEADC0C18BF033202EB47
:101B8000DC02C2F1200300FA03FC20FA02F001FAA1
:101B900003FE40EA0E0021FA02F11444BDE600BF44
:101BA00070B54FF0FF0C4CF4E06C1CEA11541DBFF3
:101BB0001CEA135594EA0C0F95EA0C0F00F0DEF8BE
:101BC0002C4481EA030621EA4C5123EA4C5350EAA3
:101BD000013518BF52EA033541F4801143F48013F4
:101BE00038D0A0FB02CE4FF00005E1FB02E506F085
:101BF0000042E0FB03E54FF00006E1FB03569CF0DA
:101C0000000F18BF4EF0010EA4F1FF04B6F5007FDF
:101C100064F5407404D25FEA4E0E6D4146EB060651
:101C200042EAC62141EA55514FEAC52040EA5E50DA
:101C30004FEACE2EB4F1FD0C88BFBCF5E06F1ED884
:101C4000BEF1004F08BF5FEA500E50F1000041EBBB
:101C5000045170BD06F0004646EA010140EA020068
:101C600081EA0301B4EB5C04C2BFD4EB0C0541EA8A
:101C7000045170BD41F480114FF0000E013C00F39F
:101C8000AB8014F1360FDEBF002001F0004170BDC3
:101C9000C4F10004203C35DA0C341BDC04F11404DC
:101CA000C4F1200500FA05F320FA04F001FA05F268
:101CB00040EA020001F0004221F0004110EBD37035
:101CC00021FA04F642EB06015EEA430E08BF20EA61
:101CD000D37070BDC4F10C04C4F1200500FA04F304
:101CE00020FA05F001FA04F240EA020001F0004196
:101CF00010EBD37041F100015EEA430E08BF20EA09
:101D0000D37070BDC4F1200500FA05F24EEA020E50
:101D100020FA04F301FA05F243EA020321FA04F07F
:101D200001F0004121FA04F220EA020000EBD37036
:101D30005EEA430E08BF20EAD37070BD94F0000F36
:101D40000FD101F00046400041EB010111F4801F6A
:101D500008BF013CF7D041EA060195F0000F18BF1B
:101D6000704703F00046520043EB030313F4801F57
:101D700008BF013DF7D043EA0603704794EA0C0F11
:101D80000CEA135518BF95EA0C0F0CD050EA410627
:101D900018BF52EA4306D1D181EA030101F00041A4
:101DA0004FF0000070BD50EA410606BF10461946CC
:101DB00052EA430619D094EA0C0F02D150EA0136D8
:101DC00013D195EA0C0F05D152EA03361CBF104619
:101DD00019460AD181EA030101F0004141F0FE41B8
:101DE00041F470014FF0000070BD41F0FE4141F43C
:101DF000780170BD70B54FF0FF0C4CF4E06C1CEA3C
:101E000011541DBF1CEA135594EA0C0F95EA0C0FF0
:101E100000F0A7F8A4EB050481EA030E52EA0335AB
:101E20004FEA013100F088804FEA03334FF08055CC
:101E300045EA131343EA12634FEA022245EA1115F9
:101E400045EA10654FEA00260EF000419D4208BFAA
:101E5000964244F1FD0404F5407402D25B084FEA57
:101E60003202B61A65EB03055B084FEA32024FF403
:101E700080104FF4002CB6EB020E75EB030E22BF60
:101E8000B61A754640EA0C005B084FEA3202B6EB20
:101E9000020E75EB030E22BFB61A754640EA5C00CF
:101EA0005B084FEA3202B6EB020E75EB030E22BF5F
:101EB000B61A754640EA9C005B084FEA3202B6EB60
:101EC000020E75EB030E22BFB61A754640EADC001F
:101ED00055EA060E18D04FEA051545EA16754FEA81
:101EE00006164FEAC30343EA52734FEAC2025FEA9F
:101EF0001C1CC0D111F4801F0BD141EA00014FF02E
:101F000000004FF0004CB6E711F4801F04BF0143FE
:101F10000020B4F1FD0C88BFBCF5E06F3FF6AFAE1A
:101F2000B5EB030C04BFB6EB020C5FEA500C50F1AA
:101F3000000041EB045170BD0EF0004E4EEA11312D
:101F400014EB5C04C2BFD4EB0C0541EA045170BD34
:101F500041F480114FF0000E013C90E645EA060E78
:101F60008DE60CEA135594EA0C0F08BF95EA0C0FA6
:101F70003FF43BAF94EA0C0F0AD150EA01347FF4EE
:101F800034AF95EA0C0F7FF425AF104619462CE7C5
:101F900095EA0C0F06D152EA03353FF4FDAE104628
:101FA000194622E750EA410618BF52EA43067FF479
:101FB000C5AE50EA41047FF40DAF52EA43057FF409
:101FC000EBAE12E74FF0FF3C06E000BF4FF0010C14
:101FD00002E000BF4FF0010C4DF804CD4FEA410C78
:101FE0007FEA6C5C4FEA430C18BF7FEA6C5C1BD045
:101FF00001B050EA410C0CBF52EA430C91EA030FC6
:1020000002BF90EA020F0020704710F1000F91EA22
:10201000030F58BF994208BF90422CBFD8176FEAF0
:10202000E37040F0010070474FEA410C7FEA6C5CBE
:1020300002D150EA013C07D14FEA430C7FEA6C5CC5
:10204000D6D152EA033CD3D05DF8040B704700BFF1
:102050008446104662468C461946634600E000BF3F
:1020600001B5FFF7B7FF002848BF10F1000F01BD11
:102070004DF808EDFFF7F4FF0CBF012000205DF8DC
:1020800008FB00BF4DF808EDFFF7EAFF34BF012061
:1020900000205DF808FB00BF4DF808EDFFF7E0FFFA
:1020A00094BF012000205DF808FB00BF4DF808ED4B
:1020B000FFF7CEFF94BF012000205DF808FB00BFB2
:1020C0004DF808EDFFF7C4FF34BF012000205DF894
:1020D00008FB00BF4FEA410C7FEA6C5C02D150EA7A
:1020E000013C0AD14FEA430C7FEA6C5C02D152EA10
:1020F000033C02D14FF0000070474FF001007047E1
:102100004FEA410212F5001215D211D56FF478731F
:10211000B3EB625212D94FEAC12343F0004343EAC2
:10212000505311F0004F23FA02F018BF404270479D
:102130004FF00000704750EA013005D111F0004027
:1021400008BF6FF0004070474FF00000704700BFBD
:102150007BB972B90029BEBF00204FF0004106E0F4
:1021600008BF00281CBF6FF000414FF0FF3000F0A7
:1021700003BAADF1080C6DE904CE002909DB002B90
:102180001ADB00F083F8DDF804E0DDE9022304B097
:102190007047404261EB4101002B1BDB00F076F8F9
:1021A000DDF804E0DDE9022304B0404261EB4101C7
:1021B000524263EB43037047524263EB430300F028
:1021C00065F8DDF804E0DDE9022304B0404261EB8C
:1021D00041017047524263EB430300F057F8DDF8CA
:1021E00004E0DDE9022304B0524263EB430370478D
:1021F00053B94AB9002908BF00281CBF4FF0FF316E
:102200004FF0FF3000F0B8B9ADF1080C6DE904CE25
:1022100000F03CF8DDF804E0DDE9022304B070478B
:1022200038B50022002304460D46FFF72BFF28B9DE
:1022300020462946BDE8384000F00AB8204605F19E
:10224000004100F005F8404261EB410138BD00BF9C
:10225000D0B500220B4B06460F46FFF7A1FC00F05D
:102260008DF90446FFF722FC0022074BFFF798FC8C
:1022700002460B4630463946FFF7DAFA00F07EF99F
:102280002146D0BD0000F03D0000F0412DE9F04FA7
:10229000099D04460F46002B48D18A42944661D9D5
:1022A000B2FA82F343B1C3F120019F4002FA03FC6A
:1022B0009C4020FA01F10F434FEA1C411FFA8CFEAB
:1022C000220CB7FBF1F601FB167706FB0EF042EA93
:1022D0000742904208D91CEB020206F1FF3702D2F6
:1022E000904200F237813E46121AA4B2B2FBF1F0DE
:1022F00001FB102200FB0EFE44EA0244A64508D969
:102300001CEB040400F1FF3202D2A64500F21C814E
:10231000104640EA0640A4EB0E0400261DB1DC4046
:102320000023C5E900433146BDE8F08F8B4209D94F
:10233000002D00F0FD800026C5E900013046314641
:10234000BDE8F08FB3FA83F6002E4BD18B42C0F07C
:10235000F280824240F2EF803046002DE3D0C5E9A2
:102360000047E0E702B9FFDEB2FA82F3002B40F04B
:102370009D80891A4FEA124E97B20126200CB1FBBC
:10238000FEF20EFB121140EA014107FB02F0884207
:102390000FD91CEB010102F1FF382CBF4FF00109EE
:1023A0004FF00009884203D9B9F1000F00F0CF8047
:1023B0004246091AA4B2B1FBFEF00EFB101100FB5D
:1023C00007F744EA0144A74208D91CEB040400F1D2
:1023D000FF3102D2A74200F2B4800846E41B40EA73
:1023E00002409BE7C6F12007B34001FA06F422FA47
:1023F00007FCF940B2404CEA030C20FA07F34FEA1D
:102400001C491C431FFA8CFE00FA06F3200CB1FB9A
:10241000F9F809FB181140EA014108FB0EF0884267
:102420000FD91CEB010108F1FF3A2CBF4FF0010B53
:102430004FF0000B884203D9BBF1000F00F08D80F4
:10244000D046091AA4B2B1FBF9F009FB101100FB48
:102450000EFE44EA01418E4507D91CEB010100F153
:10246000FF3401D28E457FD8204640EA0840A1EBD8
:102470000E01A0FB029841454C46C64602D306D148
:102480004B4504D20138B9EB020468EB0C0E002D69
:1024900070D01A1B61EB0E0122FA06F301FA07F75E
:1024A000F14000261F43C5E900713CE702FA03FC36
:1024B000C3F1200001FA03F221FA00F64FEA1C4EA4
:1024C00024FA00F11FFA8CF79C401143B6FBFEF092
:1024D0000A0C0EFB106642EA064200FB07F6964223
:1024E0000ED91CEB020200F1FF382CBF4FF001099E
:1024F0004FF00009964202D9B9F1000F31D04046A1
:10250000921B89B2B2FBFEF60EFB162241EA024193
:1025100006FB07F28A4207D91CEB010106F1FF38DE
:1025200001D28A4223D84646891A46EA004625E760
:102530002E462846F7E6841A61EB030301201F4666
:102540000BE76444023849E764440238E1E6023AA2
:1025500061442EE7023E6244C6E6A8F102086144E7
:102560006FE702386244CBE7023861447DE7023E00
:102570006144D9E72E46D6E6704700BF4A0011D223
:1025800012F5001211D20DD56FF47873B3EB6252CD
:102590000ED44FEAC12343F0004343EA505323FAD9
:1025A00002F070474FF00000704750EA013002D14E
:1025B0004FF0FF3070474FF00000704780B483B099
:1025C00000AF0346FB80B7F90630002B12DBFB8817
:1025D00003F01F020A49B7F906305B09012000FA2F
:1025E00002F2203341F82320BFF34F8F00BFBFF327
:1025F0006F8F00BF00BF0C37BD465DF8047B70478E
:1026000000E100E080B483B000AF03463960FB8096
:10261000B7F90630002B0ADB3B68DAB20C49B7F990
:1026200006305201D2B20B4483F800230AE03B6823
:10263000DAB20849FB8803F00F03043B5201D2B21F
:102640000B441A7600BF0C37BD465DF8047B70471B
:1026500000E100E000ED00E080B584B000AF03468B
:10266000FB800023FB60B7F9063013F1800F02D125
:102670000123FB6004E0B7F906301846FFF79EFF20
:10268000FB6818461037BD4680BD000080B400AF1F
:10269000044BD3F80C3403F07F031846BD465DF8B5
:1026A000047B704700B0034080B582B000AF786013
:1026B0007B6823F07F03002B06D0074B074A4FF4BB
:1026C000887107486BF0ECFC064A7B68136100BF19
:1026D0000837BD4680BD00BF24120708FCD108089A
:1026E000541207080010034080B483B000AF786034
:1026F00039607B683A685A6000BF0C37BD465DF8A8
:10270000047B704780B483B000AF786039607B6829
:102710003A689A6000BF0C37BD465DF8047B70478D
:1027200080B485B000AF78607B689B68FB607B6895
:102730009B68BB60FA68BB689A42F5D1BB681846D3
:102740001437BD465DF8047B704780B483B000AF9A
:1027500078600B46FB70FB78002B06D07B681B680B
:1027600043F010027B681A6005E07B681B6823F069
:1027700010027B681A6000BF0C37BD465DF8047B11
:10278000704780B485B000AF786039607B681B68A3
:10279000FB60FB6823F00C03FB60FA683B681343A3
:1027A000FB607B68FA681A6000BF1437BD465DF8AD
:1027B000047B704780B483B000AF78600B46FB7039
:1027C000FB78002B06D07B681B6843F080027B6897
:1027D0001A6005E07B681B6823F080027B681A6042
:1027E00000BF0C37BD465DF8047B704780B500AF75
:1027F00001F046FA1B4BB3F1006F03D3194BB3F151
:10280000805F07D3174BB3F1C05F19D3154BB3F1FA
:10281000005F15D201F078FD40F2111004F078F954
:102820000A2004F075F94FF4807004F071F940F259
:10283000111009F07BFF4FF4807009F077FF01E081
:1028400001F0C8FC01F0FCFA074809F041FB074819
:1028500001F06CFF33F096FC054808F013FA00BF56
:1028600080BD00BF413E00089C0C0020009000404D
:102870000000034080B582B000AF03463A60FB71B0
:102880000B46BB71104B1B68012B02D043F6206333
:1028900016E0FB79002B07D1BB79032B0FD133F066
:1028A00081FC6BF00FFD0AE0FB79012B07D1BB79AE
:1028B000032B04D1FFF79AFF044B00221A70002368
:1028C00018460837BD4680BDF8E30420F0E3042035
:1028D000B0B584B000AFC7E900011248FFF720FF90
:1028E000F860D7E900231049541843F100050F4A56
:1028F0004FF0000320462946FFF77AFC02460B46BC
:10290000FB681344FB60F9680648FFF7EDFE0848D2
:1029100002F07EFC01210348FFF74CFF00BF103797
:10292000BD46B0BD000003403F420F0040420F00D3
:10293000B4B3012080B500AF00210A48FFF73AFF89
:1029400000210848FFF7D0FE00210648FFF7DAFE15
:10295000054802F0B7FC04210248FFF712FF00BF50
:1029600080BD00BF00000340B4B3012080B582B039
:1029700002AF2020FFF770FE202008F0D5FE2020B7
:1029800009F08EF80A4808F07DF901210848FFF7A0
:10299000DCFE04210648FFF7F4FE00230093002329
:1029A000044A0549054802F067FB00BFBD4680BDEB
:1029B0000000034035290008D1280008E0B20120BA
:1029C00080B500AF142200210A486DF071FE142278
:1029D000002109486DF06CFE0123002248210548C2
:1029E00002F0BEFB002300222021034802F0B8FBC6
:1029F00000BF80BDA0B30120B4B3012080B500AFFB
:102A0000104802F0C3F9FFF7B1FF03212020FFF7C0
:102A1000F9FD03216520FFF7F5FD0B49002002F0C9
:102A20006FFB0A49022002F06BFBFFF7C9FF012090
:102A300002F024FA064845F009FC064B00221A6011
:102A400000BF80BDE0B20120000D0020A00C0020DE
:102A5000F930000804B7062080B582B000AF0C48FA
:102A600009F036FAFFF712FE7860796809486BF0D2
:102A70005BFC7868FFF718FEFFF7C0FF03216520B5
:102A8000FFF7C0FD002318460837BD4680BD00BFD4
:102A90009C0C0020A012070880B483B000AF03464E
:102AA000FB80B7F90630002B0BDBFB8803F01F021D
:102AB0000749B7F906305B09012000FA02F241F834
:102AC000232000BF0C37BD465DF8047B704700BF74
:102AD00000E100E080B483B000AF0346FB80B7F9AB
:102AE0000630002B12DBFB8803F01F020A49B7F9FE
:102AF00006305B09012000FA02F2203341F823205E
:102B0000BFF34F8F00BFBFF36F8F00BF00BF0C3705
:102B1000BD465DF8047B704700E100E080B483B0FF
:102B200000AF0346FB80B7F90630002B0CDBFB88B7
:102B300003F01F020749B7F906305B09012000FACC
:102B400002F2603341F8232000BF0C37BD465DF828
:102B5000047B704700E100E080B584B000AF03461D
:102B6000FB800023FB60B7F9063013F1800F02D120
:102B70000123FB6004E0B7F906301846FFF78CFF2D
:102B8000FB6818461037BD4680BD80B584B000AFE5
:102B90000346FB800023FB60B7F9063013F1800F7A
:102BA00002D10123FB6004E0B7F906301846FFF7B5
:102BB00091FFFB6818461037BD4680BD80B483B0D6
:102BC00000AFEFF310833B603B687B6072B600BFE1
:102BD0007B6818460C37BD465DF8047B704780B4AF
:102BE00085B000AF78607B68FB60FB6883F310887A
:102BF00000BF00BF1437BD465DF8047B704700007E
:102C000080B483B000AF03460A46FB711346BB7124
:102C10000A4B5A69FB79012101FA03F3DB431A409D
:102C2000B979FB7901FA03F3044913434B6100BFFF
:102C30000C37BD465DF8047B704700BF00100340B1
:102C400080B483B000AF78607B681B6803F00C032E
:102C500018460C37BD465DF8047B704780B485B0DC
:102C600000AF786039607B681B68FB60FB6823F00D
:102C70000C03FB60FA683B681343FB607B68FA68EF
:102C80001A6000BF1437BD465DF8047B7047000032
:102C900080B483B000AF786039603A680B4B134062
:102CA0003B603A680A4B13403A68120CD2B21A439E
:102CB0007B68DA603A68074B13407A68C2F8103EC6
:102CC00000BF0C37BD465DF8047B70470FF8290044
:102CD00000FF01000F00000F80B500AF0C48FFF7A8
:102CE000AFFF034603F00403002B0FD00421084874
:102CF000FFF7B4FF2020FFF748FF202008F014FD65
:102D0000202008F0CDFE034B02221A6000BF80BDD8
:102D10000000034004B7062080B500AF0121012068
:102D2000FFF76EFF6520FFF7F9FE6520FFF72DFF27
:102D3000652008F0F9FC652008F0B2FE024B042281
:102D40001A6000BF80BD00BF04B7062080B582B006
:102D500000AF78603960114A114B1B6993620F4ACA
:102D60000F4B5B6913620F4A0D4B9B68C2F86035CD
:102D70000C4A0B4BDB68C2F864350B4A084B1B68E6
:102D8000C2F83034084A064B5B68C2F8343403F0AA
:102D9000E9FC00BF0837BD4680BD00BF0090104071
:102DA000D0B30120001002400010004080B500AFF9
:102DB000054B1B7A032B04D1044B01221A7033F00C
:102DC000FBF900BF80BD00BFE0B20120F0E30420AA
:102DD00080B582B000AF786000210120FFF710FFBE
:102DE0006520FFF79BFE6520FFF7B6FE652008F023
:102DF0009BFC652008F062FD482008F095FC482007
:102E000008F05CFD79680D486BF08EFA7B68022B48
:102E10000FD10A210A48FFF73BFF112008F084FC7C
:102E2000112008F04BFD002300220021054809F085
:102E3000C7F8002318460837BD4680BDE0120708D2
:102E4000009010400100002080B584B000AF786091
:102E5000FFF7B4FEF86001210120FFF7D1FE6520E5
:102E6000FFF75CFE6520FFF790FE652008F05CFC34
:102E7000652008F015FEF868FFF7B1FE482008F05D
:102E800053FC7B68022B18D1112008F05DFB034630
:102E9000002B02D00C4B08221A60112008F044FCD1
:102EA000112008F0FDFD002300220021002009F080
:102EB00087F800210220FFF749FF04486BF034FA3D
:102EC00000BF1037BD4680BD04B70620FC120708BE
:102ED00080B500AF104B1B68012B03D100208DF093
:102EE000A3FC16E00C4B1B68022B03D10B486BF0C4
:102EF0001BFA0EE0084B1B68042B03D108486BF04B
:102F000013FA06E0044B1B68082B02D105486BF04E
:102F10000BFA00BF80BD00BF04B7062014130708DA
:102F2000281307083C13070880B483B000AF78600B
:102F30007B684FF4C0121A607B6800225A607B687D
:102F400004229A607B684FF48072DA607B6800220A
:102F50001A6100BF0C37BD465DF8047B7047000066
:102F600080B588B000AF78602E4B1B7883F00103EA
:102F7000DBB2002B05D02C486BF0D6F94FF0FF33B5
:102F80004BE007F10C031422002118466DF090FB72
:102F90007B68012B04DD07F10C031846FFF7C4FF23
:102FA0007868FFF715FF7B68032B03D133F0FAF83D
:102FB0006BF088F97B6807F10C02114618468CF01B
:102FC0001BFF7B68032B01D1FFF710FC27F092FE5B
:102FD0000346002B09D00021022028F063F80346A5
:102FE000002B02D04FF0FF3317E07868FFF72CFF7B
:102FF0007B68012B06D10D486BF096F90C486BF0FD
:1030000093F901E0FFF764FF0A4B00221A608DF08C
:10301000FBFA044B00221A70002318462037BD46E5
:1030200080BD00BFFCE30420501307087813070895
:103030008C13070804B7062080B584B000AF786011
:1030400039600023FB607B68012B12DC19486BF0B0
:103050006BF919486BF068F918486BF065F9184876
:103060006BF062F917486BF05FF917486BF05CF989
:103070001CE03B6804331B6818466DF0ADFAF8603D
:10308000FB68002B02DDFB68042B06DD0F486BF0AC
:103090004BF90F486BF048F908E0FB68042B02D1AC
:1030A0000C486BF041F9F868FFF75AFF1037BD463E
:1030B00080BD00BFCC130708F413070800140708ED
:1030C00020140708401407084C1407086414070864
:1030D00080140708A814070880B400AF054BD3F884
:1030E0001431DBB203F00F03DBB21846BD465DF8C6
:1030F000047B70470010004580B586B006AF494B91
:103100001B68002B00F08A80474B1B78002B00F0D7
:1031100085808DF059FB0346002B7FD1FFF7DCFF44
:103120000346012B04D0FFF7D7FF0346022B17D12C
:103130004FF48063049340F21713039340F2151386
:10314000029340F21313019340F21113009340F2E3
:103150000F1340F20D120721032002F005F916E0CB
:103160004FF48063049340F2162303934FF40573E6
:10317000029340F2122301934FF40473009340F240
:103180000E234FF403720721022002F0EDF8274BC3
:10319000D3E900231046194601F0DCFEFFF798FE44
:1031A000234B00221A608DF02FFAFFF795FF03469C
:1031B000012B04D0FFF790FF0346022B17D14FF4E9
:1031C0008063049340F21713039340F215130293A4
:1031D00040F21313019340F21113009340F20F13C6
:1031E00040F20D120721032002F0F0F916E04FF42F
:1031F0008063049340F2162303934FF40573029304
:1032000040F2122301934FF40473009340F20E2313
:103210004FF403720721022002F0D8F900BFBD4627
:1032200080BD00BFECE30420E0B20120C8B3012060
:1032300004B7062080B582B000AF00237B6012E0A7
:103240007A6813465B0013449B000B4A13441846EC
:1032500032F010FF0346002B02D04FF0FF3306E0A0
:103260007B6801337B607B68002BE9D00023184624
:103270000837BD4680BD00BFB00C002080B500AF50
:10328000FFF7EAFB0346002B05D004486BF04CF82F
:103290004FF0FF3300E00123184680BD3C150708BE
:1032A000B0B586B004AF78607B681B7818467B6841
:1032B00001331B781C467B6802331B781D467B68F4
:1032C00003331B781A467B6804331B7819467B68E6
:1032D00005331B780293019100922B46224601464A
:1032E00003486BF021F800BF0837BD46B0BD00BFF2
:1032F0005015070880B584B000AF786039607B68EE
:10330000FB6007F10C03184613F0D0F90346194689
:1033100038686DF0F2FA00BF1037BD4680BD00007E
:1033200080B500AF02486AF0FFFF00BF80BD00BF5C
:1033300070150708B0B5A0B000AF03463960FB7147
:103340003B68BB67FB79222B00F23B8201A252F85B
:1033500023F000BFCB340008C3340008C135000897
:10336000C9350008C3370008D1350008FD3500080D
:10337000053600081B36000823360008C33700084E
:103380000D360008E1330008BB340008CF370008D1
:10339000CF3700082B3600087D3600084937000873
:1033A0006B370008C3370008C33700089D37000893
:1033B000C3370008CF370008CF370008CF370008E1
:1033C000CF370008CF370008CF370008CF370008C5
:1033D000CF370008CF370008CF370008CF370008B5
:1033E000AF486AF0A1FFFFF79BFF35F0EFFA78676F
:1033F0007B6F002B04D0AB486AF096FF0023EAE114
:1034000044F094FB78677B6F002B04D0A6486AF0E9
:103410008BFF0023DFE1A5486AF086FFFFF780FFFE
:1034200037F078FB78677B6F002B04D09E486AF0FA
:103430007BFF0023CFE19E486AF076FFFFF770FF25
:10344000FFF7F8FE78677B6F002B04D096486AF090
:103450006BFF0023BFE197486AF066FFFFF760FF4C
:1034600033F042FE78677B6F002B04D092486AF0FD
:103470005BFF0023AFE135F0EBF978677B6F002B42
:1034800004D08E486AF050FF0023A4E144F076FB9C
:1034900078677B6F002B04D089486AF045FF0023D2
:1034A00099E188486AF040FFFFF73AFF00210020C9
:1034B00032F088FDFFF734FF8CE183486AF034FF77
:1034C00088E182486AF030FF84E181486AF02CFF8D
:1034D00007F11C0318462EF0FFF978677B6F002B6D
:1034E00004D07C486AF020FF002374E13B6E07F1B2
:1034F0000C0211461846FFF7FDFE77482DF03AF80A
:1035000078677B6F002B04D074486AF00DFF0023AE
:1035100061E173486AF008FF724973486AF004FF7A
:103520003B6E002B05D007F10C0319466F486AF07B
:10353000FBFE0023FB6739E0FA6F13469B00134440
:103540009B0080333B44533B1B7803F01003002B5C
:1035500029D007F11C01FA6F13469B0013449B000E
:103560000B44184626F016FD044607F11C01FA6FBD
:1035700013469B0013449B000B44184614F0E0FADA
:103580000546FA6F13469B0013449B0080333B446F
:10359000533B1B78184626F0BBFC03462A462146BF
:1035A00053486AF0C1FEFB6F0133FB67FB6F022BD0
:1035B000C2DD50486AF0B8FE4F4B00221A6009E1A4
:1035C0004E486AF0B1FE05E14D486AF0ADFE01E1FA
:1035D0004C486AF0A9FE484B1B680133464A136009
:1035E000454B1B68022B40F3F48047486AF09CFE71
:1035F0002DF020F9404B00221A60EAE043486AF0BF
:1036000093FEE7E042486AF08FFEE3E041486AF04B
:103610008BFE394B00221A60DCE03F486AF084FEE2
:10362000D8E03E486AF080FED4E03D486AF07CFE77
:103630003C482DF021F878677B6F002B04D03A4886
:103640006AF072FE0023C6E0FFF76AFE3749384889
:103650006AF06AFEFFF764FE26F070FF0346184624
:1036600025F0DAF80346002B02D032486AF05CFEFF
:1036700031486AF059FEFFF753FEABE02F486AF07D
:1036800053FEFFF74DFE2E486AF04EFE3868FFF7F6
:1036900007FE2C486AF048FEFFF742FE9AE000BFA2
:1036A0009C150708B8150708E01507080416070851
:1036B00020160708481607086C1607088C16070816
:1036C000B0160708D8160708EC16070814170708DD
:1036D0004017070868170708F0B301208417070888
:1036E000A817070811B40120C8170708D81707083A
:1036F000F01707081018070870B8012014180708F9
:10370000341807085818070888180708B418070855
:10371000D4180708001907081819070834190708EA
:103720005419070830B601207019070851B6012056
:1037300090190708B4190708D4190708F8190708D9
:10374000201A07082C1A070825486AF0EDFDFFF734
:10375000E7FD24486AF0E8FD3868FFF7A1FD22483C
:103760006AF0E2FDFFF7DCFD34E0FFF7D9FD1F480A
:103770006AF0DAFD1E486AF0D7FDBB6F04331846C5
:10378000FFF78EFD1B486AF0CFFDBB6F1B68194623
:1037900019486AF0C9FDFFF7C3FD1BE017486AF03E
:1037A000C3FDFFF7BDFD164916486AF0BDFDFFF7E2
:1037B000B7FD25F077F814486AF0B6FDFFF7B0FDC5
:1037C00008E0FB79194611486AF0AEFD02E000BF3F
:1037D00000E000BF002318468037BD46B0BD00BFE3
:1037E000481A0708201A0708701A07088C1A0708D1
:1037F000B41A0708C41A0708D81A0708E01A0708F5
:1038000051B60120FC1A0708201B0708441B0708B3
:1038100080B582B000AF00237B60134B1B68134A56
:103820001268114618462BF0E9FC78607B68002B83
:1038300006D00F4B0F4A40F243110F486AF030FC9C
:103840000E482BF0FFFD78607B68002B06D0084BFC
:10385000084A40F2471108486AF022FC7B68184683
:103860000837BD4680BD00BFC0E30420ACE80808AF
:10387000681B070814D20808741B070835330008B2
:1038800080B584B000AF78600023FB6017486AF011
:103890004BFDFFF745FD32F09BFCF860FB68002B09
:1038A00006D0134B134A40F29B1113486AF0F8FB01
:1038B000FFF7E4FC11486AF037FDFFF731FDFFF731
:1038C000A7FFF860FB68002B06D0094B094A40F2BD
:1038D000B11109486AF0E4FB41F2883044F0CDF9B7
:1038E0000346184644F01FFAF6E700BFD01B07084E
:1038F000E41B070828D20808741B0708FC1B0708EC
:1039000080B584B002AF00237B6000F0B9F92C4B86
:10391000B3F1006F03D32A4BB3F1805F07D3284B79
:10392000B3F1C05F19D3264BB3F1005F15D200F09D
:10393000EBFC40F2111003F0EBF80A2003F0E8F87A
:103940004FF4807003F0E4F840F2111008F0EEFE3E
:103950004FF4807008F0EAFE01E000F03BFC00F05C
:103960006FFA1C2008F0E2FE002008F08FF900F04A
:1039700089FA08F03FFCFFF7D3FC12486AF0D4FC48
:10398000FFF7CEFC4FF4487318460F4B1B6801221B
:1039900011460E4A0192009102460D490D488CF0E5
:1039A000A3FD78607B68012B06D00B4B0B4A4FF4CC
:1039B000F1710B486AF074FB8CF03EFAFEE700BF31
:1039C000413E0008181C0708E8B30120ECB30120B1
:1039D000281C070881380008301C070834D2080862
:1039E000741B070880B586B000AFF860B9607A60D4
:1039F0003B609D4B7B613B6803F40033002B08D098
:103A00004FF040231A68BB68DB434FF0402113405E
:103A10000B603B6803F48033002B11D04FF0402340
:103A20001A6BFB68DB434FF0402113400B634FF0F0
:103A300040235A6BBB68DB434FF0402113404B637C
:103A40003B681B0B03F00F030F2B25D13B6AB3F52B
:103A5000004F06D0854B864A40F2426185486AF0A5
:103A60001FFB4FF040239B684FF0402223F0800360
:103A700093604FF04023DB684FF0402223F49F63B4
:103A800023F00503D3604FF040231B694FF0402221
:103A900023F48763136119E03B68C3F30A03002B27
:103AA00014D03B681B0B03F00F039B007A6913448F
:103AB00019683B68C3F30A03DA433B681B0B03F046
:103AC0000F039B00786903440A401A607B6A002B4D
:103AD00008D04FF040231A6A7B6ADB434FF0402145
:103AE00013400B62FB6AC3F30E03002B0AD04FF0A6
:103AF00040235A6AFB6AC3F30E03DB434FF04021B5
:103B000013404B62FB6A1B0CC3F30E03002B0BD05C
:103B10004FF040239A6AFB6A1B0CC3F30E03DB438E
:103B20004FF0402113408B627B6B002B08D04FF08D
:103B30004023DA6A7B6BDB434FF040211340CB62BA
:103B40007B6803F40033002B07D04FF040231A6842
:103B50004FF04021BB6813430B607B6803F4803354
:103B6000002B0FD04FF040231A6B4FF04021FB6821
:103B700013430B634FF040235A6B4FF04021BB6857
:103B800013434B637B68C3F30A03002B13D07B689A
:103B90001B0B03F00F039B007A69134419687B68C1
:103BA000C3F30A027B681B0B03F00F039B007869C9
:103BB00003440A431A603B6A002B07D04FF04023AE
:103BC0001A6A4FF040213B6A13430B62BB6AC3F38E
:103BD0000E03002B09D04FF040235A6ABB6AC3F38F
:103BE0000E034FF0402113434B62BB6A1B0CC3F31F
:103BF0000E03002B0AD04FF040239A6ABB6A1B0CBD
:103C0000C3F30E034FF0402113438B623B6B002B39
:103C100007D04FF04023DA6A4FF040213B6B13434B
:103C2000CB62FB6803F07C633B61134BD3F8382510
:103C30003B69D943FB680B400F491343C1F8383542
:103C40000D4BD3F83C250C49BB681343C1F83C35F8
:103C50000A4BD3F8382509493B691343C1F8383575
:103C600000BF1837BD4680BD04400040441C070813
:103C70003CD20808741C07080010004500080045E5
:103C800080B500AF00F002F800BF80BD80B586B0FF
:103C900006AF4FF010130593002304934FF0401329
:103CA0000393002302934FF04043019300230093BA
:103CB000104B4FF4485200214FF0A060FFF792FEE6
:103CC00000230593002304934FF0801303930023F4
:103CD00002934FF4803301930023009343F2ED03EA
:103CE0004FF4803200214FF00070FFF77BFE00BFE1
:103CF000BD4680BDEE31010080B586B000AF786072
:103D00000B46FB707B683F2B06D9244B244A40F2BC
:103D1000BF6124486AF0C4F97B6803F01F03FB60AD
:103D20000122FB6802FA03F3BB607B68152B02D902
:103D30007B681B2B0CD97B681F2B04D81A4B7B612B
:103D40001A4B3B6108E01A4B7B611A4B3B6103E065
:103D5000194B7B61194B3B61FB78022B07D17B69C7
:103D60001A68BB68DB431A407B691A6011E07B6903
:103D70001A68BB681A437B691A603B691A68BB689A
:103D8000DB431A40F978FB6801FA03F31A433B69F5
:103D90001A6000BF1837BD4680BD00BFC01C0708B1
:103DA00050D20808CC1C07088C100045981000451C
:103DB000901000459C1000458C080045980800456F
:103DC00080B584B000AF78600B46FB707B68032B36
:103DD00006D9174B174A40F2F26117486AF060F9AA
:103DE0004FF001127B6802FA03F3FB60FB78022BB1
:103DF00007D1124B1A6BFB68DB43104913400B636E
:103E000011E00E4B1A6BFB68DB431A4001217B6803
:103E100001FA03F31A43F9787B68103301FA03F3CC
:103E2000064913430B6300BF1037BD4680BD00BF7A
:103E3000181D070870D20808CC1C070800100045A0
:103E400080B582B000AF00237B600D4B1B683B60E8
:103E50003B46184603F098F94CF2685002F07EFF9A
:103E6000032003F0F3F978607B6801224FF4E1311D
:103E700003206AF08BF900BF0837BD4680BD00BF44
:103E8000241D070880B582B000AF00237B6007E0E7
:103E90007B6800211846FFF72FFF7B6801337B60AA
:103EA0007B68152BF4DD1C237B6007E07B68002119
:103EB0001846FFF721FF7B6801337B607B683F2B4F
:103EC000F4DD00237B6007E07B6800211846FFF7E4
:103ED00077FF7B6801337B607B68032BF4DD00BFD9
:103EE00000BF0837BD4680BD80B58CB000AF78609C
:103EF000012387F82F302B4BD3F8903003F02003A9
:103F0000002B03D0002387F82F3003E0264B02223A
:103F1000C3F8A82797F82F30002B1CD0786800F042
:103F200069FCC7E90801D7E908014FF000024FF02A
:103F300000030A0000231346FB613B6ABB61FB6977
:103F400046F63C12934203D1BB69184A934202D011
:103F5000002387F82F3097F82F30002B1CD001203A
:103F600000F06AFBC7E90401D7E904014FF0000241
:103F70004FF000030A0000231346FB603B69BB605F
:103F8000FB6843F2B942934203D1BB68084A9342AB
:103F900002D0002387F82F3097F82F30184630379B
:103FA000BD4680BD0030004000100040072E550582
:103FB000032E550580B58CB000AF3B4600221A6039
:103FC0005A609A60DA601A615A619A614E4BD3F86E
:103FD0001431DBB2FB6207F12003184607F016F834
:103FE000B862BB6A002B7AD107F11C03184607F0B0
:103FF0002FF8B862BB6A002B0DD1FB6A022B04D1EB
:10400000D7E9082313461B0C00E00023FA69114688
:10401000184608F08BF9BB6A002B06D13B461946BF
:10402000952006F0F3FE034600E0BB6ABB62BB6A64
:10403000002B07D13B4604331946962006F0E6FED6
:10404000034600E0BB6ABB62BB6A002B07D13B465C
:1040500008331946972006F0D9FE034600E0BB6AF4
:10406000BB62BB6A002B0DD1FB6A022B01D19B22E4
:1040700000E098223B460C331946104606F0C6FE77
:10408000034600E0BB6ABB62BB6A002B07D13B461C
:1040900010331946992006F0B9FE034600E0BB6ACA
:1040A000BB62BB6A002B07D13B46143319469A20EA
:1040B00006F0ACFE034600E0BB6ABB62BB6A002BA5
:1040C00006D0124B124A4FF4EC71124869F0E8FF27
:1040D000FA693B461946104808F0E0F80FE002F094
:1040E00041FB0E4B062283F85A200D4B0D4A5A64B1
:1040F0000D4B1B6819464FF4167003F00FFD00BFFF
:104100003037BD4680BD00BF00100045481D070880
:1041100090D20808641D0708E93E00080020004509
:104120000010034054602260C40C002080B500AF32
:1041300006F02CFEFFF73EFF06F042FE144BB3F1F3
:10414000006F03D3124BB3F1805F07D3104BB3F171
:10415000C05F09D30E4BB3F1005F05D204220621E4
:104160000C488BF0C9FF10E0102008F057FA0948FE
:104170008BF06AFE47F2206002F0F0FD102002F0A2
:104180005BFD102008F0C8F900BF00BF80BD00BF74
:10419000413E00080040134080B500AF0B4BB3F127
:1041A000006F03D3094BB3F1805F07D3074BB3F123
:1041B000C05F08D3054BB3F1005F04D20222022195
:1041C00003488BF099FF00BF80BD00BF413E00084F
:1041D0000040134080B500AF00F002F800BF80BD82
:1041E00080B500AF8BF020FF3A4B9B6A03F00203CF
:1041F000002B02D1384802F08BFC384BD3F89030BA
:1042000003F40073002B02D0354802F081FC01203A
:1042100003F0B2F9334802F07BFC334802F078FC3B
:10422000FFF784FF314802F099FD01214FF48060CF
:1042300002F00EFE02212E4803F0F4F84FF4803015
:1042400002F066FC012003F03FF92A4802F060FC0E
:1042500001214FF4127002F0FBFD274803F0D8FB58
:10426000012148F2402002F0F3FD01214FF480606B
:1042700002F0EEFD01214FF4107002F0E9FD42F270
:10428000344002F06BFD012140F2647002F0E0FD69
:104290004FF4EC6002F062FD0D2148F2FC6002F088
:1042A000D7FDFFF779FF422002F058FD134BD3F8FA
:1042B000283423F47C33114A43F47833C2F8283489
:1042C000642148F2687002F0C3FD0D4B0D4A1A607C
:1042D00000BF80BD001003402000010000300040FE
:1042E000090001000400010005000100300434044D
:1042F000006CF7B903000100A0D2080800100045C7
:10430000C40C002000497F0F80B500AF8BF08CFEFD
:10431000092002F091FC40F2012002F08DFC4FF4E4
:10432000427002F089FC40F20A3002F085FC40F253
:104330000B3002F081FC4FF4826002F07DFC40F211
:10434000032002F079FC092008F0E6F840F2012091
:1043500008F0E2F84FF4427008F0DEF840F20A305C
:1043600008F0DAF840F20B3008F0D6F84FF482602B
:1043700008F0D2F82B4B9B6A03F00203002B02D10A
:10438000294802F0C5FB294BD3F8903003F40073A1
:10439000002B02D0264802F0BBFB012003F0ECF812
:1043A000244802F0B5FBFFF7C1FE234802F0D6FC1B
:1043B00001214FF4806002F04BFD02211F4803F001
:1043C00031F84FF4803002F0A3FB01214FF412705A
:1043D00002F03EFD01214FF4806002F039FD012121
:1043E0004FF4107002F034FD42F2344002F0B6FC9B
:1043F000012140F2647002F02BFD4FF4EC6002F0FA
:10440000ADFC0D2148F2FC6002F022FDFFF7C4FE76
:1044100003F092F803F048FB094B0A4A1A6000BF08
:1044200080BD00BF001003402000010000300040AC
:10443000090001000500010030043404006CF7B9E4
:10444000C40C002000497F0F80B485B000AFF86035
:10445000B9607A60FA68BB681A407B6822FA03F395
:1044600018461437BD465DF8047B704780B400AF32
:10447000064B1B6803F00103002B14BF012300232C
:10448000DBB21846BD465DF8047B70470070004003
:104490002DE9B04F8AB000AF786145F252033B621C
:1044A0005B4B7B625B4B1B68022204211846FFF7C3
:1044B000CBFF0346012B5ED1564BDB6C042210214F
:1044C0001846FFF7C1FF0346012B02D1524B7B6216
:1044D00053E0504BDB6C032208211846FFF7B4FF72
:1044E0000346012B02D14D4B7B6246E0494BDB6C0E
:1044F000012202211846FFF7A7FF0346012B02D134
:10450000474B7B6239E0434BDB6C022204211846A7
:10451000FFF79AFF0346012B02D1424B7B622CE04E
:104520003C4BDB6C002201211846FFF78DFF034650
:10453000012B02D13C4B7B621FE0364BDB6C05222A
:1045400020211846FFF780FF0346012B02D1374B8D
:104550007B6212E02F4BDB6C08224FF4807118460F
:10456000FFF772FF0346012B02D1314B7B6204E05F
:10457000274B7B6201E02F4B7B627B69012B27D1AC
:1045800000F09AF8C7E90601D7E906014FF00002EA
:104590004FF000030A0000233B6A13443B623B6A6E
:1045A000A3F59A430B3B3B627B6A00229A469346F3
:1045B0003B6A0022BB60FA604FF000024FF000033C
:1045C000B9680B0000224AEA02044BEA030517E02F
:1045D0003B6A03F5105304333B627B6A0022984622
:1045E00091463B6A00223B607A604FF000024FF038
:1045F000000339680B00002248EA020449EA030577
:1046000022462B46104619462837BD46BDE8B08FD6
:10461000F0F05505007000403053550570535505B6
:1046200038535505345355053C53550574535505BA
:1046300078535505032E55052DE9B04F88B000AFCE
:1046400078601C4BFB6100BFFFF710FF0346002B97
:10465000FAD17868FFF71CFFC7E90401D7E9040124
:104660004FF000024FF000030A000023FB691344DF
:10467000FB613B69FB60FB6903F512532133FB616E
:10468000FB6800221C461546FB6900229A469346A9
:104690004FF000024FF000035346002244EA0208A4
:1046A00045EA030942464B46104619462037BD46A7
:1046B000BDE8B08FC29BFFFF2DE9B04382B000AFD1
:1046C00045F20A037B6001233B60174A3B68136590
:1046D00000BF154B1B68022204211846FFF7B4FEE9
:1046E0000346002BF5D17B6803F5045305337B604B
:1046F0007B680022984691464FF000024FF000037D
:104700004346002242F0AA6444F4A52444F4C06461
:1047100044F003041D4622462B461046194608372E
:10472000BD46BDE8B08300BF0070004080B584B0D6
:1047300000AF7860092007F0F9FF092002F0E8F9DE
:104740000023FB600AE0FB689B0003F1A04303F534
:10475000AD1300221A60FB680133FB60FB68B3F500
:10476000006FF0D3002318461037BD4680BD00000F
:1047700080B483B000AF7860044A7B68136200BFE6
:104780000C37BD465DF8047B704700BF00700040E9
:1047900080B487B000AFF860B9607A60FB68DB0076
:1047A000DAB27B681B0203F48073134343F0030304
:1047B0007B61064ABB689360044A7B69536000BF13
:1047C0001C37BD465DF8047B704700BF0070004099
:1047D00080B400AF064B1B6803F00103002B14BF2D
:1047E00001230023DBB21846BD465DF8047B704709
:1047F000007000402DE9B04F84B000AF786044F6FF
:104800001803FB60FFF7E4FF0346002B16D0FB689C
:1048100003F504532433FB60FB6800229A46934659
:104820004FF000024FF000035346002242F0AA640A
:1048300044F4AA2444F46C741D461FE07868FFF722
:1048400097FF012200211E20FFF7A2FFFB6803F55E
:1048500004532433FB60FB680022984691464FF0D6
:1048600000024FF000034346002242F0AA6444F4E1
:10487000A52444F4C06444F007041D4622462B4698
:10488000104619461037BD46BDE8B08F80B483B0DE
:1048900000AFEFF310833B603B687B6072B600BFF4
:1048A0007B6818460C37BD465DF8047B704780B4C2
:1048B00085B000AF78607B68FB60FB6883F310888D
:1048C00000BF00BF1437BD465DF8047B704780B45D
:1048D00085B000AF786039600023FB817B68DB68BE
:1048E000002B08D07B68DA687B689B689A4202D10B
:1048F00043F27A73FB81FB8918461437BD465DF895
:10490000047B704780B483B000AF786039607B6807
:1049100000221A607B6800225A607B683A68DA607D
:104920007B6800229A6000BF0C37BD465DF8047BAF
:10493000704780B584B000AF78603960FFF7A6FF9C
:10494000F86000237B8139687868FFF7C0FF034671
:104950007B817B89002B19D17B689B68002B03D15D
:104960007B683A681A6003E07B685B683A681A60A3
:104970003B687A685A603B6800221A607B683A6834
:104980005A607B689B685A1C7B689A60F868FFF7DE
:104990008EFF7B8918461037BD4680BD80B586B036
:1049A00000AF78600023FB82FFF770FFB8607B6880
:1049B0005B68002B03D143F27C73FB8234E07B689D
:1049C0005B681B683B610023FB601AE07B685B68E7
:1049D0001B687A689A4205D17B685B683A691268FD
:1049E0001A6011E03B691B687A689A4206D13B69FC
:1049F000FB607B681A683B691A6005E03B691B68CD
:104A00003B613B69002BE1D17B681B68002B03D124
:104A10007B685B68FA685A607B685B689A68013AF1
:104A20009A607B6800225A60B868FFF740FFFB8AF3
:104A300018461837BD4680BD80B483B000AF78609B
:104A40007B689B6818460C37BD465DF8047B704751
:104A500080B483B000AFEFF310833B603B687B60B2
:104A600072B600BF7B6818460C37BD465DF8047B04
:104A7000704780B485B000AF78607B68FB60FB68EE
:104A800083F3108800BF00BF1437BD465DF8047B78
:104A900070470000B0B588B000AFC7E9000100233F
:104AA000FB77FF23BB7700237B770023BB610023C9
:104AB0003B77404B1B685B687B613E4B1B685B68C8
:104AC00093F83C30FB74FB7CFB776BE0FA7F13467A
:104AD0005B0013449B000C3B7A691344BB610023C9
:104AE0003B77D7E90023134302D101233B770CE046
:104AF000BB691B6800221C461546D7E90023944277
:104B000075EB030301D201233B773B7F002B2ED0B3
:104B100000237B7728E0274B1A687B7F02339B00BA
:104B200013445A687B7FB9699B000B445B68134050
:104B3000002B13D17A7FBB69023253F822101D4B30
:104B40001A687B7F02339B0013445A687B7F0A40BC
:104B50009B0020333B4443F8142C02E000233B77B6
:104B600005E07B7F01337B777B7F002BD3D03B7FBE
:104B7000002B14D0FB7F013B0E4A126892F84420B0
:104B800093420CD80B4B1B68103307F10C01042225
:104B900018468BF0D1FBFB7F013BBB7705E0FB7F29
:104BA000013BFB77FB7F002B90D1BB7F1846203762
:104BB000BD46B0BD90B8012080B586B000AF0346B9
:104BC000FB7100233B610023FB600023FB7537E092
:104BD000244B1B68FA7D83F87C20224B1A68FB7DEE
:104BE0001B014833134404331846FFF725FF0346DF
:104BF000002B22D01B4B1A68FB7D1B0113444C3346
:104C00001B683B613B699B68BB603B69DA68F9796B
:104C1000BB6800209847F860FB68002B07D0114B59
:104C20001B683A69C3F8802043F6216316E03B69AC
:104C30001B683B613B69002BE4D1FB7D0133FB75B5
:104C4000FB7D022BC4D9074B1B68022283F87C2012
:104C5000044B1B680022C3F8802000231846183735
:104C6000BD4680BD90B8012080B584B000AF03463A
:104C7000FB710023BB60254B1B68D3F88030002BF1
:104C800005D0224B1B6893F87C30FB7335E0022380
:104C9000FB7332E01D4B1A6897F90F301B01483344
:104CA000134404331846FFF7C7FE0346002B1ED0FB
:104CB000164B1A6897F90F301B0113444C331B68CD
:104CC000BB60BB689B68BA68D268F97901209847D5
:104CD0000E4B1B68D3F88030BA689A4206D0BB6886
:104CE0001B68BB60BB68002BEBD100E000BF97F9ED
:104CF0000F30DBB2013BDBB2FB7397F90F30002BB7
:104D0000C8DA002318461037BD4680BD90B8012090
:104D100080B483B000AF0423FB710023BB710DE0AE
:104D20000D4B1A68BB79134493F84530002B02D021
:104D3000BB79FB7105E0BB790133BB71BB79042BF7
:104D4000EED9054B1B68FA7983F8442000BF0C3775
:104D5000BD465DF8047B704790B8012080B500AF78
:104D6000FFF776FE0346024A136000BF80BD00BF16
:104D700094B8012080B500AF034B1B681846FFF7BD
:104D800078FE00BF80BD00BF94B8012080B582B01E
:104D900000AF78607B68002B05D1314B314AE321AD
:104DA000314869F07DF9C022002178686BF080FC01
:104DB0007B6800221A707B6801225A707B682B4A3C
:104DC0005A607B680022C3F884207B680022C3F805
:104DD00088207B680022C3F890207B680022C3F8FB
:104DE0008C207B68224AC3F8B8207B68214AC3F82C
:104DF000BC207B684C3300211846FFF783FD7B689D
:104E00005C3300211846FFF77DFD7B686C33002181
:104E10001846FFF777FD7B68A83300211846FFF797
:104E200071FD154A7B681360134B1B685B681B6C34
:104E3000002B04D0104B1B685B681B6C98470E4B13
:104E40001B685B689B6C002B04D00B4B1B685B687A
:104E50009B6C9847FFF75CFF00BF0837BD4680BDDD
:104E6000941E07084CD30808A41E070814D4080889
:104E70005D4D0008754D000890B8012080B582B0E6
:104E800000AF0346FB712E4B1B68002B06D12D4B48
:104E90002D4A40F21D112D4869F002F9284B1B687C
:104EA000D3F8B830002B04D0254B1B68D3F8B830AA
:104EB0009847FB79002B20D0214B1B6893F90130D8
:104EC000002B06DC224B204A4FF493711F4869F0F7
:104ED000E7F81B4B1B6893F90120D2B2013AD2B21A
:104EE00052B25A70164B1B6893F90130002B17D140
:104EF000134B1B6801221A7012E0114B1B6893F9C7
:104F00000120D2B20132D2B252B25A700C4B1B689D
:104F100093F90130002B03DD094B1B6800221A7046
:104F2000074B1B68D3F8BC30002B04D0044B1B6824
:104F3000D3F8BC30984700BF0837BD4680BD00BFDE
:104F400090B80120FC1E07085CD30808A41E0708BF
:104F5000101F07082DE9F04385B000AFC7E9000135
:104F60000023FB60434B1B681B78002B7DD0D7E9E7
:104F70000001FFF78FFD0346FB72FB7AFF2B74D015
:104F80003C4B1B68FA7A1A72FB7A1846FFF714FE3C
:104F9000F860FB68002B59D1364B1B68D3F88C3076
:104FA000002B0AD0334B1B68D3F88C30314A16687B
:104FB000984702460B46C6E926232E4B1B68D3F8BA
:104FC0008430002B19D02B4B1B68D3F88460294BFD
:104FD0001B685968FA7A13465B0013449B000B4424
:104FE0001B6800221C461546D7E90023B2EB0408D3
:104FF00063EB050940464946B0471E4B1B685B689A
:105000005B6C1C4A126802F110011A4A12683432B1
:10501000F87A9847174B1B68D3F88830002B04D0D8
:10502000144B1B68D3F888309847124B1B68D3F891
:105030008C30002B0AD00F4B1B68D3F88C300D4AF4
:105040001468984702460B46C4E92823FB7A1846A1
:10505000FFF70AFE074B1B685B689B6C002B04D0B4
:10506000044B1B685B689B6C984700BF1437BD46B8
:10507000BDE8F08390B8012080B584B000AFF8603F
:10508000B9607A603B60FB68002B06D1184B194A67
:105090004FF4D471184869F003F8184B1B68D3F823
:1050A000B830002B04D0154B1B68D3F8B8309847A4
:1050B000FB68BA68C3F88420FB687A68C3F8882064
:1050C000FB68BA69C3F89020FB683A68C3F88C2083
:1050D0000A4B1B68D3F8BC30002B04D0074B1B686D
:1050E000D3F8BC30984700BF1037BD4680BD00BF25
:1050F000941E070874D30808A41E070890B801205E
:1051000080B584B000AF03463960FB713B68002B6B
:1051100006D10F4B0F4A40F2D7110F4868F0C0FF7D
:105120000023FB600D4B1A68FB791B0148331344C5
:1051300004333A6811461846FFF7FBFB0346002B81
:1051400001D00123FB60FB6818461037BD4680BDC7
:10515000301F070890D30808A41E070890B8012044
:1051600080B584B000AFF860B9607A60FB70FB680E
:10517000002B06D1224B234A40F22221224868F01C
:105180008FFF224B1B68D3F8B830002B04D01F4B85
:105190001B68D3F8B8309847FB68BA689A60FB6818
:1051A0007A68DA60FA68137CF97861F300031374A3
:1051B000FA68137C6FF341031374FB78002B07D05C
:1051C000124B1B68A833FA6811461846FFF7B1FB6B
:1051D0000E4B1B685B68DB6CFA781146F8689847E1
:1051E0000A4B1B68D3F8BC30002B04D0074B1B685C
:1051F000D3F8BC30984700BF1037BD4680BD00BF14
:10520000481F0708A4D30808A41E070890B8012067
:1052100080B584B000AF78607B68002B06D1254B49
:10522000254A40F24321254868F03AFF0023FB60FD
:10523000234B1B68D3F8B830002B04D0204B1B68DD
:10524000D3F8B83098477B681B7CC3F30003DBB20C
:1052500083F00103DBB2002B1BD0194B1B68A83372
:105260007A6811461846FFF764FB154B1B685B68AC
:10527000DB6C012178689847F860FB68002B05D14A
:105280007A68137C43F00103137402E043F61D6354
:10529000FB600B4B1B68D3F8BC30002B04D0084BD1
:1052A0001B68D3F8BC309847FB6818461037BD46DA
:1052B00080BD00BF481F0708B8D30808A41E070810
:1052C00090B8012080B584B000AF78607B68002B77
:1052D00006D1214B214A40F27121214868F0E0FEBD
:1052E0000023FB601F4B1B68D3F8B830002B04D0A1
:1052F0001C4B1B68D3F8B83098477B681B7C03F0C5
:105300000103DBB2002B17D07B681846FFF746FB82
:10531000144B1B685B68DB6C002178689847F86069
:10532000FB68002B05D17A68137C6FF300031374BC
:1053300002E043F61E63FB600A4B1B68D3F8BC30E7
:10534000002B04D0074B1B68D3F8BC309847FB6890
:1053500018461037BD4680BD481F0708D0D308083F
:10536000A41E070890B801200EB480B589B000AF24
:105370000346FB710023FB618C4B1B68D3F8B830EC
:10538000002B04D0894B1B68D3F8B8309847FB79C1
:10539000FF2B13D0FB79042B02D90123FB610DE015
:1053A000824B1A68FB79D11891F845100131C9B2C6
:1053B00013440A4683F84520FFF7AAFCFB6A002B3A
:1053C00000F0E08007F13003BB600023BB61D4E054
:1053D000BB681A1DBA601B687B617B691B0A3B6155
:1053E0007B69DBB2FB60FB681F2B06D9704B714AEF
:1053F00040F22631704868F053FE3B69002B00F004
:10540000B9803B69042B09D03B69042B7ED83B69EA
:10541000012B53D03B69022B28D077E0634B1A68ED
:10542000FB68134410331B79C3F38113DBB2032BE6
:1054300006D1624B5F4A40F22E315F4868F030FE81
:105440005A4B1B68FA681A4410321279C2F381125F
:10545000D2B2013202F00302D1B2FA68134403F16E
:105460001002137961F38713137156E04F4B1A68DA
:10547000FB68134410331B79C3F3C203DBB2072B61
:1054800006D14F4B4B4A40F235314B4868F008FE8D
:10549000464B1B68FA681A4410321279C2F3C202F2
:1054A000D2B2013202F00702D1B2FA68134403F11A
:1054B0001002137961F3C50313712EE03B4B1A6898
:1054C000FB68134410331B79C3F30203DBB2072BD1
:1054D00006D13C4B374A4FF44F71374868F0E0FD36
:1054E000324B1B68FA681A4410321279C2F3020276
:1054F000D2B2013202F00702D1B2FA68134403F1CA
:105500001002137961F30203137106E02E4B294A4E
:1055100040F24331284868F0C3FD244B1968FB680A
:10552000DA0802F10C039B000B445968FB6803F096
:1055300007039B00386900FA03F31C48006819430D
:1055400002F10C039B0003445960184B1968FB6877
:105550005A09931C9B000B445968FB6803F01F0316
:10556000012000FA03F3114800681943931C9B00C3
:1055700003445960BB690133BB61BA69FB6A9A4253
:10558000FFF626AF094B1B68D3F8BC30002B04D0C4
:10559000064B1B68D3F8BC309847FB691846243784
:1055A000BD46BDE8804003B0704700BF90B8012001
:1055B000781F0708E8D30808A41E0708A41F0708D7
:1055C0001020070884200708F82007080EB480B5CB
:1055D0008DB000AF0346FB710023FB62814B1B685B
:1055E000D3F8B830002B04D07E4B1B68D3F8B8300A
:1055F0009847FB79FF2B1BD0FB79042B02D90123A1
:10560000FB6215E0774B1A68FB79134493F8453039
:10561000002B0BD0734B1A68FB79D11891F8451009
:105620000139C9B213440A4683F84520FFF770FBDD
:10563000FB6B002B00F0278107F14003FB60002388
:10564000BB621BE1FB681A1DFA601B683B623B6A88
:105650001B0AFB613B6ADBB2BB61624B1A68BB6928
:10566000DB080C339B0013445B687B61BB6903F070
:1056700007039B00FA6902FA03F33B617A693B690D
:105680001340002B00F0F780002387F82730FB69D8
:10569000042B0AD0FB69042B00F29D80FB69012BCF
:1056A00067D0FB69022B32D095E04E4B1A68BB697C
:1056B000134410331B79C3F38113DBB2002B06D1E3
:1056C000494B4A4A40F29F31494868F0E9FC454B52
:1056D0001B68BA691A4410321279C2F38112D2B22D
:1056E000033202F00302D1B2BA69134403F110028B
:1056F000137961F3871313713A4B1A68BB6913442A
:1057000014331B7823F03F0387F8273078E0354BBC
:105710001A68BB69134410331B79C3F3C203DBB2AD
:10572000002B06D1334B314A40F2A631304868F0A5
:10573000B7FC2C4B1B68BA691A4410321279C2F3B9
:10574000C202D2B2073202F00702D1B2BA691344E0
:1057500003F11002137961F3C5031371214B1A6829
:10576000BB69134414331B7803F0380387F82730E0
:1057700046E01C4B1A68BB69134410331B79C3F312
:105780000203DBB2002B06D11B4B184A40F2AE31AC
:10579000174868F085FC134B1B68BA691A4410322D
:1057A0001279C2F30202D2B2073202F00702D1B27A
:1057B000BA69134403F11002137961F30203137100
:1057C000084B1A68BB69134414331B7803F00703B2
:1057D00087F8273014E0094B044A40F2B6310448F8
:1057E00068F05EFC90B8012000210708FCD308088F
:1057F000A41E07084821070894210708F820070875
:1058000097F82730002B36D1284B1968BB69DA0886
:1058100002F10C039B000B445968BB6903F00703BA
:105820009B00F86900FA03F3DB4320480068194045
:1058300002F10C039B00034459601C4B1A68BB69BE
:10584000134414331B78002B15D1184B1968BB690E
:105850005A09931C9B000B445968BB6903F01F0352
:10586000012000FA03F3DB43104800681940931C41
:105870009B0003445960BB6A0133BB62BA6AFB6B8D
:105880009A42FFF6DFAE094B1B68D3F8BC30002B01
:1058900004D0064B1B68D3F8BC309847FB6A184607
:1058A0003437BD46BDE8804003B0704790B8012052
:1058B00080B483B000AF0346FB80B7F90630002BFD
:1058C0000BDBFB8803F01F020749B7F906305B09C1
:1058D000012000FA02F241F8232000BF0C37BD4638
:1058E0005DF8047B704700BF00E100E080B483B046
:1058F00000AF0346FB80B7F90630002B12DBFB88B4
:1059000003F01F020A49B7F906305B09012000FACB
:1059100002F2203341F82320BFF34F8F00BFBFF3C3
:105920006F8F00BF00BF0C37BD465DF8047B70472A
:1059300000E100E080B483B000AF0346FB80B7F91C
:105940000630002B0CDBFB8803F01F020749B7F978
:1059500006305B09012000FA02F2603341F823208F
:1059600000BF0C37BD465DF8047B704700E100E0E6
:1059700080B584B000AF0346FB800023FB60B7F91D
:10598000063013F1800F02D10123FB6004E0B7F968
:1059900006301846FFF78CFFFB6818461037BD46E7
:1059A00080BD80B584B000AF0346FB800023FB6060
:1059B000B7F9063013F1800F02D10123FB6004E038
:1059C000B7F906301846FFF791FFFB681846103705
:1059D000BD4680BD80B483B000AF03460A46FB716C
:1059E0001346BB710A4B5A69FB79012101FA03F393
:1059F000DB431A40B979FB7901FA03F304491343F5
:105A00004B6100BF0C37BD465DF8047B704700BF9B
:105A10000010034080B588B000AFF860B9607A60CC
:105A2000FB681B6803F00103BB61BB681B6803F0E4
:105A30000F037B61BB69002B04D07B6903F0040377
:105A4000002B01D1012300E0002303F00103DBB2AE
:105A5000184606F01BF90423FB612FE0FB681A6867
:105A6000FB6922FA03F303F00103BB61FB69002B1E
:105A700000DA0733DB101A46BB6853F82220FB69B3
:105A800003F007039B0022FA03F303F00F037B618B
:105A9000BB69012B0FD17B6903F00403002B0AD0F3
:105AA0007B681A68FB69C3F12003012101FA03F343
:105AB0001A437B681A60FB690133FB61FB690B2B9E
:105AC000CCDD0C23FB6131E0FB681A68FB6922FA2C
:105AD00003F303F00103BB61FB69002B00DA07331A
:105AE000DB101A46BB6853F82220FB6903F007035A
:105AF0009B0022FA03F303F00F037B61BB69012BC8
:105B000011D17B6903F00403002B0CD07B681A6869
:105B1000FB69D90F0B445B10063B734951F82330E6
:105B20001A437B681A60FB690233FB61FB691A2B1D
:105B3000CADDFB681B681B0F03F00103BB61BB6878
:105B4000DB681B0C03F00F037B61BB69012B0AD1DF
:105B50007B6903F00403002B05D07B685B6843F08E
:105B60000C027B685A60FB681B685B0F03F0010343
:105B7000BB61BB68DB681B0D03F00F037B61BB6976
:105B8000012B0AD17B6903F00403002B05D07B684D
:105B90005B6843F00A027B685A60FB681B689B08DD
:105BA00003F00103BB61BB681B681B0A03F00F0312
:105BB0007B617B6804229A60BB69012B0AD17B69F7
:105BC00003F00403002B05D07B689B6823F00402DC
:105BD0007B689A607B6840F23F12DA600D23FB61BC
:105BE00030E0FB681A68FB6922FA03F303F0010353
:105BF000BB61FB69002B00DA0733DB101A46BB6878
:105C000053F82220FB6903F007039B0022FA03F3F9
:105C100003F00F037B61BB69012B10D17B6903F09B
:105C20000103002B0BD07B68DA68FB690D3B5B0836
:105C3000012101FA03F3DB431A407B68DA60FB6958
:105C40000233FB61FB69172BCBDDFB681B68DB0EA6
:105C500003F00103BB61BB68DB681B0B03F00F03A0
:105C60007B61BB69012B0AD17B6903F00103002B27
:105C700005D07B68DB6823F480727B68DA60FB68A0
:105C80001B689B0F03F00103BB61BB68DB681B0E45
:105C900003F00F037B61BB69012B0AD17B6903F021
:105CA0000403002B05D07B681B6943F080027B68EE
:105CB0001A61FB681B68DB0FBB61BB68DB681B0FED
:105CC0007B61BB69012B0AD17B6903F00403002BC4
:105CD00005D07B681B6943F040027B681A6100BFF6
:105CE0002037BD4680BD00BF68D4080880B58AB0A3
:105CF00000AF0346B9607A60FB7307F1140300221A
:105D00001A605A609A60DA601A61BB68002B05D18C
:105D1000164B174AE521174868F0C2F97B68002B3B
:105D200005D1154B124AE621124868F0B9F9FB7B00
:105D3000002B16D0012B05D1FB7B18468AF084F985
:105D400030BF0FE007F114031A467968B868FFF70F
:105D500061FEFB7B07F11402114618468AF04CF8ED
:105D600000E000BF00BF2837BD4680BDE021070826
:105D700088D40808F82107085822070880B400AF23
:105D800000BFBD465DF8047B704780B582B000AFB0
:105D900003463960FB80B7F90630642B0DD13B68B0
:105DA000002B14BF01230023DBB219460020FFF7AC
:105DB00011FE6420FFF7BEFD10E0B7F90630652B39
:105DC0000CD13B68002B14BF01230023DBB2194622
:105DD0000120FFF7FFFD6520FFF7ACFDB7F90630A6
:105DE0001846FFF7C5FDB7F90630184605F09CFCCC
:105DF000B7F90630184605F061FD00BF0837BD460B
:105E000080BD80B582B000AF03463960FB80B7F932
:105E10000630642B0DD13B68002B0CBF01230023FF
:105E2000DBB219460020FFF7D5FD6420FFF782FDA5
:105E300010E0B7F90630652B0CD13B68002B0CBF86
:105E400001230023DBB219460120FFF7C3FD6520C3
:105E5000FFF770FDB7F906301846FFF7A2FDB7F956
:105E60000630184605F060FCB7F90630184605F014
:105E700017FE00BF0837BD4680BD000080B584B066
:105E800000AF78600B46FB707B68002B06D1124B8D
:105E9000124A40F22D11124868F002F97B689B68A3
:105EA000DBB2FB607B689B681B0ADBB2BB60FB78E4
:105EB000002B06D0FB681BB2B9681846FFF765FFD8
:105EC00005E0FB681BB2B9681846FFF79AFF00238C
:105ED00018461037BD4680BD70220708A0D40808B8
:105EE000F821070880B483B000AFEFF310833B6064
:105EF0003B687B6072B600BF7B6818460C37BD46B6
:105F00005DF8047B704780B485B000AF78607B6833
:105F1000FB60FB6883F3108800BF00BF1437BD46E9
:105F20005DF8047B704780B586B000AFF860B9605B
:105F30007A603B6043F22153FB82FB681B78012BA4
:105F400008D1FB680C333A687968184600F068F9A4
:105F50000346FB82FB8A18461837BD4680BD80B5D4
:105F600086B000AFF860B9607A60FB68002BFCD0A7
:105F7000BB68002BFCD07B68002BFCD0FB687B61EE
:105F80007B691B683B613B69002BFCD07B68BA686E
:105F900079693869FFF7C7FF034618461837BD46C9
:105FA00080BD80B584B000AF7860396043F2215382
:105FB000FB813B68002BFCD07B68002BFCD000BF32
:105FC0007B68BB6014220021B8686AF071FB3B68F3
:105FD0001A78BB681A703B681B78012B0BD1BB6821
:105FE00003F10C023B685B681946104600F0E7F8C5
:105FF0000346FB8100E000BFFB8918461037BD4611
:1060000080BD80B584B000AF78600023FB817B68E1
:10601000002BFCD07B68BB60BB685B68002B03D1A6
:10602000BB689B68002B03D043F22253FB810AE03C
:10603000BB681B78012B05D1BB680C33184600F0F8
:10604000DDF800E000BFFB8918461037BD4680BD73
:1060500080B586B000AF786039607B68002BFCD0DB
:106060003B68002BFCD000BF7B687B613B683B61D9
:10607000FFF738FFF8607B699B685A1C7B699A6060
:10608000F868FFF740FF0422002138686AF010FB2F
:106090003B697A691A60002318461837BD4680BDEF
:1060A00080B586B000AF78607B68002BFCD07B6841
:1060B0007B617B691B683B613B69002BFCD0FFF770
:1060C00011FFF8603B699B68002B04D03B699B681B
:1060D0005A1E3B699A60F868FFF715FF04220021F9
:1060E00078686AF0E5FA002318461837BD4680BD87
:1060F00080B586B000AF786039600023FB827B6892
:10610000002BFCD03B68002BFCD000BF7B683B61C0
:106110003B68FB60FFF7E6FEB8603B695B68002BFD
:1061200003D043F22253FB820AE03B69FA685A60CB
:106130000422002138686AF0BBFAFB683A691A60E9
:10614000B868FFF7E0FEFB8A18461837BD4680BDE9
:1061500080B586B000AF78607B68002BFCD07B6890
:106160007B617B691B683B613B69002BFCD03B6911
:106170005B687A699A42F7D1FFF7B4FEF8603B6931
:1061800000225A60F868FFF7BEFE042200217868FA
:106190006AF08EFA002318461837BD4680BD80B5D8
:1061A00084B000AFF860B9607A607A68B968F8685E
:1061B000FFF7D5FE034618461037BD4680BD80B5B3
:1061C00084B000AF786039600023FB813B68002B0E
:1061D000FCD07B68002BFCD000BF7B68BB60BB6839
:1061E0003968184600F0E6F80346FB81FB89002B6E
:1061F000FCD1FB8918461037BD4680BD80B584B000
:1062000000AF78607B68002BFCD07B68FB60FB688C
:10621000184600F0EBF8002318461037BD4680BD45
:1062200080B586B000AFF860B9607A60FB68002B7B
:10623000FCD0BB68002BFCD07B68002BFCD0FB683B
:106240007B617B697A68B968184600F0F5F8034607
:1062500018461837BD4680BD80B483B000AF786063
:106260007B68002B01D1002301E042F6AF73184692
:106270000C37BD465DF8047B7047000080B588B0E0
:1062800000AF786039607B68002B06D1424B434AEF
:106290004FF48C71424867F003FF3B68002B06D136
:1062A000404B3E4A40F219113D4867F0F9FE3B6809
:1062B0009B7B042B06D93C4B384A4FF48D713848F0
:1062C00067F0EEFE3B689B7B1A46384B53F8223052
:1062D000002B06D1364B314A40F21B11304867F093
:1062E000DFFE07F10803184603F06EFC3B685B68AD
:1062F000BB603B681B7B002B03D13B685B7B002BA7
:1063000001D001233B753B681B7A022B02D102238B
:106310003B7308E03B681B7A032B02D103233B73DA
:1063200001E000233B733B685B7A012B02D1012320
:106330007B7301E000237B733B689B7A002B14BFC7
:1063400001230023DBB23B743B68DB7A002B14BFD4
:1063500001230023DBB27B7400237B750023BB7514
:106360003B689B7B1A46114B53F822003B681A6826
:1063700007F10803194603F007FBF861FB69002BDE
:1063800004D0F869FFF768FF034600E000231846D1
:106390002037BD4680BD00BF7C220708D0D4080846
:1063A00084220708D4220708DC220708BCD4080886
:1063B0002423070880B584B000AF7860396039685D
:1063C0007868FFF75BFF0346FB81FB89002B01D058
:1063D000FB8906E07B68BB603B689A7BBB681A70F0
:1063E000002318461037BD4680BD000080B584B03C
:1063F00000AF78607B68002B06D10B4B0B4A4FF443
:10640000BA710B4867F04CFE7B68FB60FB681B7839
:106410001A46084B53F82230184603F0A3FB00231A
:1064200018461037BD4680BD7C220708E4D4080812
:1064300084220708BCD4080880B586B000AFF86095
:10644000B9607A60FB68002B06D1164B164A4FF4F0
:10645000CB71164867F024FEBB68002B06D1144BA5
:10646000114A40F29711114867F01AFE7B68002B21
:1064700006D1104B0C4A4FF4CC710C4867F010FE5B
:10648000FB687B617B691B781A460B4B53F8223003
:106490007A68B968184603F0ADFC0023184618372F
:1064A000BD4680BD7C220708F4D408088422070872
:1064B0004C23070854230708BCD4080880B500AF54
:1064C0002B4BD3F888302A4A43F47003C2F8883043
:1064D000274BD3F88830264A43F00F03C2F88830A0
:1064E000234BD3F88C30224A43F4406343F0030338
:1064F000C2F88C301F4BB3F1006F03D31D4BB3F1C7
:10650000805F07D31B4BB3F1C05F2DD3194BB3F1A1
:10651000005F29D2184BDB69002B25D1164B4FF0B9
:10652000A062C3F80028144BD3F80038124A43F095
:106530000043C2F8003800BF0F4BD3F80038002BDF
:10654000FADB0D4B0322C3F800280B4B0B4A5A61B0
:10655000094B00229A61084B0122DA61BFF36F8F69
:1065600000BFBFF34F8F00BF00F05EF900BF80BDDA
:1065700000ED00E0656700080030034000FCFF0705
:1065800080B483B000AF00237B600E4B93F8D9300A
:10659000DBB203F00F03052B02D10B4B7B6009E04C
:1065A000084B93F8D930DBB203F00F030A2B01D16B
:1065B000064B7B607B6818460C37BD465DF8047B54
:1065C000704700BF00200045236E8C033E07E102A8
:1065D00080B483B000AF00237B601E4BD3F88830BB
:1065E0005B0ADBB23B601C4BD3F8803403F0200322
:1065F000002B10D03B684A2B0DD93B68602B0AD882
:106600003B684B3B3B603B68144A03FB02F2144B74
:1066100013447B6016E0104BD3F8803403F0200362
:10662000002B0FD13B684D2B0CD93B68642B09D84C
:106630003B684E3B3B603B680A4A03FB02F20A4B55
:1066400013447B607B6818460C37BD465DF8047BBD
:10665000704700BF0030004000080045005A620249
:10666000005ED0B200F04902002087B280B483B04F
:1066700000AF044B7B607B6818460C37BD465DF865
:10668000047B70470040420F80B582B000AFFFF737
:106690009FFF0346044AA2FB0323DB087B607B6861
:1066A00018460837BD4680BDABAAAAAA80B400AF81
:1066B0000C4BD3F86831002B0AD10B4BD3F8803444
:1066C00003F02003002B01D1084B05E0084B03E049
:1066D000044BD3F8683100231846BD465DF8047BAF
:1066E000704700BF001000400008004500F049025C
:1066F000005A620280B500AFFFF742FF034618461A
:1067000080BD000080B400AF074BD3F8803403F0A5
:106710002003002B01D1054B00E0054B1846BD4678
:106720005DF8047B704700BF0008004500A60E001E
:1067300040420F0080B500AFFFF798FF03461B09EA
:10674000184680BD80B500AFFFF79EFF0246044BA0
:10675000D3F84032DBB20133B2FBF3F3184680BD0D
:106760000010004080B582B000AF00237B602C4B4E
:10677000D3F8343403F00303032B3FD801A252F8BB
:1067800023F000BF95670008E5670008ED67000883
:10679000F5670008224BD3F8303403F00303032BD2
:1067A0001CD801A252F823F0B9670008C16700089D
:1067B000CD670008D5670008FFF778FF786010E024
:1067C000FFF798FF03469B087B600AE0FFF79AFFFC
:1067D000786006E0FFF78EFF786002E000237B60C0
:1067E00000BF0EE0FFF7A6FF78600AE0FFF7AAFF00
:1067F000786006E04FF400437B6002E000237B609A
:1068000000BF074BD3F80034DBB201337A68B2FB28
:10681000F3F3044A136000BF0837BD4680BD00BFD4
:1068200000100040C40C002080B400AF00BFBD4683
:106830005DF8047B7047000080B400AF0E4BD3F8C6
:106840006831002B0AD10D4BD3F8803403F02003BC
