:020000040800F2
:10000000FFFFFFFFFFFFFFFFFFFFFFFFFFFFFFFF00
:10001000FFFFFFFFFFFFFFFFFFFFFFFFFFFFFFFFF0
:10002000FFFFFFFFFFFFFFFFFFFFFFFFFFFFFFFFE0
:10003000FFFFFFFFFFFFFFFFFFFFFFFFFFFFFFFFD0
:1004000046434642000000000000000001030300D4
:1004100001000000010200000002000000000000D6
:1004200000000000000000000000000000000000CC
:1004300000000000000000000000000000000000BC
:1004400000000000010407000000000000000000A0
:10045000000000010000000000000000000000009B
:10046000000000000000000000000000000000008C
:10047000000000000000000000000000000000007C
:10048000EB04180A001E04320426000000000000DD
:10049000050404240000000000000000000000002B
:1004A0000104022000000000000000000000000025
:1004B0000604000000000000000000000000000032
:1004C000000000000000000000000000000000002C
:1004D00020041808000000000000000000000000D8
:1004E000000000000000000000000000000000000C
:1004F00000000000000000000000000000000000FC
:100500005204180800000000000000000000000075
:100510000204180800200000000000000000000095
:1005200000000000000000000000000000000000CB
:100530006004000000000000000000000000000057
:1005400000000000000000000000000000000000AB
:10055000000000000000000000000000000000009B
:10056000000000000000000000000000000000008B
:10057000000000000000000000000000000000007B
:10058000000000000000000000000000000000006B
:10059000000000000000000000000000000000005B
:1005A000000000000000000000000000000000004B
:1005B000000000000000000000000000000000003B
:1005C000000100000010000000000000000000001A
:1005D000008000000000000000000000000000009B
:1005E000000000000000000000000000000000000B
:1005F00000000000000000000000000000000000FB
:10060000FFFFFFFF000000000000000000000000EE
:1006100000000000000000000000000000000000DA
:1006200000000000000000000000000000000000CA
:1006300000000000000000000000000000000000BA
:1006400000000000000000000000000000000000AA
:10100000000013203D130008D5130008D913000871
:10101000D1130008D1130008D1130008D113000820
:10102000FC7000000000000000000000DD1300085C
:10103000D113000800100008E1130008E5130008B0
:10104000E9130008ED130008F1130008F513000878
:10105000F9130008FD130008011400080514000826
:10106000091400080D1400081114000815140008D4
:10107000191400081D140008211400082514000884
:10108000291400082D140008311400083514000834
:10109000391400083D1400084114000845140008E4
:1010A000491400084D140008511400085514000894
:1010B000591400085D140008611400086514000844
:1010C000691400086D1400087114000875140008F4
:1010D000791400087D1400088114000885140008A4
:1010E000891400088D140008911400089514000854
:1010F000991400089D140008A1140008A514000804
:10110000A9140008AD140008B1140008B5140008B3
:10111000B9140008BD140008C1140008C514000863
:10112000C9140008CD140008D1140008D514000813
:10113000D9140008DD140008E1140008E5140008C3
:10114000E9140008ED140008F1140008F514000873
:10115000F9140008FD140008011500080515000821
:10116000091500080D1500081115000815150008CF
:10117000191500081D15000821150008251500087F
:10118000291500082D15000831150008351500082F
:10119000391500083D1500084115000845150008DF
:1011A000491500084D15000851150008551500088F
:1011B000591500085D15000861150008651500083F
:1011C000691500086D1500087115000875150008EF
:1011D000791500087D15000881150008851500089F
:1011E000891500088D15000891150008951500084F
:1011F000991500089D150008A1150008A5150008FF
:10120000A9150008AD150008B1150008B5150008AE
:10121000B9150008BD150008C1150008C51500085E
:10122000C9150008CD150008D1150008D51500080E
:10123000D9150008DD150008E1150008E5150008BE
:10124000E915000800000000000000000000000098
:10125000000000000000000000000000000000008E
:10126000000000000000000000000000000000007E
:10127000000000000000000000000000000000006E
:1012800010B5054C237833B9044B13B1044800E082
:1012900000BF0123237010BD540C0020000000008B
:1012A0004074000808B5034B1BB10349034800E034
:1012B00000BF08BD00000000580C0020407400086A
:1012C000A3F5803A704700BF174B002B08BF134BA4
:1012D0009D46FFF7F5FF00218B460F461348144A41
:1012E000121A05F0B7F80E4B002B00D098470D4BA3
:1012F000002B00D098470020002104000D000D486D
:10130000002802D00C4800E000BF05F07FF8200064
:10131000290000F0D3FC05F065F800BF00000800CC
:10132000000000000000000000001320540C00200A
:10133000140E0020000000000000000072B61748E4
:10134000174901600A6882F30888164880F30A8802
:10135000154880471549164A164B9A42BEBF51F8A8
:10136000040B42F8040BF8E71349144A0020914299
:10137000BCBF41F8040BFAE700201149114A914221
:10138000BCBF41F8040BFAE706490F4A9142BCBFC3
:1013900041F8040BFAE762B60C48804708ED00E01C
:1013A0000010000800D01220BD2C0008A87400080E
:1013B00000000020540C0020540C0020140E0020CB
:1013C000180E0020188E002000001320C9120008FB
:1013D000FFF7FEBF8548004785480047854800471E
:1013E00085480047854800478548004785480047AD
:1013F000854800478548004785480047854800479D
:10140000854800478548004785480047854800478C
:10141000854800478548004785480047854800477C
:10142000854800478548004785480047854800476C
:10143000854800478548004785480047854800475C
:10144000854800478548004785480047854800474C
:10145000854800478548004785480047854800473C
:10146000854800478548004785480047854800472C
:10147000854800478548004785480047854800471C
:10148000854800478548004785480047854800470C
:1014900085480047854800478548004785480047FC
:1014A00085480047854800478548004785480047EC
:1014B00085480047854800478548004785480047DC
:1014C00085480047854800478548004785480047CC
:1014D00085480047854800478548004785480047BC
:1014E00085480047854800478548004785480047AC
:1014F000854800478548004785480047854800479C
:10150000854800478548004785480047854800478B
:10151000854800478548004785480047854800477B
:10152000854800478548004785480047854800476B
:10153000854800478548004785480047854800475B
:10154000854800478548004785480047854800474B
:10155000854800478548004785480047854800473B
:10156000854800478548004785480047854800472B
:10157000854800478548004785480047854800471B
:10158000854800478548004785480047854800470B
:1015900085480047854800478548004785480047FB
:1015A00085480047854800478548004785480047EB
:1015B00085480047854800478548004785480047DB
:1015C00085480047854800478548004785480047CB
:1015D00085480047854800478548004785480047BB
:1015E000854800478548004785480047D5130008CF
:1015F000D9130008DD130008E1130008E513000803
:10160000D1130008D1130008D1130008D11300082A
:10161000D1130008D1130008D1130008D11300081A
:10162000D1130008D1130008D1130008D11300080A
:10163000D1130008D1130008F943000861440008E1
:10164000C944000831450008D1130008D11300082F
:1016500099450008D1130008D1130008D1130008E0
:10166000D1130008D1130008D1130008D1130008CA
:10167000D1130008D1130008D1130008D1130008BA
:10168000D1130008D1130008D1130008D1130008AA
:10169000D1130008D1130008D1130008D11300089A
:1016A000D1130008D1130008DD4B0008D113000846
:1016B000D1130008D1130008D1130008D11300087A
:1016C000D1130008D1130008D1130008D11300086A
:1016D000D1130008D1130008D1130008D11300085A
:1016E000D1130008D1130008D1130008D11300084A
:1016F000D1130008D1130008FD530008D1130008CE
:10170000D1130008D1130008D1130008D113000829
:10171000D1130008D1130008D1130008D113000819
:10172000D1130008D1130008D1130008D113000809
:10173000D1130008D1130008D1130008D1130008F9
:10174000D1130008D1130008D1130008D1130008E9
:10175000D1130008D1130008D1130008D1130008D9
:10176000D1130008D1130008D1130008D1130008C9
:10177000D1130008D1130008D1130008D1130008B9
:10178000D1130008D1130008D1130008D1130008A9
:10179000D1130008D1130008D1130008D113000899
:1017A000D1130008D1130008D1130008D113000889
:1017B000D1130008D1130008D1130008D113000879
:1017C000D1130008D1130008D1130008D113000869
:1017D000D1130008D1130008D1130008D113000859
:1017E000D1130008D1130008D1130008D113000849
:1017F000D1130008D1130008D1130008D113000839
:10180000D1130008F1B5002A4BD011F0030306D024
:1018100011F8014B013A00F8014B42D0F5E710F006
:1018200003031BD1102A04DB103AF0C9102AF0C0C0
:10183000FAD2130744BF30C930C0530744BF51F830
:10184000044B40F8044B930744BF31F8024B20F897
:10185000024BD30744BF0C78047022E0C3070AD4BC
:10186000042A16D351F8044B043A20F8024B250CF5
:1018700020F8025BF4E7042A0BD351F8044B043A36
:1018800000F8014B250A20F8025B260E00F8016BD8
:10189000F1E7002A1EBF11F8014B00F8014B013A95
:1018A000F7D1F1BD034613F8012B002AFBD1181A1A
:1018B0000138704753B94AB9002908BF00281CBF36
:1018C0004FF0FF314FF0FF3000F082B9ADF1080C5E
:1018D0006DE904CE00F006F8DDF804E0DDE902234E
:1018E00004B070472DE9F04F099D04460F46002BC8
:1018F00048D18A42944661D9B2FA82F343B1C3F126
:1019000020019F4002FA03FC9C4020FA01F10F43A2
:101910004FEA1C411FFA8CFE220CB7FBF1F601FBCB
:10192000167706FB0EF042EA0742904208D91CEBFC
:10193000020206F1FF3702D2904200F237813E46A2
:10194000121AA4B2B2FBF1F001FB102200FB0EFE52
:1019500044EA0244A64508D91CEB040400F1FF3216
:1019600002D2A64500F21C81104640EA0640A4EBD4
:101970000E0400261DB1DC400023C5E900433146BA
:10198000BDE8F08F8B4209D9002D00F0FD800026C4
:10199000C5E9000130463146BDE8F08FB3FA83F661
:1019A000002E4BD18B42C0F0F280824240F2EF8099
:1019B0003046002DE3D0C5E90047E0E702B9FFDE7D
:1019C000B2FA82F3002B40F09D80891A4FEA124E42
:1019D00097B20126200CB1FBFEF20EFB121140EA79
:1019E000014107FB02F088420FD91CEB010102F113
:1019F000FF382CBF4FF001094FF00009884203D98E
:101A0000B9F1000F00F0CF804246091AA4B2B1FB31
:101A1000FEF00EFB101100FB07F744EA0144A74259
:101A200008D91CEB040400F1FF3102D2A74200F2F6
:101A3000B4800846E41B40EA02409BE7C6F1200759
:101A4000B34001FA06F422FA07FCF940B2404CEA2E
:101A5000030C20FA07F34FEA1C491C431FFA8CFEC3
:101A600000FA06F3200CB1FBF9F809FB181140EA63
:101A7000014108FB0EF088420FD91CEB010108F16F
:101A8000FF3A2CBF4FF0010B4FF0000B884203D9F7
:101A9000BBF1000F00F08D80D046091AA4B2B1FB53
:101AA000F9F009FB101100FB0EFE44EA01418E45DE
:101AB00007D91CEB010100F1FF3401D28E457FD81C
:101AC000204640EA0840A1EB0E01A0FB02984145E8
:101AD0004C46C64602D306D14B4504D20138B9EB79
:101AE000020468EB0C0E002D70D01A1B61EB0E0186
:101AF00022FA06F301FA07F7F14000261F43C5E971
:101B000000713CE702FA03FCC3F1200001FA03F282
:101B100021FA00F64FEA1C4E24FA00F11FFA8CF766
:101B20009C401143B6FBFEF00A0C0EFB106642EA25
:101B3000064200FB07F696420ED91CEB020200F1AA
:101B4000FF382CBF4FF001094FF00009964202D92F
:101B5000B9F1000F31D04046921B89B2B2FBFEF6BC
:101B60000EFB162241EA024106FB07F28A4207D920
:101B70001CEB010106F1FF3801D28A4223D8464608
:101B8000891A46EA004625E72E462846F7E6841AD3
:101B900061EB030301201F460BE76444023849E769
:101BA00064440238E1E6023A61442EE7023E6244B0
:101BB000C6E6A8F1020861446FE702386244CBE749
:101BC000023861447DE7023E6144D9E72E46D6E6FD
:101BD000704700BF00B585B00190012303931948F9
:101BE00004F080F80390039B002B23D140F23113C3
:101BF00002930DE00199029804F0B6F80390039B5C
:101C0000002B0AD1019B02330193029B0133029303
:101C1000029BB3F59C7FEDD900E000BF039B002B36
:101C20000AD104F083F80390039B002B04D0012316
:101C3000039301E001230393039B184605B05DF86D
:101C400004FB00BF00497F0F00B585B00190012360
:101C50000393194804F046F80390039B002B23D10B
:101C600040F2391302930DE00199029804F07CF8D8
:101C70000390039B002B0AD1019B02330193029B2B
:101C800001330293029BB3F59E7FEDD900E000BFC4
:101C9000039B002B0AD104F049F80390039B002B0F
:101CA00004D00123039301E001230393039B18460F
:101CB00005B05DF804FB00BF00497F0F2DE9F0413E
:101CC0009CB000F01DFA5F4BB3F1006F03D35D4B86
:101CD000B3F1805F07D35B4BB3F1C05F19D3594BAE
:101CE000B3F1005F15D200F047FC40F2111001F093
:101CF00095FA0A2001F092FA4FF4807001F08EFA02
:101D000040F2111003F0C4FF4FF4807003F0C0FFE5
:101D10000CE000F0A9FB102001F080FA102003F085
:101D20002DFF02220221484805F0AEFB00F00EFA1A
:101D300017AB1846FFF74EFF1B901B9B002B05D0DF
:101D4000424B434A8D21434804F040F89DF85C30F3
:101D50009C469DF85D309E469DF85E3098469DF805
:101D60005F3019469DF8603018469DF861301C467A
:101D70009DF862301D469DF863301E469DF8643024
:101D80001F469DF865300F939DF8663010939DF8BF
:101D9000673011939DF8683012939DF86930139362
:101DA0009DF86A301A469DF86B300C930B92139A8B
:101DB0000A92129A0992119A0892109A07920F9B0E
:101DC000069305970496039502940190009143466B
:101DD00072466146204804F05BF815AB1846FFF7E1
:101DE00033FF1B901B9B002B05D0184B184A9221E8
:101DF000184803F0EBFF9DF854301D469DF8553010
:101E00001E469DF856301F469DF857309DF85820C5
:101E10009DF859109DF85A009DF85B40049403907A
:101E20000291019200933B46324629460B4804F04A
:101E30002FF80B4804F02CF8002318461CB0BDE81E
:101E4000F08100BF4D210008004013406864000885
:101E5000886F000884640008F064000824650008A6
:101E60004865000800B587B0039002910192009385
:101E70009D4B0593009B03F40033002B08D04FF0DB
:101E800040231A68029BDB434FF0402113400B6054
:101E9000009B03F48033002B11D04FF040231A6BCA
:101EA000039BDB434FF0402113400B634FF0402373
:101EB0005A6B029BDB434FF0402113404B63009B66
:101EC0001B0B03F00F030F2B25D1089BB3F5004F1D
:101ED00006D0864B864A40F24661864803F076FF7C
:101EE0004FF040239B684FF0402223F08003936023
:101EF0004FF04023DB684FF0402223F49F6323F030
:101F00000503D3604FF040231B694FF0402223F4B8
:101F10008763136119E0009BC3F30A03002B14D0FD
:101F2000009B1B0B03F00F039B00059A13441968D9
:101F3000009BC3F30A03DA43009B1B0B03F00F0360
:101F40009B00059803440A401A60099B002B08D0A7
:101F50004FF040231A6A099BDB434FF040211340A6
:101F60000B620B9BC3F30E03002B0AD04FF04023F0
:101F70005A6A0B9BC3F30E03DB434FF0402113401F
:101F80004B620B9B1B0CC3F30E03002B0BD04FF0CB
:101F900040239A6A0B9B1B0CC3F30E03DB434FF0E9
:101FA000402113408B620D9B002B08D04FF0402343
:101FB000DA6A0D9BDB434FF040211340CB62019B5B
:101FC00003F40033002B07D04FF040231A684FF082
:101FD0004021029B13430B60019B03F48033002BD1
:101FE0000FD04FF040231A6B4FF04021039B134357
:101FF0000B634FF040235A6B4FF04021029B134379
:102000004B63019BC3F30A03002B13D0019B1B0BF3
:1020100003F00F039B00059A13441968019BC3F357
:102020000A02019B1B0B03F00F039B00059803445E
:102030000A431A60089B002B07D04FF040231A6A0E
:102040004FF04021089B13430B620A9BC3F30E031E
:10205000002B09D04FF040235A6A0A9BC3F30E03AA
:102060004FF0402113434B620A9B1B0CC3F30E033A
:10207000002B0AD04FF040239A6A0A9B1B0CC3F333
:102080000E034FF0402113438B620C9B002B07D0B3
:102090004FF04023DA6A4FF040210C9B1343CB6290
:1020A000039B03F07C630493134BD3F83825049B04
:1020B000D943039B0B4010491343C1F838350E4BED
:1020C000D3F83C250C49029B1343C1F83C350B4B1C
:1020D000D3F838250949049B1343C1F8383500BFAC
:1020E00007B05DF804FB00BF044000407C650008B9
:1020F000906F0008AC65000800100045000800451E
:1021000008B500F003F800BF08BD000000B587B0B7
:102110004FF010130593002304934FF040130393E3
:10212000002302934FF04043019300230093064B9A
:102130004FF4485200214FF0A060FFF793FE00BF1C
:1021400007B05DF804FB00BFEE31010000B583B0BD
:10215000002301930C4B1B6800936B46184601F05B
:102160007DFB4CF2685001F075F9032001F0D6FBBD
:102170000190019B01224FF4E131032003F03EFE68
:1021800000BF03B05DF804FB6C66000800B58DB0BD
:10219000019001238DF82F302B4BD3F8903003F0B2
:1021A0002003002B03D000238DF82F3003E0274BB2
:1021B0000222C3F8A8279DF82F30002B1CD00198CD
:1021C00000F0DEFBCDE90801DDE908014FF0000277
:1021D0004FF000030A00002313460793089B069361
:1021E000079B46F63C12934203D1069B184A934242
:1021F00002D000238DF82F309DF82F30002B1CD0FB
:10220000012000F017FBCDE90401DDE904014FF0E6
:1022100000024FF000030A00002313460393049BBF
:102220000293039B43F2B942934203D1029B094AB2
:10223000934202D000238DF82F309DF82F3018469E
:102240000DB05DF804FB00BF0030004000100040FE
:10225000072E5505032E550500B58DB06B4600229F
:102260001A605A609A60DA601A615A619A614D4B3D
:10227000D3F81431DBB20B9308AB184602F052FED0
:102280000A900A9B002B79D107AB184602F06AFE30
:102290000A900A9B002B0DD10B9B022B04D1DDE988
:1022A000082313461B0C00E00023079A114618462A
:1022B00003F0EAFA0A9B002B06D16B4619469520DB
:1022C00002F034FD034600E00A9B0A930A9B002BB0
:1022D00007D16B4604331946962002F027FD0346CA
:1022E00000E00A9B0A930A9B002B07D16B46083338
:1022F0001946972002F01AFD034600E00A9B0A9354
:102300000A9B002B0DD10B9B022B01D19B2200E0DD
:1023100098226B460C331946104602F007FD03461F
:1023200000E00A9B0A930A9B002B07D16B461033EF
:102330001946992002F0FAFC034600E00A9B0A9332
:102340000A9B002B07D16B46143319469A2002F0E2
:10235000EDFC034600E00A9B0A930A9B002B06D083
:10236000114B124A4FF4EC71114803F02FFD079AFC
:102370006B4619460F4803F041FA0FE000F0D4FD18
:102380000D4B062283F85A200C4B0D4A5A640D4B14
:102390001B6819464FF4167001F022FF00BF0DB004
:1023A0005DF804FB0010004590660008A46F00086B
:1023B000AC6600088D210008002000450010034095
:1023C00054602260F00B002008B502F075FCFFF7A6
:1023D00043FF02F089FC144BB3F1006F03D3124B9F
:1023E000B3F1805F07D3104BB3F1C05F09D30E4B3D
:1023F000B3F1005F05D2042206210C4805F044F831
:1024000010E0102003F0BAFB084805F035F847F259
:10241000206001F01FF8102000F094FF102003F05E
:1024200029FB00BF00BF08BD4D210008004013403C
:1024300008B50B4BB3F1006F03D3094BB3F1805FC9
:1024400007D3074BB3F1C05F08D3054BB3F1005F6F
:1024500004D202220221034805F016F800BF08BD8D
:102460004D2100080040134008B500F003F800BFFC
:1024700008BD000008B504F0EFFF334B9B6A03F082
:102480000203002B02D1314800F0C8FE304BD3F8D4
:10249000903003F40073002B02D02E4800F0BEFEF3
:1024A000012001F0D5FB2C4800F0B8FE2B4800F0CD
:1024B000B5FEFFF789FF2A4800F0CCFF01214FF459
:1024C000806001F03FF80221264801F013FB4FF431
:1024D000803000F0A3FE012001F060FB224800F0F4
:1024E0009DFE224801F0FEFD712000F0B3FF4FF485
:1024F000EC6000F0AFFF012148F2402001F022F82B
:102500000D2148F2FC6001F01DF801214FF410701C
:1025100001F018F801214FF4127001F013F80121B5
:1025200040F2647001F00EF805214FF4F06001F004
:1025300009F842F2344000F08DFFFFF779FF0C4BB1
:102540000C4A1A6000BF08BD0010034020000100C3
:1025500000300040090001000400010005000100F6
:1025600030043404006CF7B903000100B46F0008B4
:10257000F00B002000497F0F08B504F06DFF2D4BD4
:102580009B6A03F00203002B02D12B4800F046FEA9
:102590002A4BD3F8903003F40073002B02D0284864
:1025A00000F03CFE012001F053FB264800F036FE0F
:1025B000FFF70AFF244800F04DFF01214FF480602F
:1025C00000F0C0FF0221214801F094FA4FF480305E
:1025D00000F024FE712000F03DFF4FF4EC6000F0AD
:1025E00039FF0D2148F2FC6000F0ACFF01214FF4EF
:1025F000107000F0A7FF01214FF4127000F0A2FF4D
:10260000012140F2647000F09DFF05214FF4F0605D
:1026100000F098FF42F2344000F01CFF01F0ACFDE6
:1026200001F0F6FAFFF704FF094B0A4A1A6000BFEF
:1026300008BD00BF00100340200001000030004032
:10264000090001000500010030043404006CF7B9F2
:10265000F00B002000497F0F84B00390029101929B
:10266000039A029B1A40019B22FA03F3184604B016
:1026700070470000054B1B6803F00103002B14BFDB
:1026800001230023DBB21846704700BF00700040F2
:102690002DE9F04F89B0039045F2520306935B4B4E
:1026A00007935B4B1B68022204211846FFF7D4FFF7
:1026B0000346012B5ED1564BDB6C042210211846D9
:1026C000FFF7CAFF0346012B02D1524B079353E099
:1026D0004F4BDB6C032208211846FFF7BDFF034672
:1026E000012B02D14C4B079346E0494BDB6C012296
:1026F00002211846FFF7B0FF0346012B02D1474BDA
:10270000079339E0424BDB6C022204211846FFF7A5
:10271000A3FF0346012B02D1414B07932CE03C4B16
:10272000DB6C002201211846FFF796FF0346012BC0
:1027300002D13C4B07931FE0354BDB6C0522202177
:102740001846FFF789FF0346012B02D1364B07934A
:1027500012E02F4BDB6C08224FF480711846FFF714
:102760007BFF0346012B02D1304B079304E0274B3C
:10277000079301E02E4B0793039B012B27D100F019
:1027800097F8CDE90401DDE904014FF000024FF0B4
:1027900000030A000023069B13440693069BA3F53F
:1027A0009A430B3B0693079B002298469146069B53
:1027B0000022009301924FF000024FF000030099B5
:1027C0000B00002248EA020449EA030516E0069BD2
:1027D00003F5105304330693079B00221E46174649
:1027E000069B00229A4693464FF000024FF00003EA
:1027F0005346002246EA020447EA030522462B46D6
:102800001046194609B0BDE8F08F00BFF0F055053D
:102810000070004030535505705355053853550529
:10282000345355053C535505745355057853550598
:10283000032E55052DE9F04389B001901B4B0793FA
:1028400000BFFFF717FF0346002BFAD10198FFF7EF
:102850001FFFCDE90401DDE904014FF000024FF054
:1028600000030A000023079B13440793049B039370
:10287000079B03F5125321330793039B00221C4649
:102880001546079B0022984691464FF000024FF0F4
:1028900000034346002244EA020645EA03073246A3
:1028A0003B461046194609B0BDE8F083C29BFFFFC6
:1028B000F0B583B045F20A03019301230093164A51
:1028C000009B136500BF144B1B68022204211846AD
:1028D000FFF7C2FE0346002BF5D1019B03F504531D
:1028E00005330193019B00221E4617464FF000025C
:1028F0004FF000033300002242F0AA6444F4A52400
:1029000044F4C06444F003041D4622462B4610469E
:10291000194603B0F0BD00BF0070004082B00190C6
:10292000024A019B136200BF02B070470070004072
:1029300086B0039002910192039BDB00DAB2019B07
:102940001B0203F48073134343F003030593044A0B
:10295000029B9360024A059B536000BF06B070471C
:1029600000700040054B1B6803F00103002B14BFEF
:1029700001230023DBB21846704700BF00700040FF
:102980002DE9F04385B0019044F618030393FFF757
:10299000E9FF0346002B16D0039B03F504532433B1
:1029A0000393039B0022984691464FF000024FF09C
:1029B00000034346002242F0AA6444F4AA2444F4EB
:1029C0006C741D461FE00198FFF7A8FF012200214B
:1029D0001E20FFF7ADFF039B03F50453243303933D
:1029E000039B00221E4617464FF000024FF00003E3
:1029F0003300002242F0AA6444F4A52444F4C064E5
:102A000044F007041D4622462B461046194605B0E1
:102A1000BDE8F08382B00190019B002B01D100231F
:102A200001E042F6AF73184602B0704700B589B0B6
:102A300001900091019B002B06D1464B464A4FF472
:102A40008C71464803F0C2F9009B002B06D1444B21
:102A5000414A40F21911414803F0B8F9009B9B7BB1
:102A6000042B06D93F4B3C4A4FF48D713B4803F091
:102A7000ADF9009B9B7B1A463B4B53F82230002B51
:102A800006D13A4B344A40F21B11344803F09EF908
:102A900002AB184601F0BAFE009B5B680293009BF4
:102AA0001B7B002B03D1009B5B7B002B02D00123FF
:102AB0008DF81430009B1B7A022B03D102238DF872
:102AC0000C300AE0009B1B7A032B03D103238DF803
:102AD0000C3002E000238DF80C30009B5B7A012B58
:102AE00003D101238DF80D3002E000238DF80D3065
:102AF000009B9B7A002B14BF01230023DBB28DF8CF
:102B00001030009BDB7A002B14BF01230023DBB2C3
:102B10008DF8113000238DF8153000238DF8163014
:102B2000009B9B7B1A46104B53F82200009B1A68AF
:102B300002AB194601F07EFD0790079B002B04D0E5
:102B40000798FFF767FF034600E00023184609B027
:102B50005DF804FB14670008CC6F00081C670008D0
:102B60007067000878670008B86F0008C067000841
:102B700000B585B00190009100990198FFF756FFCC
:102B80000346ADF80E30BDF80E30002B02D0BDF874
:102B90000E3006E0019B0293009B9A7B029B1A7009
:102BA0000023184605B05DF804FB000000B587B0AF
:102BB000039002910192039B002B06D1184B194AF6
:102BC00040F28111184803F001F9029B002B06D155
:102BD000164B144A4FF4C171134803F0F7F8019BE8
:102BE000002B06D1124B0F4A40F283110E4803F01E
:102BF000EDF8039B0593059B1B781A460D4B53F884
:102C00002230019A0299184601F060FF049004985E
:102C1000FFF700FF0346184607B05DF804FB00BF4E
:102C200014670008E06F00081C670008E8670008E8
:102C3000F0670008B86F000800B587B003900291F4
:102C40000192039B002B06D1164B174A4FF4CB7110
:102C5000164803F0BBF8029B002B06D1144B124A16
:102C600040F29711114803F0B1F8019B002B06D1F7
:102C7000104B0D4A4FF4CC710C4803F0A7F8039B9E
:102C80000593059B1B781A460B4B53F82230019A8B
:102C90000299184601F0CEFE0023184607B05DF8F1
:102CA00004FB00BF14670008F86F00081C670008E9
:102CB000E8670008F0670008B86F000808B52C4BFB
:102CC000D3F888302A4A43F47003C2F88830284B7E
:102CD000D3F88830264A43F00F03C2F88830244BDB
:102CE000D3F88C30224A43F4406343F00303C2F824
:102CF0008C30204BB3F1006F03D31E4BB3F1805FD8
:102D000007D31C4BB3F1C05F2DD31A4BB3F1005F57
:102D100029D2194BDB69002B25D1174B4FF0A0624C
:102D2000C3F80028144BD3F80038134A43F000438B
:102D3000C2F8003800BF104BD3F80038002BFADB84
:102D40000D4B0322C3F800280B4B0C4A5A610A4B67
:102D500000229A61084B0122DA61BFF36F8F00BF36
:102D6000BFF34F8F00BF00F03FF900BF08BD00BFA9
:102D700000ED00E0292F00080030034000FCFF07B1
:102D800082B0002301930C4B93F8D930DBB203F0EF
:102D90000F03052B02D1094B019309E0064B93F871
:102DA000D930DBB203F00F030A2B01D1044B01939E
:102DB000019B184602B0704700200045236E8C032B
:102DC0003E07E10282B0002301931C4BD3F8883008
:102DD0005B0ADBB200931A4BD3F8803403F0200374
:102DE000002B10D0009B4A2B0DD9009B602B0AD8DA
:102DF000009B4B3B0093009B124A03FB02F2124BD9
:102E00001344019316E00E4BD3F8803403F02003F3
:102E1000002B0FD1009B4D2B0CD9009B642B09D8A4
:102E2000009B4E3B0093009B084A03FB02F2084BB9
:102E300013440193019B184602B0704700300040D4
:102E400000080045005A6202005ED0B200F049025C
:102E5000002087B282B0034B0193019B184602B059
:102E6000704700BF0040420F00B583B0FFF7AAFFD4
:102E70000346054AA2FB0323DB080193019B184686
:102E800003B05DF804FB00BFABAAAAAA0A4BD3F8B3
:102E90006831002B0AD1094BD3F8803403F02003AA
:102EA000002B01D1064B05E0064B03E0024BD3F8A3
:102EB00068310023184670470010004000080045A4
:102EC00000F04902005A620208B5FFF759FF0346B5
:102ED000184608BD054BD3F8803403F02003002BBF
:102EE00001D1034B00E0034B184670470008004532
:102EF00000A60E0040420F0008B5FFF7ABFF0346E7
:102F00001B09184608BD000008B5FFF7ADFF0246D3
:102F1000044BD3F84032DBB20133B2FBF3F3184673
:102F200008BD00BF0010004000B583B0002301932E
:102F30002B4BD3F8343403F00303032B3ED801A208
:102F400052F823F0552F0008A52F0008AD2F0008D8
:102F5000B52F0008224BD3F8303403F00303032BC2
:102F60001CD801A252F823F0792F0008812F000805
:102F70008D2F0008952F0008FFF788FF019010E0C3
:102F8000FFF7A2FF03469B0801930AE0FFF7A2FFA9
:102F9000019006E0FFF798FF019002E00023019303
:102FA00000BF0EE0FFF7A8FF01900AE0FFF7ACFFBB
:102FB000019006E04FF40043019302E000230193E7
:102FC00000BF074BD3F80034DBB20133019AB2FBE8
:102FD000F3F3044A136000BF03B05DF804FB00BFC5
:102FE00000100040F00B002000BF70470D4BD3F8DD
:102FF0006831002B0AD10C4BD3F8803403F0200346
:10300000002B01D1094B0AE0094B08E0054BD3F82E
:103010006831012B02D1074B1B6800E000231846E2
:10302000704700BF001000400008004500F0490252
:10303000005A6202700C0020014B1B681846704752
:10304000740C0020054BD3F8803403F02003002BD0
:1030500001D1034B00E0034B1846704700080045C0
:1030600000A60E0040420F004FF400431846704780
:1030700082B00190019B002B03D0019B013B002BF0
:10308000FCD100BF02B0704700B585B001900D4B78
:103090001B6803F5742303F23F230B4AA2FB0323AF
:1030A0009A0C019B02FB03F30393039B0233074A31
:1030B000A2FB03235B081846FFF7DAFF00BF05B049
:1030C0005DF804FBF00B002083DE1B43ABAAAAAA29
:1030D00000B583B000230193104B93F8D930DBB2D5
:1030E00003F00F03052B02D10D4B019310E00B4BA6
:1030F00093F8D930DBB203F00F030A2B02D1094B4E
:10310000019305E0084B094A8D21094802F05EFE53
:10311000019B184603B05DF804FB00BF002000458A
:10312000236E8C033E07E102F8670008C0700008B8
:103130000068000882B0034B0193019B184602B05F
:10314000704700BF0040420F00B583B000230193D9
:10315000204BD3F888305B0ADBB200931E4BD3F8C8
:10316000803403F02003002B10D0009B4A2B0DD994
:10317000009B602B0AD8009B4B3B0093009B174A97
:1031800003FB02F2164B134401931DE0124BD3F8DC
:10319000803403F02003002B10D1009B4D2B0DD960
:1031A000009B642B0AD8009B4E3B0093009B0D4A6A
:1031B00003FB02F20C4B1344019305E00B4B0C4A4A
:1031C000C4210C4802F002FE019B184603B05DF8D2
:1031D00004FB00BF0030004000080045005A6202B6
:1031E000005ED0B200F04902002087B2F867000804
:1031F000DC7000080068000800B583B0FFF7A4FF8A
:103200000346054AA2FB0323DB080193019B1846F2
:1032100003B05DF804FB00BFABAAAAAA00B585B055
:103220000190019B3F4A93420DD13F4B9B6A3E4A1E
:1032300023F00403936200BF3B4B9B6A03F002033D
:10324000002BF9D06AE0019B03F48033002B10D0EF
:10325000364BD3F89020019BDBB2012101FA03F336
:10326000DB4332491340C1F890300420FFF700FFE0
:1032700054E0019B1B0ADBB20393039B052B3FD851
:1032800001A252F823F000BFA1320008B1320008B9
:10329000C1320008D1320008E1320008F1320008E2
:1032A000019BDBB2224A012101FA03F313642EE0F1
:1032B000019BDBB21E4A012101FA03F3536426E0AD
:1032C000019BDBB21A4A012101FA03F393641EE069
:1032D000019BDBB2174A012101FA03F3136416E0E4
:1032E000019BDBB2134A012101FA03F353640EE0A0
:1032F000019BDBB20F4A012101FA03F3936406E05C
:103300000D4B0E4A40F221110D4802F05FFD019B6A
:10331000B3F5887F02D1054B1F221A6400BF05B0A8
:103320005DF804FB20000100001003400030004065
:103330000010004000100240F8670008F470000818
:103340000068000800B585B00190019B394A93429E
:1033500006D1394B9B6A384A43F00403936265E017
:10336000019B03F48033002B0CD0344BD3F8902016
:10337000019BDBB2012101FA03F330491343C1F889
:10338000903053E0019B1B0ADBB20393039B052B98
:103390003ED801A252F823F0B1330008C13300082F
:1033A000D1330008E1330008F1330008013400088C
:1033B000019BDBB2224A012101FA03F313672EE0DD
:1033C000019BDBB21E4A012101FA03F3536726E099
:1033D000019BDBB21A4A012101FA03F393671EE055
:1033E000019BDBB2174A012101FA03F3136716E0D0
:1033F000019BDBB2134A012101FA03F353670EE08C
:10340000019BDBB20F4A012101FA03F3936706E047
:103410000D4B0E4A40F257110D4802F0D7FC019BAC
:10342000B3F5887F02D1054B00221A6400BF05B0B6
:103430005DF804FB20000100001003400030004054
:103440000010004000100240F867000808710008F2
:103450000068000886B0019000238DF81730019BAA
:1034600003F00103002B0ED0019B1A0B019940F6CB
:10347000FC730B4003F1804303F54433194602F01B
:1034800003030B6058E0019B03F00203002B15D0EF
:10349000019B1B092A4A03F00703C2F86037019B0E
:1034A0001B0A274A03F00703C2F86437019B1B0B72
:1034B000234A03F00703C2F86C373DE0002304936E
:1034C00030E0049B1B01019A22FA03F30193019B54
:1034D00003F40043002B09D0019A40F6FC7313401B
:1034E00003F1804303F50433039308E0019A40F6A7
:1034F000FC73134003F1804303F580530393019A57
:1035000040F6FC731340002B06D0019B1B0B03F00D
:103510000702039B1A6002E001238DF81730049B19
:1035200001330493049B012B06D89DF8173083F0D8
:103530000103DBB2002BC4D100BF06B0704700BF4F
:103540000010024084B003460091ADF80630BDF98A
:103550000630002B0ADABDF8062040F6FC73134053
:1035600003F1804303F50433039309E0BDF806201B
:1035700040F6FC73134003F1804303F5805303933B
:10358000039B1B6843F00052039B1A60009B002BB7
:1035900006D1039B1B6843F08042039B1A6008E03E
:1035A000009B5A1E039B1A6000BF039B1B68002BE5
:1035B000FBDB00BF04B0704708B5FFF789FD034689
:1035C000184608BD08B5FFF7B5FD03461B091846A8
:1035D00008BD000084B0114B1B6ADB0CC3F30C0365
:1035E000019300230293012303930FE00C4A039BF2
:1035F00052F82330019A9A4205D10A4A039B52F8A5
:103600002330029305E0039B01330393039B0A2BB2
:10361000ECD9029B184604B0704700BF0030004050
:10362000687000081070000808B5FFF7E5FD024655
:10363000044BD3F84032DBB20133B2FBF3F318464C
:1036400008BD00BF0010004008B5FFF7C3FF0246E9
:10365000044BD3F84032DBB20133B2FBF3F318462C
:1036600008BD00BF0010024000B583B000230193E5
:10367000264BD3F8343403F00303032B3ED801A2C6
:1036800052F823F095360008E5360008ED360008BC
:10369000F53600081D4BD3F8303403F00303032B39
:1036A0001CD801A252F823F0B9360008C136000830
:1036B000CD360008D5360008FFF798FC019010E0E1
:1036C000FFF77AFF03469B0801930AE0FFF7BAFC75
:1036D000019006E0FFF770FF019002E000230193E4
:1036E00000BF0EE0FFF76EFF01900AE0FFF79CFFBE
:1036F000019006E0FFF7B8FC019002E0002301937F
:1037000000BF019B184603B05DF804FB00100040A9
:103710002DE9F04F8BB0039000230993012305930B
:10372000002308930023079300230693039B032B96
:103730001CD8464A039B28335B0113441B6803F0E3
:1037400007030893414A039B28335B011344043366
:103750001B681B0ADBB206933C4A039B28335B01C0
:10376000134404331B68DBB207931BE0039B0E2B4F
:1037700011D1364BD3F8C03603F007030893334B0F
:10378000D3F8C4361B0ADBB20693304BD3F8C436E9
:10379000DBB2079306E02E4B2E4A40F291212E48D1
:1037A00002F014FB089B032B24D801A252F823F04B
:1037B000C1370008C9370008E5370008ED370008B1
:1037C000FFF752FF099018E0204BD3F8FC36DBB22C
:1037D00001330593FFF728FF0246059BB2FBF3F385
:1037E00009930AE0FFF7EEFE099006E0FFF7E4FE1A
:1037F000099002E00023099300BF099B002298462C
:103800009146079B00229A4693461AF101044BF118
:10381000000504FB09F208FB05F31344A8FB046749
:103820003B441F46069A079B134401330022009332
:103830000192DDE9002330463946FEF73BF80246A7
:103840000B46134618460BB0BDE8F08F001002403F
:10385000F86700081C7100080068000800B585B012
:103860000190019B1B780393039B0E2B06D9254BDC
:10387000254A40F2B721254802F0A8FA019B9B781F
:10388000FF2B06D0224B204A4FF42E711F4802F026
:103890009DFA039B032B17D8019B5B781D4A1946A1
:1038A000039B28335B0113441960019BDB781B02E7
:1038B0009BB2019A927817491A43039B28335B0104
:1038C0000B4404331A601AE0039B0E2B10D1019BAA
:1038D0005A78104BC3F8C026019BDB781B029BB2C1
:1038E000019A927811460B4A0B43C2F8C43606E09F
:1038F000094B054A40F2C621044802F067FA05B0B8
:103900005DF804FB54680008307100080068000886
:103910006068000800100240F867000800B585B034
:1039200001900023039300230293019B032B08D8EB
:10393000224A019B5B01134403F5A1631B680293B8
:103940000EE0019B0E2B04D11C4BD3F8C83602931A
:1039500006E01B4B1B4A40F286311B4802F036FA48
:10396000029B042B21D801A252F823F081390008D0
:10397000893900089139000899390008A1390008EF
:10398000FFF720FE039013E0FFF716FE03900FE011
:10399000FFF75AFE03900BE0FFF74EFB039007E0A2
:1039A0000198FFF7B5FE039002E00023039300BFE8
:1039B000039B184605B05DF804FB00BF00100240F1
:1039C000F8670008447100080068000800B585B079
:1039D00001900B468DF803300023039300230293DC
:1039E000364BD3F8803403F02003002B1ED0019B0C
:1039F000334A934238BF13460393039B314A9342A1
:103A000028BF13460393039A2F4B13442F4AA2FB5C
:103A100003231B0E0293029B2D4A03FB02F2284B49
:103A200013440393029B4B3302932CE0234BD3F8B4
:103A3000803403F02003002B1ED1019B254A9342C2
:103A400038BF13460393039B1E4A934228BF134675
:103A50000393039A204B1344204AA2FB03231B0E1B
:103A60000293029B1E4A03FB02F21A4B1344039378
:103A7000029B4E33029306E01A4B1B4A40F2B541BB
:103A80001A4802F0A3F91A4BD3F8883023F4FF3315
:103A900023F4C073029A520202F4FF321A439DF8D3
:103AA0000330DB0103F4C07311491343C1F88830BC
:103AB000039B184605B05DF804FB00BF00080045F5
:103AC000005ED0B200C0E1E400CF604E6BCA5F6B15
:103AD000005A6202002087B200D89D4E851DD96F22
:103AE00000F04902F86700086071000800680008EB
:103AF0000030004000B585B001900B468DF80330D2
:103B0000144BD3F8883003F02003002B01D000F0D1
:103B100025F8114B742283F8E8209DF803301946EC
:103B20000198FFF753FF03900A4BD3F88830094AF6
:103B300043F02003C2F8883000BF064BD3F888302A
:103B400003F04003002BF8D0039B184605B05DF846
:103B500004FB00BF003000400020004508B50D4BBD
:103B6000D3F890300B4A43F00303C2F89030094B6E
:103B7000D3F88830074A23F02003C2F88830FFF7D3
:103B8000D3F90120FFF780FA0348FFF7DBFB00BF02
:103B900008BD00BF003000401C00010000B583B02C
:103BA00003468DF80730184BD3F8883003F008032C
:103BB000002B01D000F02CF8144B742283F8A820BD
:103BC000114BD3F8883023F4C0229DF807305B04F2
:103BD00003F4C0230C491343C1F888300A4BD3F8CF
:103BE0008830094A43F00803C2F8883000BF064B0A
:103BF000D3F8883003F01003002BF8D000BF00BFCB
:103C000003B05DF804FB00BF003000400020004519
:103C100008B50D4BD3F890300B4A43F00C03C2F8B3
:103C20009030094BD3F88830074A23F00803C2F8D4
:103C30008830FFF779F90120FFF726FA0348FFF7EC
:103C400081FB00BF08BD00BF003000401D00010027
:103C500000B583B003468DF80730154BD3F8883094
:103C600003F00103002B01D000F026F89DF8073087
:103C7000002B04D10F4B052283F8D92003E00D4B14
:103C80000A2283F8D9200A4BD3F88830084A43F037
:103C90000103C2F8883000BF054BD3F8883003F029
:103CA0000203002BF8D000BF00BF03B05DF804FB97
:103CB000003000400020004508B5FFF735F90A4BF9
:103CC000D3F89030084A43F0F003C2F89030064B26
:103CD000D3F88830044A23F00103C2F88830012069
:103CE000FFF7D2F900BF08BD0030004088B0512373
:103CF00007930023069314230593022304930223BE
:103D000003930323029304230193052300932D4B74
:103D1000D3F8803403F02003002B06D154230793FB
:103D200044F62413069313230593274B5A69274B14
:103D30001340009AD20602F0F0421A43029BDB05C0
:103D400003F0F0631A43019B1B0503F4E0031A43DD
:103D5000059BDB029BB21C4913434B611A4B9B69C9
:103D600023F47E62049B5B0103F47E6316491343D4
:103D70008B61154BDB6823F01E02039B5B0003F095
:103D80001E0311491343CB600F4B1B6923F0FF53F4
:103D900023F48013079A11050D4A0A400A49134378
:103DA0000B61094BDB6A0B4A1A40069BDB0123F0CF
:103DB0007C4323F07F0304491343CB6200BF08B068
:103DC000704700BF0008004500300040FF070F802B
:103DD0000000F01F7F0000F082B003468DF807302E
:103DE0009DF80730002B2AD0164B5B6923F0400268
:103DF0009DF80730144951F823309B0103F040032C
:103E0000104913434B610F4B1B69104A1A409DF830
:103E100007300F4951F8233059000E4B0B40094928
:103E200013430B61074B1B6AC3F312029DF8073063
:103E3000094951F82330DB04024913430B6200BFE8
:103E400002B0704700300040947000080100F0FF9D
:103E50003C700008FEFF0F006870000882B0034647
:103E60008DF807309DF80730002B1ED0104BDB6B10
:103E700023F000729DF807300E4951F823305B069D
:103E800003F000730A491343CB639DF807300A4AD5
:103E900052F82330C3F312029DF80730074951F856
:103EA0002330DB04024913438B6300BF02B0704729
:103EB00000300040947000083C70000868700008F2
:103EC00000B583B0094B9B680193019B03F48053B9
:103ED000002B07D1054A019B43F4805393603220A5
:103EE000FFF7D2F800BF03B05DF804FB00300040DC
:103EF00082B0084B9B680193019B03F48053002B15
:103F000004D0044A019B23F48053936000BF02B0A5
:103F1000704700BF0030004000B585B003468DF803
:103F200007300B468DF8063013468DF805309DF8A6
:103F30000730002B05D0524B5B69514A43F0100308
:103F400053619DF80630002B05D04D4BDB6B4C4A7E
:103F500043F08073D3634A4BDB6A494A43F0400322
:103F6000D3620320FFF790F8454BDB6A444A23F005
:103F70004003D3620220FFF787F8414BDB6A404AD7
:103F800023F00103D3620520FFF77EF89DF805308A
:103F9000002B05D03A4B5B69394A43F480335361B7
:103FA0000520FFF771F89DF80730002B05D0344B42
:103FB000DB6A334A23F00203D3629DF80630002BFC
:103FC00007D02F4BD3F8C0302D4A23F00103C2F89D
:103FD000C0300220FFF758F89DF80730002B05D0BD
:103FE000274B1B69264A43F0010313619DF80630F5
:103FF000002B05D0224BDB6B214A43F08063D36357
:104000000220FFF741F89DF80730002B05D01C4B2C
:104010001B691B4A23F0010313619DF80630002B36
:1040200005D0174BDB6B164A23F08063D3630C205B
:10403000FFF72AF89DF80530002B1CD000230393CE
:1040400005E0039B0A3303930A20FFF71DF80C4B8E
:104050009B6A03F00073B3F1007F03D0039BB3F5B9
:10406000167FEED30A20FFF70FF8054B5B69044A71
:1040700023F48033536100BF05B05DF804FB00BF3B
:104080000030004082B003460A468DF807301346E0
:104090008DF806309DF80730002B0BD0104BDB6AF3
:1040A0000F4A43F00203D3620D4B5B690C4A23F0C5
:1040B000100353619DF80630002B0DD0084BD3F848
:1040C000C030074A43F00103C2F8C030044BDB6B39
:1040D000034A23F08073D36300BF02B0704700BF70
:1040E0000030004000B583B00190019B002B06D149
:1040F0001D4B1E4A40F20C611D4801F067FE1D4B2E
:104100005B6903F02003002B01D000F035F8FEF7C7
:104110000BFFFFF7D5FEFFF7E9FD019B1B78184663
:10412000FFF75AFE019B5B781846FFF797FE114B8D
:104130005B69104A43F0200353610F20FEF7A4FF90
:104140000C4BDB6A0B4A23F00403D3620F20FEF70B
:104150009BFF019B9B781A4601210120FFF7DCFEA3
:1041600000BF03B05DF804FB8068000874710008AC
:10417000006800080030004008B501210120FFF769
:1041800081FF0F4BDB6A0E4A43F00403D3620C4BF2
:10419000DB6A0B4A43F00103D362094B5B69084AAF
:1041A00023F0200353610748FFF7CCF8044B5B680A
:1041B00003F00403002B01D1FFF79AFE00BF08BDF6
:1041C000003000401E00010082B00190019B1846A3
:1041D000A0F101000028FBD100BF02B07047000031
:1041E000F0B585B0019000910199002935D0019971
:1041F00000200E460746009900200A46034602FBAF
:1042000007F006FB03F10144A6FB02454B191D46CE
:10421000134A4FF0000320462946FDF74BFB0246A8
:104220000B46CDE90223DDE90223012B05D30D4B1B
:104230000D4AD5210D4801F0C9FDDDE902014FF01D
:1042400000024FF00003820842EA81728B08CDE938
:104250000223029B1846FFF7B7FF00BF05B0F0BD71
:1042600040420F002069000884710008C8680008F7
:1042700082B001900B468DF803309DF80330002B7F
:1042800001D1012323E09DF80330042B0FD8019BBB
:10429000D3F8F82F9DF80330033322FA03F303F029
:1042A0000103002B14BF01230023DBB20FE09DF8B4
:1042B0000330052B0AD1019BD3F8F83F03F08003AC
:1042C000002B14BF01230023DBB200E000231846BB
:1042D00002B0704700B585B001900023039309E058
:1042E0000E4A039B52F82320019B9A4206D0039B5F
:1042F00001330393039B042BF2D900E000BF039B1F
:10430000042B05D9064B074A5F21074801F05EFDE3
:10431000039B184605B05DF804FB00BF98710008C8
:1043200034690008CC7100086469000800B585B0E4
:1043300003900B4601928DF80B309DF80B30194617
:104340000398FFF795FF034683F00103DBB2002BD0
:1043500001D0032324E0039BD3F8F83F03F00803C4
:10436000002B0AD0039BD3F8F83F03F007029DF817
:104370000B309A4201D0012312E0019B002B09D09F
:104380009DF80B3043F00803DBB21A46039BC3F8D9
:10439000F82F04E09DF80B20039BC3F8F82F0023AF
:1043A000184605B05DF804FB00B585B001900B46DA
:1043B0008DF803300198FFF78DFF03900C4A039BA3
:1043C00052F823301846FEF729FF0A4A039B32F8B9
:1043D0001330184601F05CFC9DF8033000221946AA
:1043E0000198FFF7A3FF0346184605B05DF804FBEC
:1043F000AC710008C071000800B583B01148FFF728
:1044000069FF0190104A019B52F82330002B05D11F
:104410000E4B0F4AAC210F4801F0D8FC0A4A019B11
:1044200052F823300C49019A51F8222010460B49CA
:10443000019A51F822201146984700BF03B05DF859
:1044400004FB00BF00601040780C0020BC6900082D
:10445000E471000864690008987100088C0C002061
:1044600000B583B01148FFF735FF0190104A019B5A
:1044700052F82330002B05D10E4B0F4ABA210F48BA
:1044800001F0A4FC0A4A019B52F823300C49019A1E
:1044900051F8222010460B49019A51F8222011466A
:1044A000984700BF03B05DF804FB00BF00701040E8
:1044B000780C0020BC6900080072000864690008DC
:1044C000987100088C0C002000B583B01148FFF7EC
:1044D00001FF0190104A019B52F82330002B05D1B7
:1044E0000E4B0F4AC8210F4801F070FC0A4A019B8D
:1044F00052F823300C49019A51F8222010460B49FA
:10450000019A51F822201146984700BF03B05DF888
:1045100004FB00BF00801040780C0020BC6900083C
:104520001C72000864690008987100088C0C002057
:1045300000B583B01148FFF7CDFE0190104A019BF2
:1045400052F82330002B05D10E4B0F4AD6210F48CD
:1045500001F03CFC0A4A019B52F823300C49019AB5
:1045600051F8222010460B49019A51F82220114699
:10457000984700BF03B05DF804FB00BF00901040F7
:10458000780C0020BC6900083872000864690008D3
:10459000987100088C0C002000B583B01148FFF71B
:1045A00099FE0190104A019B52F82330002B06D14E
:1045B0000E4B0F4A40F271110E4801F007FC0A4AF7
:1045C000019B52F823300C49019A51F822201046E1
:1045D0000A49019A51F822201146984700BF03B0BA
:1045E0005DF804FB00601240780C0020BC690008F4
:1045F0005472000864690008987100088C0C00204F
:1046000082B001900B468DF803309DF80330002BEB
:1046100006D0019B5B6843F48072019B5A6005E001
:10462000019B5B6823F48072019B5A6000BF02B05B
:104630007047000000B587B0039002910192039B80
:10464000002B05D0029B002B02D0019B002B05D133
:104650006B4B6C4AC6216C4801F0B8FB039B002BE6
:1046600005D0029B002B02D0019B002B01D104231B
:10467000C2E001210398FFF797FE0590059B002BF0
:1046800001D0059BB8E0029B5B7A002B23D0039BF3
:10469000D3F8003E43F00112039BC3F8002E039BA6
:1046A000D3F8083E23F47062039BC3F8082E039BE3
:1046B000D3F8082E029B5B7B1B0203F470631A4342
:1046C000039BC3F8082E039BD3F8083E43F0010276
:1046D000039BC3F8082E029B1B7A002B23D0039B5D
:1046E000D3F8003E43F00212039BC3F8002E039B55
:1046F000D3F8083E23F47022039BC3F8082E039BD3
:10470000D3F8082E029B9B7B1B0403F470231A43EF
:10471000039BC3F8082E039BD3F8083E43F0020224
:10472000039BC3F8082E029B1B791B0103F0300288
:10473000029B5B799B0103F040031A43029B9B7928
:104740009B0003F00C031A43029BDB79DB039BB253
:104750001A43029BDB7B5B08DBB2DB0203F40063E2
:104760001A43029BDB7B9B0303F480431A43029BA7
:104770001B7C1B0303F480531A43029BDB7ADB018F
:10478000DBB21A43029B1B7B5B0203F400731343EF
:1047900043F00102039B1A60029BDB7A002B17D0C7
:1047A000029B1B684FF41652B2FBF3F101FB03F3BB
:1047B000D31A002B09D1029B1B684FF41652B2FB8F
:1047C000F3F35A1E039B1A620FE041F2516313E0A8
:1047D000029B1B68019A1946039800F05FF8059048
:1047E000059B002B01D0059B06E0029B9B7A194696
:1047F0000398FFF705FF0023184607B05DF804FB98
:10480000986A000870720008106A000800B583B04A
:104810000190019B002B06D11D4B1E4A4FF4A07145
:104820001D4801F0D3FA14220021019801F012FE74
:10483000019B4FF4E1321A60019B00221A71019B27
:1048400000225A71019B01229A71019B0022DA71A8
:10485000019B00221A72019B00225A72019B0022C6
:10486000DA72019B00225A73019B00229A73019B0A
:104870000022DA73019B00229A72019B00221A74B3
:10488000019B00221A7300BF03B05DF804FB00BF58
:10489000D86A00087C720008106A000800B58DB064
:1048A0000390029101924FF0FF330B930F230A9371
:1048B0004FF0FF330993039B002B05D0029B002B85
:1048C00002D0019B002B06D1554B564A40F2B9113C
:1048D000554801F07BFA039B002B05D0029B002B6F
:1048E00002D0019B002B01D1042395E0039B1B68A0
:1048F00003F40063002B10D0039B1B6803F4804378
:10490000002B00F08880019A029BB2FBF3F3069320
:10491000069B5A1E039B1A627DE0029B434AA2FB40
:1049200003235A0913465B00134407930A9B089319
:1049300042E0089B082B03D80B9A079B9A423FD969
:10494000019A13469B0013445B001946089B0133F0
:10495000029A02FB03F3B1FBF3F3053B344AA2FBDB
:104960000323DB080693069BB3F5803F20D2089B08
:104970000133069A013202FB03F3019AB2FBF3F30F
:104980000593029A059B9A4203D2059A029BD31A79
:1049900002E0029A059BD31A0493049A0B9B9A4255
:1049A00007D2049B0B93089B0A93069B099300E094
:1049B00000BF089B013B0893089B032BB9D800E07C
:1049C00000BF0A9B0133099A013202FB03F3019AEB
:1049D000B2FBF3F30593029A059B9A4203D2059A20
:1049E000029BD31A02E0029A059BD31A0493049AFD
:1049F000079B9A4202D941F251630DE0099BB3F53E
:104A0000803F02D341F2516306E0039B0A9A9A6207
:104A1000039B099A1A62002318460DB05DF804FB47
:104A2000E86A000894720008106A00081F85EB51BC
:104A3000CDCCCCCC00B585B0039002910192039B04
:104A4000002B02D0029B002B06D11D4B1D4A40F2C9
:104A500065211D4801F0BAF9039B002B02D0029B8F
:104A6000002B01D1042327E0039BD3F8003E03F081
:104A70000103002B15D104231EE000BF039BD3F8D4
:104A8000043E03F02003002BF8D0029B1B781A464B
:104A9000039BC3F8202E029B01330293019B013B31
:104AA0000193019B002BE8D100BF039B9B6803F09F
:104AB0000803002BF9D00023184605B05DF804FB6D
:104AC0003C6B0008A8720008106A000800B587B0A7
:104AD00003900291019200230593039B002B02D0C7
:104AE000029B002B06D13A4B3A4A40F2B1213A4898
:104AF00001F06CF9039B002B02D0029B002B01D12B
:104B0000042361E0039BD3F8003E03F00203002B73
:104B100054D1012358E000BF039BD3F8043E03F0B7
:104B20004003002BF8D0039BD3F8043E03F00203AC
:104B3000002B13D0039BD3F8003E43F40032039BB9
:104B4000C3F8002E039BD3F8043E43F00202039BFC
:104B5000C3F8042E41F24D63059334E0039B9B6838
:104B60000493039B9A68049B1A43039B9A60049BDB
:104B700003F48043002B02D041F250630593049B61
:104B800003F40053002B02D041F24F630593049BC2
:104B900003F40043002B02D041F24E630593059BC2
:104BA000002B0FD1039BD3F8303EDAB2029B1A7070
:104BB000029B01330293019B013B0193019B002B5C
:104BC000A9D100E000BF059B184607B05DF804FBC3
:104BD0003C6B0008BC720008106A000808B5044B62
:104BE0001B68044A126811460348984700BF08BD75
:104BF000A40C0020A00C00200040134084B0144BF3
:104C0000D3F82C380293029B23F4616323F00F0343
:104C1000002B16D00023039310E0039B029A22FA84
:104C200003F303F00103002B05D0039B03F54E4370
:104C30004033019305E0039B01330393039B1F2B38
:104C4000EBDD00230193019B184604B0704700BFC1
:104C500000A0004082B00E4B019302E0019B013B9B
:104C600001930C4BD3F8203803F48003002B02D0BF
:104C7000019B002BF2D1019B002B03D14CF6476323
:104C8000009301E000230093009B184602B0704798
:104C9000E070720000A00040054B4FF48052C3F852
:104CA0002028034B034AC3F82C2800BF704700BFDD
:104CB00000A00040E0F1FFFF08B540F21110FEF740
:104CC000ADFA40F2111000F059FF064B4FF6FF729B
:104CD000A3F85022034B4FF6FF72A3F84C22002397
:104CE000184608BD0034004500B583B0FFF7B2FF99
:104CF0000190019B002B07D10A4B0122C3F8042825
:104D000040F21110FEF71EFB074B0022A3F85022C1
:104D1000054B0022A3F84C22019B184603B05DF816
:104D200004FB00BF00A000400034004500B585B082
:104D30000190009104230393009B002B23D0FFF7E5
:104D400089FF0390039B002B1FD1FFF7A5FF134A98
:104D5000019BC3F30803C2F80038104B0122C3F8CB
:104D60000C28FFF777FF0390039B002B0FD1FFF771
:104D700045FF0390039B002B0AD1084BD3F8102862
:104D8000009B1A6004E000BF02E000BF00E000BF2B
:104D9000039B184605B05DF804FB00BF00A000406F
:104DA0002DE9F00F8CB0099008914AF210430B9353
:104DB000424A099B9BB2A2F81C32404A0023A2F847
:104DC0003C323E4A0023A2F828323C4BB3F828324A
:104DD0009BB23A4A43F001039BB2A2F8283202E0A8
:104DE0000B9B013B0B930B9B002B06D0334BB3F873
:104DF00020329BB21BB2002BF2DA0B9B002B56D059
:104E00002E4BB3F818329BB203F00203002B4ED0A6
:104E10002A4BB3F814329BB29BB200221C461546B3
:104E20004FF000004FF00001234619040020234BEF
:104E3000B3F810329BB29BB20022009301924FF064
:104E400000024FF00003009C2300002240EA020809
:104E500041EA0309194BB3F80C329BB29BB2002212
:104E600002930392DDE902120B461F0C0B461E044F
:104E700048EA0603049349EA070305930F4BB3F886
:104E800008329BB29BB200229A469346DDE9041297
:104E90000B4643EA0A030693134643EA0B030793C0
:104EA000089BDDE90612C3E90012012300E000239C
:104EB00018460CB0BDE8F00F704700BF0034004545
:104EC000F0B585B00190009101230393019B002B65
:104ED00002D10423039320E0002302931AE00199F6
:104EE0000298FFF75DFF0346002B0FD0019BD3E92B
:104EF000002394B20025009B00221E461746BD42A7
:104F000008BFB44203D10023039306E000BF029B15
:104F100001330293029B3F2BE1D9039B184605B056
:104F2000F0BD000000B585B0019001230393019B03
:104F3000002B06D1084B094A4FF49071084800F045
:104F400045FF40F24E210198FFF7BAFF0390039B03
:104F5000184605B05DF804FB5C6C0008D0720008D0
:104F6000686C000800B587B00190012305934FF0ED
:104F700000024FF00003CDE90223019B002B06D174
:104F80000E4B0F4A4FF496710E4800F01FFF02AB14
:104F900040F25D111846FFF793FF0590059B002B2B
:104FA00006D1DDE9022313461B0CDAB2019B1A601D
:104FB000059B184607B05DF804FB00BFBC6C0008F9
:104FC000E0720008686C000884B00190019B03F057
:104FD000070303930B4BDB680293029A4FF6FF0320
:104FE00013400293039B1A02029B134343F0BF63D7
:104FF00043F400330293034A029BD36000BF04B022
:10500000704700BF00ED00E0034BDB681B0A03F0B4
:1050100007031846704700BF00ED00E082B0EFF3D1
:1050200010830093009B019372B600BF019B18464A
:1050300002B0704784B00190019B0393039B83F3FC
:10504000108800BF00BF04B07047000000B585B0F5
:105050000390029101920093029B002B05D13F4BDC
:105060003F4A9D213F4800F0B1FE019B002B05D136
:105070003D4B3B4A9E213B4800F0A8FE009B002B85
:1050800005D13A4B364A9F21364800F09FFE029BDD
:1050900049F2A3521A60029B354A5A60029B40F2C1
:1050A000EE229A60039B022B37D0039B022B4BD836
:1050B000039B002B03D0039B012B17D044E0019BE3
:1050C00045F212621A60019B2A4A5A60019B4FF412
:1050D0005C729A60009B43F27C221A60009B264A15
:1050E0005A60009B4FF496629A6033E0019B45F250
:1050F0008F521A60019B214A5A60019B40F225326F
:105100009A60009B43F27C221A60009B1A4A5A6004
:10511000009B4FF496629A601CE0019B45F28C6202
:105120001A60019B164A5A60019B40F225329A6030
:10513000009B43F275221A60009B124A5A60009B42
:105140004FF496629A6005E00F4B054ABF2105486F
:1051500000F03CFE00BF05B05DF804FB2C6D0008BC
:1051600034730008D86C0008306D0008346D0008F6
:10517000D0FCAF1E600E411EC0D1091E909CA51E22
:1051800020218C1E2056981E386D000800B585B071
:105190004FF0E0235B6803F00F0301330293029B9F
:1051A0005B010193029B052B05D9464B464ACD2155
:1051B000464800F00BFE019BA02B05D9444B424A08
:1051C000CE21424800F002FEFFF71EFF0346414A8F
:1051D0001360002303930BE03F4A039B52F8232004
:1051E0003C49039B9B000B445A60039B0133039390
:1051F000039A029B9A42EFD3002303930FE0364AAF
:10520000039B134403F540731B78D9B2314A039BC7
:10521000134418330A461A70039B01330393039A0D
:10522000019B9A42EBD32D4B5B682A4AC2F8C430EB
:105230002A4B9B68274AC2F8C830284BDB68254AAE
:10524000C2F8CC30254B1B69224AC2F8D030234B20
:105250005B69204AC2F8D430204B5B6A1D4AC2F811
:10526000D8301E4B5B6B1B4AC2F8DC301B4B9B6B70
:10527000184AC2F8E030194BD3F88830154AC2F802
:10528000E430164BD3F88C30124AC2F8E8300023D1
:1052900003930EE0114A039B134418331B78D9B2D1
:1052A0000C4A039B1344B8330A461A70039B01331C
:1052B0000393039B0B2BEDD900BF00BF05B05DF836
:1052C00004FB00BF406D000850730008D86C000854
:1052D0006C6D0008A80C002000E100E000ED00E08B
:1052E00000B585B04FF0E0235B6803F00F03013396
:1052F0000293029B5B0101933D4B1B681846FFF72D
:1053000063FE002303930BE03A49394A039B9B0059
:1053100013445A68039B41F82320039B01330393F2
:10532000039A029B9A42EFD3002303930EE0314A83
:105330002F49039B0B4418331978039B134403F53F
:1053400040730A461A70039B01330393039A019B2F
:105350009A42ECD3284A264BD3F8C4305360264AED
:10536000234BD3F8C8309360234A214BD3F8CC3079
:10537000D360214A1E4BD3F8D03013611E4A1C4B18
:10538000D3F8D43053611C4A194BD3F8D830536248
:10539000194A174BD3F8DC305363174A144BD3F830
:1053A000E0309363144A124BD3F8E430C2F88830EB
:1053B000114A0F4BD3F8E830C2F88C300023039326
:1053C0000DE00D4A0A49039B0B44B8331978039B3F
:1053D000134418330A461A70039B01330393039B4B
:1053E0000B2BEED900BF00BF05B05DF804FB00BF7A
:1053F000A80C002000E100E000ED00E008B5094B3A
:105400001B6B084A43F080031363074B1B68002B98
:1054100005D0054B1B68054A12681046984700BF27
:1054200008BD00BF00100340C80D0020CC0D0020B7
:1054300000B585B00346ADF80630BDF906300393DC
:10544000BDF90630002B06DA6E4B6F4A40F2C511EB
:105450006E4800F0BBFCBDF906301D2B0BDC6C4B1D
:10546000D3F884200121039B01FA03F36849134315
:10547000C1F8843024E0BDF90630382B0CDC644BD5
:10548000D3F88820039B203B012101FA03F36049F4
:105490001343C1F8883013E0BDF90630772B0FDCD9
:1054A000BDF906306B2B0BDD594BD3F89020039BD5
:1054B000603B012101FA03F355491343C1F89030D1
:1054C000BDF90630202B6DD0202BC0F29580652BC6
:1054D00000F392803E2BC0F28F803E3B272B00F2E0
:1054E0008B8001A252F823F0B3550008F95500084B
:1054F000F9550008F9550008F9550008F955000854
:10550000F9550008F9550008F9550008F955000843
:10551000C1550008CF550008F9550008F955000895
:10552000F9550008F9550008F9550008F955000823
:10553000F9550008F9550008F9550008F955000813
:10554000F9550008F9550008F9550008F955000803
:10555000F9550008F9550008DD550008EB5500081D
:10556000F9550008F9550008F9550008F9550008E3
:10557000F9550008F9550008F9550008F9550008D3
:105580008955000897550008214B9B69204A43F034
:105590000103936131E01E4B9B691D4A43F00203F6
:1055A00093612AE01A4B9B69194A43F00403936103
:1055B00023E0174B9B69164A43F0100393611CE0EC
:1055C000134B9B69124A43F02003936115E0104B83
:1055D0009B690F4A43F0400393610EE00C4B9B69BB
:1055E0000B4A43F08003936107E0094B9B69084A2B
:1055F00043F48073936100E000BF00BF05B05DF825
:1056000004FB00BF946D000864730008D86C0008A8
:105610000010034000B58FB0034600918DF80730AD
:1056200009AB00221A605A609A6006AB00221A6029
:105630005A609A6003AB00221A605A609A6003AB0A
:1056400006AA09A90098FFF701FD674B9B690D9316
:10565000654A0D9B23F0020393619DF807201346D2
:105660009B00134403F276230C930D9A5F4B134077
:105670000D9309990C9A13469B0013445B001A463C
:105680000B9B134403FB01F20A9B134403F57423A1
:1056900003F23F23564AA2FB03239B0C1A05554BEA
:1056A00013400D9A13430D9309990C9A13469B00CE
:1056B00013445B001A460B9BD31A03FB01F20A9BAF
:1056C00013444B4AA2FB03239B0C1A024A4B134080
:1056D0000D9A13430D93444A0D9B23F002039361EB
:1056E000414A0D9B9361404B1B6A0D933E4A0D9BB3
:1056F00023F0020313620D9A3C4B13400D93069A5C
:10570000089B03F59343543303FB02F2079B1344B6
:1057100003F5742303F23F23354AA2FB03239B0CBA
:105720001A05344B13400D9A13430D93069A089BA8
:10573000C3F585434C3303FB02F2079B13442C4A09
:10574000A2FB03239B0C1A022B4B13400D9A13430D
:105750000D93254A0D9B23F002031362224A0D9BF1
:105760001362214B9B6A0D931F4A0D9B23F002038A
:1057700093620D9A1D4B13400D93039A059B03F5FD
:105780000D43CC3303FB02F2049B134403F5742353
:1057900003F23F23164AA2FB03239B0C1A05154B69
:1057A00013400D9A13430D93039A059BC3F5904341
:1057B000443303FB02F2049B13440D4AA2FB032370
:1057C0009B0C1A020C4B13400D9A13430D93064A7F
:1057D0000D9B23F002039362034A0D9B936200BF6B
:1057E0000FB05DF804FB00BF00400045FF000CC097
:1057F00083DE1B430000F03F00FF030000B585B0CF
:10580000039002910192039B002B06D1174B184A7B
:1058100040F2CA41174800F0D9FA029B002B06D18A
:10582000154B134A40F2CB41124800F0CFFA019BCE
:10583000022B06D9114B0E4A40F2CC410D4800F024
:10584000C5FA0F4A039B13601C2202990D48FBF70F
:10585000D9FF029BDB680199184600F069F80346FE
:10586000084AD36000BF05B05DF804FB006E000875
:10587000A0730008D86C0008146E0008246E00089D
:10588000E00D0020E40D002000B585B001900091EE
:10589000FDF74AFB1F4B062283F85A20019B002B81
:1058A00003D160238DF80F301CE0019B1A4AA2FB44
:1058B00003239B090193019BC3F124030293029BE1
:1058C000002B02DB029B122B06D9144B144A40F228
:1058D000E741144800F07AFA134A029B13441B78FC
:1058E0008DF80F309DF80F3003F07F030F4A43F01F
:1058F000602343F4081353644FF4167001F0B4FDB1
:105900009DF80F3000991846FFF784FE00BF05B0E0
:105910005DF804FB00200045D34D6210306E000896
:10592000B8730008D86C0008F47200080010034037
:1059300000B58BB001900091019B0893454BD3F8C3
:105940001431DBB20793079B022B7ED1019BDBB2A4
:105950000693009B002B1BD1069B03FB03F213460F
:10596000DB0013445B001946069B40F2213202FB28
:1059700003F30B4403F5D52303F22A430593059B58
:10598000354A82FB03121213DB17D31A09933FE047
:10599000009B012B18D1069B03FB03F3522203FB50
:1059A00002F2069B2D4901FB03F3134403F5082380
:1059B00003F6D8030593059B274A82FB03121213B3
:1059C000DB17D31A099323E0009B022B06D0244B4C
:1059D000244A40F2A451244800F0F8F9069B03FB46
:1059E00003F213469B0013449A001A44069B40F2AC
:1059F000395101FB03F3134403F5BA23D433059360
:105A0000059B154A82FB03121213DB17D31A099365
:105A1000099B1B060893154B1B6904934FF08043A9
:105A20001B690393114B4FF000721A644FF08043CF
:105A30004FF000721A670E4A089B13600B4A049BD2
:105A400013614FF08042039B1361089B18460BB013
:105A50005DF804FB00100045AD8BDB68CDEBFFFF6C
:105A6000646E0008CC730008D86C00080010004079
:105A70000CC0154000B587B00346ADF80630BDF840
:105A800006301B0A9BB20593BDF80630DBB20493C7
:105A90000122049B02FA03F30393049B1F2B05D9F5
:105AA000324B334A2D21334800F090F9059B052BEA
:105AB00056D801A252F823F0D15A0008EB5A000838
:105AC000055B00081F5B0008355B00084B5B0008A6
:105AD0004FF08042039B136400BF4FF080431A696C
:105AE000039B1340002BF8D03BE04FF08042039B18
:105AF000536400BF4FF080435A69039B1340002B4F
:105B0000F8D02EE04FF08042039B936400BF4FF02B
:105B100080439A69039B1340002BF8D021E0164A7A
:105B2000039B136400BF144B1A69039B1340002BA3
:105B3000F9D016E0104A039B536400BF0E4B5A691C
:105B4000039B1340002BF9D00BE00B4A039B93649B
:105B500000BF094B9A69039B1340002BF9D000E06A
:105B600000BF00BF07B05DF804FB00BF706E000807
:105B7000DC730008806E00080000024000B587B0AA
:105B80000346ADF80630BDF806301B0A9BB20593FC
:105B9000BDF80630DBB204930122049B02FA03F342
:105BA0000393049B1F2B05D9354B364A6921364890
:105BB00000F00CF9059B052B5CD801A252F823F0EC
:105BC000D95B0008F55B0008115C00082D5C00083B
:105BD000455C00085D5C00084FF08042039B136742
:105BE00000BF4FF080431A69039B1340039A9A4207
:105BF000F7D040E04FF08042039B536700BF4FF067
:105C000080435A69039B1340039A9A42F7D032E0CB
:105C10004FF08042039B936700BF4FF080439A6927
:105C2000039B1340039A9A42F7D024E0174A039B40
:105C3000136700BF154B1A69039B1340039A9A42DE
:105C4000F8D018E0114A039B536700BF0F4B5A6905
:105C5000039B1340039A9A42F8D00CE00B4A039B33
:105C6000936700BF094B9A69039B1340039A9A42BA
:105C7000F8D000E000BF00BF07B05DF804FB00BF34
:105C8000706E0008F8730008806E00080000024083
:105C900000B583B00346ADF80630BDF806301846AF
:105CA000FFF7E8FEBDF806301846FFF767FF00BFB4
:105CB00003B05DF804FB000082B0074BD3F8143149
:105CC00003F00F030193019B002B01D1034B00E074
:105CD000034B184602B07047001000450041021304
:105CE0000000031300B583B00190FFF7E5FF034602
:105CF00018331B68002B05D1094B0A4A1A210A48A0
:105D000000F064F8FFF7D8FF034618331B685B68A0
:105D1000019898470346184603B05DF804FB00BF9E
:105D2000D46E000814740008E46E000808B5FFF78C
:105D3000C3FF034618331B68002B05D1074B084AE5
:105D40002321084800F042F8FFF7B6FF0346183356
:105D50001B689B6898470346184608BDD46E000828
:105D600020740008E46E000800B585B00190009131
:105D7000FFF7A2FF034618331B68002B05D10C4B1D
:105D80000C4A36210C4800F021F8009B019A534040
:105D90000393FFF791FF034618331B68DB68039AF0
:105DA0000099019898470346184605B05DF804FB32
:105DB000D46E00082C740008E46E000884B00390D0
:105DC000029101920023184604B0704700B587B0D5
:105DD0000590049103920293039B0093049B059A00
:105DE0000299054800F054F8049A05990298FFF7C3
:105DF000E5FF00BEFDE700BF486F000800B58BB0AF
:105E00000291019303468DF80F3013468DF80E3042
:105E10009DF80E30012B01D001232FE0194A9DF887
:105E20000E301374019B0593029B069300238DF89B
:105E30001C3000238DF81D3001238DF81E30012306
:105E40008DF81F3000238DF8203000238DF821308D
:105E50009DF80F308DF8223000238DF82330002379
:105E60008DF8243005AB19460648FCF781FE054B3A
:105E7000054A9A60034B054ADA60002318460BB0C6
:105E80005DF804FB000E0020392C0008AD2B000843
:105E90000FB400B583B00023019305AB00930099C4
:105EA000049800F009F80190019B184603B05DF8D2
:105EB00004EB04B07047000000B585B0019000917C
:105EC00000230393084B1B7C002B02D14FF0FF33C0
:105ED00006E0009A0199054800F0A0F80390039BA2
:105EE000184605B05DF804FB000E0020F15E0008C6
:105EF00000B583B00190094B1B7C002B02D14FF001
:105F0000FF3306E0054B9B6801A90122034898472F
:105F10000123184603B05DF804FB00BF000E00200B
:105F200000B587B002910192009303468DF80F30BF
:105F3000029B05930CE09DF80F20089B10469847A4
:105F4000009B1B685A1C009B1A60059B013305933C
:105F5000059A019B9A42EEDB00BF00BF07B05DF8D7
:105F600004FB8EB0039002910192009300230B93E7
:105F7000039B0A930A9B5A1C0A9200221A70002360
:105F80000193002309930023089300230793002320
:105F90000D930023069300230C9300230593029B8B
:105FA0001B680D930D9B002B30D10A9B30221A7079
:105FB0000B9B01330B930B9B2CE0009B0D9AB2FBC8
:105FC000F3F30693009B069A02FB03F30D9AD31A90
:105FD0000C930C9B092B03D80C9B30330C930AE0D9
:105FE0009DF83830002B01D0412200E061220C9B4B
:105FF00013440A3B0C93069B0D930A9B5A1C0A926E
:106000000C9AD2B21A700B9B01330B930D9B002B91
:10601000D3D10B9B18460EB07047000000B59DB061
:1060200005900491039200231A93002319930023EF
:10603000099300238DF8523000230793049B1B9390
:106040001B9B1B78002B00F0C6811B9B1B788DF8D7
:1060500051309DF85130252B0BD09DF85120059BD8
:1060600010469847099B013309931B9B01331B93EF
:10607000B0E101238DF853300023179300238DF8EE
:10608000633020E01B9B01331B931B9B1B788DF817
:1060900051309DF851302F2B0FD99DF85130392BAD
:1060A0000BD8179A13469B0013445B001A469DF8C1
:1060B00051301344303B179305E01B9B013B1B936E
:1060C00001238DF863309DF8633083F00103DBB268
:1060D000002BD7D11B9B01331B931B9B1B782E2BB3
:1060E0002ED10023169300238DF8633020E01B9BF4
:1060F00001331B931B9B1B788DF851309DF8513059
:106100002F2B0FD99DF85130392B0BD8169A1346E7
:106110009B0013445B001A469DF851301344303BFA
:10612000169305E01B9B013B1B9301238DF8633005
:106130009DF8633083F00103DBB2002BD7D102E07E
:106140001B9B013B1B931B9B01331B931B9B1B78CE
:106150008DF851309DF85130642B24D09DF851308A
:10616000692B20D09DF85130662B1CD09DF8513002
:10617000462B18D09DF85130782B14D09DF8513013
:10618000582B10D09DF851306F2B0CD09DF851300A
:10619000622B08D09DF85130702B04D09DF85130FF
:1061A000752B40F0D1809DF85130642B03D09DF8C1
:1061B0005130692B12D1039B1A1D03921B6808935F
:1061C00008A90AA89DF8533000930A230122FFF77B
:1061D000C8FE19900AAA199B13441A939DF85130CE
:1061E000582B03D09DF85130782B19D19DF85130A0
:1061F000782B02D100238DF85330039B1A1D039294
:106200001B68079307A90AA89DF853300093102331
:106210000022FFF7A6FE19900AAA199B13441A93AD
:106220009DF851306F2B0BD09DF85130622B07D069
:106230009DF85130702B03D09DF85130752B66D1ED
:106240009DF85130702B0BD1039B1A1D03921B68D4
:10625000069306A907AB04221846FBF7D3FA04E01D
:10626000039B1A1D03921B6807939DF85130623BF4
:10627000132B3BD801A252F823F000BFD5620008CF
:10628000ED620008ED620008ED620008ED620008B2
:10629000ED620008ED620008ED620008ED620008A2
:1062A000ED620008ED620008ED620008ED62000892
:1062B000CD620008DD620008ED620008ED620008B2
:1062C000ED620008ED620008E562000808238DF821
:1062D00052300CE002238DF8523008E010238DF884
:1062E000523004E00A238DF8523000E000BF9DF8E0
:1062F000522007A90AA89DF85330009313460022A4
:10630000FFF72FFE19900AAA199B13441A93179AA4
:1063100009A9059B00930B4619992020FFF700FE61
:106320001A9B002B53D00AE01A9B5A1E1A921B7814
:106330001A46059B10469847099B013309931A9BFF
:106340001B78002BF0D142E09DF85130632B0BD12C
:10635000039B1A1D03921B681393059B1398984780
:10636000099B0133099332E09DF85130732B26D1FC
:10637000039B1A1D03921B681593159B002B26D0B7
:106380001598FBF78FFA03461993179A09A9059BED
:1063900000930B4619992020FFF7C2FD0AE0159BD8
:1063A0005A1C15921B781A46059B10469847099B64
:1063B00001330993159B1B78002BF0D107E09DF862
:1063C0005120059B10469847099B013309931B9B5D
:1063D00001331B9334E600BF099B18461DB05DF8DE
:1063E00004FB00BF08B5074B044613B1002100E0D1
:1063F00000BF054B1868836A03B19847204600F038
:1064000031F800BF000000003C74000870B50D4D6D
:1064100000260D4C641BA410A64209D10B4D00268A
:106420000B4C01F00DF8641BA410A64205D170BD01
:1064300055F8043B01369847EEE755F8043B013622
:106440009847F2E7A0740008A0740008A074000840
:10645000A474000802440346934200D1704703F835
:10646000011BF9E7FEE700BF6B5374617475735F3E
:1064700053756363657373203D3D20737461747558
:1064800073000000433A5C55736572735C6B62681D
:10649000695C4465736B746F705C53444B5F325F2F
:1064A00031365F3030305F52442D52573631322D05
:1064B0004247415C626F617264735C7264727736EA
:1064C00031326267615C6472697665725F657861BA
:1064D0006D706C65735C726F6D6170695C6F747008
:1064E0005C726F6D6170695F6F74702E6300000085
:1064F00054797065204E756D6265723A203078254A
:1065000058255825582558255825582558255825A3
:106510005825582558255825582558255825580DAB
:106520000A00000053657269616C204E756D6265EA
:10653000723A203078255825582558255825582551
:1065400058255825580D0A00526561642054797009
:1065500065204E756D62657220616E6420536572B0
:1065600069616C204E756D62657220737563636539
:10657000737366756C6C79210D0A00006673656C27
:106580005365744D61736B203D3D204D43495F4918
:106590004F5F4D55585F4653454C5F53454C5F53D5
:1065A00044494F5F4D41534B00000000633A5C7516
:1065B000736572735C6B6268695C6465736B746F3E
:1065C000705C73646B5F325F31365F3030305F72A6
:1065D000642D72773631322D6267615C646576694D
:1065E0006365735C72773631325C647269766572AA
:1065F000735C66736C5F696F5F6D75782E68000001
:1066000070696E203C20363455000000633A5C759A
:10661000736572735C6B6268695C6465736B746FDD
:10662000705C73646B5F325F31365F3030305F7245
:10663000642D72773631322D6267615C64657669EC
:106640006365735C72773631325C64726976657249
:10665000735C66736C5F696F5F6D75782E680000A0
:1066600070696E203C203455000000000301FF00DB
:1066700000D012130000000000100000010005000F
:106680000203010E000C010B0100000001000000DC
:10669000737461747573203D3D206B537461747520
:1066A000735F53756363657373000000433A5C5511
:1066B000736572735C6B6268695C4465736B746F5D
:1066C000705C53444B5F325F31365F3030305F5225
:1066D000442D52573631322D4247415C626F617210
:1066E00064735C726472773631326267615C6472C3
:1066F000697665725F6578616D706C65735C726FE9
:106700006D6170695C6F74705C626F6172642E633E
:106710000000000068616E646C650000433A5C55DF
:10672000736572735C6B6268695C4465736B746FEC
:10673000705C53444B5F325F31365F3030305F52B4
:10674000442D52573631322D4247415C636F6D7094
:106750006F6E656E74735C756172745C66736C5F8A
:10676000616461707465725F75736172742E630029
:10677000636F6E6669670000636F6E6669672D3EC2
:10678000696E7374616E6365203C202873697A6555
:106790006F6628735F5573617274416461707465CC
:1067A000724261736529202F2073697A656F6628AC
:1067B00055534152545F54797065202A29290000AD
:1067C000735F557361727441646170746572426184
:1067D00073655B636F6E6669672D3E696E73746186
:1067E0006E63655D0000000064617461000000007C
:1067F0006C656E677468000066616C73650000000C
:10680000433A5C55736572735C6B6268695C44659E
:10681000736B746F705C53444B5F325F31365F3023
:1068200030305F52442D52573631322D4247415C51
:10683000646576696365735C52573631325C6472A5
:1068400069766572735C66736C5F636C6F636B2EE5
