:020000040800F2
:10000000FFFFFFFFFFFFFFFFFFFFFFFFFFFFFFFF00
:10001000FFFFFFFFFFFFFFFFFFFFFFFFFFFFFFFFF0
:10002000FFFFFFFFFFFFFFFFFFFFFFFFFFFFFFFFE0
:10003000FFFFFFFFFFFFFFFFFFFFFFFFFFFFFFFFD0
:1004000046434642000000000000000001030300D4
:10041000010000000102000040C7000000000000D1
:1004200000000000000000000000000000000000CC
:1004300000000000000000000000000000000000BC
:1004400000000000010407000000000000000000A0
:100450000000000400000000000000000000000098
:10046000000000000000000000000000000000008C
:10047000000000000000000000000000000000007C
:10048000EB04180A0A3204260000000000000000F5
:10049000050404240000000000000000000000002B
:1004A0000104022000000000000000000000000025
:1004B0000604000000000000000000000000000032
:1004C000000000000000000000000000000000002C
:1004D00020041808000000000000000000000000D8
:1004E000000000000000000000000000000000000C
:1004F00000000000000000000000000000000000FC
:100500005204180800000000000000000000000075
:100510000204180800200000000000000000000095
:1005200000000000000000000000000000000000CB
:100530006004000000000000000000000000000057
:1005400000000000000000000000000000000000AB
:10055000000000000000000000000000000000009B
:10056000000000000000000000000000000000008B
:10057000000000000000000000000000000000007B
:10058000000000000000000000000000000000006B
:10059000000000000000000000000000000000005B
:1005A000000000000000000000000000000000004B
:1005B000000000000000000000000000000000003B
:1005C000000100000010000000000000000000001A
:1005D000008000000000000000000000000000009B
:1005E000000000000000000000000000000000000B
:1005F00000000000000000000000000000000000FB
:10060000FFFFFFFF000000000000000000000000EE
:1006100000000000000000000000000000000000DA
:1006200000000000000000000000000000000000CA
:1006300000000000000000000000000000000000BA
:1006400000000000000000000000000000000000AA
:101000000000132059120008F112000807520008CE
:10101000F5120008F7120008F9120008FB12000888
:101020002C6400000000000000000000FD12000819
:10103000FF12000800100008011300080313000845
:10104000DD550008E5550008ED550008F555000888
:10105000FD550008055600080D56000815560008F5
:101060001D560008255600082D5600083556000864
:101070003D560008455600084D56000855560008D4
:101080005D560008655600086D5600087556000844
:101090007D560008855600088D56000895560008B4
:1010A0009D560008A5560008AD560008B556000824
:1010B000BD560008C5560008CD560008D556000894
:1010C000DD560008E5560008ED560008F556000804
:1010D000FD560008055700080D5700081557000871
:1010E0001D570008255700082D57000835570008E0
:1010F0003D570008455700084D5700085557000850
:101100005D570008655700086D57000875570008BF
:101110007D570008855700088D570008955700082F
:101120009D570008A5570008AD570008B55700089F
:10113000BD570008C5570008CD570008D55700080F
:10114000DD570008E5570008ED570008F55700087F
:10115000FD570008055800080D58000815580008EC
:101160001D580008255800082D580008355800085B
:101170003D580008455800084D58000855580008CB
:101180005D580008655800086D580008755800083B
:101190007D580008855800088D58000895580008AB
:1011A0009D580008A5580008AD580008B55800081B
:1011B000BD580008C5580008CD580008D55800088B
:1011C000DD580008E5580008ED580008F5580008FB
:1011D000FD580008055900080D5900081559000868
:1011E0001D590008255900082D59000835590008D7
:1011F0003D590008455900084D5900085559000847
:101200005D590008655900086D59000875590008B6
:101210007D590008855900088D5900089559000826
:101220009D590008A5590008AD590008B559000896
:10123000BD590008C5590008CD590008D559000806
:10124000DD590008C868000800000020640B000099
:10125000640B00203C02000072B6134B134A17487F
:101260000360196881F3088882F30A8803F05EFC42
:101270000F4B07E003F10C049A685968186800F0F6
:101280001FF823460B4A9342F4D306E01C465968E4
:1012900054F8080B00F023F82346074A9342F5D38D
:1012A00062B604F0B5FBFEE70010000800F0122063
:1012B00044120008501200085812000808ED00E01F
:1012C000002393420AD210B450F8044B41F8044B67
:1012D00004339342F8D35DF8044B70477047002302
:1012E00003E0002240F8042B04338B42F9D370470B
:1012F000FEE7FEE7FEE7FEE7FEE7FEE7FEE7FEE7C6
:10130000FEE7FEE7FEE7FFFF80B582B000AF786042
:101310007968024803F0E0FE00BEFDE7905E000839
:1013200080B58AB000AFB9607B600346FB7313469B
:10133000BB73BB7B012B01D001232AE0174ABB7B87
:1013400013747B687B61BB68BB6100233B77002320
:101350007B770123BB770123FB77002387F82030BD
:10136000002387F82130FB7B87F82230002387F8A1
:101370002330002387F8243007F114031946074867
:1013800004F0A9F8054B064A9A60044B054ADA6056
:10139000002318462837BD4680BD00BF640B0020DF
:1013A00069400008FD3F000880B584B000AF786058
:1013B00039600023FB60094B1B7C002B02D14FF0EE
:1013C000FF3306E03A687968054800F041F8F860B4
:1013D000FB6818461037BD4680BD00BF640B002077
:1013E000E513000880B582B000AF7860084B1B7C25
:1013F000002B02D14FF0FF3306E0054B9B68391DEF
:10140000012203489847012318460837BD4680BD8E
:10141000640B002080B582B000AF0C4B1B7C002B0E
:1014200005D14FF0FF330DE04FF0FF330AE000BF6E
:10143000064BDB68F91D0122044898470346002B40
:10144000F2D1FB7918460837BD4680BD640B0020F9
:1014500080B59CB002AFF860B9607A6000233B664B
:101460000023FB650023FB61002387F84A3000233B
:101470007B61BB687B667B6E1B78002B00F0D281A2
:101480007B6E1B7887F8493097F84930252B0BD0B5
:1014900097F84920FB6810469847FB690133FB61C8
:1014A0007B6E01337B66BCE1012387F84B30002360
:1014B0007B65002387F85B3020E07B6E01337B6621
:1014C0007B6E1B7887F8493097F849302F2B0FD95E
:1014D00097F84930392B0BD87A6D13469B0013448B
:1014E0005B001A4697F849301344303B7B6505E0B2
:1014F0007B6E013B7B66012387F85B3097F85B309E
:1015000083F00103DBB2002BD7D17B6E01337B6606
:101510007B6E1B782E2B2ED100233B65002387F892
:101520005B3020E07B6E01337B667B6E1B7887F837
:10153000493097F849302F2B0FD997F84930392B7C
:101540000BD83A6D13469B0013445B001A4697F87C
:1015500049301344303B3B6505E07B6E013B7B66C5
:10156000012387F85B3097F85B3083F00103DBB22F
:10157000002BD7D102E07B6E013B7B667B6E013393
:101580007B667B6E1B7887F8493097F84930642B6F
:1015900024D097F84930692B20D097F84930662B32
:1015A0001CD097F84930462B18D097F84930782B43
:1015B00014D097F84930582B10D097F849306F2B3A
:1015C0000CD097F84930622B08D097F84930702B2F
:1015D00004D097F84930752B40F0DC8097F84930FB
:1015E000642B03D097F84930692B15D17B681A1DFD
:1015F0007A601B68BB6107F1180107F1200097F8BA
:101600004B3000930A23012203F09CFDF86507F19B
:101610002002FB6D13443B6697F84930582B03D0EA
:1016200097F84930782B1CD197F84930782B02D1A4
:10163000002387F84B307B681A1D7A601B687B613A
:1016400007F1140107F1200097F84B3000931023A5
:10165000002203F077FDF86507F12002FB6D1344CB
:101660003B6697F849306F2B0BD097F84930622BC7
:1016700007D097F84930702B03D097F84930752B75
:101680006AD197F84930702B0DD17B681A1D7A60AA
:101690001B683B6107F1100107F11403042218468F
:1016A00000F0C6F804E07B681A1D7A601B687B6155
:1016B00097F84930623B132B3AD801A252F823F035
:1016C00019170008311700083117000831170008F2
:1016D00031170008311700083117000831170008CA
:1016E00031170008311700083117000831170008BA
:1016F00031170008111700082117000831170008DA
:1017000031170008311700083117000829170008A1
:10171000082387F84A300CE0022387F84A3008E0B3
:10172000102387F84A3004E00A2387F84A3000E0A3
:1017300000BF97F84A2007F1140107F1200097F83D
:101740004B3000931346002203F0FCFCF86507F1D0
:101750002002FB6D13443B667A6D07F11C01FB68A8
:1017600000930B46F96D202003F0CCFC3B6E002B60
:1017700054D00AE03B6E5A1E3A661B781A46FB6844
:1017800010469847FB690133FB613B6E1B78002BC9
:10179000F0D143E097F84930632B0BD17B681A1DD9
:1017A0007A601B687B64FB68786C9847FB6901333F
:1017B000FB6133E097F84930732B27D17B681A1D02
:1017C0007A601B68FB64FB6C002B27D0F86C04F07C
:1017D0005FF90346FB657A6D07F11C01FB68009316
:1017E0000B46F96D202003F08DFC0AE0FB6C5A1CBF
:1017F000FA641B781A46FB6810469847FB69013368
:10180000FB61FB6C1B78002BF0D107E097F84920B7
:10181000FB6810469847FB690133FB617B6E01331F
:101820007B6628E600BFFB6918466837BD4680BD69
:10183000F1B5002A4BD011F0030306D011F8014B8B
:10184000013A00F8014B42D0F5E710F003031BD139
:10185000102A04DB103AF0C9102AF0C0FAD213079C
:1018600044BF30C930C0530744BF51F8044B40F85F
:10187000044B930744BF31F8024B20F8024BD307C7
:1018800044BF0C78047022E0C3070AD4042A16D39C
:1018900051F8044B043A20F8024B250C20F8025B67
:1018A000F4E7042A0BD351F8044B043A00F8014B37
:1018B000250A20F8025B260E00F8016BF1E7002AEA
:1018C0001EBF11F8014B00F8014B013AF7D1F1BDF1
:1018D00080B582B000AF03F07BFE03F073FE02F030
:1018E000B5FD064803F0F8FBFFF794FD0346FB71D6
:1018F000FB791846FFF776FDF6E700BFA45E000807
:1019000080B400AF0E4BD3F86831002B0AD10D4BD9
:10191000D3F8803403F02003002B01D10A4B0AE0F6
:101920000A4B08E0064BD3F86831012B02D1084B73
:101930001B6800E000231846BD465DF8047B704735
:10194000001000400008004500F04902005A620201
:10195000780B002080B400AF034B1B681846BD46CF
:101960005DF8047B704700BF7C0B002080B400AFA3
:10197000074BD3F8803403F02003002B01D1054B33
:1019800000E0054B1846BD465DF8047B704700BF7C
:101990000008004500A60E0040420F0080B584B04C
:1019A00000AF78600D4B1B6803F5742303F23F23EF
:1019B0000B4AA2FB03239A0C7B6802FB03F3FB6038
:1019C000FB680233074AA2FB03235B08184603F0B7
:1019D00039FC00BF1037BD4680BD00BF600B002042
:1019E00083DE1B43ABAAAAAA80B582B000AF002356
:1019F0007B600F4B93F8D930DBB203F00F03052B5C
:101A000002D10C4B7B600DE0094B93F8D930DBB26F
:101A100003F00F030A2B02D1074B7B6002E007485B
:101A2000FFF772FC7B6818460837BD4680BD00BFD3
:101A300000200045236E8C033E07E102645F00082E
:101A400080B483B000AF044B7B607B6818460C37D2
:101A5000BD465DF8047B70470040420F80B582B000
:101A600000AF00237B601F4BD3F888305B0ADBB2EA
:101A70003B601D4BD3F8803403F02003002B10D0C3
:101A80003B684A2B0DD93B68602B0AD83B684B3B1F
:101A90003B603B68154A03FB02F2154B13447B6025
:101AA0001AE0114BD3F8803403F02003002B10D13F
:101AB0003B684D2B0DD93B68642B0AD83B684E3BE5
:101AC0003B603B680B4A03FB02F20B4B13447B6009
:101AD00002E00A48FFF718FC7B6818460837BD4645
:101AE00080BD00BF0030004000080045005A62027F
:101AF000005ED0B200F04902002087B27C5F00088F
:101B000080B582B000AFFFF7A9FF0346044AA2FBED
:101B10000323DB087B607B6818460837BD4680BD21
:101B2000ABAAAAAA80B584B000AF78607B683D4AB2
:101B300093420DD13C4B9B6A3B4A23F004039362D2
:101B400000BF394B9B6A03F00203002BF9D065E01C
:101B50007B6803F48033002B10D0344BD3F89020F3
:101B60007B68DBB2012101FA03F3DB432F49134009
:101B7000C1F89030042003F065FB4FE07B681B0A3E
:101B8000DBB2FB60FB68052B3ED801A252F823F0C4
:101B9000A91B0008B91B0008C91B0008D91B0008B5
:101BA000E91B0008F91B00087B68DBB2204A012111
:101BB00001FA03F313642AE07B68DBB21C4A0121BB
:101BC00001FA03F3536422E07B68DBB2184A012177
:101BD00001FA03F393641AE07B68DBB2154A012132
:101BE00001FA03F3136412E07B68DBB2114A0121AE
:101BF00001FA03F353640AE07B68DBB20D4A01216A
:101C000001FA03F3936402E00B48FFF77DFB7B6866
:101C1000B3F5887F02D1054B1F221A6400BF10372D
:101C2000BD4680BD20000100001003400030004090
:101C30000010004000100240945F000880B584B09E
:101C400000AF78607B68384A934206D1374B9B6A75
:101C5000364A43F00403936262E07B6803F4803306
:101C6000002B0CD0324BD3F890207B68DBB20121E3
:101C700001FA03F32E491343C1F8903050E07B681A
:101C80001B0ADBB2FB60FB68052B3FD801A252F8B0
:101C900023F000BFAD1C0008BD1C0008CD1C0008CF
:101CA000DD1C0008ED1C0008FD1C00087B68DBB291
:101CB000204A012101FA03F313672AE07B68DBB2B3
:101CC0001C4A012101FA03F3536722E07B68DBB26F
:101CD000184A012101FA03F393671AE07B68DBB22B
:101CE000154A012101FA03F3136712E07B68DBB2A6
:101CF000114A012101FA03F353670AE07B68DBB262
:101D00000D4A012101FA03F3936702E00B48FFF744
:101D1000FBFA7B68B3F5887F02D1054B00221A6479
:101D200000BF1037BD4680BD2000010000100340F9
:101D3000003000400010004000100240AC5F00087E
:101D400080B487B000AF78600023FB757B6803F038
:101D50000103002B0ED07B681A0B796840F6FC73E8
:101D60000B4003F1804303F54433194602F00303AB
:101D70000B6056E07B6803F00203002B15D07B68F4
:101D80001B092B4A03F00703C2F860377B681B0A64
:101D9000274A03F00703C2F864377B681B0B244A09
:101DA00003F00703C2F86C373BE000233B612FE0F0
:101DB0003B691B017A6822FA03F37B607B6803F4BA
:101DC0000043002B09D07A6840F6FC73134003F1FE
:101DD000804303F50433FB6008E07A6840F6FC7347
:101DE000134003F1804303F58053FB607A6840F6AB
:101DF000FC731340002B06D07B681B0B03F007021B
:101E0000FB681A6001E00123FB753B6901333B610C
:101E10003B69012B05D8FB7D83F00103DBB2002B6E
:101E2000C6D100BF1C37BD465DF8047B704700BFBC
:101E30000010024080B485B000AF124B1B6ADB0C6F
:101E4000C3F30C037B600023BB600123FB600FE046
:101E50000D4AFB6852F823307A689A4205D10B4A42
:101E6000FB6852F82330BB6005E0FB680133FB6080
:101E7000FB680A2BECD9BB6818461437BD465DF8E1
:101E8000047B7047003000400C5F0008B45E00081F
:101E900080B500AFFFF734FE0246044BD3F8403262
:101EA000DBB20133B2FBF3F3184680BD00100040F3
:101EB00080B500AFFFF7BEFF0246044BD3F84032B7
:101EC000DBB20133B2FBF3F3184680BD00100240D1
:101ED00080B582B000AF00237B60274BD3F8343449
:101EE00003F00303032B3FD801A252F823F000BFF5
:101EF000011F0008511F0008591F0008611F00083A
:101F00001D4BD3F8303403F00303032B1CD801A27C
:101F100052F823F0251F00082D1F0008391F000864
:101F2000411F0008FFF7ECFC786010E003F0D8F9DF
:101F300003469B087B600AE0FFF718FD786006E027
:101F400003F0CEF9786002E000237B6000BF0EE072
:101F500003F0CDF978600AE0FFF79AFF786006E0B9
:101F600003F067F9786002E000237B6000BF7B68C4
:101F700018460837BD4680BD001000402DE9B04F1F
:101F80008CB000AF78610023FB620123FB6100236A
:101F9000BB6200237B6200233B627B69032B1CD85E
:101FA000464A7B6928335B0113441B6803F007032F
:101FB000BB62424A7B6928335B01134404331B68CC
:101FC0001B0ADBB23B623D4A7B6928335B01134449
:101FD00004331B68DBB27B6217E07B690E2B11D1E7
:101FE000364BD3F8C03603F00703BB62334BD3F84C
:101FF000C4361B0ADBB23B62304BD3F8C436DBB2CB
:102000007B6202E02E48FFF77FF9BB6A032B25D8DD
:1020100001A252F823F000BF292000083120000857
:102020004D20000855200008FFF752FFF86218E025
:10203000224BD3F8FC36DBB20133FB61FFF728FFFC
:102040000246FB69B2FBF3F3FB620AE003F04FF9CF
:10205000F86206E003F044F9F86202E00023FB6254
:1020600000BFFB6A00229A4693467B6A0022BB604F
:10207000FA60D7E902120B465C1C134643F10005D7
:1020800004FB0BF20AFB05F31344AAFB04894B443F
:1020900099463A6A7B6A1344013300223B607A60B6
:1020A000D7E900234046494603F0E9FD02460B46C6
:1020B000134618463037BD46BDE8B08F00100240C9
:1020C000C45F000880B584B000AF78607B681B787F
:1020D000FB60FB680E2B02D91F48FFF715F97B68E0
:1020E0009B78FF2B02D01D48FFF70EF9FB68032BEE
:1020F00017D87B685B781A4A1946FB6828335B015E
:10210000134419607B68DB781B029BB27A68927873
:1021100013491A43FB6828335B010B4404331A60EC
:1021200016E0FB680E2B10D17B685A780C4BC3F875
:10213000C0267B68DB781B029BB27A6892781146D6
:10214000074A0B43C2F8C43602E00648FFF7DCF842
:102150001037BD4680BD00BFDC5F0008F85F000897
:10216000001002402460000880B584B000AF7860A1
:102170000023FB600023BB607B68032B08D8214A47
:102180007B685B01134403F5A1631B68BB600AE035
:102190007B680E2B04D11B4BD3F8C836BB6002E022
:1021A0001948FFF7B1F8BB68042B22D801A252F8F6
:1021B00023F000BFC9210008D1210008D92100085F
:1021C000E1210008E921000803F091F8F86013E02C
:1021D00003F086F8F8600FE0FFF76AFEF8600BE0A6
:1021E000FFF7B8FBF86007E07868FFF7C7FEF86014
:1021F00002E00023FB6000BFFB6818461037BD46B5
:1022000080BD00BF001002403C60000880B584B073
:1022100000AF78600B46FB700023FB600023BB60BF
:10222000334BD3F8803403F02003002B1ED07B689F
:10223000304A934238BF1346FB60FB682E4A9342F4
:1022400028BF1346FB60FA682C4B13442C4AA2FBB0
:1022500003231B0EBB60BB682A4A03FB02F2254B1B
:102260001344FB60BB684B33BB6028E0204BD3F8C2
:10227000803403F02003002B1ED17B68224A934256
:1022800038BF1346FB60FB681B4A934228BF1346C6
:10229000FB60FA681D4B13441D4AA2FB03231B0E6F
:1022A000BB60BB681B4A03FB02F2174B1344FB6085
:1022B000BB684E33BB6002E01748FFF725F8174BA9
:1022C000D3F8883023F4FF3323F4C073BA68520282
:1022D00002F4FF321A43FB78DB0103F4C0730F49A9
:1022E0001343C1F88830FB6818461037BD4680BDDF
:1022F00000080045005ED0B200C0E1E400CF604EAF
:102300006BCA5F6B005A6202002087B200D89D4EF4
:10231000851DD96F00F0490254600008003000406C
:1023200080B584B000AF78600B46FB70134BD3F8D8
:10233000883003F02003002B01D000F023F8104B6D
:10234000742283F8E820FB7819467868FFF75EFF6F
:10235000F8600A4BD3F88830084A43F02003C2F8EB
:10236000883000BF054BD3F8883003F04003002BC2
:10237000F8D0FB6818461037BD4680BD00300040DD
:102380000020004580B500AF0C4BD3F890300B4ACD
:1023900043F00303C2F89030084BD3F88830074A63
:1023A00023F02003C2F8883002F004FD0120FFF77B
:1023B000F5FA0348FFF742FC00BF80BD0030004043
:1023C0001C00010080B582B000AF0346FB71174BC3
:1023D000D3F8883003F00803002B01D000F02AF86E
:1023E000134B742283F8A820104BD3F8883023F4C1
:1023F000C022FB795B0403F4C0230C491343C1F8EA
:1024000088300A4BD3F88830084A43F00803C2F8F2
:10241000883000BF054BD3F8883003F01003002B41
:10242000F8D000BF00BF0837BD4680BD0030004077
:102430000020004580B500AF0C4BD3F890300B4A1C
:1024400043F00C03C2F89030084BD3F88830074AA9
:1024500023F00803C2F8883002F0ACFC0120FFF73B
:102460009DFA0348FFF7EAFB00BF80BD0030004043
:102470001D00010080B582B000AF0346FB71154B13
:10248000D3F8883003F00103002B01D000F026F8C8
:10249000FB79002B04D1104B052283F8D92003E0EF
:1024A0000D4B0A2283F8D9200A4BD3F88830094A09
:1024B00043F00103C2F8883000BF064BD3F88830E0
:1024C00003F00203002BF8D000BF00BF0837BD4661
:1024D00080BD00BF003000400020004580B500AF47
:1024E0000B4BD3F890300A4A43F0F003C2F8903017
:1024F000074BD3F88830064A23F00103C2F888302E
:1025000002F058FC0120FFF749FA00BF80BD00BF70
:102510000030004080B489B000AF5123FB6100233C
:10252000BB6114237B6102233B610223FB60032315
:10253000BB6004237B6005233B602E4BD3F88034C3
:1025400003F02003002B06D15423FB6144F624132F
:10255000BB6113237B61284B5A69284B13403A68AF
:10256000D20602F0F0421A43BB68DB0503F0F063C9
:102570001A437B681B0503F4E0031A437B69DB0203
:102580009BB21D4913434B611B4B9B6923F47E6235
:102590003B695B0103F47E63174913438B61164B60
:1025A000DB6823F01E02FB685B0003F01E03124988
:1025B0001343CB60104B1B6923F0FF5323F48013AC
:1025C000FA6911050E4A0A400B4913430B610A4B85
:1025D000DB6A0C4A1A40BB69DB0123F07C4323F021
:1025E0007F0305491343CB6200BF2437BD465DF826
:1025F000047B70470008004500300040FF070F8053
:102600000000F01F7F0000F080B483B000AF0346ED
:10261000FB71FB79002B27D0164B5B6923F040023E
:10262000FB79154951F823309B0103F04003114910
:1026300013434B610F4B1B69104A1A40FB79104939
:1026400051F8233059000F4B0B400A4913430B61DB
:10265000084B1B6AC3F31202FB790B4951F8233074
:10266000DB04044913430B6200BF0C37BD465DF821
:10267000047B704700300040385F00080100F0FF25
:10268000E05E0008FEFF0F000C5F000880B483B01E
:1026900000AF0346FB71FB79002B1BD0104BDB6BAB
:1026A00023F00072FB790F4951F823305B0603F0E9
:1026B00000730B491343CB63FB790B4A52F8233069
:1026C000C3F31202FB79094951F82330DB040449B2
:1026D00013438B6300BF0C37BD465DF8047B704726
:1026E00000300040385F0008E05E00080C5F000822
:1026F00080B582B000AF0A4B9B687B607B6803F4B7
:102700008053002B07D1064A7B6843F480539360C3
:102710003220FFF743F900BF0837BD4680BD00BF38
:102720000030004080B483B000AF094B9B687B60F1
:102730007B6803F48053002B04D0054A7B6823F4A4
:102740008053936000BF0C37BD465DF8047B704733
:102750000030004080B584B000AF0346FB710B46EB
:10276000BB7113467B71FB79002B05D04D4B5B6928
:102770004C4A43F010035361BB79002B05D0494B01
:10278000DB6B484A43F08073D363464BDB6A454AB0
:1027900043F04003D3620320FFF700F9414BDB6AAB
:1027A000404A23F04003D3620220FFF7F7F83D4B85
:1027B000DB6A3C4A23F00103D3620520FFF7EEF801
:1027C0007B79002B05D0374B5B69364A43F4803365
:1027D00053610520FFF7E2F8FB79002B05D0314B60
:1027E000DB6A304A23F00203D362BB79002B07D0A7
:1027F0002C4BD3F8C0302B4A23F00103C2F8C03071
:102800000220FFF7CBF8FB79002B05D0254B1B6985
:10281000244A43F001031361BB79002B05D0214BFF
:10282000DB6B204A43F08063D3630220FFF7B6F8E6
:10283000FB79002B05D01B4B1B691A4A23F00103BF
:102840001361BB79002B05D0164BDB6B154A23F0C7
:102850008063D3630C20FFF7A1F87B79002B1CD099
:102860000023FB6005E0FB680A33FB600A20FFF7EA
:1028700095F80C4B9B6A03F00073B3F1007F03D013
:10288000FB68B3F5167FEED30A20FFF787F8054BF8
:102890005B69044A23F48033536100BF1037BD469F
:1028A00080BD00BF0030004080B483B000AF03465D
:1028B0000A46FB711346BB71FB79002B0BD0114B01
:1028C000DB6A104A43F00203D3620E4B5B690D4A88
:1028D00023F010035361BB79002B0DD0094BD3F8C3
:1028E000C030084A43F00103C2F8C030054BDB6B2F
:1028F000044A23F08073D36300BF0C37BD465DF8F4
:10290000047B70470030004080B582B000AF786033
:102910007B68002B02D11C48FEF7F6FC1B4B5B6961
:1029200003F02003002B01D000F032F802F042FA4D
:10293000FFF7DEFEFFF7EEFD7B681B781846FFF71A
:1029400063FE7B685B781846FFF7A0FE0F4B5B6960
:102950000E4A43F0200353610F20FFF71FF80B4B83
:10296000DB6A0A4A23F00403D3620F20FFF716F84C
:102970007B689B781A4601210120FFF7EBFE00BF20
:102980000837BD4680BD00BF7060000800300040C1
:1029900080B500AF01210120FFF786FF0F4BDB6AF6
:1029A0000E4A43F00403D3620C4BDB6A0B4A43F03C
:1029B0000103D362094B5B69084A23F0200353618A
:1029C0000748FFF73BF9054B5B6803F00403002B56
:1029D00001D1FFF7A7FE00BF80BD00BF003000405F
:1029E0001E0001002DE9B04384B000AF786039606B
:1029F0007968002932D07968002088468146396894
:102A000000200A46034602FB09F008FB03F10144DB
:102A1000A8FB02454B191D46134A4FF00003204600
:102A2000294603F02CF902460B46C7E90223D7E9F1
:102A30000223012B02D30D48FEF766FCD7E9020101
:102A40004FF000024FF00003820842EA81728B08C7
:102A5000C7E90223BB68184602F051FC00BF1037DB
:102A6000BD46BDE8B08300BF40420F00886000084B
:102A700080B584B000AF78607B68BB600023FB60EA
:102A800009E0BA680C49FB6851F823309A4206D035
:102A9000FB680133FB60FB68042BF2D900E000BF48
:102AA000FB68042B02D90548FEF72EFCFB6818468C
:102AB0001037BD4680BD00BFB4600008E860000864
:102AC00080B584B000AF78600B46FB707868FFF784
:102AD000CFFFF8600C4AFB6852F823301846FFF726
:102AE00021F80A4AFB6832F81330184602F0B5FCA8
:102AF000FB7800221946786802F043FC034618462A
:102B00001037BD4680BD00BFC8600008DC6000080B
:102B100080B582B000AF1048FFF7AAFF78600F4A77
:102B20007B6852F82330002B02D10D48FEF7ECFBF6
:102B30000A4A7B6852F823300A497A6851F8222001
:102B4000104609497A6851F822201146984700BF7B
:102B50000837BD4680BD00BF00601040800B0020DC
:102B60002C610008B4600008940B002080B582B08E
:102B700000AF1048FFF77CFF78600F4A7B6852F87F
:102B80002330002B02D10D48FEF7BEFB0A4A7B68BA
:102B900052F823300A497A6851F822201046094930
:102BA0007A6851F822201146984700BF0837BD4681
:102BB00080BD00BF00701040800B002068610008DD
:102BC000B4600008940B002080B582B000AF1048BC
:102BD000FFF74EFF78600F4A7B6852F82330002BD6
:102BE00002D10D48FEF790FB0A4A7B6852F8233069
:102BF0000A497A6851F82220104609497A6851F842
:102C000022201146984700BF0837BD4680BD00BF4F
:102C100000801040800B0020A4610008B460000810
:102C2000940B002080B582B000AF1048FFF720FF62
:102C300078600F4A7B6852F82330002B02D10D4890
:102C4000FEF762FB0A4A7B6852F823300A497A6829
:102C500051F82220104609497A6851F8222011467D
:102C6000984700BF0837BD4680BD00BF00901040A8
:102C7000800B0020E0610008B4600008940B002085
:102C800080B582B000AF1048FFF7F2FE78600F4ABF
:102C90007B6852F82330002B02D10D48FEF734FB3D
:102CA0000A4A7B6852F823300A497A6851F8222090
:102CB000104609497A6851F822201146984700BF0A
:102CC0000837BD4680BD00BF00601240800B002069
:102CD0001C620008B4600008940B002080B500AFAF
:102CE000044B1B68044A126811460448984700BF09
:102CF00080BD00BFAC0B0020A80B0020004013409B
:102D000080B485B000AF154BD3F82C38BB60BB68DE
:102D100023F4616323F00F03002B16D00023FB6024
:102D200010E0FB68BA6822FA03F303F00103002BFA
:102D300005D0FB6803F54E4340337B6005E0FB683C
:102D40000133FB60FB681F2BEBDD00237B607B689E
:102D500018461437BD465DF8047B704700A000405C
:102D600080B483B000AF104B7B6002E07B68013B16
:102D70007B600E4BD3F8203803F48003002B02D085
:102D80007B68002BF2D17B68002B03D14CF64763A4
:102D90003B6001E000233B603B6818460C37BD46B2
:102DA0005DF8047B704700BFE070720000A0004037
:102DB00080B400AF064B4FF48052C3F82028044B78
:102DC000044AC3F82C2800BFBD465DF8047B704759
:102DD00000A00040E0F1FFFF80B500AF40F211100D
:102DE000FEF7A0FE40F2111002F037FB064B4FF643
:102DF000FF72A3F85022044B4FF6FF72A3F84C2247
:102E00000023184680BD00BF0034004580B582B065
:102E100000AFFFF7A5FF78607B68002B0BD10C4B50
:102E20000122C3F8042840F21110FEF707FF40F218
:102E3000111000F0A9FC074B0022A3F85022054B0B
:102E40000022A3F84C227B6818460837BD4680BD97
:102E500000A000400034004580B584B000AF786029
:102E600039600423FB603B68002B23D0FFF778FF19
:102E7000F860FB68002B1FD1FFF79AFF124A7B68AE
:102E8000C3F30803C2F800380F4B0122C3F80C2823
:102E9000FFF766FFF860FB68002B0FD1FFF730FFEC
:102EA000F860FB68002B0AD1074BD3F810283B6869
:102EB0001A6004E000BF02E000BF00E000BFFB6852
:102EC00018461037BD4680BD00A000402DE9F00F28
:102ED0008EB000AFF862B9624AF210437B63424A97
:102EE000FB6A9BB2A2F81C323F4A0023A2F83C3294
:102EF0003D4A0023A2F828323B4BB3F828329BB25C
:102F0000394A43F001039BB2A2F8283202E07B6BFE
:102F1000013B7B637B6B002B06D0334BB3F8203235
:102F20009BB21BB2002BF2DA7B6B002B54D02E4BE2
:102F3000B3F818329BB203F00203002B4CD02A4B9B
:102F4000B3F814329BB29BB200223B627A624FF01C
:102F500000004FF000013B6A19040020224BB3F837
:102F600010329BB29BB20022BB61FA614FF00002AB
:102F70004FF00003BE693300002240EA020A41EA32
:102F8000030B194BB3F80C329BB29BB200223B618E
:102F90007A61D7E904120B464FEA13490B464FEA10
:102FA00003484AEA08044BEA09050F4BB3F8083214
:102FB0009BB29BB20022BB60FA60D7E902120B46BB
:102FC00023433B6013462B437B60BB6AD7E9001267
:102FD000C3E90012012300E0002318463837BD463C
:102FE000BDE8F00F704700BF00340045B0B586B0B3
:102FF00000AF786001237B614FF000024FF00003C7
:10300000C7E902237B68002B02D11548FEF77CF943
:1030100000233B611CE007F1080319463869FFF7FC
:1030200055FF0346002B0FD0D7E9022394B20025A9
:103030000C4B23442B4308D100237B61D7E90223A7
:103040007968C1E9002306E000BF3B6901333B61B9
:103050003B693F2BDFD97B6918461837BD46B0BDA9
:1030600058620008B2FDFFFF80B485B000AF786001
:103070007B6803F00703FB600C4BDB68BB60BA683E
:103080004FF6FF031340BB60FB681A02BB68134393
:1030900043F0BF6343F40033BB60044ABB68D360B2
:1030A00000BF1437BD465DF8047B704700ED00E0BB
:1030B00080B400AF044BDB681B0A03F0070318461B
:1030C000BD465DF8047B704700ED00E080B584B03C
:1030D00000AF78600D4B1B6803F5742303F23F23A8
:1030E0000B4AA2FB03239A0C7B6802FB03F3FB60F1
:1030F000FB680233074AA2FB03235B08184602F071
:103100009BF900BF1037BD4680BD00BF600B00209B
:1031100083DE1B43ABAAAAAA80B584B000AF4FF0F0
:10312000E0235B6803F00F030133BB60BB685B0106
:103130007B60BB68052B02D94248FEF7E5F87B6847
:10314000A02B02D94048FEF7DFF8FFF7B1FF034696
:103150003E4A13600023FB600BE03D4AFB6852F8D7
:1031600023203A49FB689B000B445A60FB680133FB
:10317000FB60FA68BB689A42EFD30023FB600FE064
:10318000334AFB68134403F540731B78D9B22F4AC6
:10319000FB68134418330A461A70FB680133FB605E
:1031A000FA687B689A42EBD32A4B5B68274AC2F8DD
:1031B000C430284B9B68254AC2F8C830254BDB68D1
:1031C000224AC2F8CC30234B1B69204AC2F8D030C7
:1031D000204B5B691D4AC2F8D4301E4B5B6A1B4A08
:1031E000C2F8D8301B4B5B6B184AC2F8DC30194B65
:1031F0009B6B164AC2F8E030164BD3F88830134A5E
:10320000C2F8E430134BD3F88C30104AC2F8E830DF
:103210000023FB600EE00F4AFB68134418331B7851
:10322000D9B20A4AFB681344B8330A461A70FB68DD
:103230000133FB60FB680B2BEDD900BF00BF1037DB
:10324000BD4680BD80630008BC630008B00B002051
:1032500000E100E000ED00E080B584B000AF4FF089
:10326000E0235B6803F00F030133BB60BB685B01C5
:103270007B603D4B1B681846FFF7F6FE0023FB60A2
:103280000BE03A49384AFB689B0013445A68FB68D4
:1032900041F82320FB680133FB60FA68BB689A425F
:1032A000EFD30023FB600EE0304A2F49FB680B444C
:1032B00018331978FB68134403F540730A461A70F3
:1032C000FB680133FB60FA687B689A42ECD3284ABA
:1032D000254BD3F8C4305360254A234BD3F8C8306C
:1032E0009360234A204BD3F8CC30D360204A1E4B46
:1032F000D3F8D03013611E4A1B4BD3F8D43053613E
:103300001B4A194BD3F8D8305362194A164BD3F8DD
:10331000DC305363164A144BD3F8E0309363144AFD
:10332000114BD3F8E430C2F88830114A0E4BD3F871
:10333000E830C2F88C300023FB600DE00C4A0A49EB
:10334000FB680B44B8331978FB68134418330A46FA
:103350001A70FB680133FB60FB680B2BEED900BFD2
:1033600000BF1037BD4680BDB00B002000E100E07B
:1033700000ED00E080B500AF084B1B6B074A43F03F
:1033800080031363064B1B68002B05D0044B1B689E
:10339000044A12681046984700BF80BD00100340E1
:1033A000D00C0020D40C002080B584B000AF0346C0
:1033B000FB80B7F90630FB60B7F90630002B02DA64
:1033C0006C48FDF7A1FFB7F906301D2B0BDC6A4BEB
:1033D000D3F884200121FB6801FA03F36649134303
:1033E000C1F8843024E0B7F90630382B0CDC624B8E
:1033F000D3F88820FB68203B012101FA03F35E49E2
:103400001343C1F8883013E0B7F90630772B0FDC8F
:10341000B7F906306B2B0BDD574BD3F89020FB68C8
:10342000603B012101FA03F353491343C1F8903083
:10343000B7F90630202B6DD0202BC0F29580652B7C
:1034400000F392803E2BC0F28F803E3B272B00F290
:103450008B8001A252F823F023350008693500085B
:1034600069350008693500086935000869350008C4
:1034700069350008693500086935000869350008B4
:10348000313500083F350008693500086935000806
:103490006935000869350008693500086935000894
:1034A0006935000869350008693500086935000884
:1034B0006935000869350008693500086935000874
:1034C00069350008693500084D3500085B3500088E
:1034D0006935000869350008693500086935000854
:1034E0006935000869350008693500086935000844
:1034F000F9340008073500081F4B9B691E4A43F04A
:103500000103936131E01C4B9B691B4A43F00203AA
:1035100093612AE0184B9B69174A43F004039361B7
:1035200023E0154B9B69144A43F0100393611CE0A0
:10353000114B9B69104A43F02003936115E00E4B39
:103540009B690D4A43F0400393610EE00A4B9B696F
:10355000094A43F08003936107E0074B9B69064AE1
:1035600043F48073936100E000BF00BF1037BD4695
:1035700080BD00BFF86300080010034080B485B030
:1035800000AF0346FB714A4B9B69FB60484AFB68EE
:1035900023F002039361FA7913469B00134403F26C
:1035A0007623BB60FA68434B1340FB60BB68424A1A
:1035B00003FB02F2414B1344414AA2FB03239B0C41
:1035C0001A05404B1340FA681343FB60BB683A4A44
:1035D00003FB02F23C4B1344394AA2FB03239B0C2E
:1035E0001A023A4B1340FA681343FB60304AFB68F7
:1035F00023F0020393612E4AFB6893612C4B1B6AF4
:10360000FB602B4AFB6823F002031362FA68294B24
:103610001340FB60FB6843F06D5343F40013FB6001
:10362000FB6843F45A3343F48073FB60204AFB6821
:1036300023F002031362FB6823F00C0343F004033E
:10364000FB601B4AFB6823F002031362184AFB6805
:103650001362174B9B6AFB60154AFB6823F0020359
:103660009362FA68134B1340FB60FB6843F0795395
:1036700043F40013FB60FB6843F43833FB600C4AEF
:10368000FB6823F002039362FB6823F00C0343F012
:103690000403FB60064AFB6823F002039362044ABA
:1036A000FB68936200BF1437BD465DF8047B70472A
:1036B00000400045FF000CC05ED8050099A27520AF
:1036C00083DE1B430000F03F4699F91C00FF030016
:1036D00080B584B000AF786001F06CFB02F0C0FBF5
:1036E000234B062283F85A207B68224AA2FB03233D
:1036F0009B097B607B68C3F12403FB60FB68002BA4
:1037000002DBFB68122B02D91B48FDF7FDFD1B4AAB
:10371000FB6813441B7803F07F03194A43F06023CE
:1037200043F4081353644FF41670FFF7CFFC134AA9
:10373000FB6813441B781846FFF720FF114B9B686A
:1037400023F00C03BB600F4ABB6843F00403936093
:103750000C4B1B6923F00C03BB600A4ABB6843F0A7
:103760000403136102F08CFB00BF1037BD4680BD1F
:1037700000200045D34D62101C6400086C630008F3
:10378000001003400040004580B586B000AF0346FE
:10379000FB80FB881B0A9BB27B61FB88DBB23B6131
:1037A00001223B6902FA03F3FB603B691F2B02D93C
:1037B0003148FDF7A9FD7B69052B57D801A252F8C6
:1037C00023F000BFDD370008F73700081138000884
:1037D0002B38000841380008573800084FF0804265
:1037E000FB68136400BF4FF080431A69FB68134005
:1037F000002BF8D03BE04FF08042FB68536400BFE1
:103800004FF080435A69FB681340002BF8D02EE03C
:103810004FF08042FB68936400BF4FF080439A6989
:10382000FB681340002BF8D021E0144AFB681364B6
:1038300000BF124B1A69FB681340002BF9D016E049
:103840000E4AFB68536400BF0C4B5A69FB68134077
:10385000002BF9D00BE0094AFB68936400BF074BCB
:103860009A69FB681340002BF9D000E000BF00BF4D
:103870001837BD4680BD00BF6464000800000240E8
:1038800080B586B000AF0346FB80FB881B0A9BB265
:103890007B61FB88DBB23B6101223B6902FA03F3E7
:1038A000FB603B691F2B02D93448FDF72DFD7B6976
:1038B000052B5DD801A252F823F000BFD5380008CF
:1038C000F13800080D39000829390008413900088D
:1038D000593900084FF08042FB68136700BF4FF072
:1038E00080431A69FB681340FA689A42F7D040E0B7
:1038F0004FF08042FB68536700BF4FF080435A6926
:10390000FB681340FA689A42F7D032E04FF08042E9
:10391000FB68936700BF4FF080439A69FB681340D0
:10392000FA689A42F7D024E0154AFB68136700BF93
:10393000134B1A69FB681340FA689A42F8D018E0F2
:103940000F4AFB68536700BF0D4B5A69FB68134071
:10395000FA689A42F8D00CE0094AFB68936700BF06
:10396000074B9A69FB681340FA689A42F8D000E066
:1039700000BF00BF1837BD4680BD00BF846400088B
:103980000000024080B586B000AFF860B9607A6090
:10399000FB68002B05D0BB68002B02D07B68002B96
:1039A00002D16A48FDF7B0FCFB68002B05D0BB686C
:1039B000002B02D07B68002B01D10423C2E001213F
:1039C000F868FFF77DF878617B69002B01D07B698F
:1039D000B8E0BB685B7A002B23D0FB68D3F8003ECD
:1039E00043F00112FB68C3F8002EFB68D3F8083ED1
:1039F00023F47062FB68C3F8082EFB68D3F8082E26
:103A0000BB685B7B1B0203F470631A43FB68C3F85B
:103A1000082EFB68D3F8083E43F00102FB68C3F8A8
:103A2000082EBB681B7A002B23D0FB68D3F8003E1E
:103A300043F00212FB68C3F8002EFB68D3F8083E7F
:103A400023F47022FB68C3F8082EFB68D3F8082E15
:103A5000BB689B7B1B0403F470231A43FB68C3F809
:103A6000082EFB68D3F8083E43F00202FB68C3F857
:103A7000082EBB681B791B0103F03002BB685B7921
:103A80009B0103F040031A43BB689B799B0003F042
:103A90000C031A43BB68DB79DB039BB21A43BB6898
:103AA000DB7B5B08DBB2DB0203F400631A43BB6819
:103AB000DB7B9B0303F480431A43BB681B7C1B0323
:103AC00003F480531A43BB68DB7ADB01DBB21A4391
:103AD000BB681B7B5B0203F40073134343F00102DA
:103AE000FB681A60BB68DB7A002B17D0BB681B68C9
:103AF0004FF41652B2FBF3F101FB03F3D31A002B80
:103B000009D1BB681B684FF41652B2FBF3F35A1E7F
:103B1000FB681A620FE041F2516313E0BB681B6857
:103B20007A681946F86800F053F878617B69002BD1
:103B300001D07B6906E0BB689B7A1946F86801F002
:103B40009DFC002318461837BD4680BDA4640008BC
:103B500080B582B000AF78607B68002B02D11B4833
:103B6000FDF7D2FB14220021786801F058FF7B6832
:103B70004FF4E1321A607B6800221A717B680022E0
:103B80005A717B6801229A717B680022DA717B6826
:103B900000221A727B6800225A727B680022DA7255
:103BA0007B6800225A737B6800229A737B6800222C
:103BB000DA737B6800229A727B6800221A747B6831
:103BC00000221A7300BF0837BD4680BDF4640008A8
:103BD00080B58CB000AFF860B9607A604FF0FF3309
:103BE000FB620F23BB624FF0FF337B62FB68002B4D
:103BF00005D0BB68002B02D07B68002B02D1544853
:103C0000FDF782FBFB68002B05D0BB68002B02D0C0
:103C10007B68002B01D1042395E0FB681B6803F44B
:103C20000063002B10D0FB681B6803F48043002B5B
:103C300000F088807A68BB68B2FBF3F3BB61BB69B4
:103C40005A1EFB681A627DE0BB68424AA2FB03234E
:103C50005A0913465B001344FB61BB6A3B6242E0B6
:103C60003B6A082B03D8FA6AFB699A423FD97A6803
:103C700013469B0013445B0019463B6A0133BA6844
:103C800002FB03F3B1FBF3F3053B334AA2FB03232F
:103C9000DB08BB61BB69B3F5803F20D23B6A0133CF
:103CA000BA69013202FB03F37A68B2FBF3F37B617A
:103CB000BA687B699A4203D27A69BB68D31A02E078
:103CC000BA687B69D31A3B613A69FB6A9A4207D2A8
:103CD0003B69FB623B6ABB62BB697B6200E000BF81
:103CE0003B6A013B3B623B6A032BB9D800E000BF53
:103CF000BB6A01337A6A013202FB03F37A68B2FBD2
:103D0000F3F37B61BA687B699A4203D27A69BB6834
:103D1000D31A02E0BA687B69D31A3B613A69FB693E
:103D20009A4202D941F251630DE07B6AB3F5803FBC
:103D300002D341F2516306E0FB68BA6A9A62FB68FB
:103D40007A6A1A62002318463037BD4680BD00BF2C
:103D5000186500081F85EB51CDCCCCCC80B584B064
:103D600000AFF860B9607A60FB68002B02D0BB68D6
:103D7000002B02D11B48FDF7C7FAFB68002B02D0CD
:103D8000BB68002B01D1042327E0FB68D3F8003E79
:103D900003F00103002B15D104231EE000BFFB68D4
:103DA000D3F8043E03F02003002BF8D0BB681B7847
:103DB0001A46FB68C3F8202EBB680133BB607B68E2
:103DC000013B7B607B68002BE8D100BFFB689B68F0
:103DD00003F00803002BF9D0002318461037BD4626
:103DE00080BD00BF6C65000880B586B000AFF8608C
:103DF000B9607A6000237B61FB68002B02D0BB684E
:103E0000002B02D13848FDF77FFAFB68002B02D067
:103E1000BB68002B01D1042361E0FB68D3F8003EAE
:103E200003F00203002B54D1012358E000BFFB68CC
:103E3000D3F8043E03F04003002BF8D0FB68D3F81E
:103E4000043E03F00203002B13D0FB68D3F8003EBE
:103E500043F40032FB68C3F8002EFB68D3F8043E3D
:103E600043F00202FB68C3F8042E41F24D637B610C
:103E700034E0FB689B683B61FB689A683B691A43C6
:103E8000FB689A603B6903F48043002B02D041F247
:103E900050637B613B6903F40053002B02D041F275
:103EA0004F637B613B6903F40043002B02D041F276
:103EB0004E637B617B69002B0FD1FB68D3F8303EEA
:103EC000DAB2BB681A70BB680133BB607B68013B28
:103ED0007B607B68002BA9D100E000BF7B6918469E
:103EE0001837BD4680BD00BFA465000880B588B006
:103EF00000AF786039607B68002B02D13A48FDF74B
:103F000003FA3B68002B02D13848FDF7FDF93B6806
:103F10009B7B042B02D93648FDF7F6F93B689B7B67
:103F20001A46344B53F82230002B02D13248FDF7A9
:103F3000EBF907F108031846FFF70AFE3B685B68D8
:103F4000BB603B681B7B002B03D13B685B7B002B7A
:103F500001D001233B753B681B7A022B02D102235F
:103F60003B7308E03B681B7A032B02D103233B73AE
:103F700001E000233B733B685B7A012B02D10123F4
:103F80007B7301E000237B733B689B7A002B14BF9B
:103F900001230023DBB23B743B68DB7A002B14BFA8
:103FA00001230023DBB27B7400237B750023BB75E8
:103FB0003B689B7B1A460F4B53F822003B681A68FC
:103FC00007F108031946FFF7DDFCF861FB69002BD8
:103FD00004D0F86901F06EFA034600E000231846A9
:103FE0002037BD4680BD00BFF0650008146600089C
:103FF00038660008DC6500089C66000880B586B05D
:1040000000AFF860B9607A60FB68002B02D11248FB
:10401000FDF77AF9BB68002B02D11048FDF774F95F
:104020007B68002B02D10E48FDF76EF9FB687B61BF
:104030007B691B781A460B4B53F822307A68B968B3
:104040001846FFF7D1FE3861386901F033FA0346AC
:1040500018461837BD4680BDDC66000800670008BA
:1040600020670008DC65000880B586B000AFF86006
:10407000B9607A60FB68002B02D11048FDF744F963
:10408000BB68002B02D10E48FDF73EF97B68002B80
:1040900002D10C48FDF738F9FB687B617B691B781E
:1040A0001A46094B53F822307A68B9681846FFF768
:1040B00055FE002318461837BD4680BD44670008EA
:1040C0006867000888670008DC65000880B400AFF6
:1040D000064B1B6803F00103002B14BF01230023D0
:1040E000DBB21846BD465DF8047B704700700040A7
:1040F000B0B483B000AF44F2580179600E4901209A
:104100004860796801F285417960796800200C4641
:1041100005464FF000004FF000012100002040F064
:10412000F02242F4700242F0E1020B4610461946BA
:104130000C37BD46B0BC7047007000402DE9B04F51
:104140008AB000AF786145F252033B625C4B7B6200
:104150005C4B1B6802220421184601F0D7F9034684
:10416000012B5ED1574BDB6C04221021184601F065
:10417000CDF90346012B02D1534B7B6254E0514BE6
:10418000DB6C03220821184601F0C0F90346012B1D
:1041900002D14E4B7B6247E04A4BDB6C012202218D
:1041A000184601F0B3F90346012B02D1484B7B625C
:1041B0003AE0444BDB6C02220421184601F0A6F9D8
:1041C0000346012B02D1434B7B622DE03D4BDB6C60
:1041D00000220121184601F099F90346012B02D172
:1041E0003D4B7B6220E0374BDB6C052220211846DB
:1041F00001F08CF90346012B02D1384B7B6213E0AE
:10420000304BDB6C08224FF48071184601F07EF9C8
:104210000346012B02D1324B7B6205E0284B7B62C7
:1042200002E04FF0F0337B627B69012B27D100F075
:1042300099F8C7E90601D7E906014FF000024FF0EF
:1042400000030A0000233B6A13443B623B6AA3F568
:104250009A430B3B3B627B6A00229A4693463B6A39
:104260000022BB60FA604FF000024FF00003B96813
:104270000B0000224AEA02044BEA030517E03B6AFE
:1042800003F5105304333B627B6A00229846914643
:104290003B6A00223B607A604FF000024FF000035F
:1042A00039680B00002248EA020449EA0305224665
:1042B0002B46104619462837BD46BDE8B08F00BFD3
:1042C000E2F0F0F000700040E1E1F0F0D1E1F0F058
:1042D000E4E1F0F0E2E1F0F0E8E1F0F0D2E1F0F05A
:1042E000D4E1F0F02DE9B04F88B000AF78601C4BFE
:1042F000FB6100BFFFF7EAFE0346002BFAD17868A6
:10430000FFF71CFFC7E90401D7E904014FF00002E1
:104310004FF000030A000023FB691344FB613B6973
:10432000FB60FB6903F512532133FB61FB6800223C
:104330001C461546FB6900229A4693464FF0000240
:104340004FF000035346002244EA020845EA0309FD
:1043500042464B46104619462037BD46BDE8B08F51
:10436000C29BFFFF2DE9B04382B000AF45F20A03C4
:104370007B60144B01221A6500BF124B1B6802229E
:104380000421184601F0C2F80346002BF5D17B68E2
:1043900003F5045305337B607B6800229846914601
:1043A0004FF000024FF000034346002242F0F03489
:1043B0001D4622462B46104619460837BD46BDE825
:1043C000B08300BF0070004080B483B000AF78605D
:1043D000044A7B68136200BF0C37BD465DF8047B5E
:1043E000704700BF0070004080B487B000AFF86035
:1043F000B9607A60FB68DB00DAB27B681B0203F409
:104400008073134343F003037B61064ABB689360E8
:10441000044A7B69536000BF1C37BD465DF8047BCE
:10442000704700BF0070004080B400AF064B1B68AF
:1044300003F00103002B14BF01230023DBB2184655
:10444000BD465DF8047B70470070004080B582B0C7
:1044500000AF00237B600D4B1B683B603B4618465A
:10446000FDF730FE4CF26850FDF76AFC0320FDF7C3
:104470007BFE78607B6801224FF4E1310320FCF77A
:104480004FFF00BF0837BD4680BD00BFAC670008C6
:1044900080B592B000AF7860434B0222C3F8A827E2
:1044A0004FF0804302225A67FFF722FEC7E910014E
:1044B000D7E910014FF000024FF000030A0000237B
:1044C0001346FB633B6CBB63FB6B44F2DD429342E0
:1044D00003D1BB6B354A934202D03548FCF714FF39
:1044E0000120FFF7FFFEC7E90C01D7E90C014FF0EF
:1044F00000024FF000030A0000231346FB623B6BEF
:10450000BB62FB6A43F2B942934203D1BB6AB3F187
:10451000F03F02D02748FCF7F7FE786801F008F872
:10452000C7E90801D7E908014FF000024FF0000386
:104530000A0000231346FB613B6ABB61FB6946F638
:104540003C12934203D1BB69184A934202D01A48E5
:10455000FCF7DAFE0120FFF7C5FEC7E90401D7E941
:1045600004014FF000024FF000030A00002313463D
:10457000FB603B69BB60FB6843F2B942934203D1E5
:10458000BB68B3F1F03F02D00C48FCF7BDFE00BFA2
:104590000B4B1B6803F00103002BF9D100BF00BFD8
:1045A0004837BD4680BD00BF00100040E1F0F0F08C
:1045B000D0670008E4670008F86700080C68000886
:1045C0000070004080B58CB000AF07F120031846A2
:1045D000FEF70CFDF862FB6A002B32D101F040FCC3
:1045E000D7E9082313461B0C1846FFF771F83B1D4B
:1045F00019469520FEF730FC3B1D043319469620E2
:10460000FEF72AFC3B1D083319469720FEF724FCD1
:104610003B1D103319469920FEF71EFC3B1D143339
:1046200019469A20FEF718FC3B1D0C3319469B20B7
:10463000FEF712FC3B1D1846FFF72AFF01F020FC95
:1046400013E000F0B7FB01F00BFC0A4B062283F8E5
:104650005A20094B094A5A64094B1B6819464FF402
:104660001670FEF7BFF901F00BFC00BF3037BD46F6
:1046700080BD00BF00200045001003405460226050
:10468000600B002080B500AFFEF7A6FBFFF79AFF96
:10469000FEF7BCFB144BB3F1006F03D3124BB3F125
:1046A000805F07D3104BB3F1C05F09D30E4BB3F15A
:1046B000005F05D2042206210C4801F0D9FB10E06E
:1046C0001020FFF7DDF8094801F0C2FB47F2206037
:1046D000FDF736FB1020FDF7B1FA1020FFF754F874
:1046E00000BF00BF80BD00BF4D4400080040134024
:1046F00080B500AF0B4BB3F1006F03D3094BB3F19F
:10470000805F07D3074BB3F1C05F08D3054BB3F10C
:10471000005F04D202220221034801F0A9FB00BF7E
:1047200080BD00BF4D4400080040134080B500AF7D
:1047300001F096FB3B4B9B6A03F00203002B02D176
:104740003948FDF7EFF9394BD3F8903003F4007393
:10475000002B02D03648FDF7E5F90120FDF78AFE6F
:104760003448FDF7DFF93448FDF7DCF9FFF78AFF3D
:104770003248FDF7E5FA01214FF4806000F074FD46
:1047800002212F48FDF7CCFD4FF48030FDF7CAF928
:104790000120FDF717FE2B48FDF7C4F901214FF466
:1047A000127000F061FD2848FEF7AEF8012148F2D2
:1047B000402000F059FD01214FF4806000F054FDCD
:1047C00001214FF4107000F04FFD42F23440FDF72C
:1047D000B7FA012140F2647000F046FD4FF4EC603E
:1047E000FDF7AEFA0D2148F2FC6000F03DFDFFF749
:1047F0007FFF4220FDF7A4FA144BD3F8283423F4AA
:104800007C33124A43F47833C2F82834642148F2E6
:10481000687000F029FD01F033FB0D4B0D4A1A6062
:1048200000BF80BD001003402000010000300040A8
:1048300009000100040001000500010030043404F7
:10484000006CF7B903000100206800080010004563
:10485000600B002000497F0F80B586B000AFF86084
:10486000B9607A603B609D4B7B613B685B0C03F0F9
:104870000103002B08D04FF040231A68BB68DB43CC
:104880004FF0402113400B603B681B0C03F0010309
:10489000002B11D04FF040231A6BFB68DB434FF025
:1048A000402113400B634FF040235A6BBB68DB433E
:1048B0004FF0402113404B633B681B0B03F00F0389
:1048C0000F2B21D13B6AB3F5004F02D08448FCF78F
:1048D0001BFD4FF040239B684FF0402223F08003E4
:1048E00093604FF04023DB684FF0402223F49F6336
:1048F00023F00503D3604FF040231B694FF04022A3
:1049000023F48763136119E03B68C3F30A03002BA8
:1049100014D03B681B0B03F00F039B007A69134410
:1049200019683B68C3F30A03DA433B681B0B03F0C7
:104930000F039B00786903440A401A607B6A002BCE
:1049400008D04FF040231A6A7B6ADB434FF04021C6
:1049500013400B62FB6AC3F30E03002B0AD04FF027
:1049600040235A6AFB6AC3F30E03DB434FF0402136
:1049700013404B62FB6A1B0CC3F30E03002B0BD0DE
:104980004FF040239A6AFB6A1B0CC3F30E03DB4310
:104990004FF0402113408B627B6B002B08D04FF00F
:1049A0004023DA6A7B6BDB434FF040211340CB623C
:1049B0007B685B0C03F00103002B07D04FF0402312
:1049C0001A684FF04021BB6813430B607B681B0CD7
:1049D00003F00103002B0FD04FF040231A6B4FF070
:1049E0004021FB6813430B634FF040235A6B4FF099
:1049F0004021BB6813434B637B68C3F30A03002B5E
:104A000013D07B681B0B03F00F039B007A691344E0
:104A100019687B68C3F30A027B681B0B03F00F0362
:104A20009B00786903440A431A603B6A002B07D055
:104A30004FF040231A6A4FF040213B6A13430B6248
:104A4000BB6AC3F30E03002B09D04FF040235A6A10
:104A5000BB6AC3F30E034FF0402113434B62BB6AA2
:104A60001B0CC3F30E03002B0AD04FF040239A6AAD
:104A7000BB6A1B0CC3F30E034FF0402113438B6240
:104A80003B6B002B07D04FF04023DA6A4FF04021F8
:104A90003B6B1343CB62FB6803F07C633B61114BC0
:104AA000D3F838253B69D943FB680B400D491343C4
:104AB000C1F838350B4BD3F83C250A49BB68134382
:104AC000C1F83C35084BD3F8382507493B691343F7
:104AD000C1F8383500BF1837BD4680BD04400040DE
:104AE00024680008001000450008004580B586B025
:104AF00006AF4FF010130593002304934FF04013BB
:104B00000393002302934FF040430193002300934B
:104B1000054B4FF4485200214FF0A060FFF79CFE78
:104B200000BFBD4680BD00BFEE31010080B500AFC3
:104B30002B4BD3F888302A4A43F47003C2F88830EC
:104B4000274BD3F88830264A43F00F03C2F8883049
:104B5000234BD3F88C30224A43F4406343F00303E1
:104B6000C2F88C301F4BB3F1006F03D31D4BB3F170
:104B7000805F07D31B4BB3F1C05F2DD3194BB3F14B
:104B8000005F29D2184BDB69002B25D1164B4FF063
:104B9000A062C3F80028144BD3F80038124A43F03F
:104BA0000043C2F8003800BF0F4BD3F80038002B89
:104BB000FADB0D4B0322C3F800280B4B0B4A5A615A
:104BC000094B00229A61084B0122DA61BFF36F8F13
:104BD00000BFBFF34F8F00BF00F013FF00BF80BDC9
:104BE00000ED00E0B54D00080030034000FCFF0779
:104BF00080B483B000AF00237B600E4B93F8D930B4
:104C0000DBB203F00F03052B02D10B4B7B6009E0F5
:104C1000084B93F8D930DBB203F00F030A2B01D114
:104C2000064B7B607B6818460C37BD465DF8047BFD
:104C3000704700BF00200045236E8C033E07E10251
:104C400080B483B000AF00237B601E4BD3F8883064
:104C50005B0ADBB23B601C4BD3F8803403F02003CB
:104C6000002B10D03B684A2B0DD93B68602B0AD82B
:104C70003B684B3B3B603B68144A03FB02F2144B1E
:104C800013447B6016E0104BD3F8803403F020030C
:104C9000002B0FD13B684D2B0CD93B68642B09D8F6
:104CA0003B684E3B3B603B680A4A03FB02F20A4BFF
:104CB00013447B607B6818460C37BD465DF8047B67
:104CC000704700BF0030004000080045005A6202F3
:104CD000005ED0B200F04902002087B280B483B0F9
:104CE00000AF044B7B607B6818460C37BD465DF80F
:104CF000047B70470040420F80B582B000AFFFF7E1
:104D00009FFF0346044AA2FB0323DB087B607B680A
:104D100018460837BD4680BDABAAAAAA80B400AF2A
:104D20000C4BD3F86831002B0AD10B4BD3F88034ED
:104D300003F02003002B01D1084B05E0084B03E0F2
:104D4000044BD3F8683100231846BD465DF8047B58
:104D5000704700BF001000400008004500F0490205
:104D6000005A620280B400AF074BD3F8803403F0DE
:104D70002003002B01D1054B00E0054B1846BD4632
:104D80005DF8047B704700BF0008004500A60E00D8
:104D900040420F0080B500AFFFF7AEFF0246044B64
:104DA000D3F84032DBB20133B2FBF3F3184680BDD7
:104DB0000010004080B582B000AF00237B602C4B18
:104DC000D3F8343403F00303032B3FD801A252F885
:104DD00023F000BFE54D0008354E00083D4E0008A9
:104DE000454E0008224BD3F8303403F00303032B65
:104DF0001CD801A252F823F0094E0008114E0008F9
:104E00001D4E0008254E0008FFF788FF786010E06F
:104E100000F0E8FD03469B087B600AE0FFF7A2FF75
:104E2000786006E000F0DEFD786002E000237B6041
:104E300000BF0EE000F0DDFD78600AE0FFF7AAFF9A
:104E4000786006E04FF400437B6002E000237B6063
:104E500000BF074BD3F80034DBB201337A68B2FBF2
:104E6000F3F3044A136000BF0837BD4680BD00BF9E
:104E700000100040600B002010B5174A17490020B1
:104E800000F04AFE4FF480734FF480620021124814
:104E900000F0DFFD124A1349012000F03DFE4FF4FF
:104EA00080734FF4806200210D4800F0D2FD0E4B5C
:104EB0001B68022B0EDD0D4A0A49022000F02CFE71
:104EC000BDE810404FF480734FF480620021074822
:104ED00000F0BFBD10BD00BFEC0C0020C46800088E
:104EE000280D0020C6680008C0680008640D002076
:104EF0002DE9F041D5688046EB020E46144657690D
:104F000005D5384600F092FF45F01005A061124B20
:104F10002B408BB13846A16900F091FF002806DADA
:104F2000E3684FF0FF3043F08003E36011E025F4C5
:104F3000003525F01005E56032464146384600F060
:104F400084FF20F00041761AA1690E44A661002872
:104F5000E6D1BDE8F08100BF10000200F8B50446BC
:104F600038B905460A4B0B4E1F68A74205DC284698
:104F7000F8BDBDE8F84000F062BE304600F05FFECC
:104F8000002818BF4FF0FF3501343C36EDE700BF75
:104F9000C0680008EC0C00202DE9F843C6683C4BC3
:104FA000044633400D4690461BB902273846BDE8FB
:104FB000F883D0F81490484600F03BFF07460028DD
:104FC000F3D1B8F1010F2CD0B8F1020F2ED0B8F107
:104FD000000FEAD1002DE8DBB00404D52368E26AB3
:104FE0009A4238BFE362A169A9420EDC2368E26AF3
:104FF000934238BF134622695818801AA84204DB2E
:10500000206B01EB000CAC4531DC0023C4E901331B
:1050100046F02006A56226F4032626F04006E66048
:10502000C4E7204600F036F80544D3E7484600F0D0
:10503000FDFEB0F1000CE26804DA42F080020127C4
:10504000E260B3E72168A369E06A81422CBF5B1884
:105050001B1821699206A3EB010303D5A26A9342B0
:10506000B8BF13466345ACBFED186544B2E76D1A8F
:10507000B10744BF281AA060F10744BF9B1AEB1A7E
:10508000154448BF6360256026F02006C3E700BFD3
:1050900003001000C3689A0705D121220D4B4FF081
:1050A000FF301A60704703F020021B0309D512B1CC
:1050B000806A013870470368826900691344181ACE
:1050C000F7E70AB1806A7047036882690069134490
:1050D000181A7047E80C00200FB480B582B000AFFA
:1050E00000237B6007F114033B6039683869FCF7E3
:1050F0005BF978607B6818460837BD46BDE880409C
:1051000004B0704780B586B000AFB9607A603B608C
:105110000346FB73BB687B610BE0FA7B3B6A10467E
:1051200098473B681B685A1C3B681A607B690133CF
:105130007B617A697B689A42EFDB00BF00BF18375A
:10514000BD4680BD80B48FB000AFF860B9607A60B2
:105150003B600023FB62FB68BB62BB6A5A1CBA62FD
:1051600000221A7000237B6000237B6200233B62D5
:105170000023FB6100237B630023BB6100233B63AF
:1051800000237B61BB681B687B637B6B002B30D18A
:10519000BB6A30221A70FB6A0133FB62FB6A2CE0A7
:1051A0003B687A6BB2FBF3F3BB613B68BA6902FB05
:1051B00003F37A6BD31A3B633B6B092B03D83B6B2E
:1051C00030333B630AE097F84030002B01D0412296
:1051D00000E061223B6B13440A3B3B63BB697B638A
:1051E000BB6A5A1CBA623A6BD2B21A70FB6A0133BC
:1051F000FB627B6B002BD3D1FB6A18463C37BD4664
:105200005DF8047B704704207146084202D0EFF33A
:10521000098001E0EFF3088081690A884BF6AB63EF
:105220009A4200D0FEE7023181612021016070477F
:1052300000BF80B400AF4FF400431846BD465DF890
:10524000047B704780B483B000AF78607B68002B2C
:1052500004D07B68184601380028FCD100BF0C3709
:10526000BD465DF8047B704780B485B000AF03464F
:105270003960FB80B7F90630002B09DAFA8840F66E
:10528000FC73134003F1804303F50433FB6008E033
:10529000FA8840F6FC73134003F1804303F5805312
:1052A000FB60FB681B6843F00052FB681A603B68B8
:1052B000002B06D1FB681B6843F08042FB681A6034
:1052C00008E03B685A1EFB681A6000BFFB681B6859
:1052D000002BFBDB00BF1437BD465DF8047B704735
:1052E00080B500AFFCF780FB0346184680BD80B553
:1052F00000AFFCF7A5FB03461B09184680BD80B430
:1053000083B000AF78607B681846A0F101000028E8
:10531000FBD100BF0C37BD465DF8047B704780B4FD
:1053200083B000AF78600B46FB70FB78002B01D197
:10533000012320E0FB78042B0ED87B68D3F8F82FEC
:10534000FB78033322FA03F303F00103002B14BFAD
:1053500001230023DBB20EE0FB78052B0AD17B682A
:10536000D3F8F83F03F08003002B14BF0123002380
:10537000DBB200E0002318460C37BD465DF8047B25
:10538000704780B584B000AFF8600B467A60FB725E
:10539000FB7A1946F868FFF7C2FF034683F0010362
:1053A000DBB2002B01D0032321E0FB68D3F8F83FE8
:1053B00003F00803002B09D0FB68D3F8F83F03F093
:1053C0000702FB7A9A4201D0012310E07B68002B90
:1053D00008D0FB7A43F00803DBB21A46FB68C3F837
:1053E000F82F03E0FA7AFB68C3F8F82F0023184679
:1053F0001037BD4680BD80B483B000AFEFF310839B
:105400003B603B687B6072B600BF7B6818460C3718
:10541000BD465DF8047B704780B485B000AF78600E
:105420007B68FB60FB6883F3108800BF00BF143704
:10543000BD465DF8047B704780B483B000AF7860F0
:105440007B68002B03D07B68013B002BFCD100BFA5
:105450000C37BD465DF8047B704780B582B000AF65
:105460000346FB80FB881846FEF78EF9FB8818463A
:10547000FEF706FA00BF0837BD4680BD80B483B092
:1054800000AF78600B46FB70FB78002B06D07B6882
:105490005B6843F480727B685A6005E07B685B68F8
:1054A00023F480727B685A6000BF0C37BD465DF8FC
:1054B000047B704780B483B000AF78607B68002BBA
:1054C00001D1002301E042F6AF7318460C37BD4608
:1054D0005DF8047B704780B584B000AF78603960B8
:1054E00039687868FEF702FD0346FB81FB89002BD3
:1054F00001D0FB8906E07B68BB603B689A7BBB6898
:105500001A70002318461037BD4680BD80B485B0A0
:1055100000AFF860B9607A60FA68BB681A407B68CF
:1055200022FA03F318461437BD465DF8047B704732
:105530002DE9B04F84B000AF786044F61803FB60EB
:10554000FEF772FF0346002B16D0FB6803F50453E9
:105550002433FB60FB6800229A4693464FF000021A
:105560004FF000035346002242F0F02444F470044C
:1055700044F0E4041D461DE07868FEF725FF012293
:1055800000211E20FEF730FFFB6803F5045324338F
:10559000FB60FB680022984691464FF000024FF0F6
:1055A00000034346002242F0F02444F4700444F027
:1055B000E1041D4622462B46104619461037BD46CB
:1055C000BDE8B08F80B500AFFFF7B0F800BF80BD79
:1055D00080B500AFFFF78AFA00BF80BD08B5FBF7C2
:1055E00091FE08BD08B5FBF78DFE08BD08B5FBF7B9
:1055F00089FE08BD08B5FBF785FE08BD08B5FBF7B9
:1056000081FE08BD08B5FBF77DFE08BD08B5FBF7B8
:1056100079FE08BD08B5FBF775FE08BD08B5FBF7B8
:1056200071FE08BD08B5FBF76DFE08BD08B5FBF7B8
:1056300069FE08BD08B5FBF765FE08BD08B5FBF7B8
:1056400061FE08BD08B5FBF75DFE08BD08B5FDF7B6
:105650005FFA08BD08B5FDF789FA08BD08B5FDF782
:10566000B3FA08BD08B5FDF7DDFA08BD08B5FBF7CC
:1056700049FE08BD08B5FBF745FE08BD08B5FDF7B6
:10568000FFFA08BD08B5FBF73DFE08BD08B5FBF7FE
:1056900039FE08BD08B5FBF735FE08BD08B5FBF7B8
:1056A00031FE08BD08B5FBF72DFE08BD08B5FBF7B8
:1056B00029FE08BD08B5FBF725FE08BD08B5FBF7B8
:1056C00021FE08BD08B5FBF71DFE08BD08B5FBF7B8
:1056D00019FE08BD08B5FBF715FE08BD08B5FBF7B8
:1056E00011FE08BD08B5FBF70DFE08BD08B5FBF7B8
:1056F00009FE08BD08B5FBF705FE08BD08B5FBF7B8
:1057000001FE08BD08B5FBF7FDFD08BD08B5FBF7B8
:10571000F9FD08BD08B5FBF7F5FD08BD08B5FBF7B9
:10572000F1FD08BD08B5FBF7EDFD08BD08B5FDF7B7
:10573000D5FA08BD08B5FBF7E5FD08BD08B5FBF7D0
:10574000E1FD08BD08B5FBF7DDFD08BD08B5FBF7B9
:10575000D9FD08BD08B5FBF7D5FD08BD08B5FBF7B9
:10576000D1FD08BD08B5FBF7CDFD08BD08B5FBF7B9
:10577000C9FD08BD08B5FBF7C5FD08BD08B5FBF7B9
:10578000C1FD08BD08B5FBF7BDFD08BD08B5FBF7B9
:10579000B9FD08BD08B5FBF7B5FD08BD08B5FBF7B9
:1057A000B1FD08BD08B5FBF7ADFD08BD08B5FBF7B9
:1057B000A9FD08BD08B5FBF7A5FD08BD08B5FBF7B9
:1057C000A1FD08BD08B5FBF79DFD08BD08B5FDF7B7
:1057D000D1FD08BD08B5FBF795FD08BD08B5FBF781
:1057E00091FD08BD08B5FBF78DFD08BD08B5FBF7B9
:1057F00089FD08BD08B5FBF785FD08BD08B5FBF7B9
:1058000081FD08BD08B5FBF77DFD08BD08B5FBF7B8
:1058100079FD08BD08B5FBF775FD08BD08B5FBF7B8
:1058200071FD08BD08B5FBF76DFD08BD08B5FBF7B8
:1058300069FD08BD08B5FBF765FD08BD08B5FBF7B8
:1058400061FD08BD08B5FBF75DFD08BD08B5FBF7B8
:1058500059FD08BD08B5FBF755FD08BD08B5FBF7B8
:1058600051FD08BD08B5FBF74DFD08BD08B5FBF7B8
:1058700049FD08BD08B5FBF745FD08BD08B5FBF7B8
:1058800041FD08BD08B5FBF73DFD08BD08B5FBF7B8
:1058900039FD08BD08B5FBF735FD08BD08B5FBF7B8
:1058A00031FD08BD08B5FBF72DFD08BD08B5FBF7B8
:1058B00029FD08BD08B5FBF725FD08BD08B5FBF7B8
:1058C00021FD08BD08B5FBF71DFD08BD08B5FBF7B8
:1058D00019FD08BD08B5FBF715FD08BD08B5FBF7B8
:1058E00011FD08BD08B5FBF70DFD08BD08B5FBF7B8
:1058F00009FD08BD08B5FBF705FD08BD08B5FBF7B8
:1059000001FD08BD08B5FBF7FDFC08BD08B5FBF7B8
:10591000F9FC08BD08B5FBF7F5FC08BD08B5FBF7B9
:10592000F1FC08BD08B5FBF7EDFC08BD08B5FBF7B9
:10593000E9FC08BD08B5FBF7E5FC08BD08B5FBF7B9
:10594000E1FC08BD08B5FBF7DDFC08BD08B5FBF7B9
:10595000D9FC08BD08B5FBF7D5FC08BD08B5FBF7B9
:10596000D1FC08BD08B5FBF7CDFC08BD08B5FBF7B9
:10597000C9FC08BD08B5FBF7C5FC08BD08B5FBF7B9
:10598000C1FC08BD08B5FBF7BDFC08BD08B5FBF7B9
:10599000B9FC08BD08B5FBF7B5FC08BD08B5FBF7B9
:1059A000B1FC08BD08B5FBF7ADFC08BD08B5FBF7B9
:1059B000A9FC08BD08B5FBF7A5FC08BD08B5FBF7B9
:1059C000A1FC08BD08B5FBF79DFC08BD08B5FBF7B9
:1059D00099FC08BD08B5FBF795FC08BD08B5FBF7B9
:1059E00091FC08BD80B500AFFFF702F903461846E9
:1059F00080BD80B500AFFFF771F903461B0918465B
:105A000080BD80B400AF00BFBD465DF8047B704729
:105A100008B5FFF731FABDE80840FBF759BF00F0C1
:105A2000E9B9A8B14FF0805340F80C3C50F8042C71
:105A300072B11368B3F1805F0AD150F8083C516825
:105A400003330B4440F8083C936840F8043CEDE70E
:105A5000704770B5C468A50708D0B2F5007F11D0B3
:105A6000B2F5806F04D0B2F5807F0BD0012008E042
:105A7000012300F12401224301610160C361C2607E
:105A8000002070BD6FF07F455E1EAE42F3D3EDE7A0
:105A900010B5431C8207044614D1204654F8042B49
:105AA000A2F1013121EA020111F0803FF5D0D1B21B
:105AB00081B112F47F4F0BD012F47F0F14BF204638
:105AC000033003E010F8012B002AE3D1C01A10BD07
:105AD0000230FBE70130F9E7C36810B523F020037B
:105AE0008269C360836A04469A420ED000F048F887
:105AF000E36823F4405323F0100343F01003E36002
:105B0000A36AA3612369E3622360E36823F480430B
:105B100023F04003E36010BD70B50D460646104605
:105B2000144600F056F82B78722B17D0772B18D02C
:105B3000612B23D1082348F2020215F8011F2B29FB
:105B400012D0622915D01B07E260666104D50222DB
:105B500000212046FFF720FA204670BD00230122D5
:105B6000EBE704230222E8E742F0030243F00203DA
:105B7000E3E742F0040243F00103DEE70024EBE731
:105B800038B5044605690168C36AC06820F400227C
:105B9000E26000F08202022A02D04FF0FF3038BDEE
:105BA00010F48030FBD0994238BF19468D4208D19D
:105BB0000020E368E56223F480332560A060E360A1
:105BC000EDE722462846491BFFF792F90028EFD05F
:105BD000E3E7F0B5C4680546A10789B022D02207E3
:105BE00018D4D0E90467FFF7B9F9384600F01BF97B
:105BF000230502D53046FFF714FFA40DA40514F1C8
:105C0000A54F07D120226846296A00F01BF9684693
:105C100000F00BF83C2200212846FFF700FF00208F
:105C200009B0F0BD4FF0FF30FAE710B50446FFF7BA
:105C30002FFF01462046BDE8104000F0FDB8C368C4
:105C400070B513F00306044611D09B0611D5856A82
:105C5000FFF742FFE368204623F44053E360FFF779
:105C60008FFF0022064629462046FFF795F9304669
:105C700070BD816905680D4401696D1AEAE75FF03E
:105C8000000C30B51C0022D112006FD0914206D317
:105C900005460846002100F06FF80446284600F04B
:105CA0006BF80A462146BDE830401CF0404F08BF63
:105CB000704703D54942404261F100015FEA8C0C14
:105CC00038BF70475B42524263F10003704742D4D1
:105CD0001C0C04BF1B040CF1100C13F07F4F04BF0D
:105CE0001B020CF1080C13F0704F04BF1B010CF1E8
:105CF000040C13F0404F04BF0CF1020C5FEA830365
:105D00005CBF0CF1010C5B00CCF1200E22FA0EF40A
:105D1000234302FA0CF200FA0CF520FA0EF001FA15
:105D20000CF4204321FA0EF114461A4600F024F830
:105D3000A4FB0023AA1A71EB03033CBF1B19013813
:105D4000CCF1200E22FA0CF203FA0EF4224323FACD
:105D50000CF30021A7E7821A71EB03033CBF024654
:105D60000B464FF0000141F100009CE700200021AC
:105D7000BDE8304000F03DB80423B1EB122F09D24A
:105D8000090241EA10610002013B08BF7047B1EB14
:105D9000122FF5D30018494134BF9142891A40416E
:105DA000494134BF9142891A4041494134BF91422F
:105DB000891A4041494134BF9142891A40414941C1
:105DC00034BF9142891A4041494134BF9142891AF6
:105DD0004041494134BF9142891A4041494134BF51
:105DE0009142891A4041A3F1010313F00F0FD2D160
:105DF00070477047034613F0030F0ED101F0FF0107
:105E000041EA012141EA0141043A24BF43F8041B5D
:105E1000B2F10402F9D202F10402013A24BF03F8FC
:105E2000011BFAE770474FF0FF3070474FF0FF302B
:105E300070474FF0FF3070474FF0FF3070474FF022
:105E4000FF3070474FF0FF30704710467047FFFF3C
:105E500001B40248844601BC604700BFD909002054
:105E600001B40248844601BC604700BFBD00002069
:105E700001B40248844601BC604700BF51090020BC
:105E800001B40248844601BC604700BF5D020020A7
:105E9000415353455254204552524F5220222025FF
:105EA00073200A0068656C6C6F20776F726C642ECB
:105EB0000D0A00FF0000000000401F0000803E00AF
:105EC00000C05D0000007D000044AC00001BB70076
:105ED0000080BB00000077010090D0030000DC05CB
:105EE0000000000053000000501000005D1404008A
:105EF0005D140400B3380000000000005D140400CD
:105F00005D140400CDCC00005D140400000000000E
:105F1000170300008B01000008010000C60000000C
:105F20008F00000087000000840000004200000095
:105F30001900000010000000000000000000000038
:105F40000000000000000000000000000000000051
:105F50000000000000000000000000000000000041
:105F60000100000066736C5F636C6F636B2E633AB5
:105F7000313338203A2066616C73650066736C5F5C
:105F8000636C6F636B2E633A313933203A2066615C
:105F90006C73650066736C5F636C6F636B2E633A42
:105FA000323836203A2066616C73650066736C5F28
:105FB000636C6F636B2E633A333430203A20666132
:105FC0006C73650066736C5F636C6F636B2E633A12
:105FD000363332203A2066616C73650066736C5FFD
:105FE000636C6F636B2E633A363730203A2069203A
:105FF0003C3D20313455000066736C5F636C6F6309
:106000006B2E633A363731203A20636F6E666967CC
:106010002D3E64697669646572203D3D20323535D8
:106020005500000066736C5F636C6F636B2E633AA0
:10603000363835203A2066616C73650066736C5F94
:10604000636C6F636B2E633A383737203A20666192
:106050006C73650066736C5F636C6F636B2E633A81
:1060600031313830203A2066616C736500FFFFFFE4
:1060700066736C5F636C6F636B2E633A31353233DA
:10608000203A20636E66670066736C5F636F6D6DA8
:106090006F6E5F61726D2E633A323133203A206346
:1060A0006F756E74203C3D2055494E5433325F4D20
:1060B000415800FF00601040007010400080104008
:1060C0000090104000601240080300000903000027
:1060D0000A0300000B030000160300000803090375
:1060E0000A030B031603FFFF66736C5F666C65782B
:1060F000636F6D6D2E633A313036203A2069203C53
:10610000202875696E7433325F742946534C5F469C
:106110004541545552455F534F435F464C455843A4
:106120004F4D4D5F434F554E5400FFFF66736C5FFC
:10613000666C6578636F6D6D2E633A313833203A43
:1061400020735F666C6578636F6D6D49727148612D
:106150006E646C65725B696E7374616E63655D20FD
:10616000213D204E554C4C0066736C5F666C657823
:10617000636F6D6D2E633A313937203A20735F6655
:106180006C6578636F6D6D49727148616E646C65A2
:10619000725B696E7374616E63655D20213D204E94
:1061A000554C4C0066736C5F666C6578636F6D6D03
:1061B0002E633A323131203A20735F666C65786322
:1061C0006F6D6D49727148616E646C65725B696E6A
:1061D0007374616E63655D20213D204E554C4C000B
:1061E00066736C5F666C6578636F6D6D2E633A32B3
:1061F0003235203A20735F666C6578636F6D6D4948
:10620000727148616E646C65725B696E7374616E05
:1062100063655D20213D204E554C4C0066736C5FDC
:10622000666C6578636F6D6D2E633A333830203A53
:1062300020735F666C6578636F6D6D49727148613C
:106240006E646C65725B696E7374616E63655D200C
:10625000213D204E554C4C0066736C5F6F636F742C
:10626000702E633A323537203A2073766320213D11
:10627000204E554C4C00FFFF66736C5F706F776566
:10628000722E633A353339203A206D6F6465203CB5
:106290003D2034550000000066736C5F706F7765B9
:1062A000722E633A31303338203A206D6F646520A6
:1062B0003C3D20345500000066736C5F706F77655D
:1062C000722E633A31333230203A20735F6764654F
:1062D0007453656E736F72436F6E746578742E6459
:1062E000697361626C65436F756E74203E20305532
:1062F0000000000066736C5F706F7765722E633A02
:10630000363837203A20286D6F6465203E3D2031B5
:10631000552920262620286D6F6465203C3D2034B9
:106320005529000066736C5F706F7765722E633A53
:10633000373438203A2066616C73650066736C5F91
:10634000706F7765722E633A373634203A20286DA5
:106350006F6465203E3D2031552920262620286D7A
:106360006F6465203C3D2033552900FF3236393DAE
:106370004044474B4E5255595C606467696969FFF8
:1063800066736C5F706F7765722E633A31373520B4
:106390003A2069727152656773203C3D2041525228
:1063A00041595F53495A4528735F6E766963436F5D
:1063B0006E746578742E49534552290066736C5F7C
:1063C000706F7765722E633A313736203A206972E2
:1063D000714E756D203C3D2041525241595F5349E9
:1063E0005A4528735F6E766963436F6E746578747F
:1063F0002E4950522900FFFF66736C5F706F7765FE
:10640000722E633A343233203A2028696E74333264
:106410005F7429697271203E3D20300066736C5FA5
:10642000706F7765722E633A31323036203A202809
:1064300069203E3D20302920262620282875696EB7
:106440007433325F742969203C2041525241595FB4
:1064500053495A4528735F64726F5461626C6529B1
:106460002900FFFF66736C5F72657365742E633A73
:106470003435203A20626974506F73203C203332E7
:106480007500FFFF66736C5F72657365742E633A07
:10649000313035203A20626974506F73203C2033CC
:1064A000327500FF66736C5F75736172742E633AA8
:1064B000313938203A202128284E554C4C203D3D7A
:1064C000206261736529207C7C20284E554C4C202D
:1064D0003D3D20636F6E66696729207C7C202830F3
:1064E00055203D3D20737263436C6F636B5F487A48
:1064F000292900FF66736C5F75736172742E633AAD
:10650000333130203A204E554C4C20213D20636FD2
:106510006E66696700FFFFFF66736C5F757361727B
:10652000742E633A343331203A202128284E554CBA
:106530004C203D3D206261736529207C7C20283001
:1065400055203D3D2062617564726174655F4270E3
:106550007329207C7C20283055203D3D20737263B8
:10656000436C6F636B5F487A292900FF66736C5F29
:1065700075736172742E633A363033203A202128C5
:10658000284E554C4C203D3D206261736529207C8E
:106590007C20284E554C4C203D3D2064617461297F
:1065A0002900FFFF66736C5F75736172742E633A26
:1065B000363739203A202128284E554C4C203D3D75
:1065C000206261736529207C7C20284E554C4C202C
:1065D0003D3D2064617461292900FFFF0060104087
:1065E0000070104000801040009010400060124089
:1065F00066736C5F616461707465725F75736172FC
:10660000742E633A323830203A2068616E646C65CB
:106610000000000066736C5F616461707465725F96
:1066200075736172742E633A323831203A20636F89
:106630006E6669670000000066736C5F616461707C
:106640007465725F75736172742E633A32383220EA
:106650003A20636F6E6669672D3E696E7374616E72
:106660006365203C202873697A656F6628735F55DF
:1066700073617274416461707465724261736529FB
:10668000202F2073697A656F662855534152545FF5
:1066900054797065202A29290000000066736C5F18
:1066A000616461707465725F75736172742E633AB0
:1066B000323833203A20735F5573617274416461DC
:1066C00070746572426173655B636F6E6669672D96
:1066D0003E696E7374616E63655D00FF66736C5F27
:1066E000616461707465725F75736172742E633A70
:1066F000333835203A2068616E646C650000000014
:1067000066736C5F616461707465725F75736172EA
:10671000742E633A333836203A2064617461000085
:1067200066736C5F616461707465725F75736172CA
:10673000742E633A333837203A206C656E6774687C
:1067400000FFFFFF66736C5F616461707465725F68
:1067500075736172742E633A343036203A20686162
:106760006E646C650000000066736C5F616461704C
:106770007465725F75736172742E633A34303720BA
:106780003A2064617461000066736C5F61646170DB
:106790007465725F75736172742E633A3430382099
:1067A0003A206C656E67746800FFFFFF0301FF000D
:1067B00000D01213000000000010000001000500CE
:1067C0000203010E000C010B01000000010000009B
:1067D000626F6172642E633A343233203A2066610C
:1067E0006C736500626F6172642E633A34333220D9
:1067F0003A2066616C736500626F6172642E633A61
:10680000343431203A2066616C736500626F6172C6
:10681000642E633A343438203A2066616C73650024
:10682000070901FF433A5C55736572735C6B6268DC
:10683000695C446F63756D656E74735C4D43555848
:1068400070726573736F4944455F31312E372E3155
