:020000040800F2
:10000000FFFFFFFFFFFFFFFFFFFFFFFFFFFFFFFF00
:10001000FFFFFFFFFFFFFFFFFFFFFFFFFFFFFFFFF0
:10002000FFFFFFFFFFFFFFFFFFFFFFFFFFFFFFFFE0
:10003000FFFFFFFFFFFFFFFFFFFFFFFFFFFFFFFFD0
:1004000046434642000000000000000001030300D4
:10041000010000000102000040C7000000000000D1
:1004200000000000000000000000000000000000CC
:1004300000000000000000000000000000000000BC
:1004400000000000010407000000000000000000A0
:10045000000000010000000000000000000000009B
:10046000000000000000000000000000000000008C
:10047000000000000000000000000000000000007C
:10048000EB04180A0A3204260000000000000000F5
:10049000050404240000000000000000000000002B
:1004A0000104022000000000000000000000000025
:1004B0000604000000000000000000000000000032
:1004C000000000000000000000000000000000002C
:1004D00020041808000000000000000000000000D8
:1004E000000000000000000000000000000000000C
:1004F00000000000000000000000000000000000FC
:100500005204180800000000000000000000000075
:100510003804180A0020000000000000000000005D
:1005200000000000000000000000000000000000CB
:100530006004000000000000000000000000000057
:1005400000000000000000000000000000000000AB
:10055000000000000000000000000000000000009B
:10056000000000000000000000000000000000008B
:10057000000000000000000000000000000000007B
:10058000000000000000000000000000000000006B
:10059000000000000000000000000000000000005B
:1005A000000000000000000000000000000000004B
:1005B000000000000000000000000000000000003B
:1005C000000100000010000000000000000000001A
:1005D000008000000000000000000000000000009B
:1005E000000000000000000000000000000000000B
:1005F00000000000000000000000000000000000FB
:10060000FFFFFFFF000000000000000000000000EE
:1006100000000000000000000000000000000000DA
:1006200000000000000000000000000000000000CA
:1006300000000000000000000000000000000000BA
:1006400000000000000000000000000000000000AA
:10100000000013203D130008D5130008D913000871
:10101000D1130008D1130008D1130008D113000820
:10102000BC6D00000000000000000000DD1300089F
:10103000D113000800100008E1130008E5130008B0
:10104000E9130008ED130008F1130008F513000878
:10105000F9130008FD130008011400080514000826
:10106000091400080D1400081114000815140008D4
:10107000191400081D140008211400082514000884
:10108000291400082D140008311400083514000834
:10109000391400083D1400084114000845140008E4
:1010A000491400084D140008511400085514000894
:1010B000591400085D140008611400086514000844
:1010C000691400086D1400087114000875140008F4
:1010D000791400087D1400088114000885140008A4
:1010E000891400088D140008911400089514000854
:1010F000991400089D140008A1140008A514000804
:10110000A9140008AD140008B1140008B5140008B3
:10111000B9140008BD140008C1140008C514000863
:10112000C9140008CD140008D1140008D514000813
:10113000D9140008DD140008E1140008E5140008C3
:10114000E9140008ED140008F1140008F514000873
:10115000F9140008FD140008011500080515000821
:10116000091500080D1500081115000815150008CF
:10117000191500081D15000821150008251500087F
:10118000291500082D15000831150008351500082F
:10119000391500083D1500084115000845150008DF
:1011A000491500084D15000851150008551500088F
:1011B000591500085D15000861150008651500083F
:1011C000691500086D1500087115000875150008EF
:1011D000791500087D15000881150008851500089F
:1011E000891500088D15000891150008951500084F
:1011F000991500089D150008A1150008A5150008FF
:10120000A9150008AD150008B1150008B5150008AE
:10121000B9150008BD150008C1150008C51500085E
:10122000C9150008CD150008D1150008D51500080E
:10123000D9150008DD150008E1150008E5150008BE
:10124000E915000800000000000000000000000098
:10125000000000000000000000000000000000008E
:10126000000000000000000000000000000000007E
:10127000000000000000000000000000000000006E
:1012800010B5054C237833B9044B13B1044800E082
:1012900000BF0123237010BDAC0C00200000000033
:1012A000A470000808B5034B1BB10349034800E0D4
:1012B00000BF08BD00000000B00C0020A4700008B2
:1012C000A3F5803A704700BF174B002B08BF134BA4
:1012D0009D46FFF7F5FF00218B460F461348144A41
:1012E000121A04F0E5FF0E4B002B00D098470D4B6F
:1012F000002B00D098470020002104000D000D486D
:10130000002802D00C4800E000BF04F0ADFF200030
:10131000290000F05FFC04F093FF00BF000008000C
:10132000000000000000000000001320AC0C0020B2
:101330006C0E0020000000000000000072B617488C
:10134000174901600A6882F30888164880F30A8802
:10135000154880471549164A164B9A42BEBF51F8A8
:10136000040B42F8040BF8E71349144A0020914299
:10137000BCBF41F8040BFAE700201149114A914221
:10138000BCBF41F8040BFAE706490F4A9142BCBFC3
:1013900041F8040BFAE762B60C48804708ED00E01C
:1013A0000010000800FC1220052A00081071000837
:1013B00000000020AC0C0020AC0C00206C0E0020C3
:1013C000700E00207012002000001320C9120008C7
:1013D000FFF7FEBF8548004785480047854800471E
:1013E00085480047854800478548004785480047AD
:1013F000854800478548004785480047854800479D
:10140000854800478548004785480047854800478C
:10141000854800478548004785480047854800477C
:10142000854800478548004785480047854800476C
:10143000854800478548004785480047854800475C
:10144000854800478548004785480047854800474C
:10145000854800478548004785480047854800473C
:10146000854800478548004785480047854800472C
:10147000854800478548004785480047854800471C
:10148000854800478548004785480047854800470C
:1014900085480047854800478548004785480047FC
:1014A00085480047854800478548004785480047EC
:1014B00085480047854800478548004785480047DC
:1014C00085480047854800478548004785480047CC
:1014D00085480047854800478548004785480047BC
:1014E00085480047854800478548004785480047AC
:1014F000854800478548004785480047854800479C
:10150000854800478548004785480047854800478B
:10151000854800478548004785480047854800477B
:10152000854800478548004785480047854800476B
:10153000854800478548004785480047854800475B
:10154000854800478548004785480047854800474B
:10155000854800478548004785480047854800473B
:10156000854800478548004785480047854800472B
:10157000854800478548004785480047854800471B
:10158000854800478548004785480047854800470B
:1015900085480047854800478548004785480047FB
:1015A00085480047854800478548004785480047EB
:1015B00085480047854800478548004785480047DB
:1015C00085480047854800478548004785480047CB
:1015D00085480047854800478548004785480047BB
:1015E000854800478548004785480047D5130008CF
:1015F000D9130008DD130008E1130008E513000803
:10160000D1130008D1130008D1130008D11300082A
:10161000D1130008D1130008D1130008D11300081A
:10162000D1130008D1130008D1130008D11300080A
:10163000D1130008D11300087D420008E5420008DC
:101640004D430008B5430008D1130008D11300082A
:101650001D440008D1130008D1130008D11300085D
:10166000D1130008D1130008D1130008D1130008CA
:10167000D1130008D1130008D1130008D1130008BA
:10168000D1130008D1130008D1130008D1130008AA
:10169000D1130008D1130008D1130008D11300089A
:1016A000D1130008D1130008794A0008D1130008AB
:1016B000D1130008D1130008D1130008D11300087A
:1016C000D1130008D1130008D1130008D11300086A
:1016D000D1130008D1130008D1130008D11300085A
:1016E000D1130008D1130008D1130008D11300084A
:1016F000D1130008D1130008FD520008D1130008CF
:10170000D1130008D1130008D1130008D113000829
:10171000D1130008D1130008D1130008D113000819
:10172000D1130008D1130008D1130008D113000809
:10173000D1130008D1130008D1130008D1130008F9
:10174000D1130008D1130008D1130008D1130008E9
:10175000D1130008D1130008D1130008D1130008D9
:10176000D1130008D1130008D1130008D1130008C9
:10177000D1130008D1130008D1130008D1130008B9
:10178000D1130008D1130008D1130008D1130008A9
:10179000D1130008D1130008D1130008D113000899
:1017A000D1130008D1130008D1130008D113000889
:1017B000D1130008D1130008D1130008D113000879
:1017C000D1130008D1130008D1130008D113000869
:1017D000D1130008D1130008D1130008D113000859
:1017E000D1130008D1130008D1130008D113000849
:1017F000D1130008D1130008D1130008D113000839
:10180000D1130008F1B5002A4BD011F0030306D024
:1018100011F8014B013A00F8014B42D0F5E710F006
:1018200003031BD1102A04DB103AF0C9102AF0C0C0
:10183000FAD2130744BF30C930C0530744BF51F830
:10184000044B40F8044B930744BF31F8024B20F897
:10185000024BD30744BF0C78047022E0C3070AD4BC
:10186000042A16D351F8044B043A20F8024B250CF5
:1018700020F8025BF4E7042A0BD351F8044B043A36
:1018800000F8014B250A20F8025B260E00F8016BD8
:10189000F1E7002A1EBF11F8014B00F8014B013A95
:1018A000F7D1F1BD034613F8012B002AFBD1181A1A
:1018B0000138704753B94AB9002908BF00281CBF36
:1018C0004FF0FF314FF0FF3000F082B9ADF1080C5E
:1018D0006DE904CE00F006F8DDF804E0DDE902234E
:1018E00004B070472DE9F04F099D04460F46002BC8
:1018F00048D18A42944661D9B2FA82F343B1C3F126
:1019000020019F4002FA03FC9C4020FA01F10F43A2
:101910004FEA1C411FFA8CFE220CB7FBF1F601FBCB
:10192000167706FB0EF042EA0742904208D91CEBFC
:10193000020206F1FF3702D2904200F237813E46A2
:10194000121AA4B2B2FBF1F001FB102200FB0EFE52
:1019500044EA0244A64508D91CEB040400F1FF3216
:1019600002D2A64500F21C81104640EA0640A4EBD4
:101970000E0400261DB1DC400023C5E900433146BA
:10198000BDE8F08F8B4209D9002D00F0FD800026C4
:10199000C5E9000130463146BDE8F08FB3FA83F661
:1019A000002E4BD18B42C0F0F280824240F2EF8099
:1019B0003046002DE3D0C5E90047E0E702B9FFDE7D
:1019C000B2FA82F3002B40F09D80891A4FEA124E42
:1019D00097B20126200CB1FBFEF20EFB121140EA79
:1019E000014107FB02F088420FD91CEB010102F113
:1019F000FF382CBF4FF001094FF00009884203D98E
:101A0000B9F1000F00F0CF804246091AA4B2B1FB31
:101A1000FEF00EFB101100FB07F744EA0144A74259
:101A200008D91CEB040400F1FF3102D2A74200F2F6
:101A3000B4800846E41B40EA02409BE7C6F1200759
:101A4000B34001FA06F422FA07FCF940B2404CEA2E
:101A5000030C20FA07F34FEA1C491C431FFA8CFEC3
:101A600000FA06F3200CB1FBF9F809FB181140EA63
:101A7000014108FB0EF088420FD91CEB010108F16F
:101A8000FF3A2CBF4FF0010B4FF0000B884203D9F7
:101A9000BBF1000F00F08D80D046091AA4B2B1FB53
:101AA000F9F009FB101100FB0EFE44EA01418E45DE
:101AB00007D91CEB010100F1FF3401D28E457FD81C
:101AC000204640EA0840A1EB0E01A0FB02984145E8
:101AD0004C46C64602D306D14B4504D20138B9EB79
:101AE000020468EB0C0E002D70D01A1B61EB0E0186
:101AF00022FA06F301FA07F7F14000261F43C5E971
:101B000000713CE702FA03FCC3F1200001FA03F282
:101B100021FA00F64FEA1C4E24FA00F11FFA8CF766
:101B20009C401143B6FBFEF00A0C0EFB106642EA25
:101B3000064200FB07F696420ED91CEB020200F1AA
:101B4000FF382CBF4FF001094FF00009964202D92F
:101B5000B9F1000F31D04046921B89B2B2FBFEF6BC
:101B60000EFB162241EA024106FB07F28A4207D920
:101B70001CEB010106F1FF3801D28A4223D8464608
:101B8000891A46EA004625E72E462846F7E6841AD3
:101B900061EB030301201F460BE76444023849E769
:101BA00064440238E1E6023A61442EE7023E6244B0
:101BB000C6E6A8F1020861446FE702386244CBE749
:101BC000023861447DE7023E6144D9E72E46D6E6FD
:101BD000704700BF80B582B000AF00F069F900F037
:101BE00025FB00F08BF900237B6005E0084804F03A
:101BF0004BF87B6801337B607B680A2BF6DD04F0D1
:101C00008FF80346FB70FB78184604F071F8F6E78E
:101C1000C462000880B586B000AFF860B9607A6031
:101C20003B609D4B7B613B6803F40033002B08D085
:101C30004FF040231A68BB68DB434FF0402113404C
:101C40000B603B6803F48033002B11D04FF040232E
:101C50001A6BFB68DB434FF0402113400B634FF0DE
:101C600040235A6BBB68DB434FF0402113404B636A
:101C70003B681B0B03F00F030F2B25D13B6AB3F519
:101C8000004F06D0854B864A40F24261854803F0FA
:101C90009FFF4FF040239B684FF0402223F08003CA
:101CA00093604FF04023DB684FF0402223F49F63A2
:101CB00023F00503D3604FF040231B694FF040220F
:101CC00023F48763136119E03B68C3F30A03002B15
:101CD00014D03B681B0B03F00F039B007A6913447D
:101CE00019683B68C3F30A03DA433B681B0B03F034
:101CF0000F039B00786903440A401A607B6A002B3B
:101D000008D04FF040231A6A7B6ADB434FF0402132
:101D100013400B62FB6AC3F30E03002B0AD04FF093
:101D200040235A6AFB6AC3F30E03DB434FF04021A2
:101D300013404B62FB6A1B0CC3F30E03002B0BD04A
:101D40004FF040239A6AFB6A1B0CC3F30E03DB437C
:101D50004FF0402113408B627B6B002B08D04FF07B
:101D60004023DA6A7B6BDB434FF040211340CB62A8
:101D70007B6803F40033002B07D04FF040231A6830
:101D80004FF04021BB6813430B607B6803F4803342
:101D9000002B0FD04FF040231A6B4FF04021FB680F
:101DA00013430B634FF040235A6B4FF04021BB6845
:101DB00013434B637B68C3F30A03002B13D07B6888
:101DC0001B0B03F00F039B007A69134419687B68AF
:101DD000C3F30A027B681B0B03F00F039B007869B7
:101DE00003440A431A603B6A002B07D04FF040239C
:101DF0001A6A4FF040213B6A13430B62BB6AC3F37C
:101E00000E03002B09D04FF040235A6ABB6AC3F37C
:101E10000E034FF0402113434B62BB6A1B0CC3F30C
:101E20000E03002B0AD04FF040239A6ABB6A1B0CAA
:101E3000C3F30E034FF0402113438B623B6B002B27
:101E400007D04FF04023DA6A4FF040213B6B134339
:101E5000CB62FB6803F07C633B61134BD3F83825FE
:101E60003B69D943FB680B400F491343C1F8383530
:101E70000D4BD3F83C250C49BB681343C1F83C35E6
:101E80000A4BD3F8382509493B691343C1F8383563
:101E900000BF1837BD4680BD04400040DC6200082A
:101EA0001C6C00080C630008001000450008004589
:101EB00080B500AF00F002F800BF80BD80B586B0ED
:101EC00006AF4FF010130593002304934FF0401317
:101ED0000393002302934FF04043019300230093A8
:101EE000054B4FF4485200214FF0A060FFF792FEDF
:101EF00000BFBD4680BD00BFEE31010080B582B09D
:101F000000AF00237B600D4B1B683B603B461846CF
:101F100001F0DEFB4CF2685001F0C4F9032001F03F
:101F200039FC78607B6801224FF4E131032003F033
:101F300067FE00BF0837BD4680BD00BFBC63000818
:101F400080B58CB000AF7860012387F82F302B4B21
:101F5000D3F8903003F02003002B03D0002387F840
:101F60002F3003E0264B0222C3F8A82797F82F3022
:101F7000002B1CD0786800F0A7FBC7E90801D7E95F
:101F800008014FF000024FF000030A00002313463F
:101F9000FB613B6ABB61FB6946F63C12934203D18D
:101FA000BB69184A934202D0002387F82F3097F874
:101FB0002F30002B1CD0012000F0CAFAC7E9040121
:101FC000D7E904014FF000024FF000030A0000239C
:101FD0001346FB603B69BB60FB6843F2B942934226
:101FE00003D1BB68084A934202D0002387F82F3000
:101FF00097F82F3018463037BD4680BD003000407E
:1020000000100040072E5505032E550580B58CB0F5
:1020100000AF3B4600221A605A609A60DA601A618B
:102020005A619A614E4BD3F81431DBB2FB6207F16F
:102030002003184602F0DEFEB862BB6A002B7AD19C
:1020400007F11C03184602F0F7FEB862BB6A002BCA
:102050000DD1FB6A022B04D1D7E9082313461B0CD0
:1020600000E00023FA691146184603F093FBBB6AAF
:10207000002B06D13B461946952002F0BBFD0346D6
:1020800000E0BB6ABB62BB6A002B07D13B4604334E
:102090001946962002F0AEFD034600E0BB6ABB6223
:1020A000BB6A002B07D13B4608331946972002F044
:1020B000A1FD034600E0BB6ABB62BB6A002B0DD1E9
:1020C000FB6A022B01D19B2200E098223B460C3395
:1020D0001946104602F08EFD034600E0BB6ABB6263
:1020E000BB6A002B07D13B4610331946992002F0FA
:1020F00081FD034600E0BB6ABB62BB6A002B07D1CF
:102100003B46143319469A2002F074FD034600E062
:10211000BB6ABB62BB6A002B06D0124B124A4FF45B
:10212000EC71124803F054FDFA693B461946104819
:1021300003F0E8FA0FE000F0B9FD0E4B062283F839
:102140005A200D4B0D4A5A640D4B1B6819464FF42B
:10215000167001F087FF00BF3037BD4680BD00BF5D
:1021600000100045E0630008306C0008FC630008C4
:10217000411F000800200045001003405460226009
:10218000480C002080B500AF02F0F4FCFFF73EFFE2
:1021900002F00AFD144BB3F1006F03D3124BB3F1FD
:1021A000805F07D3104BB3F1C05F09D30E4BB3F17F
:1021B000005F05D2042206210C4804F089FF10E0DC
:1021C000102003F05FFC094804F08AFF47F220600A
:1021D00001F068F8102000F0D3FF102003F0D0FBCE
:1021E00000BF00BF80BD00BFFD1E000800401340BF
:1021F00080B500AF0B4BB3F1006F03D3094BB3F1C4
:10220000805F07D3074BB3F1C05F08D3054BB3F131
:10221000005F04D202220221034804F059FF00BFEC
:1022200080BD00BFFD1E00080040134080B500AF18
:1022300000F002F800BF80BD80B500AF04F058FF89
:102240003A4B9B6A03F00203002B02D1384800F09E
:1022500003FF384BD3F8903003F40073002B02D007
:10226000354800F0F9FE012001F02AFC334800F067
:10227000F3FE334800F0F0FEFFF784FF314801F031
:1022800011F801214FF4806001F086F802212E48F8
:1022900001F06CFB4FF4803000F0DEFE012001F015
:1022A000B7FB2A4800F0D8FE01214FF4127001F06C
:1022B00073F8274801F050FE012148F2402001F058
:1022C0006BF801214FF4806001F066F801214FF4B2
:1022D000107001F061F842F2344000F0E3FF012198
:1022E00040F2647001F058F84FF4EC6000F0DAFF4F
:1022F0000D2148F2FC6001F04FF8FFF779FF422012
:1023000000F0D0FF134BD3F8283423F47C33114A68
:1023100043F47833C2F82834642148F2687001F03D
:102320003BF80D4B0D4A1A6000BF80BD0010034002
:1023300020000100003000400900010004000100FD
:102340000500010030043404006CF7B903000100FB
:10235000406C000800100045480C002000497F0F29
:1023600080B485B000AFF860B9607A60FA68BB6885
:102370001A407B6822FA03F318461437BD465DF80D
:10238000047B704780B400AF064B1B6803F0010369
:10239000002B14BF01230023DBB21846BD465DF8B5
:1023A000047B7047007000402DE9B04F8AB000AF49
:1023B000786145F252033B625B4B7B625B4B1B686F
:1023C000022204211846FFF7CBFF0346012B5ED102
:1023D000564BDB6C042210211846FFF7C1FF034661
:1023E000012B02D1524B7B6253E0504BDB6C03223A
:1023F00008211846FFF7B4FF0346012B02D14D4BCD
:102400007B6246E0494BDB6C012202211846FFF754
:10241000A7FF0346012B02D1474B7B6239E0434BB8
:10242000DB6C022204211846FFF79AFF0346012BBA
:1024300002D1424B7B622CE03C4BDB6C0022012141
:102440001846FFF78DFF0346012B02D13C4B7B6200
:102450001FE0364BDB6C052220211846FFF780FF7A
:102460000346012B02D1374B7B6212E02F4BDB6C12
:1024700008224FF480711846FFF772FF0346012BC4
:1024800002D1314B7B6204E0274B7B6201E02F4B92
:102490007B627B69012B27D100F09AF8C7E906011E
:1024A000D7E906014FF000024FF000030A000023B5
:1024B0003B6A13443B623B6AA3F59A430B3B3B6286
:1024C0007B6A00229A4693463B6A0022BB60FA6010
:1024D0004FF000024FF00003B9680B0000224AEAF7
:1024E00002044BEA030517E03B6A03F5105304337B
:1024F0003B627B6A0022984691463B6A00223B6021
:102500007A604FF000024FF0000339680B000022A0
:1025100048EA020449EA030522462B4610461946BA
:102520002837BD46BDE8B08FF0F05505007000407B
:1025300030535505705355053853550534535505DB
:102540003C5355057453550578535505032E5505D1
:102550002DE9B04F88B000AF78601C4BFB6100BF25
:10256000FFF710FF0346002BFAD17868FFF71CFF36
:10257000C7E90401D7E904014FF000024FF000035E
:102580000A000023FB691344FB613B69FB60FB69A4
:1025900003F512532133FB61FB6800221C461546EC
:1025A000FB6900229A4693464FF000024FF0000369
:1025B0005346002244EA020845EA030942464B46D4
:1025C000104619462037BD46BDE8B08FC29BFFFFBD
:1025D0002DE9B04382B000AF45F20A037B600123CE
:1025E0003B60174A3B68136500BF154B1B6802220E
:1025F00004211846FFF7B4FE0346002BF5D17B6893
:1026000003F5045305337B607B68002298469146AE
:102610004FF000024FF000034346002242F0AA644C
:1026200044F4A52444F4C06444F003041D46224647
:102630002B46104619460837BD46BDE8B08300BF9B
:102640000070004080B483B000AF7860044A7B68BB
:10265000136200BF0C37BD465DF8047B704700BFB6
:102660000070004080B487B000AFF860B9607A6055
:10267000FB68DB00DAB27B681B0203F48073134350
:1026800043F003037B61064ABB689360044A7B699D
:10269000536000BF1C37BD465DF8047B704700BF28
:1026A0000070004080B400AF064B1B6803F00103CC
:1026B000002B14BF01230023DBB21846BD465DF892
:1026C000047B7047007000402DE9B04F84B000AF2C
:1026D000786044F61803FB60FFF7E4FF0346002B25
:1026E00016D0FB6803F504532433FB60FB6800221B
:1026F0009A4693464FF000024FF0000353460022E3
:1027000042F0AA6444F4AA2444F46C741D461FE009
:102710007868FFF797FF012200211E20FFF7A2FF34
:10272000FB6803F504532433FB60FB6800229846E2
:1027300091464FF000024FF000034346002242F062
:10274000AA6444F4A52444F4C06444F007041D467C
:1027500022462B46104619461037BD46BDE8B08FBD
:1027600080B483B000AF78607B68002B01D1002378
:1027700001E042F6AF7318460C37BD465DF8047BA6
:102780007047000080B588B000AF786039607B6822
:10279000002B06D1424B434A4FF48C71424803F060
:1027A00017FA3B68002B06D1404B3E4A40F2191104
:1027B0003D4803F00DFA3B689B7B042B06D93C4B4C
:1027C000384A4FF48D71384803F002FA3B689B7B1E
:1027D0001A46384B53F82230002B06D1364B314A7B
:1027E00040F21B11304803F0F3F907F108031846D3
:1027F00001F054FF3B685B68BB603B681B7B002BB0
:1028000003D13B685B7B002B01D001233B753B6808
:102810001B7A022B02D102233B7308E03B681B7A30
:10282000032B02D103233B7301E000233B733B687E
:102830005B7A012B02D101237B7301E000237B73C0
:102840003B689B7A002B14BF01230023DBB23B744F
:102850003B68DB7A002B14BF01230023DBB27B74BF
:1028600000237B750023BB753B689B7B1A46114B8D
:1028700053F822003B681A6807F10803194601F073
:102880001FFEF861FB69002B04D0F869FFF768FFB1
:10289000034600E0002318462037BD4680BD00BF38
:1028A00058640008586C000860640008B0640008B0
:1028B000B8640008446C00080065000880B584B066
:1028C00000AF7860396039687868FFF75BFF0346CE
:1028D000FB81FB89002B01D0FB8906E07B68BB6094
:1028E0003B689A7BBB681A70002318461037BD46B8
:1028F00080BD000080B586B000AFF860B9607A6036
:10290000FB68002B06D1184B184A40F28111184879
:1029100003F05EF9BB68002B06D1164B134A4FF447
:10292000C171134803F054F97B68002B06D1124B98
:102930000E4A40F283110E4803F04AF9FB687B61AE
:102940007B691B781A460D4B53F822307A68B968B8
:10295000184602F007F838613869FFF701FF0346AF
:1029600018461837BD4680BD586400086C6C0008D6
:10297000606400082865000830650008446C0008A1
:1029800080B586B000AFF860B9607A60FB68002B54
:1029900006D1164B164A4FF4CB71164803F018F9BE
:1029A000BB68002B06D1144B114A40F29711114815
:1029B00003F00EF97B68002B06D1104B0C4A4FF444
:1029C000CC710C4803F004F9FB687B617B691B78D0
:1029D0001A460B4B53F822307A68B968184601F052
:1029E00073FF002318461837BD4680BD58640008A1
:1029F000846C0008606400082865000830650008E1
:102A0000446C000880B500AF2B4BD3F888302A4ABD
:102A100043F47003C2F88830274BD3F88830264A35
:102A200043F00F03C2F88830234BD3F88C30224A8E
:102A300043F4406343F00303C2F88C301F4BB3F1FF
:102A4000006F03D31D4BB3F1805F07D31B4BB3F172
:102A5000C05F2DD3194BB3F1005F29D2184BDB694E
:102A6000002B25D1164B4FF0A062C3F80028144B61
:102A7000D3F80038124A43F00043C2F8003800BFD0
:102A80000F4BD3F80038002BFADB0D4B0322C3F8B1
:102A900000280B4B0B4A5A61094B00229A61084BE4
:102AA0000122DA61BFF36F8F00BFBFF34F8F00BF0A
:102AB00000F05EF900BF80BD00ED00E0AD2C000825
:102AC0000030034000FCFF0780B483B000AF002358
:102AD0007B600E4B93F8D930DBB203F00F03052B6C
:102AE00002D10B4B7B6009E0084B93F8D930DBB285
:102AF00003F00F030A2B01D1064B7B607B6818465D
:102B00000C37BD465DF8047B704700BF00200045D0
:102B1000236E8C033E07E10280B483B000AF002334
:102B20007B601E4BD3F888305B0ADBB23B601C4BEA
:102B3000D3F8803403F02003002B10D03B684A2BDD
:102B40000DD93B68602B0AD83B684B3B3B603B6828
:102B5000144A03FB02F2144B13447B6016E0104B43
:102B6000D3F8803403F02003002B0FD13B684D2BAA
:102B70000CD93B68642B09D83B684E3B3B603B68F3
:102B80000A4A03FB02F20A4B13447B607B68184637
:102B90000C37BD465DF8047B704700BF0030004035
:102BA00000080045005A6202005ED0B200F04902FF
:102BB000002087B280B483B000AF044B7B607B6899
:102BC00018460C37BD465DF8047B70470040420F45
:102BD00080B582B000AFFFF79FFF0346044AA2FB17
:102BE0000323DB087B607B6818460837BD4680BD41
:102BF000ABAAAAAA80B400AF0C4BD3F86831002B63
:102C00000AD10B4BD3F8803403F02003002B01D101
:102C1000084B05E0084B03E0044BD3F86831002370
:102C20001846BD465DF8047B704700BF00100040A9
:102C30000008004500F04902005A620280B500AF6A
:102C4000FFF742FF0346184680BD000080B400AF86
:102C5000074BD3F8803403F02003002B01D1054B40
:102C600000E0054B1846BD465DF8047B704700BF89
:102C70000008004500A60E0040420F0080B500AFDE
:102C8000FFF798FF03461B09184680BD80B500AFCB
:102C9000FFF79EFF0246044BD3F84032DBB201330C
:102CA000B2FBF3F3184680BD0010004080B582B03F
:102CB00000AF00237B602C4BD3F8343403F00303C4
:102CC000032B3FD801A252F823F000BFDD2C0008EF
:102CD0002D2D0008352D00083D2D0008224BD3F87E
:102CE000303403F00303032B1CD801A252F823F065
:102CF000012D0008092D0008152D00081D2D0008C4
:102D0000FFF778FF786010E0FFF798FF03469B0815
:102D10007B600AE0FFF79AFF786006E0FFF78EFF1E
:102D2000786002E000237B6000BF0EE0FFF7A6FFA3
:102D300078600AE0FFF7AAFF786006E04FF40043EE
:102D40007B6002E000237B6000BF074BD3F80034B8
:102D5000DBB201337A68B2FBF3F3044A136000BFBD
:102D60000837BD4680BD00BF00100040480C002061
:102D700080B400AF00BFBD465DF8047B7047000023
:102D800080B400AF0E4BD3F86831002B0AD10D4B45
:102D9000D3F8803403F02003002B01D10A4B0AE062
:102DA0000A4B08E0064BD3F86831012B02D1084BDF
:102DB0001B6800E000231846BD465DF8047B7047A1
:102DC000001000400008004500F04902005A62026D
:102DD000C80C002080B400AF034B1B681846BD46EA
:102DE0005DF8047B704700BFCC0C002080B400AFBE
:102DF000074BD3F8803403F02003002B01D1054B9F
:102E000000E0054B1846BD465DF8047B704700BFE7
:102E10000008004500A60E0040420F0080B400AF3D
:102E20004FF400431846BD465DF8047B704780B4FC
:102E300083B000AF78607B68002B03D07B68013BD8
:102E4000002BFCD100BF0C37BD465DF8047B7047FA
:102E500080B584B000AF78600D4B1B6803F5742318
:102E600003F23F230B4AA2FB03239A0C7B6802FB6D
:102E700003F3FB60FB680233074AA2FB03235B08F2
:102E80001846FFF7D4FF00BF1037BD4680BD00BF16
:102E9000480C002083DE1B43ABAAAAAA80B582B0EF
:102EA00000AF00237B60144B1B6903F48063002B8D
:102EB0001DD04FF080431B6903F48063002B16D1B3
:102EC0000E4B5B6803F00103002B10D005E07B681C
:102ED00001337B600120FFF7BBFF084B1B6803F445
:102EE0008063002B03D07B68054A9342EFD900BF73
:102EF0000837BD4680BD00BF001000400070004094
:102F00009F86010080B582B000AF00237B60104B2C
:102F100093F8D930DBB203F00F03052B02D10D4B30
:102F20007B6010E00A4B93F8D930DBB203F00F035B
:102F30000A2B02D1084B7B6005E0084B084A9F2111
:102F4000084802F045FE7B6818460837BD4680BD3C
:102F500000200045236E8C033E07E102386500081F
:102F60004C6D00084065000880B483B000AF044B8E
:102F70007B607B6818460C37BD465DF8047B704764
:102F80000040420F80B582B000AF00237B60204B31
:102F9000D3F888305B0ADBB23B601E4BD3F8803439
:102FA00003F02003002B10D03B684A2B0DD93B685F
:102FB000602B0AD83B684B3B3B603B68164A03FBDF
:102FC00002F2164B13447B601DE0124BD3F88034A1
:102FD00003F02003002B10D13B684D2B0DD93B682B
:102FE000642B0AD83B684E3B3B603B680C4A03FBB2
:102FF00002F20C4B13447B6005E00B4B0B4AD621CD
:103000000B4802F0E5FD7B6818460837BD4680BDD9
:103010000030004000080045005A6202005ED0B255
:1030200000F04902002087B238650008686D00088A
:103030004065000880B582B000AFFFF7A3FF0346EC
:10304000044AA2FB0323DB087B607B681846083731
:10305000BD4680BDABAAAAAA80B584B000AF786097
:103060007B683F4A93420DD13E4B9B6A3D4A23F019
:103070000403936200BF3B4B9B6A03F00203002BE7
:10308000F9D069E07B6803F48033002B10D0364B15
:10309000D3F890207B68DBB2012101FA03F3DB4314
:1030A00031491340C1F890300420FFF7C0FE53E0CF
:1030B0007B681B0ADBB2FB60FB68052B3ED801A2D4
:1030C00052F823F0DD300008ED300008FD30000834
:1030D0000D3100081D3100082D3100087B68DBB27E
:1030E000224A012101FA03F313642EE07B68DBB26C
:1030F0001E4A012101FA03F3536426E07B68DBB228
:103100001A4A012101FA03F393641EE07B68DBB2E3
:10311000174A012101FA03F3136416E07B68DBB25E
:10312000134A012101FA03F353640EE07B68DBB21A
:103130000F4A012101FA03F3936406E00D4B0E4A96
:1031400040F233110D4802F043FD7B68B3F5887FF0
:1031500002D1054B1F221A6400BF1037BD4680BD47
:10316000200001000010034000300040001000402B
:103170000010024038650008806D000840650008B6
:1031800080B584B000AF78607B683D4A934206D139
:103190003C4B9B6A3B4A43F0040393626CE07B68C0
:1031A00003F48033002B12D07B68374A934201D15D
:1031B000FFF774FE354BD3F890207B68DBB201211A
:1031C00001FA03F331491343C1F8903054E07B68AE
:1031D0001B0ADBB2FB60FB68052B3FD801A252F84B
:1031E00023F000BFFD3100080D3200081D32000839
:1031F0002D3200083D3200084D3200087B68DBB2FA
:10320000234A012101FA03F313672EE07B68DBB246
:103210001F4A012101FA03F3536726E07B68DBB202
:103220001B4A012101FA03F393671EE07B68DBB2BE
:10323000184A012101FA03F3136716E07B68DBB239
:10324000144A012101FA03F353670EE07B68DBB2F5
:10325000104A012101FA03F3936706E00E4B0F4A6F
:103260004FF4B7710E4802F0B3FC7B68B3F5887F6A
:1032700002D1064B00221A6400BF1037BD4680BD44
:103280002000010000100340050001000030004054
:10329000001000400010024038650008946D0008DE
:1032A0004065000880B487B000AF78600023FB75EC
:1032B0007B6803F00103002B0ED07B681A0B796842
:1032C00040F6FC730B4003F1804303F54433194689
:1032D00002F003030B6056E07B6803F00203002B4F
:1032E00015D07B681B092B4A03F00703C2F860372F
:1032F0007B681B0A274A03F00703C2F864377B6820
:103300001B0B244A03F00703C2F86C373BE0002391
:103310003B612FE03B691B017A6822FA03F37B6073
:103320007B6803F40043002B09D07A6840F6FC73F5
:10333000134003F1804303F50433FB6008E07A682F
:1033400040F6FC73134003F1804303F58053FB60A8
:103350007A6840F6FC731340002B06D07B681B0B89
:1033600003F00702FB681A6001E00123FB753B696B
:1033700001333B613B69012B05D8FB7D83F00103E1
:10338000DBB2002BC6D100BF1C37BD465DF8047B05
:10339000704700BF0010024080B485B000AF034604
:1033A0003960FB80B7F90630002B09DAFA8840F65D
:1033B000FC73134003F1804303F50433FB6008E022
:1033C000FA8840F6FC73134003F1804303F5805301
:1033D000FB60FB681B6843F00052FB681A603B68A7
:1033E000002B06D1FB681B6843F08042FB681A6023
:1033F00008E03B685A1EFB681A6000BFFB681B6848
:10340000002BFBDB00BF1437BD465DF8047B704723
:1034100080B500AFFFF776FD0346184680BD80B546
:1034200000AFFFF7A1FD03461B09184680BD000051
:1034300080B485B000AF124B1B6ADB0CC3F30C03E6
:103440007B600023BB600123FB600FE00D4AFB683B
:1034500052F823307A689A4205D10B4AFB6852F839
:103460002330BB6005E0FB680133FB60FB680A2B7F
:10347000ECD9BB6818461437BD465DF8047B70472D
:1034800000300040F46C00089C6C000880B500AF70
:10349000FFF7D0FD0246044BD3F84032DBB20133D4
:1034A000B2FBF3F3184680BD0010004080B500AFBA
:1034B000FFF7BEFF0246044BD3F84032DBB20133C4
:1034C000B2FBF3F3184680BD0010024080B582B015
:1034D00000AF00237B60274BD3F8343403F00303A1
:1034E000032B3FD801A252F823F000BFFD3400089F
:1034F0004D350008553500085D3500081D4BD3F8E3
:10350000303403F00303032B1CD801A252F823F03C
:103510002135000829350008353500083D350008FB
:10352000FFF72EFC786010E0FFF772FF03469B0860
:103530007B600AE0FFF75AFC786006E0FFF768FF5F
:10354000786002E000237B6000BF0EE0FFF767FFBA
:1035500078600AE0FFF79AFF786006E0FFF75EFC0C
:10356000786002E000237B6000BF7B681846083764
:10357000BD4680BD001000402DE9B04F8CB000AFBB
:1035800078610023FB620123FB610023BB620023FF
:103590007B6200233B627B69032B1CD8484A7B6912
:1035A00028335B0113441B6803F00703BB62444AE2
:1035B0007B6928335B01134404331B681B0ADBB2AD
:1035C0003B623F4A7B6928335B01134404331B6829
:1035D000DBB27B621BE07B690E2B11D1384BD3F839
:1035E000C03603F00703BB62354BD3F8C4361B0A61
:1035F000DBB23B62324BD3F8C436DBB27B6206E00F
:10360000304B314A40F29221304802F0E1FABB6A75
:10361000032B25D801A252F823F000BF2D36000855
:10362000353600085136000859360008FFF74EFFBE
:10363000F86218E0224BD3F8FC36DBB20133FB61B1
:10364000FFF724FF0246FB69B2FBF3F3FB620AE0DB
:10365000FFF7E5FEF86206E0FFF7DAFEF86202E047
:103660000023FB6200BFFB6A00229A4693467B6AF6
:103670000022BB60FA60D7E902120B465C1C1346BD
:1036800043F1000504FB0BF20AFB05F31344AAFB0C
:1036900004894B4499463A6A7B6A134401330022F9
:1036A0003B607A60D7E9002340464946FEF702F9BD
:1036B00002460B46134618463037BD46BDE8B08F6C
:1036C0000010024038650008A86D00084065000839
:1036D00080B584B000AF78607B681B78FB60FB68C6
:1036E0000E2B06D9254B264A4FF42E71254802F0A1
:1036F0006FFA7B689B78FF2B06D0234B204A40F261
:10370000B921204802F064FAFB68032B17D87B68C4
:103710005B781E4A1946FB6828335B011344196025
:103720007B68DB781B029BB27A68927817491A4350
:10373000FB6828335B010B4404331A601AE0FB6812
:103740000E2B10D17B685A78104BC3F8C0267B68CB
:10375000DB781B029BB27A68927811460B4A0B43C6
:10376000C2F8C43606E00A4B054A40F2C7210548B4
:1037700002F02EFA1037BD4680BD00BF8C650008F0
:10378000BC6D000840650008986500080010024004
:103790003865000880B584B000AF78600023FB6016
:1037A0000023BB607B68032B08D8234A7B685B013E
:1037B000134403F5A1631B68BB600EE07B680E2B0E
:1037C00004D11D4BD3F8C836BB6006E01B4B1C4A26
:1037D00040F287311B4802F0FBF9BB68042B22D86A
:1037E00001A252F823F000BFFD3700080538000899
:1037F0000D380008153800081D380008FFF70FFEC7
:10380000F86013E0FFF704FEF8600FE0FFF74EFEEC
:10381000F8600BE0FFF7DEFAF86007E07868FFF782
:10382000ABFEF86002E00023FB6000BFFB681846B7
:103830001037BD4680BD00BF00100240386500084B
:10384000D06D00084065000880B584B000AF786096
:103850000B46FB700023FB600023BB60354BD3F8A5
:10386000803403F02003002B1ED07B68324A934241
:1038700038BF1346FB60FB68304A934228BF1346AB
:10388000FB60FA682E4B13442E4AA2FB03231B0E47
:10389000BB60BB682C4A03FB02F2274B1344FB605E
:1038A000BB684B33BB602CE0224BD3F8803403F071
:1038B0002003002B1ED17B68244A934238BF134655
:1038C000FB60FB681D4A934228BF1346FB60FA6801
:1038D0001F4B13441F4AA2FB03231B0EBB60BB6894
:1038E0001D4A03FB02F2194B1344FB60BB684E33C5
:1038F000BB6006E0194B1A4A40F2B641194802F083
:1039000067F9194BD3F8883023F4FF3323F4C073DD
:10391000BA68520202F4FF321A43FB78DB0103F467
:10392000C07311491343C1F88830FB68184610373B
:10393000BD4680BD00080045005ED0B200C0E1E495
:1039400000CF604E6BCA5F6B005A6202002087B2E4
:1039500000D89D4E851DD96F00F0490238650008DA
:10396000EC6D0008406500080030004080B584B070
:1039700000AF78600B46FB70134BD3F8883003F030
:103980002003002B01D000F023F8104B742283F8A1
:10399000E820FB7819467868FFF756FFF8600A4B75
:1039A000D3F88830084A43F02003C2F8883000BFBB
:1039B000054BD3F8883003F04003002BF8D0FB68A8
:1039C00018461037BD4680BD00300040002000453D
:1039D00080B500AF0C4BD3F890300B4A43F0030393
:1039E000C2F89030084BD3F88830074A23F0200300
:1039F000C2F88830FFF75AF90120FFF729FA034887
:103A0000FFF7BEFB00BF80BD003000401C0001007E
:103A100080B582B000AF0346FB71174BD3F88830F6
:103A200003F00803002B01D000F02AF8134B742296
:103A300083F8A820104BD3F8883023F4C022FB79F8
:103A40005B0403F4C0230C491343C1F888300A4BCC
:103A5000D3F88830084A43F00803C2F8883000BF22
:103A6000054BD3F8883003F01003002BF8D000BFCB
:103A700000BF0837BD4680BD003000400020004533
:103A800080B500AF0C4BD3F890300B4A43F00C03D9
:103A9000C2F89030084BD3F88830074A23F0080367
:103AA000C2F88830FFF702F90120FFF7D1F9034887
:103AB000FFF766FB00BF80BD003000401D00010025
:103AC00080B582B000AF0346FB71154BD3F8883048
:103AD00003F00103002B01D000F026F8FB79002B46
:103AE00004D1104B052283F8D92003E00D4B0A22A4
:103AF00083F8D9200A4BD3F88830094A43F00103F0
:103B0000C2F8883000BF064BD3F8883003F00203B8
:103B1000002BF8D000BF00BF0837BD4680BD00BFF6
:103B2000003000400020004580B500AFFFF7BEF830
:103B3000FFF7B4F90A4BD3F89030094A43F0F00389
:103B4000C2F89030064BD3F88830054A23F00103C1
:103B5000C2F888300120FFF77BF900BF80BD00BFAD
:103B60000030004080B489B000AF5123FB610023D6
:103B7000BB6114237B6102233B610223FB600323AF
:103B8000BB6004237B6005233B602E4BD3F880345D
:103B900003F02003002B06D15423FB6144F62413C9
:103BA000BB6113237B61284B5A69284B13403A6849
:103BB000D20602F0F0421A43BB68DB0503F0F06363
:103BC0001A437B681B0503F4E0031A437B69DB029D
:103BD0009BB21D4913434B611B4B9B6923F47E62CF
:103BE0003B695B0103F47E63174913438B61164BFA
:103BF000DB6823F01E02FB685B0003F01E03124922
:103C00001343CB60104B1B6923F0FF5323F4801345
:103C1000FA6911050E4A0A400B4913430B610A4B1E
:103C2000DB6A0C4A1A40BB69DB0123F07C4323F0BA
:103C30007F0305491343CB6200BF2437BD465DF8BF
:103C4000047B70470008004500300040FF070F80EC
:103C50000000F01F7F0000F080B483B000AF034687
:103C6000FB71FB79002B27D0164B5B6923F04002D8
:103C7000FB79154951F823309B0103F040031149AA
:103C800013434B610F4B1B69104A1A40FB791049D3
:103C900051F8233059000F4B0B400A4913430B6175
:103CA000084B1B6AC3F31202FB790B4951F823300E
:103CB000DB04044913430B6200BF0C37BD465DF8BB
:103CC000047B704700300040206D00080100F0FFC9
:103CD000C86C0008FEFF0F00F46C000880B483B0CD
:103CE00000AF0346FB71FB79002B1BD0104BDB6B45
:103CF00023F00072FB790F4951F823305B0603F083
:103D000000730B491343CB63FB790B4A52F8233002
:103D1000C3F31202FB79094951F82330DB0404494B
:103D200013438B6300BF0C37BD465DF8047B7047BF
:103D300000300040206D0008C86C0008F46C0008DA
:103D400080B582B000AF0A4B9B687B607B6803F450
:103D50008053002B07D1064A7B6843F4805393605D
:103D60003220FFF775F800BF0837BD4680BD00BFA1
:103D70000030004080B483B000AF094B9B687B608B
:103D80007B6803F48053002B04D0054A7B6823F43E
:103D90008053936000BF0C37BD465DF8047B7047CD
:103DA0000030004080B584B000AF0346FB710B4685
:103DB000BB7113467B71FB79002B05D04D4B5B69C2
:103DC0004C4A43F010035361BB79002B05D0494B9B
:103DD000DB6B484A43F08073D363464BDB6A454A4A
:103DE00043F04003D3620320FFF732F8414BDB6A14
:103DF000404A23F04003D3620220FFF729F83D4BED
:103E0000DB6A3C4A23F00103D3620520FFF720F868
:103E10007B79002B05D0374B5B69364A43F48033FE
:103E200053610520FFF714F8FB79002B05D0314BC7
:103E3000DB6A304A23F00203D362BB79002B07D040
:103E40002C4BD3F8C0302B4A23F00103C2F8C0300A
:103E50000220FEF7FDFFFB79002B05D0254B1B69E7
:103E6000244A43F001031361BB79002B05D0214B99
:103E7000DB6B204A43F08063D3630220FEF7E8FF48
:103E8000FB79002B05D01B4B1B691A4A23F0010359
:103E90001361BB79002B05D0164BDB6B154A23F061
:103EA0008063D3630C20FEF7D3FF7B79002B1CD0FB
:103EB0000023FB6005E0FB680A33FB600A20FEF785
:103EC000C7FF0C4B9B6A03F00073B3F1007F03D074
:103ED000FB68B3F5167FEED30A20FEF7B9FF054B5A
:103EE0005B69044A23F48033536100BF1037BD4639
:103EF00080BD00BF0030004080B483B000AF0346F7
:103F00000A46FB711346BB71FB79002B0BD0114B9A
:103F1000DB6A104A43F00203D3620E4B5B690D4A21
:103F200023F010035361BB79002B0DD0094BD3F85C
:103F3000C030084A43F00103C2F8C030054BDB6BC8
:103F4000044A23F08073D36300BF0C37BD465DF88D
:103F5000047B70470030004080B582B000AF7860CD
:103F60007B68002B06D11E4B1E4A40F20F611E4893
:103F700001F02EFE1D4B5B6903F02003002B01D0E6
:103F800000F036F8FEF792FEFFF7DAFEFFF7EAFDE3
:103F90007B681B781846FFF75FFE7B685B781846E6
:103FA000FFF79CFE114B5B69104A43F020035361FD
:103FB0000F20FEF74DFF0D4BDB6A0C4A23F0040384
:103FC000D3620F20FEF744FF7B689B781A460121DD
:103FD0000120FFF7E7FE00BF0837BD4680BD00BFE8
:103FE000B8650008006E0008406500080030004019
:103FF00080B500AF01210120FFF77EFF0F4BDB6A88
:104000000E4A43F00403D3620C4BDB6A0B4A43F0C5
:104010000103D362094B5B69084A23F02003536113
:104020000748FFF7ADF8054B5B6803F00403002B6E
:1040300001D1FFF79FFE00BF80BD00BF00300040F0
:104040001E00010080B483B000AF78607B68184622
:10405000A0F101000028FBD100BF0C37BD465DF880
:10406000047B70472DE9B04384B000AF78603960BD
:104070007968002935D079680020884681463968FA
:1040800000200A46034602FB09F008FB03F1014445
:10409000A8FB02454B191D46144A4FF00003204669
:1040A0002946FDF707FC02460B46C7E90223D7E97C
:1040B0000223012B05D30E4B0E4AD5210E4801F0E9
:1040C00087FDD7E902014FF000024FF0000382089C
:1040D00042EA81728B08C7E90223BB681846FFF7E2
:1040E000B1FF00BF1037BD46BDE8B08340420F00AE
:1040F00050660008106E00080066000880B483B0A7
:1041000000AF78600B46FB70FB78002B01D10123D8
:1041100020E0FB78042B0ED87B68D3F8F82FFB78CF
:10412000033322FA03F303F00103002B14BF01232E
:104130000023DBB20EE0FB78052B0AD17B68D3F8B5
:10414000F83F03F08003002B14BF01230023DBB2F0
:1041500000E0002318460C37BD465DF8047B70472D
:1041600080B584B000AF78600023FB6009E00E4AA0
:10417000FB6852F823207B689A4206D0FB68013323
:10418000FB60FB68042BF2D900E000BFFB68042B46
:1041900005D9064B064A5F21064801F019FDFB6868
:1041A00018461037BD4680BD246E000864660008BE
:1041B000586E00089466000880B584B000AFF860BF
:1041C0000B467A60FB72FB7A1946F868FFF796FF98
:1041D000034683F00103DBB2002B01D0032321E06F
:1041E000FB68D3F8F83F03F00803002B09D0FB6805
:1041F000D3F8F83F03F00702FB7A9A4201D001237B
:1042000010E07B68002B08D0FB7A43F00803DBB298
:104210001A46FB68C3F8F82F03E0FA7AFB68C3F884
:10422000F82F002318461037BD4680BD80B584B0F6
:1042300000AF78600B46FB707868FFF791FFF8607D
:104240000C4AFB6852F823301846FEF705FF0A4A6D
:10425000FB6832F81330184601F09CFCFB78002212
:1042600019467868FFF7A8FF034618461037BD4681
:1042700080BD00BF386E00084C6E000880B582B06B
:1042800000AF1148FFF76CFF7860104A7B6852F866
:104290002330002B05D10E4B0E4AAC210E4801F005
:1042A00097FC0A4A7B6852F823300C497A6851F827
:1042B000222010460A497A6851F822201146984770
:1042C00000BF0837BD4680BD00601040D00C002004
:1042D000E4660008706E000894660008246E00080A
:1042E000E40C002080B582B000AF1148FFF738FF22
:1042F0007860104A7B6852F82330002B05D10E4BB2
:104300000E4ABA210E4801F063FC0A4A7B6852F853
:1043100023300C497A6851F8222010460A497A68FD
:1043200051F822201146984700BF0837BD4680BD8E
:1043300000701040D00C0020E46600088C6E00086D
:1043400094660008246E0008E40C002080B582B05A
:1043500000AF1148FFF704FF7860104A7B6852F8FD
:104360002330002B05D10E4B0E4AC8210E4801F018
:104370002FFC0A4A7B6852F823300C497A6851F8BE
:10438000222010460A497A6851F82220114698479F
:1043900000BF0837BD4680BD00801040D00C002013
:1043A000E4660008A86E000894660008246E000801
:1043B000E40C002080B582B000AF1148FFF7D0FEBA
:1043C0007860104A7B6852F82330002B05D10E4BE1
:1043D0000E4AD6210E4801F0FBFB0A4A7B6852F8D0
:1043E00023300C497A6851F8222010460A497A682D
:1043F00051F822201146984700BF0837BD4680BDBE
:1044000000901040D00C0020E4660008C46E000844
:1044100094660008246E0008E40C002080B582B089
:1044200000AF1248FFF79CFE7860114A7B6852F893
:104430002330002B06D10F4B0F4A40F271110F4869
:1044400001F0C6FB0A4A7B6852F823300C497A68AF
:1044500051F8222010460B497A6851F82220114663
:10446000984700BF0837BD4680BD00BF00601240BE
:10447000D00C0020E4660008E06E00089466000896
:10448000246E0008E40C002080B483B000AF786094
:104490000B46FB70FB78002B06D07B685B6843F40F
:1044A00080727B685A6005E07B685B6823F48072E9
:1044B0007B685A6000BF0C37BD465DF8047B7047CF
:1044C00080B586B000AFF860B9607A60FB68002BF9
:1044D00005D0BB68002B02D07B68002B05D16C4B4C
:1044E0006C4AC6216C4801F073FBFB68002B05D0B9
:1044F000BB68002B02D07B68002B01D10423C2E0F3
:104500000121F868FFF792FE78617B69002B01D0EA
:104510007B69B8E0BB685B7A002B23D0FB68D3F8DB
:10452000003E43F00112FB68C3F8002EFB68D3F88D
:10453000083E23F47062FB68C3F8082EFB68D3F8CA
:10454000082EBB685B7B1B0203F470631A43FB6895
:10455000C3F8082EFB68D3F8083E43F00102FB685D
:10456000C3F8082EBB681B7A002B23D0FB68D3F856
:10457000003E43F00212FB68C3F8002EFB68D3F83C
:10458000083E23F47022FB68C3F8082EFB68D3F8BA
:10459000082EBB689B7B1B0403F470231A43FB6843
:1045A000C3F8082EFB68D3F8083E43F00202FB680C
:1045B000C3F8082EBB681B791B0103F03002BB68EF
:1045C0005B799B0103F040031A43BB689B799B0016
:1045D00003F00C031A43BB68DB79DB039BB21A437D
:1045E000BB68DB7B5B08DBB2DB0203F400631A43CE
:1045F000BB68DB7B9B0303F480431A43BB681B7CD3
:104600001B0303F480531A43BB68DB7ADB01DBB284
:104610001A43BB681B7B5B0203F40073134343F034
:104620000102FB681A60BB68DB7A002B17D0BB68FD
:104630001B684FF41652B2FBF3F101FB03F3D31ADC
:10464000002B09D1BB681B684FF41652B2FBF3F381
:104650005A1EFB681A620FE041F2516313E0BB6817
:104660001B687A681946F86800F060F878617B6921
:10467000002B01D07B6906E0BB689B7A1946F8687D
:10468000FFF702FF002318461837BD4680BD00BF64
:10469000B8670008FC6E00083867000880B582B073
:1046A00000AF78607B68002B06D11D4B1D4A4FF48C
:1046B0009B711D4801F08CFA14220021786801F0EA
:1046C000F7FD7B684FF4E1321A607B6800221A71B3
:1046D0007B6800225A717B6801229A717B680022F4
:1046E000DA717B6800221A727B6800225A727B683A
:1046F0000022DA727B6800225A737B6800229A7368
:104700007B680022DA737B6800229A727B68002241
:104710001A747B6800221A7300BF0837BD4680BD3B
:10472000F8670008086F00083867000880B58CB08B
:1047300000AFF860B9607A604FF0FF33FB620F237F
:10474000BB624FF0FF337B62FB68002B05D0BB6878
:10475000002B02D07B68002B06D1564B564A40F204
:10476000AF11564801F034FAFB68002B05D0BB6846
:10477000002B02D07B68002B01D1042395E0FB685D
:104780001B6803F40063002B10D0FB681B6803F464
:104790008043002B00F088807A68BB68B2FBF3F39B
:1047A000BB61BB695A1EFB681A627DE0BB68444A64
:1047B000A2FB03235A0913465B001344FB61BB6A47
:1047C0003B6242E03B6A082B03D8FA6AFB699A42D3
:1047D0003FD97A6813469B0013445B0019463B6A35
:1047E0000133BA6802FB03F3B1FBF3F3053B354A2F
:1047F000A2FB0323DB08BB61BB69B3F5803F20D27A
:104800003B6A0133BA69013202FB03F37A68B2FBF7
:10481000F3F37B61BA687B699A4203D27A69BB6819
:10482000D31A02E0BA687B69D31A3B613A69FB6A22
:104830009A4207D23B69FB623B6ABB62BB697B62FF
:1048400000E000BF3B6A013B3B623B6A032BB9D8E7
:1048500000E000BFBB6A01337A6A013202FB03F356
:104860007A68B2FBF3F37B61BA687B699A4203D240
:104870007A69BB68D31A02E0BA687B69D31A3B61D4
:104880003A69FB699A4202D941F251630DE07B6AB1
:10489000B3F5803F02D341F2516306E0FB68BA6A88
:1048A0009A62FB687A6A1A62002318463037BD465E
:1048B00080BD00BF08680008206F00083867000846
:1048C0001F85EB51CDCCCCCC80B584B000AFF86067
:1048D000B9607A60FB68002B02D0BB68002B06D160
:1048E0001D4B1E4A40F25B211D4801F071F9FB6827
:1048F000002B02D0BB68002B01D1042327E0FB680A
:10490000D3F8003E03F00103002B15D104231EE071
:1049100000BFFB68D3F8043E03F02003002BF8D05F
:10492000BB681B781A46FB68C3F8202EBB680133AE
:10493000BB607B68013B7B607B68002BE8D100BFDC
:10494000FB689B6803F00803002BF9D0002318468E
:104950001037BD4680BD00BF5C680008346F00089A
:104960003867000880B586B000AFF860B9607A603B
:1049700000237B61FB68002B02D0BB68002B06D1B3
:104980003A4B3B4A40F2A7213A4801F021F9FB6833
:10499000002B02D0BB68002B01D1042361E0FB682F
:1049A000D3F8003E03F00203002B54D1012358E05A
:1049B00000BFFB68D3F8043E03F04003002BF8D09F
:1049C000FB68D3F8043E03F00203002B13D0FB680E
:1049D000D3F8003E43F40032FB68C3F8002EFB68B6
:1049E000D3F8043E43F00202FB68C3F8042E41F200
:1049F0004D637B6134E0FB689B683B61FB689A68B0
:104A00003B691A43FB689A603B6903F48043002BBF
:104A100002D041F250637B613B6903F40053002BE9
:104A200002D041F24F637B613B6903F40043002BEA
:104A300002D041F24E637B617B69002B0FD1FB6892
:104A4000D3F8303EDAB2BB681A70BB680133BB6082
:104A50007B68013B7B607B68002BA9D100E000BF35
:104A60007B6918461837BD4680BD00BF5C680008EA
:104A7000486F00083867000880B500AF044B1B681A
:104A8000044A126811460448984700BF80BD00BF21
:104A9000FC0C0020F80C00200040134080B485B0CE
:104AA00000AF154BD3F82C38BB60BB6823F46163AF
:104AB00023F00F03002B16D00023FB6010E0FB68EF
:104AC000BA6822FA03F303F00103002B05D0FB6858
:104AD00003F54E4340337B6005E0FB680133FB6028
:104AE000FB681F2BEBDD00237B607B6818461437C7
:104AF000BD465DF8047B704700A0004080B483B0E1
:104B000000AF104B7B6002E07B68013B7B600E4B8B
:104B1000D3F8203803F48003002B02D07B68002BED
:104B2000F2D17B68002B03D14CF647633B6001E078
:104B300000233B603B6818460C37BD465DF8047B9C
:104B4000704700BFE070720000A0004080B400AF6A
:104B5000064B4FF48052C3F82028044B044AC3F894
:104B60002C2800BFBD465DF8047B704700A00040C4
:104B7000E0F1FFFF80B500AF40F21110FEF76CFAD4
:104B800040F2111001F006F8064B4FF6FF72A3F841
:104B90005022044B4FF6FF72A3F84C220023184614
:104BA00080BD00BF0034004580B582B000AFFFF784
:104BB000A5FF78607B68002B0BD10C4B0122C3F85A
:104BC000042840F21110FEF7DBFA40F2111000F059
:104BD000D7FE074B0022A3F85022054B0022A3F872
:104BE0004C227B6818460837BD4680BD00A00040B7
:104BF0000034004580B584B000AF7860396004238C
:104C0000FB603B68002B23D0FFF778FFF860FB6860
:104C1000002B1FD1FFF79AFF124A7B68C3F30803EA
:104C2000C2F800380F4B0122C3F80C28FFF766FFCB
:104C3000F860FB68002B0FD1FFF730FFF860FB68CE
:104C4000002B0AD1074BD3F810283B681A6004E008
:104C500000BF02E000BF00E000BFFB68184610374D
:104C6000BD4680BD00A000402DE9F00F8EB000AF22
:104C7000F862B9624AF210437B63424AFB6A9BB214
:104C8000A2F81C323F4A0023A2F83C323D4A0023DE
:104C9000A2F828323B4BB3F828329BB2394A43F092
:104CA00001039BB2A2F8283202E07B6B013B7B63DD
:104CB0007B6B002B06D0334BB3F820329BB21BB278
:104CC000002BF2DA7B6B002B54D02E4BB3F818324A
:104CD0009BB203F00203002B4CD02A4BB3F81432E2
:104CE0009BB29BB200223B627A624FF000004FF011
:104CF00000013B6A19040020224BB3F810329BB22A
:104D00009BB20022BB61FA614FF000024FF000033A
:104D1000BE693300002240EA020A41EA030B194B44
:104D2000B3F80C329BB29BB200223B617A61D7E9A7
:104D300004120B464FEA13490B464FEA03484AEA6E
:104D400008044BEA09050F4BB3F808329BB29BB23B
:104D50000022BB60FA60D7E902120B4623433B6096
:104D600013462B437B60BB6AD7E90012C3E90012EC
:104D7000012300E0002318463837BD46BDE8F00F98
:104D8000704700BF003400452DE9B04384B000AF48
:104D9000786039600123FB607B68002B02D104231B
:104DA000FB6020E00023BB601AE07968B868FFF779
:104DB0005BFF0346002B0FD07B68D3E9002394B23E
:104DC00000253B680022984691464D4508BF444562
:104DD00003D10023FB6006E000BFBB680133BB606A
:104DE000BB683F2BE1D9FB6818461037BD46BDE8CC
:104DF000B083000080B584B000AF78600123FB6011
:104E00007B68002B06D1094B094A4FF48F71094882
:104E100000F0DEFE40F24E217868FFF7B5FFF86043
:104E2000FB6818461037BD4680BD00BF7C6900088E
:104E30005C6F00088869000880B586B000AF7860B4
:104E400001237B614FF000024FF00003C7E902230A
:104E50007B68002B06D10F4B0F4A4FF495710F481A
:104E600000F0B6FE07F1080340F25D111846FFF7A7
:104E70008BFF78617B69002B06D1D7E902231346AB
:104E80001B0CDAB27B681A607B6918461837BD467E
:104E900080BD00BFD46900086C6F000888690008F5
:104EA00080B485B000AF78607B6803F00703FB60D7
:104EB0000C4BDB68BB60BA684FF6FF031340BB6066
:104EC000FB681A02BB68134343F0BF6343F400332B
:104ED000BB60044ABB68D36000BF1437BD465DF8B1
:104EE000047B704700ED00E080B400AF044BDB684A
:104EF0001B0A03F007031846BD465DF8047B7047A4
:104F000000ED00E080B483B000AFEFF310833B60AE
:104F10003B687B6072B600BF7B6818460C37BD46A5
:104F20005DF8047B704780B485B000AF78607B6823
:104F3000FB60FB6883F3108800BF00BF1437BD46D9
:104F40005DF8047B7047000080B584B000AFF86066
:104F5000B9607A603B60BB68002B05D13F4B404A8B
:104F60009D21404800F034FE7B68002B05D13E4B6C
:104F70003B4A9E213B4800F02BFE3B68002B05D1AD
:104F80003A4B374A9F21374800F022FEBB6849F26E
:104F9000A3521A60BB68364A5A60BB6840F2EE22E0
:104FA0009A60FB68022B37D0FB68022B4BD8FB685A
:104FB000002B03D0FB68012B17D044E07B6845F23F
:104FC00012621A607B682B4A5A607B684FF45C72ED
:104FD0009A603B6843F27C221A603B68264A5A601A
:104FE0003B684FF496629A6033E07B6845F28F52DB
:104FF0001A607B68214A5A607B6840F225329A60C9
:105000003B6843F27C221A603B681B4A5A603B684B
:105010004FF496629A601CE07B6845F28C621A60DD
:105020007B68174A5A607B6840F225329A603B6879
:1050300043F275221A603B68124A5A603B684FF48B
:1050400096629A6005E0104B054ABF21054800F0C2
:10505000BFFD00BF1037BD4680BD00BF3C6A0008E1
:10506000C06F0008F0690008406A0008446A000840
:10507000D0FCAF1E600E411EC0D1091E909CA51E23
:1050800020218C1E2056981E486A000880B584B0E6
:1050900000AF4FF0E0235B6803F00F030133BB6008
:1050A000BB685B017B60BB68052B05D9454B464A55
:1050B000CD21464800F08CFD7B68A02B05D9444BE0
:1050C000414ACE21414800F083FDFFF70DFF034622
:1050D000404A13600023FB600BE03F4AFB6852F834
:1050E00023203C49FB689B000B445A60FB6801335A
:1050F000FB60FA68BB689A42EFD30023FB600FE0C5
:10510000354AFB68134403F540731B78D9B2314A22
:10511000FB68134418330A461A70FB680133FB60BE
:10512000FA687B689A42EBD32C4B5B68294AC2F839
:10513000C4302A4B9B68274AC2F8C830274BDB682B
:10514000244AC2F8CC30254B1B69224AC2F8D03021
:10515000224B5B691F4AC2F8D430204B5B6A1D4A60
:10516000C2F8D8301D4B5B6B1A4AC2F8DC301B4BBF
:105170009B6B184AC2F8E030184BD3F88830154AB8
:10518000C2F8E430154BD3F88C30124AC2F8E8303C
:105190000023FB600EE0114AFB68134418331B78B0
:1051A000D9B20C4AFB681344B8330A461A70FB683C
:1051B0000133FB60FB680B2BEDD900BF00BF10373C
:1051C000BD4680BD506A0008DC6F0008F069000829
:1051D0007C6A0008000D002000E100E000ED00E026
:1051E00080B584B000AF4FF0E0235B6803F00F039D
:1051F0000133BB60BB685B017B603D4B1B6818469D
:10520000FFF74EFE0023FB600BE03A49384AFB688B
:105210009B0013445A68FB6841F82320FB68013364
:10522000FB60FA68BB689A42EFD30023FB600EE094
:10523000304A2F49FB680B4418331978FB68134434
:1052400003F540730A461A70FB680133FB60FA6885
:105250007B689A42ECD3284A254BD3F8C43053607C
:10526000254A234BD3F8C8309360234A204BD3F808
:10527000CC30D360204A1E4BD3F8D03013611E4A85
:105280001B4BD3F8D43053611B4A194BD3F8D83099
:105290005362194A164BD3F8DC305363164A144B49
:1052A000D3F8E0309363144A114BD3F8E430C2F8DA
:1052B0008830114A0E4BD3F8E830C2F88C30002306
:1052C000FB600DE00C4A0A49FB680B44B8331978BF
:1052D000FB68134418330A461A70FB680133FB60FD
:1052E000FB680B2BEED900BF00BF1037BD4680BD59
:1052F000000D002000E100E000ED00E080B500AF0F
:10530000084B1B6B074A43F080031363064B1B6873
:10531000002B05D0044B1B68044A126810469847BE
:1053200000BF80BD00100340200E0020240E00208E
:1053300080B584B000AF0346FB80B7F90630FB6050
:10534000B7F90630002B06DA6E4B6F4A40F2C511F2
:105350006E4800F03DFCB7F906301D2B0BDC6C4BA2
:10536000D3F884200121FB6801FA03F36849134351
:10537000C1F8843024E0B7F90630382B0CDC644BDC
:10538000D3F88820FB68203B012101FA03F3604930
:105390001343C1F8883013E0B7F90630772B0FDCE0
:1053A000B7F906306B2B0BDD594BD3F89020FB6817
:1053B000603B012101FA03F355491343C1F89030D2
:1053C000B7F90630202B6DD0202BC0F29580652BCD
:1053D00000F392803E2BC0F28F803E3B272B00F2E1
:1053E0008B8001A252F823F0B3540008F95400084E
:1053F000F9540008F9540008F9540008F954000859
:10540000F9540008F9540008F9540008F954000848
:10541000C1540008CF540008F9540008F95400089A
:10542000F9540008F9540008F9540008F954000828
:10543000F9540008F9540008F9540008F954000818
:10544000F9540008F9540008F9540008F954000808
:10545000F9540008F9540008DD540008EB54000822
:10546000F9540008F9540008F9540008F9540008E8
:10547000F9540008F9540008F9540008F9540008D8
:105480008954000897540008214B9B69204A43F037
:105490000103936131E01E4B9B691D4A43F00203F7
:1054A00093612AE01A4B9B69194A43F00403936104
:1054B00023E0174B9B69164A43F0100393611CE0ED
:1054C000134B9B69124A43F02003936115E0104B84
:1054D0009B690F4A43F0400393610EE00C4B9B69BC
:1054E0000B4A43F08003936107E0094B9B69084A2C
:1054F00043F48073936100E000BF00BF1037BD46E6
:1055000080BD00BFA46A0008F06F0008F0690008C1
:105510000010034080B58EB000AF03463960FB71C8
:1055200007F1240300221A605A609A6007F11803F9
:1055300000221A605A609A6007F10C0300221A6078
:105540005A609A6007F10C0307F1180207F1240171
:105550003868FFF7F9FC664B9B697B63644A7B6B99
:1055600023F002039361FA7913469B00134403F27C
:1055700076233B637A6B5F4B13407B63796A3A6BAC
:1055800013469B0013445B001A46FB6A134403FB5B
:1055900001F2BB6A134403F5742303F23F23564A16
:1055A000A2FB03239B0C1A05544B13407A6B134345
:1055B0007B63796A3A6B13469B0013445B001A467F
:1055C000FB6AD31A03FB01F2BB6A13444A4AA2FBEB
:1055D00003239B0C1A024A4B13407A6B13437B63E1
:1055E000434A7B6B23F002039361414A7B6B9361D7
:1055F0003F4B1B6A7B633E4A7B6B23F002031362C3
:105600007A6B3C4B13407B63BA693B6A03F5934367
:10561000543303FB02F2FB69134403F5742303F2D2
:105620003F23354AA2FB03239B0C1A05334B13403F
:105630007A6B13437B63BA693B6AC3F585434C338A
:1056400003FB02F2FB6913442B4AA2FB03239B0CCE
:105650001A022B4B13407A6B13437B63244A7B6BF8
:1056600023F002031362224A7B6B1362204B9B6A76
:105670007B631F4A7B6B23F0020393627A6B1D4BA3
:1056800013407B63FA687B6903F50D43CC3303FB5E
:1056900002F23B69134403F5742303F23F23164AD5
:1056A000A2FB03239B0C1A05144B13407A6B134384
:1056B0007B63FA687B69C3F59043443303FB02F2D2
:1056C0003B6913440C4AA2FB03239B0C1A020C4BAC
:1056D00013407A6B13437B63054A7B6B23F0020311
:1056E0009362034A7B6B936200BF3837BD4680BD2F
:1056F00000400045FF000CC083DE1B430000F03F6C
:1057000000FF030080B584B000AFF860B9607A6034
:10571000FB68002B06D1184B184A40F2CA411848C2
:1057200000F056FABB68002B06D1164B134A40F224
:10573000CB41134800F04CFA7B68022B06D9124B80
:105740000E4A40F2CC410E4800F042FA0F4AFB6884
:1057500013601C22B9680E48FCF754F8BB68DB687C
:105760007968184600F068F80346094AD36000BF1C
:105770001037BD4680BD00BF106B00082C700008BC
:10578000F0690008246B0008346B0008380E002014
:105790003C0E002080B584B000AF78603960FDF722
:1057A00085FA1E4B062283F85A207B68002B02D113
:1057B0006023FB731BE07B68194AA2FB03239B0950
:1057C0007B607B68C3F12403BB60BB68002B02DBFA
:1057D000BB68122B06D9134B134A40F2E74113481A
:1057E00000F0F6F9124ABB6813441B78FB73FB7B8D
:1057F00003F07F030F4A43F0602343F4081353641C
:105800004FF4167001F05CFCFB7B39681846FFF71B
:1058100081FE00BF1037BD4680BD00BF002000459F
:10582000D34D6210406B000844700008F069000816
:10583000806F00080010034080B58AB000AF786028
:1058400039607B683B62464BD3F81431DBB2FB61B5
:10585000FB69022B7ED17B68DBB2BB613B68002B0E
:105860001BD1BB6903FB03F21346DB0013445B004F
:105870001946BB6940F2213202FB03F30B4403F5E6
:10588000D52303F22A437B617B69364A82FB0312EC
:105890001213DB17D31A7B623FE03B68012B18D150
:1058A000BB6903FB03F3522203FB02F2BB692E49DF
:1058B00001FB03F3134403F5082303F6D8037B61CC
:1058C0007B69284A82FB03121213DB17D31A7B620F
:1058D00023E03B68022B06D0244B254A40F2A4511A
:1058E000244800F075F9BB6903FB03F213469B00E3
:1058F00013449A001A44BB6940F2395101FB03F387
:10590000134403F5BA23D4337B617B69154A82FBC8
:1059100003121213DB17D31A7B627B6A1B063B62EE
:10592000154B1B693B614FF080431B69FB60124BB9
:105930004FF000721A644FF080434FF000721A6704
:105940000E4A3B6A13600C4A3B6913614FF0804278
:10595000FB6813613B6A18462837BD4680BD00BF0F
:1059600000100045AD8BDB68CDEBFFFF746B0008CA
:1059700058700008F0690008001000400CC0154085
:1059800080B586B000AF0346FB80FB881B0A9BB244
:105990007B61FB88DBB23B6101223B6902FA03F3C6
:1059A000FB603B691F2B05D9324B334A2D2133480D
:1059B00000F00EF97B69052B56D801A252F823F0AE
:1059C000D9590008F35900080D5A0008275A000851
:1059D0003D5A0008535A00084FF08042FB68136498
:1059E00000BF4FF080431A69FB681340002BF8D0CA
:1059F0003BE04FF08042FB68536400BF4FF08043B0
:105A00005A69FB681340002BF8D02EE04FF080421B
:105A1000FB68936400BF4FF080439A69FB681340B2
:105A2000002BF8D021E0164AFB68136400BF144B2A
:105A30001A69FB681340002BF9D016E0104AFB6886
:105A4000536400BF0E4B5A69FB681340002BF9D01A
:105A50000BE00B4AFB68936400BF094B9A69FB6833
:105A60001340002BF9D000E000BF00BF1837BD463F
:105A700080BD00BF806B000868700008906B000854
:105A80000000024080B586B000AF0346FB80FB8873
:105A90001B0A9BB27B61FB88DBB23B6101223B6945
:105AA00002FA03F3FB603B691F2B05D9354B364ADD
:105AB0006921364800F08CF87B69052B5CD801A27F
:105AC00052F823F0DD5A0008F95A0008155B000867
:105AD000315B0008495B0008615B00084FF08042C1
:105AE000FB68136700BF4FF080431A69FB681340DF
:105AF000FA689A42F7D040E04FF08042FB68536763
:105B000000BF4FF080435A69FB681340FA689A421D
:105B1000F7D032E04FF08042FB68936700BF4FF050
:105B200080439A69FB681340FA689A42F7D024E0F0
:105B3000174AFB68136700BF154B1A69FB681340CF
:105B4000FA689A42F8D018E0114AFB68536700BF20
:105B50000F4B5A69FB681340FA689A42F8D00CE080
:105B60000B4AFB68936700BF094B9A69FB681340B7
:105B7000FA689A42F8D000E000BF00BF1837BD466F
:105B800080BD00BF806B000884700008906B000827
:105B90000000024080B582B000AF0346FB80FB8866
:105BA0001846FFF7EDFEFB881846FFF76BFF00BFB6
:105BB0000837BD4680BD80B485B000AFF860B960DD
:105BC0007A60002318461437BD465DF8047B7047A1
:105BD00080B586B002AFF860B9607A603B607B68E0
:105BE0000093BB68FA683968044800F04DF8BA6859
:105BF000F9683868FFF7DFFF00BEFDE7DC6B0008DF
:105C000080B58AB000AFB9607B600346FB73134672
:105C1000BB73BB7B012B01D001232AE0174ABB7B5E
:105C200013747B687B61BB68BB6100233B770023F7
:105C30007B770123BB770123FB77002387F8203094
:105C4000002387F82130FB7B87F82230002387F878
:105C50002330002387F8243007F11403194607483E
:105C6000FCF72CFE054B064A9A60044B054ADA60A5
:105C7000002318462837BD4680BD00BF580E0020BF
:105C800081290008F52800080FB480B582B000AF64
:105C900000237B6007F114033B603968386900F02A
:105CA00009F878607B6818460837BD46BDE8804033
:105CB00004B0704780B584B000AF786039600023CD
:105CC000FB60094B1B7C002B02D14FF0FF3306E039
:105CD0003A687968054800F0C3F8F860FB68184630
:105CE0001037BD4680BD00BF580E0020F15C000893
:105CF00080B582B000AF7860084B1B7C002B02D1CE
:105D00004FF0FF3306E0054B9B68391D0122034825
:105D10009847012318460837BD4680BD580E00201D
:105D200080B582B000AF0C4B1B7C002B05D14FF02F
:105D3000FF330DE04FF0FF330AE000BF064BDB6896
:105D4000F91D0122044898470346002BF2D1FB7944
:105D500018460837BD4680BD580E002080B586B075
:105D600000AFB9607A603B600346FB73BB687B6140
:105D70000BE0FA7B3B6A104698473B681B685A1C4D
:105D80003B681A607B6901337B617A697B689A4260
:105D9000EFDB00BF00BF1837BD4680BD80B48FB0B9
:105DA00000AFF860B9607A603B600023FB62FB687B
:105DB000BB62BB6A5A1CBA6200221A7000237B6065
:105DC00000237B6200233B620023FB6100237B6393
:105DD0000023BB6100233B6300237B61BB681B681E
:105DE0007B637B6B002B30D1BB6A30221A70FB6A5D
:105DF0000133FB62FB6A2CE03B687A6BB2FBF3F386
:105E0000BB613B68BA6902FB03F37A6BD31A3B634D
:105E10003B6B092B03D83B6B30333B630AE097F8AD
:105E20004030002B01D0412200E061223B6B134443
:105E30000A3B3B63BB697B63BB6A5A1CBA623A6B21
:105E4000D2B21A70FB6A0133FB627B6B002BD3D199
:105E5000FB6A18463C37BD465DF8047B704700007E
:105E600080B59CB002AFF860B9607A6000233B66F1
:105E70000023FB650023FB61002387F84A300023E1
:105E80007B61BB687B667B6E1B78002B00F0D28148
:105E90007B6E1B7887F8493097F84930252B0BD05B
:105EA00097F84920FB6810469847FB690133FB616E
:105EB0007B6E01337B66BCE1012387F84B30002306
:105EC0007B65002387F85B3020E07B6E01337B66C7
:105ED0007B6E1B7887F8493097F849302F2B0FD904
:105EE00097F84930392B0BD87A6D13469B00134431
:105EF0005B001A4697F849301344303B7B6505E058
:105F00007B6E013B7B66012387F85B3097F85B3043
:105F100083F00103DBB2002BD7D17B6E01337B66AC
:105F20007B6E1B782E2B2ED100233B65002387F838
:105F30005B3020E07B6E01337B667B6E1B7887F8DD
:105F4000493097F849302F2B0FD997F84930392B22
:105F50000BD83A6D13469B0013445B001A4697F822
:105F600049301344303B3B6505E07B6E013B7B666B
:105F7000012387F85B3097F85B3083F00103DBB2D5
:105F8000002BD7D102E07B6E013B7B667B6E013339
:105F90007B667B6E1B7887F8493097F84930642B15
:105FA00024D097F84930692B20D097F84930662BD8
:105FB0001CD097F84930462B18D097F84930782BE9
:105FC00014D097F84930582B10D097F849306F2BE0
:105FD0000CD097F84930622B08D097F84930702BD5
:105FE00004D097F84930752B40F0DC8097F84930A1
:105FF000642B03D097F84930692B15D17B681A1DA3
:106000007A601B68BB6107F1180107F1200097F85F
:106010004B3000930A230122FFF7C0FEF86507F119
:106020002002FB6D13443B6697F84930582B03D090
:1060300097F84930782B1CD197F84930782B02D14A
:10604000002387F84B307B681A1D7A601B687B61E0
:1060500007F1140107F1200097F84B30009310234B
:106060000022FFF79BFEF86507F12002FB6D134449
:106070003B6697F849306F2B0BD097F84930622B6D
:1060800007D097F84930702B03D097F84930752B1B
:106090006AD197F84930702B0DD17B681A1D7A6050
:1060A0001B683B6107F1100107F114030422184635
:1060B000FBF7A8FB04E07B681A1D7A601B687B6114
:1060C00097F84930623B132B3AD801A252F823F0DB
:1060D0002961000841610008416100084161000830
:1060E0004161000841610008416100084161000808
:1060F00041610008416100084161000841610008F8
:106100004161000821610008316100084161000817
:1061100041610008416100084161000839610008DF
:10612000082387F84A300CE0022387F84A3008E059
:10613000102387F84A3004E00A2387F84A3000E049
:1061400000BF97F84A2007F1140107F1200097F8E3
:106150004B30009313460022FFF720FEF86507F14D
:106160002002FB6D13443B667A6D07F11C01FB684E
:1061700000930B46F96D2020FFF7F0FD3B6E002BDE
:1061800054D00AE03B6E5A1E3A661B781A46FB68EA
:1061900010469847FB690133FB613B6E1B78002B6F
:1061A000F0D143E097F84930632B0BD17B681A1D7F
:1061B0007A601B687B64FB68786C9847FB690133E5
:1061C000FB6133E097F84930732B27D17B681A1DA8
:1061D0007A601B68FB64FB6C002B27D0F86CFBF724
:1061E00061FB0346FB657A6D07F11C01FB680093B8
:1061F0000B46F96D2020FFF7B1FD0AE0FB6C5A1C3D
:10620000FA641B781A46FB6810469847FB6901330D
:10621000FB61FB6C1B78002BF0D107E097F849205D
:10622000FB6810469847FB690133FB617B6E0133C5
:106230007B6628E600BFFB6918466837BD4680BD0F
:1062400008B5074B044613B1002100E000BF054B21
:106250001868836A03B19847204600F031F800BF00
:1062600000000000A070000870B50D4D00260D4C18
:10627000641BA410A64209D10B4D00260B4C00F064
:1062800011FF641BA410A64205D170BD55F8043B54
:1062900001369847EEE755F8043B01369847F2E798
:1062A0000871000808710008087100080C710008E6
:1062B00002440346934200D1704703F8011BF9E7FB
:1062C000FEE700BF68656C6C6F20776F726C6420AE
:1062D0006D6163726F6E69782E0D0A006673656C6E
:1062E0005365744D61736B203D3D204D43495F49BB
:1062F0004F5F4D55585F4653454C5F53454C5F5378
:1063000044494F5F4D41534B00000000633A5C75B8
:10631000736572735C6B6268695C6465736B746FE0
:10632000705C697269735C73646B5F72773631326B
:106330002D65766B5C646576696365735C72773630
:1063400031325C647269766572735C66736C5F6926
:106350006F5F6D75782E680070696E203C20363452
:1063600055000000633A5C75736572735C6B62681C
:10637000695C6465736B746F705C697269735C737C
:10638000646B5F72773631322D65766B5C6465764F
:10639000696365735C72773631325C647269766505
:1063A00072735C66736C5F696F5F6D75782E6800E1
:1063B00070696E203C203455000000000301FF008E
:1063C00000D01213000000000010000001000500C2
:1063D0000203010E000C010B01000000010000008F
:1063E000737461747573203D3D206B5374617475D3
:1063F000735F53756363657373000000433A5C55C4
:10640000736572735C6B6268695C4465736B746F0F
:10641000705C495249535C73646B5F7277363132FA
:106420002D65766B5C626F617264735C7264727707
:106430003631326267615C64656D6F5F6170707385
:106440005C68656C6C6F5F776F726C645C626F61C7
:1064500072642E630000000068616E646C65000069
:10646000433A5C55736572735C6B6268695C446542
:10647000736B746F705C495249535C73646B5F72E9
:10648000773631322D65766B5C636F6D706F6E653C
:106490006E74735C756172745C66736C5F61646169
:1064A000707465725F75736172742E630000000012
:1064B000636F6E6669670000636F6E6669672D3E85
:1064C000696E7374616E6365203C202873697A6518
:1064D0006F6628735F55736172744164617074658F
:1064E000724261736529202F2073697A656F66286F
:1064F00055534152545F54797065202A2929000070
:10650000735F557361727441646170746572426146
:1065100073655B636F6E6669672D3E696E73746148
:106520006E63655D0000000064617461000000003E
:106530006C656E677468000066616C7365000000CE
:10654000433A5C55736572735C6B6268695C446561
:10655000736B746F705C495249535C73646B5F7208
:10656000773631322D65766B5C6465766963657369
:106570005C52573631325C647269766572735C6660
:10658000736C5F636C6F636B2E63000069203C3D2E
:106590002031345500000000636F6E6669672D3E40
:1065A00064697669646572203D3D20323535550059
:1065B0006964203C20345500636E6667000000006B
:1065C0004457545F4354524C5F4E4F435943434EDC
:1065D000545F4D736B20213D20284457542D3E437A
:1065E00054524C2026204457545F4354524C5F4E23
:1065F0004F435943434E545F4D736B2900000000D5
:10660000433A5C55736572735C6B6268695C4465A0
:10661000736B746F705C495249535C73646B5F7247
:10662000773631322D65766B5C64657669636573A8
:106630005C52573631325C647269766572735C669F
:10664000736C5F636F6D6D6F6E5F61726D2E630053
:10665000636F756E74203C3D2055494E5433325F54
:106660004D41580069203C202875696E7433325FB3
:10667000742946534C5F464541545552455F534F2C
:10668000435F464C4558434F4D4D5F434F554E5425
:1066900000000000433A5C55736572735C6B62687E
:1066A000695C4465736B746F705C495249535C73E9
:1066B000646B5F72773631322D65766B5C6465761C
:1066C000696365735C52573631325C647269766512
:1066D00072735C66736C5F666C6578636F6D6D2E4C
:1066E00063000000735F666C6578636F6D6D49725F
:1066F0007148616E646C65725B696E7374616E6320
:10670000655D20213D204E554C4C000069203C2009
:106710002875696E7433325F742946534C5F464561
:1067200041545552455F534F435F55534152545F57
:10673000434F554E54000000433A5C5573657273E5
:106740005C6B6268695C4465736B746F705C495222
:1067500049535C73646B5F72773631322D65766BAB
:106760005C646576696365735C52573631325C648C
:106770007269766572735C66736C5F75736172744F
:106780002E6300004E554C4C20213D2068616E6404
:106790006C6500004E554C4C20213D2062617365B4
:1067A000000000004E554C4C20213D2072696E6760
:1067B00042756666657200002128284E554C4C20B3
:1067C0003D3D206261736529207C7C20284E554C1C
:1067D0004C203D3D20636F6E66696729207C7C20DC
:1067E000283055203D3D20737263436C6F636B5FAF
:1067F000487A2929000000004E554C4C20213D20AC
:10680000636F6E66696700002128284E554C4C2046
:106810003D3D206261736529207C7C202830552015
:106820003D3D2062617564726174655F42707329D9
:10683000207C7C20283055203D3D20737263436CC2
:106840006F636B5F487A29290000000062617365FD
