:020000040800F2
:10000000FFFFFFFFFFFFFFFFFFFFFFFFFFFFFFFF00
:10001000FFFFFFFFFFFFFFFFFFFFFFFFFFFFFFFFF0
:10002000FFFFFFFFFFFFFFFFFFFFFFFFFFFFFFFFE0
:10003000FFFFFFFFFFFFFFFFFFFFFFFFFFFFFFFFD0
:1004000046434642000000000000000001030300D4
:1004100001000000010200000002000000000000D6
:1004200000000000000000000000000000000000CC
:1004300000000000000000000000000000000000BC
:1004400000000000010407000000000000000000A0
:10045000000000010000000000000000000000009B
:10046000000000000000000000000000000000008C
:10047000000000000000000000000000000000007C
:10048000EB04180A001E04320426000000000000DD
:10049000050404240000000000000000000000002B
:1004A0000104022000000000000000000000000025
:1004B0000604000000000000000000000000000032
:1004C000000000000000000000000000000000002C
:1004D00020041808000000000000000000000000D8
:1004E000000000000000000000000000000000000C
:1004F00000000000000000000000000000000000FC
:100500005204180800000000000000000000000075
:100510000204180800200000000000000000000095
:1005200000000000000000000000000000000000CB
:100530006004000000000000000000000000000057
:1005400000000000000000000000000000000000AB
:10055000000000000000000000000000000000009B
:10056000000000000000000000000000000000008B
:10057000000000000000000000000000000000007B
:10058000000000000000000000000000000000006B
:10059000000000000000000000000000000000005B
:1005A000000000000000000000000000000000004B
:1005B000000000000000000000000000000000003B
:1005C000000100000010000000000000000000001A
:1005D000008000000000000000000000000000009B
:1005E000000000000000000000000000000000000B
:1005F00000000000000000000000000000000000FB
:10060000FFFFFFFF000000000000000000000000EE
:1006100000000000000000000000000000000000DA
:1006200000000000000000000000000000000000CA
:1006300000000000000000000000000000000000BA
:1006400000000000000000000000000000000000AA
:10100000003012203D130008D5130008D913000842
:10101000D1130008D1130008D1130008D113000820
:10102000E0D10A000000000000000000212E002096
:10103000D113000800100008B12D0020112A002053
:10104000E9130008ED130008F1130008F513000878
:10105000F9130008FD130008011400080514000826
:10106000091400080D1400081114000815140008D4
:10107000191400081D140008211400082514000884
:10108000291400082D140008311400083514000834
:10109000391400083D1400084114000845140008E4
:1010A000491400084D140008511400085514000894
:1010B000591400085D140008611400086514000844
:1010C000CD2C00086D140008711400087514000878
:1010D000791400087D1400088114000885140008A4
:1010E000891400088D140008911400089514000854
:1010F000991400089D140008A1140008A514000804
:10110000A9140008AD140008B1140008B5140008B3
:10111000B9140008BD140008C1140008C514000863
:10112000C9140008CD140008D1140008D514000813
:10113000D9140008DD140008E1140008E5140008C3
:10114000E9140008ED140008F1140008F514000873
:10115000F9140008FD140008011500080515000821
:10116000091500080D1500081115000815150008CF
:10117000191500081D15000821150008251500087F
:10118000291500082D15000831150008351500082F
:10119000391500083D1500084115000845150008DF
:1011A000491500084D15000851150008551500088F
:1011B000591500085D15000861150008651500083F
:1011C000691500086D1500087115000875150008EF
:1011D000791500080D2D00088115000885150008F7
:1011E000891500088D15000891150008951500084F
:1011F000991500089D150008A1150008A5150008FF
:10120000A9150008AD150008B1150008B5150008AE
:10121000B9150008BD150008C1150008C51500085E
:10122000C9150008CD150008D1150008D51500080E
:10123000D9150008DD150008E1150008E5150008BE
:10124000E915000800000000000000000000000098
:10125000000000000000000000000000000000008E
:10126000000000000000000000000000000000007E
:10127000000000000000000000000000000000006E
:1012800010B5054C237833B9044B13B1044800E082
:1012900000BF0123237010BDA091012000000000B9
:1012A000E843090808B5034B1BB10349034800E0B4
:1012B00000BF08BD00000000A4910120E843090818
:1012C000A3F5803A704700BF174B002B08BF134BA4
:1012D0009D46FFF7F5FF00218B460F461348144A41
:1012E000121A72F0E5FF0E4B002B00D098470D4B01
:1012F000002B00D098470020002104000D000D486D
:10130000002802D00C4800E000BF72F083FF2000EC
:10131000290002F011FB72F069FF00BF0000080015
:10132000000000000000000000301220A091012009
:1013300038980620000000000000000072B6174830
:10134000174901600A6882F30888164880F30A8802
:10135000154880471549164A164B9A42BEBF51F8A8
:10136000040B42F8040BF8E71349144A0020914299
:10137000BCBF41F8040BFAE700201149114A914221
:10138000BCBF41F8040BFAE706490F4A9142BCBFC3
:1013900041F8040BFAE762B60C48804708ED00E01C
:1013A00000100008002C1220C985000840500908D0
:1013B00000000020A0910120A09101203898062073
:1013C00038980620389C062000301220C9120008E8
:1013D000FFF7FEBF8548004785480047854800471E
:1013E00085480047854800478548004785480047AD
:1013F000854800478548004785480047854800479D
:10140000854800478548004785480047854800478C
:10141000854800478548004785480047854800477C
:10142000854800478548004785480047854800476C
:10143000854800478548004785480047854800475C
:10144000854800478548004785480047854800474C
:10145000854800478548004785480047854800473C
:10146000854800478548004785480047854800472C
:10147000854800478548004785480047854800471C
:10148000854800478548004785480047854800470C
:1014900085480047854800478548004785480047FC
:1014A00085480047854800478548004785480047EC
:1014B00085480047854800478548004785480047DC
:1014C00085480047854800478548004785480047CC
:1014D00085480047854800478548004785480047BC
:1014E00085480047854800478548004785480047AC
:1014F000854800478548004785480047854800479C
:10150000854800478548004785480047854800478B
:10151000854800478548004785480047854800477B
:10152000854800478548004785480047854800476B
:10153000854800478548004785480047854800475B
:10154000854800478548004785480047854800474B
:10155000854800478548004785480047854800473B
:10156000854800478548004785480047854800472B
:10157000854800478548004785480047854800471B
:10158000854800478548004785480047854800470B
:1015900085480047854800478548004785480047FB
:1015A00085480047854800478548004785480047EB
:1015B00085480047854800478548004785480047DB
:1015C00085480047854800478548004785480047CB
:1015D00085480047854800478548004785480047BB
:1015E000854800478548004785480047D5130008CF
:1015F000D9130008212E0020B12D0020112A00202F
:10160000D1130008D1130008D1130008D11300082A
:10161000D1130008D1130008D1130008D11300081A
:10162000D1130008D1130008D1130008D11300080A
:10163000D1130008D113000819B8000881B80008B8
:10164000E9B8000851B90008D1130008D113000807
:10165000B9B90008D1130008D1130008D11300084C
:10166000D1130008D1130008D1130008D1130008CA
:10167000D1130008D1130008D1130008D1130008BA
:10168000D1130008D1130008D1130008D1130008AA
:10169000D1130008D1130008D1130008D11300089A
:1016A000D1130008D1130008E9DA0008D1130008AB
:1016B000D1130008D1130008D1130008D11300087A
:1016C000D1130008D1130008D1130008D11300086A
:1016D000D1130008D1130008D1130008D11300085A
:1016E000D1130008D1130008D1130008D11300084A
:1016F000D1130008D1130008F9E50008D113000840
:10170000CF580120D1130008D1130008D1130008CD
:10171000D1130008D1130008D1130008D113000819
:1017200009840008D1130008D1130008D113000860
:10173000D1130008D1130008D1130008D1130008F9
:10174000D1130008D1130008D1130008D1130008E9
:10175000D1130008D1130008D1130008D1130008D9
:10176000D1130008D113000851840008D1130008D8
:10177000D1130008D1130008D1130008D1130008B9
:10178000D1130008D1130008D1130008D1130008A9
:10179000D1130008D1130008D1130008D113000899
:1017A000D1130008D1130008D1130008D113000889
:1017B000D1130008D1130008D1130008D113000879
:1017C000D1130008D1130008D1130008D113000869
:1017D000D1130008D1130008D1130008D113000859
:1017E000D1130008D1130008D1130008D113000849
:1017F000D1130008D1130008D1130008D113000839
:101800000DDB000810F8012B11F8013B012A28BF5D
:101810009A42F7D0D01A7047034613F8012B002ADA
:10182000FBD1181A0138704781F0004102E000BF77
:1018300083F0004330B54FEA41044FEA430594EA90
:10184000050F08BF90EA020F1FBF54EA000C55EACB
:10185000020C7FEA645C7FEA655C00F0E2804FEA9C
:101860005454D4EB5555B8BF6D420CDD2C4480EA7E
:10187000020281EA030382EA000083EA010180EAAE
:10188000020281EA0303362D88BF30BD11F0004FFC
:101890004FEA01314FF4801C4CEA113102D0404232
:1018A00061EB410113F0004F4FEA03334CEA13336D
:1018B00002D0524263EB430394EA050F00F0A78085
:1018C000A4F10104D5F1200E0DDB02FA0EFC22FA80
:1018D00005F2801841F1000103FA0EF2801843FA74
:1018E00005F359410EE0A5F120050EF1200E012A65
:1018F00003FA0EFC28BF4CF0020C43FA05F3C018A3
:1019000051EBE37101F0004507D54FF0000EDCF11B
:10191000000C7EEB00006EEB0101B1F5801F1BD3C4
:10192000B1F5001F0CD349085FEA30004FEA3C0CC8
:1019300004F101044FEA445212F5800F80F09A80BE
:10194000BCF1004F08BF5FEA500C50F1000041EBC2
:10195000045141EA050130BD5FEA4C0C404141EBC6
:101960000101013C28BFB1F5801FE9D291F0000FC1
:1019700004BF01460020B1FA81F308BF2033A3F170
:101980000B03B3F120020CDA0C3208DD02F1140C67
:10199000C2F10C0201FA0CF021FA02F10CE002F1A2
:1019A0001402D8BFC2F1200C01FA02F120FA0CFC9B
:1019B000DCBF41EA0C019040E41AA2BF01EB0451E4
:1019C000294330BD6FEA04041F3C1CDA0C340EDCE2
:1019D00004F11404C4F1200220FA04F001FA02F325
:1019E00040EA030021FA04F345EA030130BDC4F1E3
:1019F0000C04C4F1200220FA02F001FA04F340EAD8
:101A00000300294630BD21FA04F0294630BD94F088
:101A1000000F83F4801306BF81F480110134013D6F
:101A20004EE77FEA645C18BF7FEA655C29D094EAE0
:101A3000050F08BF90EA020F05D054EA000C04BF5E
:101A40001946104630BD91EA030F1EBF0021002049
:101A500030BD5FEA545C05D14000494128BF41F0E8
:101A6000004130BD14F580043CBF01F5801130BD4C
:101A700001F0004545F0FE4141F470014FF00000D7
:101A800030BD7FEA645C1ABF194610467FEA655C88
:101A90001CBF0B46024650EA013406BF52EA03352A
:101AA00091EA030F41F4002130BD00BF90F0000F18
:101AB00004BF0021704730B54FF4806404F1320454
:101AC0004FF000054FF0000150E700BF90F0000F0D
:101AD00004BF0021704730B54FF4806404F1320434
:101AE00010F0004548BF40424FF000013EE700BF04
:101AF00042004FEAE2014FEA31014FEA02701FBF94
:101B000012F07F4393F07F4F81F06051704732F0C5
:101B10007F4208BF704793F07F4F04BF41F400211C
:101B2000704730B54FF4607401F0004521F000417A
:101B30001CE700BF50EA010208BF704730B54FF004
:101B400000050AE050EA010208BF704730B511F005
:101B5000004502D5404261EB41014FF4806404F13D
:101B600032045FEA915C3FF4D8AE4FF003025FEAC3
:101B7000DC0C18BF03325FEADC0C18BF033202EB47
:101B8000DC02C2F1200300FA03FC20FA02F001FAA1
:101B900003FE40EA0E0021FA02F11444BDE600BF44
:101BA00070B54FF0FF0C4CF4E06C1CEA11541DBFF3
:101BB0001CEA135594EA0C0F95EA0C0F00F0DEF8BE
:101BC0002C4481EA030621EA4C5123EA4C5350EAA3
:101BD000013518BF52EA033541F4801143F48013F4
:101BE00038D0A0FB02CE4FF00005E1FB02E506F085
:101BF0000042E0FB03E54FF00006E1FB03569CF0DA
:101C0000000F18BF4EF0010EA4F1FF04B6F5007FDF
:101C100064F5407404D25FEA4E0E6D4146EB060651
:101C200042EAC62141EA55514FEAC52040EA5E50DA
:101C30004FEACE2EB4F1FD0C88BFBCF5E06F1ED884
:101C4000BEF1004F08BF5FEA500E50F1000041EBBB
:101C5000045170BD06F0004646EA010140EA020068
:101C600081EA0301B4EB5C04C2BFD4EB0C0541EA8A
:101C7000045170BD41F480114FF0000E013C00F39F
:101C8000AB8014F1360FDEBF002001F0004170BDC3
:101C9000C4F10004203C35DA0C341BDC04F11404DC
:101CA000C4F1200500FA05F320FA04F001FA05F268
:101CB00040EA020001F0004221F0004110EBD37035
:101CC00021FA04F642EB06015EEA430E08BF20EA61
:101CD000D37070BDC4F10C04C4F1200500FA04F304
:101CE00020FA05F001FA04F240EA020001F0004196
:101CF00010EBD37041F100015EEA430E08BF20EA09
:101D0000D37070BDC4F1200500FA05F24EEA020E50
:101D100020FA04F301FA05F243EA020321FA04F07F
:101D200001F0004121FA04F220EA020000EBD37036
:101D30005EEA430E08BF20EAD37070BD94F0000F36
:101D40000FD101F00046400041EB010111F4801F6A
:101D500008BF013CF7D041EA060195F0000F18BF1B
:101D6000704703F00046520043EB030313F4801F57
:101D700008BF013DF7D043EA0603704794EA0C0F11
:101D80000CEA135518BF95EA0C0F0CD050EA410627
:101D900018BF52EA4306D1D181EA030101F00041A4
:101DA0004FF0000070BD50EA410606BF10461946CC
:101DB00052EA430619D094EA0C0F02D150EA0136D8
:101DC00013D195EA0C0F05D152EA03361CBF104619
:101DD00019460AD181EA030101F0004141F0FE41B8
:101DE00041F470014FF0000070BD41F0FE4141F43C
:101DF000780170BD70B54FF0FF0C4CF4E06C1CEA3C
:101E000011541DBF1CEA135594EA0C0F95EA0C0FF0
:101E100000F0A7F8A4EB050481EA030E52EA0335AB
:101E20004FEA013100F088804FEA03334FF08055CC
:101E300045EA131343EA12634FEA022245EA1115F9
:101E400045EA10654FEA00260EF000419D4208BFAA
:101E5000964244F1FD0404F5407402D25B084FEA57
:101E60003202B61A65EB03055B084FEA32024FF403
:101E700080104FF4002CB6EB020E75EB030E22BF60
:101E8000B61A754640EA0C005B084FEA3202B6EB20
:101E9000020E75EB030E22BFB61A754640EA5C00CF
:101EA0005B084FEA3202B6EB020E75EB030E22BF5F
:101EB000B61A754640EA9C005B084FEA3202B6EB60
:101EC000020E75EB030E22BFB61A754640EADC001F
:101ED00055EA060E18D04FEA051545EA16754FEA81
:101EE00006164FEAC30343EA52734FEAC2025FEA9F
:101EF0001C1CC0D111F4801F0BD141EA00014FF02E
:101F000000004FF0004CB6E711F4801F04BF0143FE
:101F10000020B4F1FD0C88BFBCF5E06F3FF6AFAE1A
:101F2000B5EB030C04BFB6EB020C5FEA500C50F1AA
:101F3000000041EB045170BD0EF0004E4EEA11312D
:101F400014EB5C04C2BFD4EB0C0541EA045170BD34
:101F500041F480114FF0000E013C90E645EA060E78
:101F60008DE60CEA135594EA0C0F08BF95EA0C0FA6
:101F70003FF43BAF94EA0C0F0AD150EA01347FF4EE
:101F800034AF95EA0C0F7FF425AF104619462CE7C5
:101F900095EA0C0F06D152EA03353FF4FDAE104628
:101FA000194622E750EA410618BF52EA43067FF479
:101FB000C5AE50EA41047FF40DAF52EA43057FF409
:101FC000EBAE12E74FF0FF3C06E000BF4FF0010C14
:101FD00002E000BF4FF0010C4DF804CD4FEA410C78
:101FE0007FEA6C5C4FEA430C18BF7FEA6C5C1BD045
:101FF00001B050EA410C0CBF52EA430C91EA030FC6
:1020000002BF90EA020F0020704710F1000F91EA22
:10201000030F58BF994208BF90422CBFD8176FEAF0
:10202000E37040F0010070474FEA410C7FEA6C5CBE
:1020300002D150EA013C07D14FEA430C7FEA6C5CC5
:10204000D6D152EA033CD3D05DF8040B704700BFF1
:102050008446104662468C461946634600E000BF3F
:1020600001B5FFF7B7FF002848BF10F1000F01BD11
:102070004DF808EDFFF7F4FF0CBF012000205DF8DC
:1020800008FB00BF4DF808EDFFF7EAFF34BF012061
:1020900000205DF808FB00BF4DF808EDFFF7E0FFFA
:1020A00094BF012000205DF808FB00BF4DF808ED4B
:1020B000FFF7CEFF94BF012000205DF808FB00BFB2
:1020C0004DF808EDFFF7C4FF34BF012000205DF894
:1020D00008FB00BF4FEA410C7FEA6C5C02D150EA7A
:1020E000013C0AD14FEA430C7FEA6C5C02D152EA10
:1020F000033C02D14FF0000070474FF001007047E1
:102100004FEA410212F5001215D211D56FF478731F
:10211000B3EB625212D94FEAC12343F0004343EAC2
:10212000505311F0004F23FA02F018BF404270479D
:102130004FF00000704750EA013005D111F0004027
:1021400008BF6FF0004070474FF00000704700BFBD
:102150007BB972B90029BEBF00204FF0004106E0F4
:1021600008BF00281CBF6FF000414FF0FF3000F0A7
:1021700003BAADF1080C6DE904CE002909DB002B90
:102180001ADB00F083F8DDF804E0DDE9022304B097
:102190007047404261EB4101002B1BDB00F076F8F9
:1021A000DDF804E0DDE9022304B0404261EB4101C7
:1021B000524263EB43037047524263EB430300F028
:1021C00065F8DDF804E0DDE9022304B0404261EB8C
:1021D00041017047524263EB430300F057F8DDF8CA
:1021E00004E0DDE9022304B0524263EB430370478D
:1021F00053B94AB9002908BF00281CBF4FF0FF316E
:102200004FF0FF3000F0B8B9ADF1080C6DE904CE25
:1022100000F03CF8DDF804E0DDE9022304B070478B
:1022200038B50022002304460D46FFF72BFF28B9DE
:1022300020462946BDE8384000F00AB8204605F19E
:10224000004100F005F8404261EB410138BD00BF9C
:10225000D0B500220B4B06460F46FFF7A1FC00F05D
:102260008DF90446FFF722FC0022074BFFF798FC8C
:1022700002460B4630463946FFF7DAFA00F07EF99F
:102280002146D0BD0000F03D0000F0412DE9F04FA7
:10229000099D04460F46002B48D18A42944661D9D5
:1022A000B2FA82F343B1C3F120019F4002FA03FC6A
:1022B0009C4020FA01F10F434FEA1C411FFA8CFEAB
:1022C000220CB7FBF1F601FB167706FB0EF042EA93
:1022D0000742904208D91CEB020206F1FF3702D2F6
:1022E000904200F237813E46121AA4B2B2FBF1F0DE
:1022F00001FB102200FB0EFE44EA0244A64508D969
:102300001CEB040400F1FF3202D2A64500F21C814E
:10231000104640EA0640A4EB0E0400261DB1DC4046
:102320000023C5E900433146BDE8F08F8B4209D94F
:10233000002D00F0FD800026C5E900013046314641
:10234000BDE8F08FB3FA83F6002E4BD18B42C0F07C
:10235000F280824240F2EF803046002DE3D0C5E9A2
:102360000047E0E702B9FFDEB2FA82F3002B40F04B
:102370009D80891A4FEA124E97B20126200CB1FBBC
:10238000FEF20EFB121140EA014107FB02F0884207
:102390000FD91CEB010102F1FF382CBF4FF00109EE
:1023A0004FF00009884203D9B9F1000F00F0CF8047
:1023B0004246091AA4B2B1FBFEF00EFB101100FB5D
:1023C00007F744EA0144A74208D91CEB040400F1D2
:1023D000FF3102D2A74200F2B4800846E41B40EA73
:1023E00002409BE7C6F12007B34001FA06F422FA47
:1023F00007FCF940B2404CEA030C20FA07F34FEA1D
:102400001C491C431FFA8CFE00FA06F3200CB1FB9A
:10241000F9F809FB181140EA014108FB0EF0884267
:102420000FD91CEB010108F1FF3A2CBF4FF0010B53
:102430004FF0000B884203D9BBF1000F00F08D80F4
:10244000D046091AA4B2B1FBF9F009FB101100FB48
:102450000EFE44EA01418E4507D91CEB010100F153
:10246000FF3401D28E457FD8204640EA0840A1EBD8
:102470000E01A0FB029841454C46C64602D306D148
:102480004B4504D20138B9EB020468EB0C0E002D69
:1024900070D01A1B61EB0E0122FA06F301FA07F75E
:1024A000F14000261F43C5E900713CE702FA03FC36
:1024B000C3F1200001FA03F221FA00F64FEA1C4EA4
:1024C00024FA00F11FFA8CF79C401143B6FBFEF092
:1024D0000A0C0EFB106642EA064200FB07F6964223
:1024E0000ED91CEB020200F1FF382CBF4FF001099E
:1024F0004FF00009964202D9B9F1000F31D04046A1
:10250000921B89B2B2FBFEF60EFB162241EA024193
:1025100006FB07F28A4207D91CEB010106F1FF38DE
:1025200001D28A4223D84646891A46EA004625E760
:102530002E462846F7E6841A61EB030301201F4666
:102540000BE76444023849E764440238E1E6023AA2
:1025500061442EE7023E6244C6E6A8F102086144E7
:102560006FE702386244CBE7023861447DE7023E00
:102570006144D9E72E46D6E6704700BF4A0011D223
:1025800012F5001211D20DD56FF47873B3EB6252CD
:102590000ED44FEAC12343F0004343EA505323FAD9
:1025A00002F070474FF00000704750EA013002D14E
:1025B0004FF0FF3070474FF00000704780B483B099
:1025C00000AF0346FB80B7F90630002B12DBFB8817
:1025D00003F01F020A49B7F906305B09012000FA2F
:1025E00002F2203341F82320BFF34F8F00BFBFF327
:1025F0006F8F00BF00BF0C37BD465DF8047B70478E
:1026000000E100E080B483B000AF03463960FB8096
:10261000B7F90630002B0ADB3B68DAB20C49B7F990
:1026200006305201D2B20B4483F800230AE03B6823
:10263000DAB20849FB8803F00F03043B5201D2B21F
:102640000B441A7600BF0C37BD465DF8047B70471B
:1026500000E100E000ED00E080B584B000AF03468B
:10266000FB800023FB60B7F9063013F1800F02D125
:102670000123FB6004E0B7F906301846FFF79EFF20
:10268000FB6818461037BD4680BD000080B400AF1F
:10269000044BD3F80C3403F07F031846BD465DF8B5
:1026A000047B704700B0034080B582B000AF786013
:1026B0007B6823F07F03002B06D0074B074A4FF4BB
:1026C000887107486FF0ECFA064A7B68136100BF17
:1026D0000837BD4680BD00BF4C4E0708A41409084A
:1026E0007C4E07080010034080B483B000AF7860D0
:1026F00039607B683A685A6000BF0C37BD465DF8A8
:10270000047B704780B483B000AF786039607B6829
:102710003A689A6000BF0C37BD465DF8047B70478D
:1027200080B485B000AF78607B689B68FB607B6895
:102730009B68BB60FA68BB689A42F5D1BB681846D3
:102740001437BD465DF8047B704780B483B000AF9A
:1027500078600B46FB70FB78002B06D07B681B680B
:1027600043F010027B681A6005E07B681B6823F069
:1027700010027B681A6000BF0C37BD465DF8047B11
:10278000704780B485B000AF786039607B681B68A3
:10279000FB60FB6823F00C03FB60FA683B681343A3
:1027A000FB607B68FA681A6000BF1437BD465DF8AD
:1027B000047B704780B483B000AF78600B46FB7039
:1027C000FB78002B06D07B681B6843F080027B6897
:1027D0001A6005E07B681B6823F080027B681A6042
:1027E00000BF0C37BD465DF8047B704780B500AF75
:1027F00001F044FA194BB3F1006F03D3174BB3F157
:10280000805F07D3154BB3F1C05F19D3134BB3F1FE
:10281000005F15D201F066FD40F2111006F0CAF912
:102820000A2006F0C7F94FF4807006F0C3F940F2B1
:1028300011100CF0EDFF4FF480700CF0E9FF01E097
:1028400001F0C6FC01F0FAFA05480CF0B3FB36F0D3
:10285000ADFD04480BF08CFA00BF80BD3D3E000882
:102860009C0C00200000034080B582B000AF0346FE
:102870003A60FB710B46BB71104B1B68012B02D0F9
:1028800043F6206316E0FB79002B07D1BB79032BBD
:102890000FD136F09BFD6FF015FB0AE0FB79012BA1
:1028A00007D1BB79032B04D1FFF7A0FF044B002213
:1028B0001A70002318460837BD4680BDF8BC0420B6
:1028C000F0BC0420B0B584B000AFC7E900011248E5
:1028D000FFF726FFF860D7E900231049541843F1A9
:1028E00000050F4A4FF0000320462946FFF780FC01
:1028F00002460B46FB681344FB60F9680648FFF785
:10290000F3FE084802F088FD01210348FFF752FF5B
:1029100000BF1037BD46B0BD000003403F420F006E
:1029200040420F009492012080B500AF00210A4878
:10293000FFF740FF00210848FFF7D6FE00210648B8
:10294000FFF7E0FE054802F0C1FD04210248FFF751
:1029500018FF00BF80BD00BF00000340949201201B
:1029600080B582B002AF2020FFF776FE20200BF06A
:102970004DFF20200CF006F90A480BF0F9F901216F
:102980000848FFF7E2FE04210648FFF7FAFE00239D
:1029900000930023044A0549054802F071FC00BF7A
:1029A000BD4680BD0000034029290008C528000855
:1029B000C091012080B500AF142200210A4871F0B7
:1029C00077FC14220021094871F072FC01230022D7
:1029D0004821054802F0C8FC0023002220210348BA
:1029E00002F0C2FC00BF80BD8092012094920120C1
:1029F00080B500AF104802F0C7FAFFF7B1FF03211E
:102A00002020FFF7FFFD03216520FFF7FBFD0B49A9
:102A1000002002F079FC0A49022002F075FCFFF761
:102A2000C9FF012002F028FB064849F097F8064B41
:102A300000221A6000BF80BDC09101200C0E002052
:102A4000A00C0020ED3000086497062080B582B00D
:102A500000AF0C480CF0AEFAFFF718FE786079680A
:102A600009486FF061FA7868FFF71EFEFFF7C0FFB4
:102A700003216520FFF7C6FD002318460837BD4631
:102A800080BD00BF9C0C0020D04E070880B483B0EE
:102A900000AF0346FB80B7F90630002B0BDBFB8849
:102AA00003F01F020749B7F906305B09012000FA5D
:102AB00002F241F8232000BF0C37BD465DF8047BCD
:102AC000704700BF00E100E080B483B000AF034670
:102AD000FB80B7F90630002B12DBFB8803F01F02E6
:102AE0000A49B7F906305B09012000FA02F22033E7
:102AF00041F82320BFF34F8F00BFBFF36F8F00BF9C
:102B000000BF0C37BD465DF8047B704700E100E074
:102B100080B483B000AF0346FB80B7F90630002BCA
:102B20000CDBFB8803F01F020749B7F906305B098D
:102B3000012000FA02F2603341F8232000BF0C3775
:102B4000BD465DF8047B704700E100E080B584B0CD
:102B500000AF0346FB800023FB60B7F9063013F19A
:102B6000800F02D10123FB6004E0B7F9063018465C
:102B7000FFF78CFFFB6818461037BD4680BD80B557
:102B800084B000AF0346FB800023FB60B7F906303A
:102B900013F1800F02D10123FB6004E0B7F9063086
:102BA0001846FFF791FFFB6818461037BD4680BDF9
:102BB00080B483B000AFEFF310833B603B687B6071
:102BC00072B600BF7B6818460C37BD465DF8047BC3
:102BD000704780B485B000AF78607B68FB60FB68AD
:102BE00083F3108800BF00BF1437BD465DF8047B37
:102BF0007047000080B483B000AF03460A46FB7103
:102C00001346BB710A4B5A69FB79012101FA03F3A0
:102C1000DB431A40B979FB7901FA03F30449134302
:102C20004B6100BF0C37BD465DF8047B704700BFA9
:102C30000010034080B483B000AF78607B681B68ED
:102C400003F00C0318460C37BD465DF8047B704753
:102C500080B485B000AF786039607B681B68FB602A
:102C6000FB6823F00C03FB60FA683B681343FB60CE
:102C70007B68FA681A6000BF1437BD465DF8047BB4
:102C80007047000080B483B000AF786039603A6864
:102C90000B4B13403B603A680A4B13403A68120CE6
:102CA000D2B21A437B68DA603A68074B13407A68FD
:102CB000C2F8103E00BF0C37BD465DF8047B70477C
:102CC0000FF8290000FF01000F00000F80B500AFD2
:102CD0000C48FFF7AFFF034603F00403002B0FD0AF
:102CE00004210848FFF7B4FF2020FFF748FF202009
:102CF0000BF08CFD20200BF045FF034B02221A60E5
:102D000000BF80BD000003406497062080B500AF7F
:102D100001210120FFF76EFF6520FFF7F9FE652016
:102D2000FFF72DFF65200BF071FD65200BF02AFFEA
:102D3000024B04221A6000BF80BD00BF64970620CA
:102D400080B582B000AF78603960114A114B1B69C1
:102D500093620F4A0F4B5B6913620F4A0D4B9B68DE
:102D6000C2F860350C4A0B4BDB68C2F864350B4A7D
:102D7000084B1B68C2F83034084A064B5B68C2F83F
:102D8000343405F075FD00BF0837BD4680BD00BF77
:102D900000901040B092012000100240001000404E
:102DA00080B500AF054B1B7A032B04D1044B0122E5
:102DB0001A7036F015FB00BF80BD00BFC091012026
:102DC000F0BC042080B582B000AF78600021012003
:102DD000FFF710FF6520FFF79BFE6520FFF7B6FEAB
:102DE00065200BF013FD65200BF0DAFD48200BF099
:102DF0000DFD48200BF0D4FD79680D486FF094F874
:102E00007B68022B0FD10A210A48FFF73BFF1120F4
:102E10000BF0FCFC11200BF0C3FD0023002200216D
:102E200005480CF03FF9002318460837BD4680BD21
:102E3000104F0708009010400100002080B584B0BA
:102E400000AF7860FFF7B4FEF86001210120FFF7C2
:102E5000D1FE6520FFF75CFE6520FFF790FE652040
:102E60000BF0D4FC65200BF08DFEF868FFF7B1FE87
:102E700048200BF0CBFC7B68022B18D111200BF003
:102E8000D5FB0346002B02D00C4B08221A60112000
:102E90000BF0BCFC11200BF075FE0023002200217A
:102EA00000200CF0FFF800210220FFF749FF044842
:102EB0006FF03AF800BF1037BD4680BD649706201A
:102EC0002C4F070880B500AF104B1B68012B03D1B6
:102ED000002091F0DDFB16E00C4B1B68022B03D1A8
:102EE0000B486FF021F80EE0084B1B68042B03D150
:102EF00008486FF019F806E0044B1B68082B02D154
:102F000005486FF011F800BF80BD00BF6497062030
:102F1000444F0708584F07086C4F070880B483B028
:102F200000AF78607B684FF4C0121A607B680022A3
:102F30005A607B6804229A607B684FF48072DA6082
:102F40007B6800221A6100BF0C37BD465DF8047B28
:102F50007047000080B588B000AF78602E4B1B78BA
:102F600083F00103DBB2002B05D02C486EF0DCFFB0
:102F70004FF0FF334BE007F10C03142200211846F9
:102F800071F096F97B68012B04DD07F10C031846FC
:102F9000FFF7C4FF7868FFF715FF7B68032B03D1A9
:102FA00036F014FA6EF08EFF7B6807F10C021146C2
:102FB000184691F0E5FB7B68032B01D1FFF716FC67
:102FC0002AF08EFF0346002B09D0002102202BF0AF
:102FD0005FF90346002B02D04FF0FF3317E078680B
:102FE000FFF72CFF7B68012B06D10D486EF09CFF8C
:102FF0000C486EF099FF01E0FFF764FF0A4B0022D6
:103000001A6091F06DFF044B00221A7000231846DD
:103010002037BD4680BD00BFFCBC0420804F0708A0
:10302000A84F0708BC4F07086497062080B584B0F6
:1030300000AF786039600023FB607B68012B12DCF5
:1030400019486EF071FF19486EF06EFF18486EF067
:103050006BFF18486EF068FF17486EF065FF174861
:103060006EF062FF1CE03B6804331B68184671F089
:10307000B3F8F860FB68002B02DDFB68042B06DD6B
:103080000F486EF051FF0F486EF04EFF08E0FB68EE
:10309000042B02D10C486EF047FFF868FFF75AFF87
:1030A0001037BD4680BD00BFFC4F070824500708FD
:1030B0003050070850500708705007087C50070828
:1030C00094500708B0500708D850070880B400AFE4
:1030D000054BD3F81431DBB203F00F03DBB2184613
:1030E000BD465DF8047B70470010004580B586B092
:1030F00006AF494B1B68002B00F08A80474B1B78BA
:10310000002B00F0858091F0FBFC0346002B7FD163
:10311000FFF7DCFF0346012B04D0FFF7D7FF034680
:10312000022B17D14FF48063049340F217130393DB
:1031300040F21513029340F21313019340F211135E
:10314000009340F20F1340F20D120721032002F00A
:103150000FFA16E04FF48063049340F216230393B2
:103160004FF40573029340F2122301934FF404735A
:10317000009340F20E234FF403720721022002F065
:10318000F7F9274BD3E900231046194601F0E0FF79
:10319000FFF798FE234B00221A6091F0A1FEFFF783
:1031A00095FF0346012B04D0FFF790FF0346022B47
:1031B00017D14FF48063049340F21713039340F246
:1031C0001513029340F21313019340F2111300936D
:1031D00040F20F1340F20D120721032002F0FAFA19
:1031E00016E04FF48063049340F2162303934FF4E8
:1031F0000573029340F2122301934FF4047300937A
:1032000040F20E234FF403720721022002F0E2FA8B
:1032100000BFBD4680BD00BFECBC0420C0910120B2
:10322000A89201206497062080B582B000AF0023E9
:103230007B6012E07A6813465B0013449B000B4AE4
:103240001344184636F02AF80346002B02D04FF0FC
:10325000FF3306E07B6801337B607B68002BE9D09D
:10326000002318460837BD4680BD00BFB00C0020C3
:1032700080B500AFFFF7EAFB0346002B05D00448FA
:103280006EF052FE4FF0FF3300E00123184680BD80
:103290006C510708B0B586B004AF78607B681B78C6
:1032A00018467B6801331B781C467B6802331B7809
:1032B0001D467B6803331B781A467B6804331B78F2
:1032C00019467B6805331B780293019100922B46C7
:1032D0002246014603486EF027FE00BF0837BD4670
:1032E000B0BD00BF8051070880B584B000AF7860E2
:1032F00039607B68FB6007F10C03184616F0E2FAB0
:1033000003461946386871F00CF900BF1037BD4606
:1033100080BD000080B500AF02486EF005FE00BF22
:1033200080BD00BFAC510708B0B5A8B000AF0346E0
:103330003960FB710023BB6107F11C031D220021D2
:10334000184670F0B5FF3B68C7F89830FB79222B20
:1033500000F25A8201A252F823F000BFEF340008B5
:10336000E73400080936000811360008093800085B
:1033700019360008453600084D3600086336000847
:103380006B3600080938000855360008E933000894
:10339000DF340008153800081538000873360008B7
:1033A000D13600088D370008AF370008093800080B
:1033B00009380008E5370008093800081538000802
:1033C00015380008153800081538000815380008A9
:1033D0001538000815380008153800081538000899
:1033E0001538000815380008C2486EF09DFDFFF73B
:1033F00091FF38F04FFCC7F89400D7F89430002BB9
:1034000004D0BD486EF090FD002307E247F0ACFF0A
:10341000C7F89400D7F89430002B04D0B7486EF06A
:1034200083FD0023FAE1B6486EF07EFDFFF772FFE0
:103430003AF0AEFDC7F89400D7F89430002B04D0D2
:10344000AE486EF071FD0023E8E1AE486EF06CFD11
:10345000FFF760FFFFF7E8FEC7F89400D7F8943055
:10346000002B04D0A5486EF05FFD0023D6E1A648EE
:103470006EF05AFDFFF74EFF36F094FFC7F8940048
:10348000D7F89430002B04D0A0486EF04DFD0023F7
:10349000C4E138F03BFBC7F89400D7F89430002B18
:1034A00004D09B486EF040FD0023B7E136F01AFBD4
:1034B000C7F89400D7F89430002B04D095486EF0EC
:1034C00033FD0023AAE194486EF02EFDFFF722FFA2
:1034D0000021002035F08AFEFFF71CFF9DE18F4898
:1034E0006EF022FD99E18E486EF01EFD95E18D484B
:1034F0006EF01AFD07F13C03184631F089FCC7F85D
:103500009400D7F89430002B04D087486EF00CFD5F
:10351000002383E1D7F8803007F1080211461846EE
:10352000FFF7E2FE07F11803184630F069FAC7F812
:103530009400D7F89430002B04D07C486EF0F4FC53
:1035400000236BE17A486EF0EFFC07F1180319468F
:1035500078486EF0E9FCD7F88030002B05D007F1F1
:103560000803194674486EF0DFFC0023C7F89C304E
:103570003FE0D7F89C2013469B0013449B00A033E8
:103580003B44533B1B7803F01003002B2CD007F176
:103590003C01D7F89C2013469B0013449B000B442E
:1035A000184629F0EFFD044607F13C01D7F89C20AE
:1035B00013469B0013449B000B44184617F0CCFBAA
:1035C0000546D7F89C2013469B0013449B00A0336C
:1035D0003B44533B1B78184629F092FD03462A468C
:1035E000214656486EF0A0FCD7F89C300133C7F84E
:1035F0009C30D7F89C30022BBBDD51486EF094FC18
:10360000504B00221A6008E14F486EF08DFC04E137
:103610004E486EF089FC00E14D486EF085FC494B48
:103620001B680133474A1360464B1B68022B40F36B
:10363000F38048486EF078FC30F0A2FB414B00224A
:103640001A60E9E044486EF06FFCE6E043486EF033
:103650006BFCE2E042486EF067FC3A4B00221A60D5
:10366000DBE040486EF060FCD7E03F486EF05CFC69
:10367000D3E03E486EF058FC07F11803184630F0CE
:103680006DFAC7F89400D7F89430002B04D038486E
:103690006EF04AFC0023C1E0FFF73CFE07F118037F
:1036A000194634486EF040FCFFF734FE2AF038F833
:1036B0000346184628F0BCF90346002B02D02E48DA
:1036C0006EF032FC2D486EF02FFCFFF723FEA4E0D5
:1036D0002B486EF029FCFFF71DFE2A486EF024FCF3
:1036E0003868FFF7D7FD28486EF01EFCFFF712FE82
:1036F00093E000BFD8510708F45107081C5207088F
:10370000405207085C52070884520708A85207086D
:10371000C8520708EC520708145307082853070833
:10372000505307087C530708A4530708C0530708E1
:10373000E453070804540708145407082C540708D6
:103740004C540708D49201205054070870540708BD
:1037500094540708C4540708F05407081055070884
:103760003C55070854550708705507089055070839
:10377000AC550708CC550708F05507081056070840
:10378000345607085C5607086856070825486EF047
:10379000CBFBFFF7BFFD24486EF0C6FB3868FFF790
:1037A00079FD22486EF0C0FBFFF7B4FD35E0FFF76E
:1037B000B1FD1F486EF0B8FB1E486EF0B5FBD7F8A0
:1037C000983004331846FFF765FD1B486EF0ACFBDC
:1037D000D7F898301B68194618486EF0A5FBFFF71C
:1037E00099FD1AE016486EF09FFBFFF793FD154810
:1037F0006EF09AFBFFF78EFD28F058F912486EF034
:1038000093FBFFF787FD08E0FB7919460F486EF040
:103810008BFB02E000BF00E000BF00231846A0378A
:10382000BD46B0BD845607085C560708AC5607086D
:10383000C8560708F0560708005707081457070826
:103840001C57070838570708585707087C570708B8
:1038500080B582B000AF00237B60134B1B68134A16
:103860001268114618462EF0C1FE78607B68002B66
:1038700006D00F4B0F4A40F243110F486EF010FA7A
:103880000E482EF0CFFF78607B68002B06D0084BE7
:10389000084A40F2471108486EF002FA7B68184661
:1038A0000837BD4680BD00BFC8BC0420A82C09084D
:1038B000A0570708DC140908AC570708293300088B
:1038C00080B584B000AF78600023FB6015486EF0CF
:1038D0002BFBFFF71FFD35F08FFDF860FB68002B19
:1038E00006D0114B114A40F29B1111486EF0D8F9E5
:1038F000FFF7BEFC0F486EF017FBFFF70BFDFFF75D
:10390000A7FFF860FB68002B06D0074B074A40F280
:10391000B11107486EF0C4F941F2883091F068FBAC
:10392000FAE700BF0C58070820580708F0140908E8
:10393000AC5707083858070880B500AF91F010F968
:1039400000F09CF9224BB3F1006F03D3204BB3F18D
:10395000805F07D31E4BB3F1C05F19D31C4BB3F18B
:10396000005F15D200F0BEFC40F2111005F022F904
:103970000A2005F01FF94FF4807005F01BF940F2A2
:1039800011100BF045FF4FF480700BF041FF01E088
:1039900000F01EFC00F052FA1C200BF039FF002052
:1039A0000BF0E6F900F06CFA0BF096FCFFF7B2FCB6
:1039B00008486EF0B9FAFFF7ADFC00220649074847
:1039C00090F09EFE91F054F90023184680BD00BF90
:1039D0003D3E000854580708BC140908C89201204D
:1039E00080B586B000AFF860B9607A603B609D4BEF
:1039F0007B613B6803F40033002B08D04FF0402379
:103A00001A68BB68DB434FF0402113400B603B68F2
:103A100003F48033002B11D04FF040231A6BFB6866
:103A2000DB434FF0402113400B634FF040235A6BB0
:103A3000BB68DB434FF0402113404B633B681B0BDB
:103A400003F00F030F2B25D13B6AB3F5004F06D0CF
:103A5000854B864A40F2466185486EF021F94FF069
:103A600040239B684FF0402223F0800393604FF087
:103A70004023DB684FF0402223F49F6323F00503CB
:103A8000D3604FF040231B694FF0402223F487633B
:103A9000136119E03B68C3F30A03002B14D03B68A1
:103AA0001B0B03F00F039B007A69134419683B68F2
:103AB000C3F30A03DA433B681B0B03F00F039B00BD
:103AC000786903440A401A607B6A002B08D04FF0E3
:103AD00040231A6A7B6ADB434FF0402113400B629C
:103AE000FB6AC3F30E03002B0AD04FF040235A6A3F
:103AF000FB6AC3F30E03DB434FF0402113404B62DC
:103B0000FB6A1B0CC3F30E03002B0BD04FF04023BA
:103B10009A6AFB6A1B0CC3F30E03DB434FF0402190
:103B200013408B627B6B002B08D04FF04023DA6A86
:103B30007B6BDB434FF040211340CB627B6803F487
:103B40000033002B07D04FF040231A684FF040217C
:103B5000BB6813430B607B6803F48033002B0FD0EA
:103B60004FF040231A6B4FF04021FB6813430B6367
:103B70004FF040235A6B4FF04021BB6813434B6317
:103B80007B68C3F30A03002B13D07B681B0B03F085
:103B90000F039B007A69134419687B68C3F30A0218
:103BA0007B681B0B03F00F039B00786903440A43F7
:103BB0001A603B6A002B07D04FF040231A6A4FF07F
:103BC00040213B6A13430B62BB6AC3F30E03002B15
:103BD00009D04FF040235A6ABB6AC3F30E034FF07B
:103BE000402113434B62BB6A1B0CC3F30E03002B33
:103BF0000AD04FF040239A6ABB6A1B0CC3F30E0332
:103C00004FF0402113438B623B6B002B07D04FF0EA
:103C10004023DA6A4FF040213B6B1343CB62FB68D1
:103C200003F07C633B61134BD3F838253B69D943E0
:103C3000FB680B400F491343C1F838350D4BD3F8DF
:103C40003C250C49BB681343C1F83C350A4BD3F8FB
:103C5000382509493B691343C1F8383500BF183787
:103C6000BD4680BD0440004064580708FC140908A4
:103C700094580708001000450008004580B500AFC3
:103C800000F002F800BF80BD80B586B006AF4FF0EF
:103C900010130593002304934FF040130393002364
:103CA00002934FF04043019300230093104B4FF4D5
:103CB000485200214FF0A060FFF792FE00230593C9
:103CC000002304934FF080130393002302934FF4D7
:103CD000803301930023009343F2ED034FF48032CD
:103CE00000214FF00070FFF77BFE00BFBD4680BD96
:103CF000EE31010080B586B000AF78600B46FB70F6
:103D00007B683F2B06D9244B244A40F2C3612448E8
:103D10006DF0C6FF7B6803F01F03FB600122FB68A8
:103D200002FA03F3BB607B68152B02D97B681B2B5F
:103D30000CD97B681F2B04D81A4B7B611A4B3B6153
:103D400008E01A4B7B611A4B3B6103E0194B7B6126
:103D5000194B3B61FB78022B07D17B691A68BB6862
:103D6000DB431A407B691A6011E07B691A68BB6803
:103D70001A437B691A603B691A68BB68DB431A40C7
:103D8000F978FB6801FA03F31A433B691A6000BF34
:103D90001837BD4680BD00BFE85807081015090850
:103DA000F45807088C100045981000459010004505
:103DB0009C1000458C0800459808004580B584B0EB
:103DC00000AF78600B46FB707B68032B06D9174B5E
:103DD000174A40F2F66117486DF062FF4FF001128A
:103DE0007B6802FA03F3FB60FB78022B07D1124BCE
:103DF0001A6BFB68DB43104913400B6311E00E4B59
:103E00001A6BFB68DB431A4001217B6801FA03F35C
:103E10001A43F9787B68103301FA03F30649134318
:103E20000B6300BF1037BD4680BD00BF485907086F
:103E300030150908F45807080010004580B582B015
:103E400000AF00237B600D4B1B683B603B46184670
:103E500005F0E4F94CF2685004F0CAFF032005F0C5
:103E60003FFA78607B6801224FF4E13103206DF066
:103E70008DFF00BF0837BD4680BD00BF54590708FD
:103E800080B582B000AF00237B6007E07B68002133
:103E90001846FFF72FFF7B6801337B607B68152B8B
:103EA000F4DD1C237B6007E07B6800211846FFF7E8
:103EB00021FF7B6801337B607B683F2BF4DD0023AF
:103EC0007B6007E07B6800211846FFF777FF7B687F
:103ED00001337B607B68032BF4DD00BF00BF083734
:103EE000BD4680BD80B58CB000AF7860012387F8F7
:103EF0002F302B4BD3F8903003F02003002B03D04E
:103F0000002387F82F3003E0264B0222C3F8A827AE
:103F100097F82F30002B1CD0786800F007FCC7E919
:103F20000801D7E908014FF000024FF000030A0032
:103F300000231346FB613B6ABB61FB6946F63C12FA
:103F4000934203D1BB69184A934202D0002387F8F9
:103F50002F3097F82F30002B1CD0012000F02AFBC7
:103F6000C7E90401D7E904014FF000024FF0000354
:103F70000A0000231346FB603B69BB60FB6843F209
:103F8000B942934203D1BB68084A934202D000234E
:103F900087F82F3097F82F3018463037BD4680BD50
:103FA0000030004000100040072E5505032E550537
:103FB00080B58CB000AF3B4600221A605A609A6010
:103FC000DA601A615A619A614E4BD3F81431DBB250
:103FD000FB6207F1200318460AF08AF8B862BB6A50
:103FE000002B7AD107F11C0318460AF0A3F8B86237
:103FF000BB6A002B0DD1FB6A022B04D1D7E9082341
:1040000013461B0C00E00023FA69114618460BF01A
:10401000FFF9BB6A002B06D13B461946952009F0F3
:1040200067FF034600E0BB6ABB62BB6A002B07D197
:104030003B4604331946962009F05AFF034600E038
:10404000BB6ABB62BB6A002B07D13B4608331946EB
:10405000972009F04DFF034600E0BB6ABB62BB6AD4
:10406000002B0DD1FB6A022B01D19B2200E098228C
:104070003B460C331946104609F03AFF034600E070
:10408000BB6ABB62BB6A002B07D13B4610331946A3
:10409000992009F02DFF034600E0BB6ABB62BB6AB2
:1040A000002B07D13B46143319469A2009F020FF14
:1040B000034600E0BB6ABB62BB6A002B06D0124B12
:1040C000124A4FF4EC7112486DF0EAFDFA693B4672
:1040D000194610480BF054F90FE004F0C9FB0E4BE1
:1040E000062283F85A200D4B0D4A5A640D4B1B686B
:1040F00019464FF4167005F059FD00BF3037BD4624
:1041000080BD00BF00100045785907085015090808
:1041100094590708E53E00080020004500100340C0
:1041200054602260D40D002080B500AF09F0A4FED9
:10413000FFF73EFF09F0BAFE144BB3F1006F03D353
:10414000124BB3F1805F07D3104BB3F1C05F09D3BB
:104150000E4BB3F1005F05D2042206210C4890F00B
:104160002FFC10E010200BF0CBFA094890F010FF64
:1041700047F2206004F03CFE102004F0AFFD102058
:104180000BF03CFA00BF00BF80BD00BF3D3E000801
:104190000040134080B500AF0B4BB3F1006F03D369
:1041A000094BB3F1805F07D3074BB3F1C05F08D36E
:1041B000054BB3F1005F04D202220221034890F0C4
:1041C000FFFB00BF80BD00BF3D3E00080040134024
:1041D00080B500AF00F002F800BF80BD80B500AF31
:1041E00090F0F6FB334B9B6A03F00203002B02D1E5
:1041F000314804F0DFFC314BD3F8903003F4007306
:10420000002B02D02E4804F0D5FC012005F0FEF969
:104210002C4804F0CFFC2C4804F0CCFCFFF784FFC2
:104220002A4804F0E5FD01214FF4806004F05AFEB5
:104230000221274805F040F94FF4803004F0BAFC21
:10424000012005F08BF9234804F0B4FC224805F066
:1042500027FC712004F0CCFD4FF4EC6004F0C8FDA5
:10426000012148F2402004F03DFE0D2148F2FC609F
:1042700004F038FE01214FF4107004F033FE0121E8
:104280004FF4127004F02EFE012140F2647004F02D
:1042900029FE05214FF4F06004F024FE42F2344080
:1042A00004F0A6FDFFF776FF0C4B0D4A1A6000BF25
:1042B00080BD00BF0010034020000100003000401E
:1042C000090001000400010005000100300434046D
:1042D000006CF7B90300010060150908D40D002037
:1042E00000497F0F80B500AF90F072FB2C4B9B6AAA
:1042F00003F00203002B02D12A4804F05BFC2A4B96
:10430000D3F8903003F40073002B02D0274804F058
:1043100051FC012005F07AF9254804F04BFCFFF729
:1043200003FF244804F064FD01214FF4806004F091
:10433000D9FD0221204805F0BFF84FF4803004F089
:1043400039FC712004F054FD4FF4EC6004F050FD92
:104350000D2148F2FC6004F0C5FD01214FF41070FE
:1043600004F0C0FD01214FF4127004F0BBFD0121E7
:1043700040F2647004F0B6FD05214FF4F06004F0E3
:10438000B1FD42F2344004F033FD05F0D5FB05F0F9
:104390001DF9FFF7FFFE094B094A1A6000BF80BDF7
:1043A000001003402000010000300040090001001F
:1043B0000500010030043404006CF7B9D40D00206E
:1043C00000497F0F80B485B000AFF860B9607A60B3
:1043D000FA68BB681A407B6822FA03F31846143760
:1043E000BD465DF8047B704780B400AF064B1B6888
:1043F00003F00103002B14BF01230023DBB2184696
:10440000BD465DF8047B7047007000402DE9B04F59
:104410008AB000AF786145F252033B625B4B7B622E
:104420005B4B1B68022204211846FFF7CBFF0346B3
:10443000012B5ED1564BDB6C042210211846FFF78E
:10444000C1FF0346012B02D1524B7B6253E0504B1C
:10445000DB6C032208211846FFF7B4FF0346012B4B
:1044600002D14D4B7B6246E0494BDB6C01220221BD
:104470001846FFF7A7FF0346012B02D1474B7B628B
:1044800039E0434BDB6C022204211846FFF79AFF08
:104490000346012B02D1424B7B622CE03C4BDB6C90
:1044A000002201211846FFF78DFF0346012B02D1A0
:1044B0003C4B7B621FE0364BDB6C0522202118460B
:1044C000FFF780FF0346012B02D1374B7B6212E0DE
:1044D0002F4BDB6C08224FF480711846FFF772FFF8
:1044E0000346012B02D1314B7B6204E0274B7B62F8
:1044F00001E02F4B7B627B69012B27D100F09AF8FA
:10450000C7E90601D7E906014FF000024FF00003AA
:104510000A0000233B6A13443B623B6AA3F59A43BB
:104520000B3B3B627B6A00229A4693463B6A002221
:10453000BB60FA604FF000024FF00003B9680B0057
:1045400000224AEA02044BEA030517E03B6A03F53E
:10455000105304333B627B6A0022984691463B6AC3
:1045600000223B607A604FF000024FF00003396890
:104570000B00002248EA020449EA030522462B46C2
:10458000104619462837BD46BDE8B08FF0F05505F6
:10459000007000403053550570535505385355058C
:1045A000345355053C5355057453550578535505FB
:1045B000032E55052DE9B04F88B000AF78601C4B35
:1045C000FB6100BFFFF710FF0346002BFAD17868AC
:1045D000FFF71CFFC7E90401D7E904014FF000020F
:1045E0004FF000030A000023FB691344FB613B69A1
:1045F000FB60FB6903F512532133FB61FB6800226A
:104600001C461546FB6900229A4693464FF000026D
:104610004FF000035346002244EA020845EA03092A
:1046200042464B46104619462037BD46BDE8B08F7E
:10463000C29BFFFF2DE9B04382B000AF45F20A03F1
:104640007B6001233B60174A3B68136500BF154B35
:104650001B68022204211846FFF7B4FE0346002B14
:10466000F5D17B6803F5045305337B607B6800223A
:10467000984691464FF000024FF000034346002257
:1046800042F0AA6444F4A52444F4C06444F0030452
:104690001D4622462B46104619460837BD46BDE842
:1046A000B08300BF0070004080B483B000AF78607A
:1046B000044A7B68136200BF0C37BD465DF8047B7B
:1046C000704700BF0070004080B487B000AFF86052
:1046D000B9607A60FB68DB00DAB27B681B0203F426
:1046E0008073134343F003037B61064ABB68936006
:1046F000044A7B69536000BF1C37BD465DF8047BEC
:10470000704700BF0070004080B400AF064B1B68CC
:1047100003F00103002B14BF01230023DBB2184672
:10472000BD465DF8047B7047007000402DE9B04F36
:1047300084B000AF786044F61803FB60FFF7E4FF35
:104740000346002B16D0FB6803F504532433FB60AB
:10475000FB6800229A4693464FF000024FF0000398
:104760005346002242F0AA6444F4AA2444F46C7430
:104770001D461FE07868FFF797FF012200211E20E9
:10478000FFF7A2FFFB6803F504532433FB60FB68CB
:104790000022984691464FF000024FF00003434636
:1047A000002242F0AA6444F4A52444F4C06444F016
:1047B00007041D4622462B46104619461037BD46B3
:1047C000BDE8B08F80B485B000AF78603960002359
:1047D000FB817B68DB68002B08D07B68DA687B682C
:1047E0009B689A4202D143F27A73FB81FB89184697
:1047F0001437BD465DF8047B704780B483B000AFCA
:10480000786039607B6800221A607B6800225A60F9
:104810007B683A68DA607B6800229A6000BF0C37D8
:10482000BD465DF8047B704780B584B000AF78600A
:1048300039600023BB6007F10803184690F0E0F9E7
:104840000023FB8139687868FFF7BCFF0346FB81D2
:10485000FB89002B19D17B689B68002B03D17B68F7
:104860003A681A6003E07B685B683A681A603B68E4
:104870007A685A603B6800221A607B683A685A601E
:104880007B689B685A1C7B689A60BB68184690F0EE
:104890006FFBFB8918461037BD4680BD80B586B0DA
:1048A00000AF78600023FB820023BB6007F10803A0
:1048B000184690F0A5F97B685B68002B03D143F2A2
:1048C0007C73FB8234E07B685B681B683B61002380
:1048D000FB601AE07B685B681B687A689A4205D1C6
:1048E0007B685B683A6912681A6011E03B691B6873
:1048F0007A689A4206D13B69FB607B681A683B691B
:104900001A6005E03B691B683B613B69002BE1D104
:104910007B681B68002B03D17B685B68FA685A6070
:104920007B685B689A68013A9A607B6800225A60EB
:10493000BB68184690F01CFBFB8A18461837BD462A
:1049400080BD80B483B000AF78607B689B681846F8
:104950000C37BD465DF8047B704780B483B000AF70
:1049600078607B681B6843F001027B681A6000BFB7
:104970007B681B6803F00103002BF9D100BF00BF67
:104980000C37BD465DF8047B704780B58AB000AF38
:104990007860012387F826300023FB6000233B74F6
:1049A00002237B740123FB740C23BB7407F11C03EB
:1049B0007B610123BB6107F10C031946786809F09C
:1049C00003F838623B6A002B01D03B6A21E097F87C
:1049D0002630002B0CD0FB6903F00103002B03D021
:1049E000012387F827300FE0002387F827300BE0FA
:1049F000FB6903F00103002B03D0002387F8273065
:104A000002E0012387F8273097F82730002BD2D116
:104A10003B6A18462837BD4680BD80B588B000AFD8
:104A2000786039603B68FB6000233B7400237B7433
:104A30000123FB740223BB7407F10C031946786849
:104A400008F0C2FFF861FB6918462037BD4680BDFB
:104A500080B588B000AF78604CF24073BB60002135
:104A60007868FFF7DAFFF861FB69002B01D0FB697A
:104A700022E00023FB6000233B7403237B740123AB
:104A8000FB740123BB7407F108037B610223BB6144
:104A900007F10C031946786808F096FFF861FB6986
:104AA000002B01D0FB6907E07868FFF76EFFF86123
:104AB0007868FFF752FFFB6918462037BD4680BD76
:104AC00080B58AB000AFF860B9607A603B60BB68BF
:104AD0003B623B6A3B6100233B7502237B750123EC
:104AE000FB750023BB757B68BB613B68FB6107F10D
:104AF00010031946F86808F067FF78627B6A002B9C
:104B000003D1F868FFF741FF78627B6A18462837BF
:104B1000BD4680BD80B596B000AFEFF310833B6516
:104B20003B6D7B6572B63B46184608F0D9FB012306
:104B300087F84A3001233B700123BB70012387F8BB
:104B40004B30012387F84C303B461946174808F094
:104B500083FA00221649154808F0B0FC3C23154A98
:104B60000021124808F09AFD1048FFF771FF124B20
:104B7000D3F80038104A43F00543C2F8003800BFAC
:104B80000D4BD3F80038002BFADB0B4BD3F8003871
:104B9000094A23F0A063C2F800387B6D002B00D1D6
:104BA00062B6002318465837BD4680BD004013400A
:104BB000BC0C0020DC0C00200030034080B500AFAE
:104BC000FFF7A8FF0346184680BD000080B588B0F7
:104BD00000AFF860B9607A60EFF310837B617B69A6
:104BE000FB6172B67B68BA68F9680948FFF768FF2D
:104BF000B8610748FFF7B1FEFB69002B00D162B630
:104C0000BFF36F8F00BFBB6918462037BD4680BD1C
:104C10000040134080B584B000AFF860B9607A609E
:104C2000BB6803F00303002B04D17B6803F003038C
:104C3000002B01D0042305E07A68B968F868FFF713
:104C4000C5FF034618461037BD4680BD80B483B00B
:104C500000AFEFF310833B603B687B6072B600BF30
:104C60007B6818460C37BD465DF8047B704780B4FE
:104C700085B000AF78607B68FB60FB6883F31088C9
:104C800000BF00BF1437BD465DF8047B70470000CD
:104C9000B0B588B000AFC7E900010023FB77FF2360
:104CA000BB7700237B770023BB6100233B77404B1E
:104CB0001B685B687B613E4B1B685B6893F83C300C
:104CC000FB74FB7CFB776BE0FA7F13465B001344BD
:104CD0009B000C3B7A691344BB6100233B77D7E907
:104CE0000023134302D101233B770CE0BB691B680F
:104CF00000221C461546D7E90023944275EB0303B6
:104D000001D201233B773B7F002B2ED000237B7702
:104D100028E0274B1A687B7F02339B0013445A68B4
:104D20007B7FB9699B000B445B681340002B13D158
:104D30007A7FBB69023253F822101D4B1A687B7FC1
:104D400002339B0013445A687B7F0A409B00203348
:104D50003B4443F8142C02E000233B7705E07B7FC3
:104D600001337B777B7F002BD3D03B7F002B14D08C
:104D7000FB7F013B0E4A126892F8442093420CD804
:104D80000B4B1B68103307F10C01042218468FF0FF
:104D900047FFFB7F013BBB7705E0FB7F013BFB77D8
:104DA000FB7F002B90D1BB7F18462037BD46B0BD9E
:104DB000F492012080B586B000AF0346FB7100235A
:104DC0003B610023FB600023FB7537E0244B1B682D
:104DD000FA7D83F87C20224B1A68FB7D1B01483347
:104DE000134404331846FFF7ACFD0346002B22D0D2
:104DF0001B4B1A68FB7D1B0113444C331B683B6142
:104E00003B699B68BB603B69DA68F979BB68002045
:104E10009847F860FB68002B07D0114B1B683A6974
:104E2000C3F8802043F6216316E03B691B683B61B1
:104E30003B69002BE4D1FB7D0133FB75FB7D022B2D
:104E4000C4D9074B1B68022283F87C20044B1B68E3
:104E50000022C3F88020002318461837BD4680BDC5
:104E6000F492012080B584B000AF0346FB710023AB
:104E7000BB60254B1B68D3F88030002B05D0224B3C
:104E80001B6893F87C30FB7335E00223FB7332E040
:104E90001D4B1A6897F90F301B0148331344043334
:104EA0001846FFF74EFD0346002B1ED0164B1A681E
:104EB00097F90F301B0113444C331B68BB60BB6870
:104EC0009B68BA68D268F979012098470E4B1B6835
:104ED000D3F88030BA689A4206D0BB681B68BB60C2
:104EE000BB68002BEBD100E000BF97F90F30DBB2BD
:104EF000013BDBB2FB7397F90F30002BC8DA0023BC
:104F000018461037BD4680BDF492012080B483B0AE
:104F100000AF0423FB710023BB710DE00D4B1A6839
:104F2000BB79134493F84530002B02D0BB79FB7159
:104F300005E0BB790133BB71BB79042BEED9054B7E
:104F40001B68FA7983F8442000BF0C37BD465DF832
:104F5000047B7047F492012080B500AFFFF776FE26
:104F60000346024A136000BF80BD00BFF8920120D3
:104F700080B500AF034B1B681846FFF778FE00BFF3
:104F800080BD00BFF892012080B582B000AF78608C
:104F90007B68002B05D1314B314AE32131486CF05D
:104FA0007FFEC022002178686FF082F97B680022C2
:104FB0001A707B6801225A707B682B4A5A607B68A2
:104FC0000022C3F884207B680022C3F888207B6815
:104FD0000022C3F890207B680022C3F88C207B68F5
:104FE000224AC3F8B8207B68214AC3F8BC207B68FA
:104FF0004C3300211846FFF700FC7B685C3300212E
:105000001846FFF7FAFB7B686C3300211846FFF760
:10501000F4FB7B68A83300211846FFF7EEFB154A26
:105020007B681360134B1B685B681B6C002B04D000
:10503000104B1B685B681B6C98470E4B1B685B68CA
:105040009B6C002B04D00B4B1B685B689B6C9847D8
:10505000FFF75CFF00BF0837BD4680BDD45A070884
:10506000DC160908E45A0708A4170908594F000874
:10507000714F0008F492012080B582B000AF034662
:10508000FB712E4B1B68002B06D12D4B2D4A40F295
:105090001D112D486CF004FE284B1B68D3F8B83066
:1050A000002B04D0254B1B68D3F8B8309847FB7908
:1050B000002B20D0214B1B6893F90130002B06DC1C
:1050C000224B204A4FF493711F486CF0E9FD1B4BB3
:1050D0001B6893F90120D2B2013AD2B252B25A708F
:1050E000164B1B6893F90130002B17D1134B1B682B
:1050F00001221A7012E0114B1B6893F90120D2B201
:105100000132D2B252B25A700C4B1B6893F9013083
:10511000002B03DD094B1B6800221A70074B1B682C
:10512000D3F8BC30002B04D0044B1B68D3F8BC3040
:10513000984700BF0837BD4680BD00BFF4920120EC
:10514000405B0708EC160908E45A0708545B070897
:105150002DE9F04385B000AFC7E900010023FB60F3
:10516000464B1B681B78002B00F08280D7E90001BA
:10517000FFF78EFD0346FB72FB7AFF2B78D03F4B87
:105180001B68FA7A1A72FB7A1846FFF713FEF8606A
:10519000FB68002B5DD1394B1B68D3F88C30002B9A
:1051A0000AD0364B1B68D3F88C30344A16689847BF
:1051B00002460B46C6E92623304B1B68D3F88430E1
:1051C000002B1DD0D7E90023134319D02B4B1B68AC
:1051D000D3F88460294B1B685968FA7A13465B0040
:1051E00013449B000B441B6800221C461546D7E95C
:1051F0000023B2EB040863EB050940464946B0477B
:105200001E4B1B685B685B6C1C4A126802F1100144
:105210001A4A12683432F87A9847184B1B68D3F848
:105220008830002B04D0154B1B68D3F88830984782
:10523000124B1B68D3F88C30002B0AD00F4B1B6825
:10524000D3F88C300D4A1468984702460B46C4E9DF
:105250002823FB7A1846FFF705FE084B1B685B689E
:105260009B6C002B04D0054B1B685B689B6C9847BC
:1052700000BF1437BD46BDE8F08300BFF4920120A3
:1052800080B584B000AFF860B9607A603B60FB68BD
:10529000002B06D1184B194A4FF4D47118486CF002
:1052A000FFFC184B1B68D3F8B830002B04D0154B0B
:1052B0001B68D3F8B8309847FB68BA68C3F88420F5
:1052C000FB687A68C3F88820FB68BA69C3F8902045
:1052D000FB683A68C3F88C200A4B1B68D3F8BC30D3
:1052E000002B04D0074B1B68D3F8BC30984700BF95
:1052F0001037BD4680BD00BFD45A070804170908FF
:10530000E45A0708F492012080B584B000AF034648
:105310003960FB713B68002B06D10F4B0F4A40F2FE
:10532000D7110F486CF0BCFC0023FB600D4B1A68D2
:10533000FB791B014833134404333A68114618467D
:10534000FFF772FA0346002B01D00123FB60FB68D4
:1053500018461037BD4680BD745B07082017090842
:10536000E45A0708F492012080B584B000AFF860D9
:10537000B9607A60FB70FB68002B06D1224B234A90
:1053800040F2222122486CF08BFC224B1B68D3F8A0
:10539000B830002B04D01F4B1B68D3F8B8309847A7
:1053A000FB68BA689A60FB687A68DA60FA68137C0E
:1053B000F97861F300031374FA68137C6FF3410307
:1053C0001374FB78002B07D0124B1B68A833FA68C4
:1053D00011461846FFF728FA0E4B1B685B68DB6C1A
:1053E000FA781146F86898470A4B1B68D3F8BC3026
:1053F000002B04D0074B1B68D3F8BC30984700BF84
:105400001037BD4680BD00BF8C5B07083417090804
:10541000E45A0708F492012080B584B000AF7860A8
:105420007B68002B06D1254B254A40F243212548B5
:105430006CF036FC0023FB60234B1B68D3F8B830BC
:10544000002B04D0204B1B68D3F8B83098477B68FA
:105450001B7CC3F30003DBB283F00103DBB2002B40
:105460001BD0194B1B68A8337A6811461846FFF702
:10547000DBF9154B1B685B68DB6C0121786898478A
:10548000F860FB68002B05D17A68137C43F00103B8
:10549000137402E043F61D63FB600B4B1B68D3F8EB
:1054A000BC30002B04D0084B1B68D3F8BC309847A5
:1054B000FB6818461037BD4680BD00BF8C5B0708EF
:1054C00048170908E45A0708F492012080B584B00F
:1054D00000AF78607B68002B06D1214B214A40F257
:1054E000712121486CF0DCFB0023FB601F4B1B6823
:1054F000D3F8B830002B04D01C4B1B68D3F8B8305D
:1055000098477B681B7C03F00103DBB2002B17D0AC
:105510007B681846FFF7C2F9144B1B685B68DB6CAD
:10552000002178689847F860FB68002B05D17A68FD
:10553000137C6FF30003137402E043F61E63FB60F9
:105540000A4B1B68D3F8BC30002B04D0074B1B68F8
:10555000D3F8BC309847FB6818461037BD4680BD6D
:105560008C5B070860170908E45A0708F4920120C9
:105570000EB480B589B000AF0346FB710023FB6118
:105580008C4B1B68D3F8B830002B04D0894B1B68B8
:10559000D3F8B8309847FB79FF2B13D0FB79042B55
:1055A00002D90123FB610DE0824B1A68FB79D11807
:1055B00091F845100131C9B213440A4683F84520D9
:1055C000FFF7A4FCFB6A002B00F0E08007F130033A
:1055D000BB600023BB61D4E0BB681A1DBA601B68C6
:1055E0007B617B691B0A3B617B69DBB2FB60FB680B
:1055F0001F2B06D9704B714A40F2263170486CF06F
:105600004FFB3B69002B00F0B9803B69042B09D0AC
:105610003B69042B7ED83B69012B53D03B69022B9D
:1056200028D077E0634B1A68FB68134410331B796A
:10563000C3F38113DBB2032B06D1624B5F4A40F206
:105640002E315F486CF02CFB5A4B1B68FA681A44E9
:1056500010321279C2F38112D2B2013202F0030287
:10566000D1B2FA68134403F11002137961F387137E
:10567000137156E04F4B1A68FB68134410331B79C3
:10568000C3F3C203DBB2072B06D14F4B4B4A40F2A8
:1056900035314B486CF004FB464B1B68FA681A44E2
:1056A00010321279C2F3C202D2B2013202F0070202
:1056B000D1B2FA68134403F11002137961F3C50300
:1056C00013712EE03B4B1A68FB68134410331B79AF
:1056D000C3F30203DBB2072B06D13C4B374A4FF42E
:1056E0004F7137486CF0DCFA324B1B68FA681A4489
:1056F00010321279C2F30202D2B2013202F0070272
:10570000D1B2FA68134403F11002137961F3020372
:10571000137106E02E4B294A40F2433128486CF0C1
:10572000BFFA244B1968FB68DA0802F10C039B00EE
:105730000B445968FB6803F007039B00386900FAC3
:1057400003F31C480068194302F10C039B00034457
:105750005960184B1968FB685A09931C9B000B444D
:105760005968FB6803F01F03012000FA03F3114896
:1057700000681943931C9B0003445960BB690133C3
:10578000BB61BA69FB6A9A42FFF626AF094B1B68F8
:10579000D3F8BC30002B04D0064B1B68D3F8BC30C8
:1057A0009847FB6918462437BD46BDE8804003B0E2
:1057B000704700BFF4920120BC5B07087817090806
:1057C000E45A0708E85B0708545C0708C85C070848
:1057D0003C5D07080EB480B58DB000AF0346FB7189
:1057E0000023FB62814B1B68D3F8B830002B04D038
:1057F0007E4B1B68D3F8B8309847FB79FF2B1BD042
:10580000FB79042B02D90123FB6215E0774B1A6860
:10581000FB79134493F84530002B0BD0734B1A6877
:10582000FB79D11891F845100139C9B213440A46E1
:1058300083F84520FFF76AFBFB6B002B00F0278104
:1058400007F14003FB600023BB621BE1FB681A1DEC
:10585000FA601B683B623B6A1B0AFB613B6ADBB276
:10586000BB61624B1A68BB69DB080C339B001344B5
:105870005B687B61BB6903F007039B00FA6902FA6E
:1058800003F33B617A693B691340002B00F0F7801A
:10589000002387F82730FB69042B0AD0FB69042B0F
:1058A00000F29D80FB69012B67D0FB69022B32D08F
:1058B00095E04E4B1A68BB69134410331B79C3F350
:1058C0008113DBB2002B06D1494B4A4A40F29F318B
:1058D00049486CF0E5F9454B1B68BA691A44103227
:1058E0001279C2F38112D2B2033202F00302D1B2B2
:1058F000BA69134403F11002137961F3871313712A
:105900003A4B1A68BB69134414331B7823F03F03E6
:1059100087F8273078E0354B1A68BB691344103399
:105920001B79C3F3C203DBB2002B06D1334B314AE0
:1059300040F2A63130486CF0B3F92C4B1B68BA69C1
:105940001A4410321279C2F3C202D2B2073202F004
:105950000702D1B2BA69134403F11002137961F35B
:10596000C5031371214B1A68BB69134414331B78A8
:1059700003F0380387F8273046E01C4B1A68BB69F0
:10598000134410331B79C3F30203DBB2002B06D19F
:105990001B4B184A40F2AE3117486CF081F9134B9B
:1059A0001B68BA691A4410321279C2F30202D2B2E9
:1059B000073202F00702D1B2BA69134403F11002B0
:1059C000137961F302031371084B1A68BB6913441E
:1059D00014331B7803F0070387F8273014E0094BD2
:1059E000044A40F2B63104486CF05AF9F4920120AE
:1059F000445D07088C170908E45A07088C5D0708FE
:105A0000D85D07083C5D070897F82730002B36D192
:105A1000284B1968BB69DA0802F10C039B000B44A0
:105A20005968BB6903F007039B00F86900FA03F3A8
:105A3000DB4320480068194002F10C039B0003443B
:105A400059601C4B1A68BB69134414331B78002B34
:105A500015D1184B1968BB695A09931C9B000B445C
:105A60005968BB6903F01F03012000FA03F3DB430D
:105A7000104800681940931C9B0003445960BB6A9E
:105A80000133BB62BA6AFB6B9A42FFF6DFAE094B89
:105A90001B68D3F8BC30002B04D0064B1B68D3F82E
:105AA000BC309847FB6A18463437BD46BDE8804095
:105AB00003B07047F492012080B483B000AF034676
:105AC000FB80B7F90630002B0BDBFB8803F01F02CD
:105AD0000749B7F906305B09012000FA02F241F8E4
:105AE000232000BF0C37BD465DF8047B704700BF24
:105AF00000E100E080B483B000AF0346FB80B7F95B
:105B00000630002B12DBFB8803F01F020A49B7F9AD
:105B100006305B09012000FA02F2203341F823200D
:105B2000BFF34F8F00BFBFF36F8F00BF00BF0C37B5
:105B3000BD465DF8047B704700E100E080B483B0AF
:105B400000AF0346FB80B7F90630002B0CDBFB8867
:105B500003F01F020749B7F906305B09012000FA7C
:105B600002F2603341F8232000BF0C37BD465DF8D8
:105B7000047B704700E100E080B584B000AF0346CD
:105B8000FB800023FB60B7F9063013F1800F02D1D0
:105B90000123FB6004E0B7F906301846FFF78CFFDD
:105BA000FB6818461037BD4680BD80B584B000AF95
:105BB0000346FB800023FB60B7F9063013F1800F2A
:105BC00002D10123FB6004E0B7F906301846FFF765
:105BD00091FFFB6818461037BD4680BD80B483B086
:105BE00000AF03460A46FB711346BB710A4B5A6964
:105BF000FB79012101FA03F3DB431A40B979FB7900
:105C000001FA03F3044913434B6100BF0C37BD464F
:105C10005DF8047B704700BF0010034080B588B07A
:105C200000AFF860B9607A60FB681B6803F001039D
:105C3000BB61BB681B6803F00F037B61BB69002B72
:105C400004D07B6903F00403002B01D1012300E0A1
:105C5000002303F00103DBB2184609F089F804239E
:105C6000FB612FE0FB681A68FB6922FA03F303F07B
:105C70000103BB61FB69002B00DA0733DB101A4616
:105C8000BB6853F82220FB6903F007039B0022FA4C
:105C900003F303F00F037B61BB69012B0FD17B6919
:105CA00003F00403002B0AD07B681A68FB69C3F178
:105CB0002003012101FA03F31A437B681A60FB6990
:105CC0000133FB61FB690B2BCCDD0C23FB6131E065
:105CD000FB681A68FB6922FA03F303F00103BB6156
:105CE000FB69002B00DA0733DB101A46BB6853F858
:105CF0002220FB6903F007039B0022FA03F303F061
:105D00000F037B61BB69012B11D17B6903F0040395
:105D1000002B0CD07B681A68FB69D90F0B445B1011
:105D2000063B734951F823301A437B681A60FB69BC
:105D30000233FB61FB691A2BCADDFB681B681B0F72
:105D400003F00103BB61BB68DB681B0C03F00F03AE
:105D50007B61BB69012B0AD17B6903F00403002B33
:105D600005D07B685B6843F00C027B685A60FB6877
:105D70001B685B0F03F00103BB61BB68DB681B0D95
:105D800003F00F037B61BB69012B0AD17B6903F030
:105D90000403002B05D07B685B6843F00A027B6834
:105DA0005A60FB681B689B0803F00103BB61BB687A
:105DB0001B681B0A03F00F037B617B6804229A6057
:105DC000BB69012B0AD17B6903F00403002B05D0CA
:105DD0007B689B6823F004027B689A607B6840F2D2
:105DE0003F12DA600D23FB6130E0FB681A68FB6943
:105DF00022FA03F303F00103BB61FB69002B00DA15
:105E00000733DB101A46BB6853F82220FB6903F006
:105E100007039B0022FA03F303F00F037B61BB69C6
:105E2000012B10D17B6903F00103002B0BD07B68A1
:105E3000DA68FB690D3B5B08012101FA03F3DB43E0
:105E40001A407B68DA60FB690233FB61FB69172B40
:105E5000CBDDFB681B68DB0E03F00103BB61BB6895
:105E6000DB681B0B03F00F037B61BB69012B0AD1BD
:105E70007B6903F00103002B05D07B68DB6823F40A
:105E800080727B68DA60FB681B689B0F03F001037C
:105E9000BB61BB68DB681B0E03F00F037B61BB6952
:105EA000012B0AD17B6903F00403002B05D07B682A
:105EB0001B6943F080027B681A61FB681B68DB0F7B
:105EC000BB61BB68DB681B0F7B61BB69012B0AD11F
:105ED0007B6903F00403002B05D07B681B6943F04A
:105EE00040027B681A6100BF2037BD4680BD00BFFD
:105EF000F817090880B58AB000AF0346B9607A6028
:105F0000FB7307F1140300221A605A609A60DA608A
:105F10001A61BB68002B05D1164B174AE5211748BB
:105F20006BF0BEFE7B68002B05D1154B124AE621B3
:105F300012486BF0B5FEFB7B002B16D0012B05D170
:105F4000FB7B18468EF064FD30BF0FE007F11403B1
:105F50001A467968B868FFF761FEFB7B07F1140207
:105F6000114618468EF00CFC00E000BF00BF283739
:105F7000BD4680BD245E0708181809083C5E070866
:105F8000A45E070880B400AF00BFBD465DF8047B87
:105F9000704780B582B000AF03463960FB80B7F927
:105FA0000630642B0DD13B68002B14BF0123002366
:105FB000DBB219460020FFF711FE6420FFF7BEFD9B
:105FC00010E0B7F90630652B0CD13B68002B14BFED
:105FD00001230023DBB219460120FFF7FFFD6520F6
:105FE000FFF7ACFDB7F906301846FFF7C5FDB7F966
:105FF0000630184608F00AFCB7F90630184608F0D3
:10600000CFFC00BF0837BD4680BD80B582B000AF71
:1060100003463960FB80B7F90630642B0DD13B682D
:10602000002B0CBF01230023DBB219460020FFF731
:10603000D5FD6420FFF782FD10E0B7F90630652B2F
:106040000CD13B68002B0CBF01230023DBB21946A7
:106050000120FFF7C3FD6520FFF770FDB7F906309B
:106060001846FFF7A2FDB7F90630184608F0CEFB38
:10607000B7F90630184608F085FD00BF0837BD4661
:1060800080BD000080B584B000AF78600B46FB7027
:106090007B68002B06D1124B124A40F22D11124898
:1060A0006BF0FEFD7B689B68DBB2FB607B689B68E6
:1060B0001B0ADBB2BB60FB78002B06D0FB681BB26F
:1060C000B9681846FFF765FF05E0FB681BB2B968C1
:1060D0001846FFF79AFF002318461037BD4680BDCB
:1060E000BC5E0708341809083C5E070880B483B01A
:1060F00000AFEFF310833B603B687B6072B600BF7C
:106100007B6818460C37BD465DF8047B704780B449
:1061100085B000AF78607B68FB60FB6883F3108814
:1061200000BF00BF1437BD465DF8047B704780B5E3
:1061300086B000AFF860B9607A603B6043F22153EB
:10614000FB82FB681B78012B08D1FB680C333A6893
:106150007968184600F068F90346FB82FB8A184606
:106160001837BD4680BD80B586B000AFF860B96015
:106170007A60FB68002BFCD0BB68002BFCD07B68EE
:10618000002BFCD0FB687B617B691B683B613B6932
:10619000002BFCD07B68BA6879693869FFF7C7FFC4
:1061A000034618461837BD4680BD80B584B000AFA1
:1061B0007860396043F22153FB813B68002BFCD0AF
:1061C0007B68002BFCD000BF7B68BB6014220021E1
:1061D000B8686EF06DF83B681A78BB681A703B6857
:1061E0001B78012B0BD1BB6803F10C023B685B6889
:1061F0001946104600F0E7F80346FB8100E000BFB7
:10620000FB8918461037BD4680BD80B584B000AF0D
:1062100078600023FB817B68002BFCD07B68BB602F
:10622000BB685B68002B03D1BB689B68002B03D065
:1062300043F22253FB810AE0BB681B78012B05D196
:10624000BB680C33184600F0DDF800E000BFFB89A6
:1062500018461037BD4680BD80B586B000AF786067
:1062600039607B68002BFCD03B68002BFCD000BF62
:106270007B687B613B683B61FFF738FFF8607B69B7
:106280009B685A1C7B699A60F868FFF740FF0422FC
:10629000002138686EF00CF83B697A691A600023B7
:1062A00018461837BD4680BD80B586B000AF78600F
:1062B0007B68002BFCD07B687B617B691B683B6142
:1062C0003B69002BFCD0FFF711FFF8603B699B682E
:1062D000002B04D03B699B685A1E3B699A60F868A2
:1062E000FFF715FF0422002178686DF0E1FF00231D
:1062F00018461837BD4680BD80B586B000AF7860BF
:1063000039600023FB827B68002BFCD03B68002BAC
:10631000FCD000BF7B683B613B68FB60FFF7E6FE9B
:10632000B8603B695B68002B03D043F22253FB82C9
:106330000AE03B69FA685A600422002138686DF06F
:10634000B7FFFB683A691A60B868FFF7E0FEFB8A9E
:1063500018461837BD4680BD80B586B000AF78605E
:106360007B68002BFCD07B687B617B691B683B6191
:106370003B69002BFCD03B695B687A699A42F7D194
:10638000FFF7B4FEF8603B6900225A60F868FFF737
:10639000BEFE0422002178686DF08AFF00231846B3
:1063A0001837BD4680BD80B584B000AFF860B960D5
:1063B0007A607A68B968F868FFF7D5FE0346184630
:1063C0001037BD4680BD80B584B000AF78603960BD
:1063D0000023FB813B68002BFCD07B68002BFCD0AA
:1063E00000BF7B68BB60BB683968184600F0E6F800
:1063F0000346FB81FB89002BFCD1FB891846103733
:10640000BD4680BD80B584B000AF78607B68002B4E
:10641000FCD07B68FB60FB68184600F0EBF80023BB
:1064200018461037BD4680BD80B586B000AFF86015
:10643000B9607A60FB68002BFCD0BB68002BFCD0F5
:106440007B68002BFCD0FB687B617B697A68B9684C
:10645000184600F0F5F8034618461837BD4680BDCB
:1064600080B483B000AF78607B68002B01D100233B
:1064700001E042F6AF7318460C37BD465DF8047B69
:106480007047000080B588B000AF786039607B68E5
:10649000002B06D1424B434A4FF48C7142486BF0BB
:1064A000FFFB3B68002B06D1404B3E4A40F21911DE
:1064B0003D486BF0F5FB3B689B7B042B06D93C4BBE
:1064C000384A4FF48D7138486BF0EAFB3B689B7B90
:1064D0001A46384B53F82230002B06D1364B314A3E
:1064E00040F21B1130486BF0DBFB07F10803184644
:1064F00005F054FD3B685B68BB603B681B7B002B71
:1065000003D13B685B7B002B01D001233B753B68CB
:106510001B7A022B02D102233B7308E03B681B7AF3
:10652000032B02D103233B7301E000233B733B6841
:106530005B7A012B02D101237B7301E000237B7383
:106540003B689B7A002B14BF01230023DBB23B7412
:106550003B68DB7A002B14BF01230023DBB27B7482
:1065600000237B750023BB753B689B7B1A46114B50
:1065700053F822003B681A6807F10803194605F032
:10658000E7FBF861FB69002B04D0F869FFF768FFAF
:10659000034600E0002318462037BD4680BD00BFFB
:1065A000C85E070864180908D05E0708245F07085A
:1065B0002C5F070850180908745F070880B584B07D
:1065C00000AF7860396039687868FFF75BFF034691
:1065D000FB81FB89002B01D0FB8906E07B68BB6057
:1065E0003B689A7BBB681A70002318461037BD467B
:1065F00080BD000080B584B000AF78607B68002B60
:1066000006D10B4B0B4A4FF4BA710B486BF048FBA9
:106610007B68FB60FB681B781A46084B53F82230F6
:10662000184605F083FC002318461037BD4680BD90
:10663000C85E070878180908D05E070850180908CE
:1066400080B586B000AFF860B9607A60FB68002B57
:1066500006D1164B164A4FF4CB7116486BF020FB4F
:10666000BB68002B06D1144B114A40F29711114818
:106670006BF016FB7B68002B06D1104B0C4A4FF4D5
:10668000CC710C486BF00CFBFB687B617B691B7861
:106690001A460B4B53F822307A68B968184605F051
:1066A00093FD002318461837BD4680BDC85E070815
:1066B00088180908D05E07089C5F0708A45F0708D0
:1066C0005018090880B483B000AF0346FB80B7F9C7
:1066D0000630002B0BDBFB8803F01F020749B7F9DC
:1066E00006305B09012000FA02F241F8232000BFC6
:1066F0000C37BD465DF8047B704700BF00E100E049
:1067000080B483B000AF0346FB80B7F90630002B9E
:1067100012DBFB8803F01F020A49B7F906305B0958
:10672000012000FA02F2203341F82320BFF34F8FFB
:1067300000BFBFF36F8F00BF00BF0C37BD465DF8D1
:10674000047B704700E100E080B483B000AF0346F3
:10675000FB80B7F90630002B0CDBFB8803F01F022F
:106760000749B7F906305B09012000FA02F26033ED
:1067700041F8232000BF0C37BD465DF8047B70470D
:1067800000E100E080B483B000AF03463960FB80D5
:10679000B7F90630002B0ADB3B68DAB20C49B7F9CF
:1067A00006305201D2B20B4483F800230AE03B6862
:1067B000DAB20849FB8803F00F03043B5201D2B25E
:1067C0000B441A7600BF0C37BD465DF8047B70475A
:1067D00000E100E000ED00E080B584B000AF0346CA
:1067E000FB800023FB60B7F9063013F1800F02D164
:1067F0000123FB6004E0B7F906301846FFF762FF9B
:10680000FB6818461037BD4680BD80B584B000AF28
:106810000346FB800023FB60B7F9063013F1800FBD
:1068200002D10123FB6004E0B7F906301846FFF7F8
:1068300067FFFB6818461037BD4680BD80B483B043
:1068400000AF03463960FB71FB79002B01D1094B86
