:020000040800F2
:10000000FFFFFFFFFFFFFFFFFFFFFFFFFFFFFFFF00
:10001000FFFFFFFFFFFFFFFFFFFFFFFFFFFFFFFFF0
:10002000FFFFFFFFFFFFFFFFFFFFFFFFFFFFFFFFE0
:10003000FFFFFFFFFFFFFFFFFFFFFFFFFFFFFFFFD0
:1004000046434642000000000000000001030300D4
:10041000010000000102000040C7000000000000D1
:1004200000000000000000000000000000000000CC
:1004300000000000000000000000000000000000BC
:1004400000000000010407000000000000000000A0
:100450000000000400000000000000000000000098
:10046000000000000000000000000000000000008C
:10047000000000000000000000000000000000007C
:10048000EB04180A0A3204260000000000000000F5
:10049000050404240000000000000000000000002B
:1004A0000104022000000000000000000000000025
:1004B0000604000000000000000000000000000032
:1004C000000000000000000000000000000000002C
:1004D00020041808000000000000000000000000D8
:1004E000000000000000000000000000000000000C
:1004F00000000000000000000000000000000000FC
:100500005204180800000000000000000000000075
:100510000204180800200000000000000000000095
:1005200000000000000000000000000000000000CB
:100530006004000000000000000000000000000057
:1005400000000000000000000000000000000000AB
:10055000000000000000000000000000000000009B
:10056000000000000000000000000000000000008B
:10057000000000000000000000000000000000007B
:10058000000000000000000000000000000000006B
:10059000000000000000000000000000000000005B
:1005A000000000000000000000000000000000004B
:1005B000000000000000000000000000000000003B
:1005C000000100000010000000000000000000001A
:1005D000008000000000000000000000000000009B
:1005E000000000000000000000000000000000000B
:1005F00000000000000000000000000000000000FB
:10060000FFFFFFFF000000000000000000000000EE
:1006100000000000000000000000000000000000DA
:1006200000000000000000000000000000000000CA
:1006300000000000000000000000000000000000BA
:1006400000000000000000000000000000000000AA
:10100000003012203D130008D5130008D913000842
:10101000D1130008D1130008D1130008D113000820
:10102000F8090A000000000000000000213E002036
:10103000D113000800100008B13D0020513B0020F2
:10104000E9130008ED130008F1130008F513000878
:10105000F9130008FD130008011400080514000826
:10106000091400080D1400081114000815140008D4
:10107000191400081D140008211400082514000884
:10108000291400082D140008311400083514000834
:10109000391400083D1400084114000845140008E4
:1010A000491400084D140008511400085514000894
:1010B000591400085D140008611400086514000844
:1010C000052E00086D14000871140008751400083E
:1010D000791400087D1400088114000885140008A4
:1010E000891400088D140008911400089514000854
:1010F000991400089D140008A1140008A514000804
:10110000A9140008AD140008B1140008B5140008B3
:10111000B9140008BD140008C1140008C514000863
:10112000C9140008CD140008D1140008D514000813
:10113000D9140008DD140008E1140008E5140008C3
:10114000E9140008ED140008F1140008F514000873
:10115000F9140008FD140008011500080515000821
:10116000091500080D1500081115000815150008CF
:10117000191500081D15000821150008251500087F
:10118000291500082D15000831150008351500082F
:10119000391500083D1500084115000845150008DF
:1011A000491500084D15000851150008551500088F
:1011B000591500085D15000861150008651500083F
:1011C000691500086D1500087115000875150008EF
:1011D00079150008452E00088115000885150008BE
:1011E000891500088D15000891150008951500084F
:1011F000991500089D150008A1150008A5150008FF
:10120000A9150008AD150008B1150008B5150008AE
:10121000B9150008BD150008C1150008C51500085E
:10122000C9150008CD150008D1150008D51500080E
:10123000D9150008DD150008E1150008E5150008BE
:10124000E915000800000000000000000000000098
:10125000000000000000000000000000000000008E
:10126000000000000000000000000000000000007E
:10127000000000000000000000000000000000006E
:1012800010B5054C237833B9044B13B1044800E082
:1012900000BF0123237010BD402B0320000000007D
:1012A000247B080808B5034B1BB10349034800E041
:1012B00000BF08BD00000000442B0320247B080869
:1012C000A3F5803A704700BF174B002B08BF134BA4
:1012D0009D46FFF7F5FF00218B460F461348144A41
:1012E000121A6AF041F90E4B002B00D098470D4BB3
:1012F000002B00D098470020002104000D000D486D
:10130000002802D00C4800E000BF6AF0DFF820009F
:10131000290002F0D3FB6AF0C5F800BF0000080006
:10132000000000000000000000301220402B0320CD
:1013300018A20720000000000000000072B6174845
:10134000174901600A6882F30888164880F30A8802
:10135000154880471549164A164B9A42BEBF51F8A8
:10136000040B42F8040BF8E71349144A0020914299
:10137000BCBF41F8040BFAE700201149114A914221
:10138000BCBF41F8040BFAE706490F4A9142BCBFC3
:1013900041F8040BFAE762B60C48804708ED00E01C
:1013A00000100008002C1220C19B0608A086080827
:1013B0000000002058930120402B032018A2072092
:1013C00018A2072018A6072000301220C912000812
:1013D000FFF7FEBF8548004785480047854800471E
:1013E00085480047854800478548004785480047AD
:1013F000854800478548004785480047854800479D
:10140000854800478548004785480047854800478C
:10141000854800478548004785480047854800477C
:10142000854800478548004785480047854800476C
:10143000854800478548004785480047854800475C
:10144000854800478548004785480047854800474C
:10145000854800478548004785480047854800473C
:10146000854800478548004785480047854800472C
:10147000854800478548004785480047854800471C
:10148000854800478548004785480047854800470C
:1014900085480047854800478548004785480047FC
:1014A00085480047854800478548004785480047EC
:1014B00085480047854800478548004785480047DC
:1014C00085480047854800478548004785480047CC
:1014D00085480047854800478548004785480047BC
:1014E00085480047854800478548004785480047AC
:1014F000854800478548004785480047854800479C
:10150000854800478548004785480047854800478B
:10151000854800478548004785480047854800477B
:10152000854800478548004785480047854800476B
:10153000854800478548004785480047854800475B
:10154000854800478548004785480047854800474B
:10155000854800478548004785480047854800473B
:10156000854800478548004785480047854800472B
:10157000854800478548004785480047854800471B
:10158000854800478548004785480047854800470B
:1015900085480047854800478548004785480047FB
:1015A00085480047854800478548004785480047EB
:1015B00085480047854800478548004785480047DB
:1015C00085480047854800478548004785480047CB
:1015D00085480047854800478548004785480047BB
:1015E000854800478548004785480047D5130008CF
:1015F000D9130008213E0020B13D0020513B0020BE
:10160000D1130008D1130008D1130008D11300082A
:10161000D1130008D1130008D1130008D11300081A
:10162000D1130008D1130008D1130008D11300080A
:10163000D1130008D113000815DF02087DDF02086E
:10164000E5DF02084DE00208D1130008D1130008BD
:10165000B5E00208D1130008D1130008D113000827
:10166000D1130008D1130008D1130008D1130008CA
:10167000D1130008D1130008D1130008D1130008BA
:10168000D1130008D1130008D1130008D1130008AA
:10169000D1130008D1130008D1130008D11300089A
:1016A000D1130008D11300089D9B0608D113000830
:1016B000D1130008D1130008D1130008D11300087A
:1016C000D1130008D1130008D1130008D11300086A
:1016D000D1130008D1130008D1130008D11300085A
:1016E000D1130008D1130008D1130008D11300084A
:1016F000D1130008D1130008C98B0608D1130008C4
:1017000087630120D1130008D1130008D11300080A
:10171000D1130008D1130008D1130008D113000819
:10172000A5840120D1130008D1130008D1130008AB
:10173000D1130008D1130008D1130008D1130008F9
:10174000D1130008D1130008D1130008D1130008E9
:10175000D1130008D1130008D1130008D1130008D9
:10176000D1130008D1130008ED840120D113000823
:10177000D1130008D1130008D1130008D1130008B9
:10178000D1130008D1130008D1130008D1130008A9
:10179000D1130008D1130008D1130008D113000899
:1017A000D1130008D1130008D1130008D113000889
:1017B000D1130008D1130008D1130008D113000879
:1017C000D1130008D1130008D1130008D113000869
:1017D000D1130008D1130008D1130008D113000859
:1017E000D1130008D1130008D1130008D113000849
:1017F000D1130008D1130008D1130008D113000839
:1018000039B40208F1B5002A4BD011F0030306D019
:1018100011F8014B013A00F8014B42D0F5E710F006
:1018200003031BD1102A04DB103AF0C9102AF0C0C0
:10183000FAD2130744BF30C930C0530744BF51F830
:10184000044B40F8044B930744BF31F8024B20F897
:10185000024BD30744BF0C78047022E0C3070AD4BC
:10186000042A16D351F8044B043A20F8024B250CF5
:1018700020F8025BF4E7042A0BD351F8044B043A36
:1018800000F8014B250A20F8025B260E00F8016BD8
:10189000F1E7002A1EBF11F8014B00F8014B013A95
:1018A000F7D1F1BD10F8012B11F8013B012A28BF37
:1018B0009A42F7D0D01A7047034613F8012B002A3A
:1018C000FBD1181A0138704781F0004102E000BFD7
:1018D00083F0004330B54FEA41044FEA430594EAF0
:1018E000050F08BF90EA020F1FBF54EA000C55EA2B
:1018F000020C7FEA645C7FEA655C00F0E2804FEAFC
:101900005454D4EB5555B8BF6D420CDD2C4480EADD
:10191000020281EA030382EA000083EA010180EA0D
:10192000020281EA0303362D88BF30BD11F0004F5B
:101930004FEA01314FF4801C4CEA113102D0404291
:1019400061EB410113F0004F4FEA03334CEA1333CC
:1019500002D0524263EB430394EA050F00F0A780E4
:10196000A4F10104D5F1200E0DDB02FA0EFC22FADF
:1019700005F2801841F1000103FA0EF2801843FAD3
:1019800005F359410EE0A5F120050EF1200E012AC4
:1019900003FA0EFC28BF4CF0020C43FA05F3C01802
:1019A00051EBE37101F0004507D54FF0000EDCF17B
:1019B000000C7EEB00006EEB0101B1F5801F1BD324
:1019C000B1F5001F0CD349085FEA30004FEA3C0C28
:1019D00004F101044FEA445212F5800F80F09A801E
:1019E000BCF1004F08BF5FEA500C50F1000041EB22
:1019F000045141EA050130BD5FEA4C0C404141EB26
:101A00000101013C28BFB1F5801FE9D291F0000F20
:101A100004BF01460020B1FA81F308BF2033A3F1CF
:101A20000B03B3F120020CDA0C3208DD02F1140CC6
:101A3000C2F10C0201FA0CF021FA02F10CE002F101
:101A40001402D8BFC2F1200C01FA02F120FA0CFCFA
:101A5000DCBF41EA0C019040E41AA2BF01EB045143
:101A6000294330BD6FEA04041F3C1CDA0C340EDC41
:101A700004F11404C4F1200220FA04F001FA02F384
:101A800040EA030021FA04F345EA030130BDC4F142
:101A90000C04C4F1200220FA02F001FA04F340EA37
:101AA0000300294630BD21FA04F0294630BD94F0E8
:101AB000000F83F4801306BF81F480110134013DCF
:101AC0004EE77FEA645C18BF7FEA655C29D094EA40
:101AD000050F08BF90EA020F05D054EA000C04BFBE
:101AE0001946104630BD91EA030F1EBF00210020A9
:101AF00030BD5FEA545C05D14000494128BF41F048
:101B0000004130BD14F580043CBF01F5801130BDAB
:101B100001F0004545F0FE4141F470014FF0000036
:101B200030BD7FEA645C1ABF194610467FEA655CE7
:101B30001CBF0B46024650EA013406BF52EA033589
:101B400091EA030F41F4002130BD00BF90F0000F77
:101B500004BF0021704730B54FF4806404F13204B3
:101B60004FF000054FF0000150E700BF90F0000F6C
:101B700004BF0021704730B54FF4806404F1320493
:101B800010F0004548BF40424FF000013EE700BF63
:101B900042004FEAE2014FEA31014FEA02701FBFF3
:101BA00012F07F4393F07F4F81F06051704732F025
:101BB0007F4208BF704793F07F4F04BF41F400217C
:101BC000704730B54FF4607401F0004521F00041DA
:101BD0001CE700BF50EA010208BF704730B54FF064
:101BE00000050AE050EA010208BF704730B511F065
:101BF000004502D5404261EB41014FF4806404F19D
:101C000032045FEA915C3FF4D8AE4FF003025FEA22
:101C1000DC0C18BF03325FEADC0C18BF033202EBA6
:101C2000DC02C2F1200300FA03FC20FA02F001FA00
:101C300003FE40EA0E0021FA02F11444BDE600BFA3
:101C400070B54FF0FF0C4CF4E06C1CEA11541DBF52
:101C50001CEA135594EA0C0F95EA0C0F00F0DEF81D
:101C60002C4481EA030621EA4C5123EA4C5350EA02
:101C7000013518BF52EA033541F4801143F4801353
:101C800038D0A0FB02CE4FF00005E1FB02E506F0E4
:101C90000042E0FB03E54FF00006E1FB03569CF039
:101CA000000F18BF4EF0010EA4F1FF04B6F5007F3F
:101CB00064F5407404D25FEA4E0E6D4146EB0606B1
:101CC00042EAC62141EA55514FEAC52040EA5E503A
:101CD0004FEACE2EB4F1FD0C88BFBCF5E06F1ED8E4
:101CE000BEF1004F08BF5FEA500E50F1000041EB1B
:101CF000045170BD06F0004646EA010140EA0200C8
:101D000081EA0301B4EB5C04C2BFD4EB0C0541EAE9
:101D1000045170BD41F480114FF0000E013C00F3FE
:101D2000AB8014F1360FDEBF002001F0004170BD22
:101D3000C4F10004203C35DA0C341BDC04F114043B
:101D4000C4F1200500FA05F320FA04F001FA05F2C7
:101D500040EA020001F0004221F0004110EBD37094
:101D600021FA04F642EB06015EEA430E08BF20EAC0
:101D7000D37070BDC4F10C04C4F1200500FA04F363
:101D800020FA05F001FA04F240EA020001F00041F5
:101D900010EBD37041F100015EEA430E08BF20EA68
:101DA000D37070BDC4F1200500FA05F24EEA020EB0
:101DB00020FA04F301FA05F243EA020321FA04F0DF
:101DC00001F0004121FA04F220EA020000EBD37096
:101DD0005EEA430E08BF20EAD37070BD94F0000F96
:101DE0000FD101F00046400041EB010111F4801FCA
:101DF00008BF013CF7D041EA060195F0000F18BF7B
:101E0000704703F00046520043EB030313F4801FB6
:101E100008BF013DF7D043EA0603704794EA0C0F70
:101E20000CEA135518BF95EA0C0F0CD050EA410686
:101E300018BF52EA4306D1D181EA030101F0004103
:101E40004FF0000070BD50EA410606BF104619462B
:101E500052EA430619D094EA0C0F02D150EA013637
:101E600013D195EA0C0F05D152EA03361CBF104678
:101E700019460AD181EA030101F0004141F0FE4117
:101E800041F470014FF0000070BD41F0FE4141F49B
:101E9000780170BD70B54FF0FF0C4CF4E06C1CEA9B
:101EA00011541DBF1CEA135594EA0C0F95EA0C0F50
:101EB00000F0A7F8A4EB050481EA030E52EA03350B
:101EC0004FEA013100F088804FEA03334FF080552C
:101ED00045EA131343EA12634FEA022245EA111559
:101EE00045EA10654FEA00260EF000419D4208BF0A
:101EF000964244F1FD0404F5407402D25B084FEAB7
:101F00003202B61A65EB03055B084FEA32024FF462
:101F100080104FF4002CB6EB020E75EB030E22BFBF
:101F2000B61A754640EA0C005B084FEA3202B6EB7F
:101F3000020E75EB030E22BFB61A754640EA5C002E
:101F40005B084FEA3202B6EB020E75EB030E22BFBE
:101F5000B61A754640EA9C005B084FEA3202B6EBBF
:101F6000020E75EB030E22BFB61A754640EADC007E
:101F700055EA060E18D04FEA051545EA16754FEAE0
:101F800006164FEAC30343EA52734FEAC2025FEAFE
:101F90001C1CC0D111F4801F0BD141EA00014FF08D
:101FA00000004FF0004CB6E711F4801F04BF01435E
:101FB0000020B4F1FD0C88BFBCF5E06F3FF6AFAE7A
:101FC000B5EB030C04BFB6EB020C5FEA500C50F10A
:101FD000000041EB045170BD0EF0004E4EEA11318D
:101FE00014EB5C04C2BFD4EB0C0541EA045170BD94
:101FF00041F480114FF0000E013C90E645EA060ED8
:102000008DE60CEA135594EA0C0F08BF95EA0C0F05
:102010003FF43BAF94EA0C0F0AD150EA01347FF44D
:1020200034AF95EA0C0F7FF425AF104619462CE724
:1020300095EA0C0F06D152EA03353FF4FDAE104687
:10204000194622E750EA410618BF52EA43067FF4D8
:10205000C5AE50EA41047FF40DAF52EA43057FF468
:10206000EBAE12E74FF0FF3C06E000BF4FF0010C73
:1020700002E000BF4FF0010C4DF804CD4FEA410CD7
:102080007FEA6C5C4FEA430C18BF7FEA6C5C1BD0A4
:1020900001B050EA410C0CBF52EA430C91EA030F25
:1020A00002BF90EA020F0020704710F1000F91EA82
:1020B000030F58BF994208BF90422CBFD8176FEA50
:1020C000E37040F0010070474FEA410C7FEA6C5C1E
:1020D00002D150EA013C07D14FEA430C7FEA6C5C25
:1020E000D6D152EA033CD3D05DF8040B704700BF51
:1020F0008446104662468C461946634600E000BF9F
:1021000001B5FFF7B7FF002848BF10F1000F01BD70
:102110004DF808EDFFF7F4FF0CBF012000205DF83B
:1021200008FB00BF4DF808EDFFF7EAFF34BF0120C0
:1021300000205DF808FB00BF4DF808EDFFF7E0FF59
:1021400094BF012000205DF808FB00BF4DF808EDAA
:10215000FFF7CEFF94BF012000205DF808FB00BF11
:102160004DF808EDFFF7C4FF34BF012000205DF8F3
:1021700008FB00BF4FEA410C7FEA6C5C02D150EAD9
:10218000013C0AD14FEA430C7FEA6C5C02D152EA6F
:10219000033C02D14FF0000070474FF00100704740
:1021A0004FEA410212F5001215D211D56FF478737F
:1021B000B3EB625212D94FEAC12343F0004343EA22
:1021C000505311F0004F23FA02F018BF40427047FD
:1021D0004FF00000704750EA013005D111F0004087
:1021E00008BF6FF0004070474FF00000704700BF1D
:1021F0007BB972B90029BEBF00204FF0004106E054
:1022000008BF00281CBF6FF000414FF0FF3000F006
:1022100003BAADF1080C6DE904CE002909DB002BEF
:102220001ADB00F083F8DDF804E0DDE9022304B0F6
:102230007047404261EB4101002B1BDB00F076F858
:10224000DDF804E0DDE9022304B0404261EB410126
:10225000524263EB43037047524263EB430300F087
:1022600065F8DDF804E0DDE9022304B0404261EBEB
:1022700041017047524263EB430300F057F8DDF829
:1022800004E0DDE9022304B0524263EB43037047EC
:1022900053B94AB9002908BF00281CBF4FF0FF31CD
:1022A0004FF0FF3000F0B8B9ADF1080C6DE904CE85
:1022B00000F03CF8DDF804E0DDE9022304B07047EB
:1022C00038B50022002304460D46FFF72BFF28B93E
:1022D00020462946BDE8384000F00AB8204605F1FE
:1022E000004100F005F8404261EB410138BD00BFFC
:1022F000D0B500220B4B06460F46FFF7A1FC00F0BD
:102300008DF90446FFF722FC0022074BFFF798FCEB
:1023100002460B4630463946FFF7DAFA00F07EF9FE
:102320002146D0BD0000F03D0000F0412DE9F04F06
:10233000099D04460F46002B48D18A42944661D934
:10234000B2FA82F343B1C3F120019F4002FA03FCC9
:102350009C4020FA01F10F434FEA1C411FFA8CFE0A
:10236000220CB7FBF1F601FB167706FB0EF042EAF2
:102370000742904208D91CEB020206F1FF3702D255
:10238000904200F237813E46121AA4B2B2FBF1F03D
:1023900001FB102200FB0EFE44EA0244A64508D9C8
:1023A0001CEB040400F1FF3202D2A64500F21C81AE
:1023B000104640EA0640A4EB0E0400261DB1DC40A6
:1023C0000023C5E900433146BDE8F08F8B4209D9AF
:1023D000002D00F0FD800026C5E9000130463146A1
:1023E000BDE8F08FB3FA83F6002E4BD18B42C0F0DC
:1023F000F280824240F2EF803046002DE3D0C5E902
:102400000047E0E702B9FFDEB2FA82F3002B40F0AA
:102410009D80891A4FEA124E97B20126200CB1FB1B
:10242000FEF20EFB121140EA014107FB02F0884266
:102430000FD91CEB010102F1FF382CBF4FF001094D
:102440004FF00009884203D9B9F1000F00F0CF80A6
:102450004246091AA4B2B1FBFEF00EFB101100FBBC
:1024600007F744EA0144A74208D91CEB040400F131
:10247000FF3102D2A74200F2B4800846E41B40EAD2
:1024800002409BE7C6F12007B34001FA06F422FAA6
:1024900007FCF940B2404CEA030C20FA07F34FEA7C
:1024A0001C491C431FFA8CFE00FA06F3200CB1FBFA
:1024B000F9F809FB181140EA014108FB0EF08842C7
:1024C0000FD91CEB010108F1FF3A2CBF4FF0010BB3
:1024D0004FF0000B884203D9BBF1000F00F08D8054
:1024E000D046091AA4B2B1FBF9F009FB101100FBA8
:1024F0000EFE44EA01418E4507D91CEB010100F1B3
:10250000FF3401D28E457FD8204640EA0840A1EB37
:102510000E01A0FB029841454C46C64602D306D1A7
:102520004B4504D20138B9EB020468EB0C0E002DC8
:1025300070D01A1B61EB0E0122FA06F301FA07F7BD
:10254000F14000261F43C5E900713CE702FA03FC95
:10255000C3F1200001FA03F221FA00F64FEA1C4E03
:1025600024FA00F11FFA8CF79C401143B6FBFEF0F1
:102570000A0C0EFB106642EA064200FB07F6964282
:102580000ED91CEB020200F1FF382CBF4FF00109FD
:102590004FF00009964202D9B9F1000F31D0404600
:1025A000921B89B2B2FBFEF60EFB162241EA0241F3
:1025B00006FB07F28A4207D91CEB010106F1FF383E
:1025C00001D28A4223D84646891A46EA004625E7C0
:1025D0002E462846F7E6841A61EB030301201F46C6
:1025E0000BE76444023849E764440238E1E6023A02
:1025F00061442EE7023E6244C6E6A8F10208614447
:102600006FE702386244CBE7023861447DE7023E5F
:102610006144D9E72E46D6E6704700BF4A0011D282
:1026200012F5001211D20DD56FF47873B3EB62522C
:102630000ED44FEAC12343F0004343EA505323FA38
:1026400002F070474FF00000704750EA013002D1AD
:102650004FF0FF3070474FF00000704780B483B0F8
:1026600000AF0346FB80B7F90630002B12DBFB8876
:1026700003F01F020A49B7F906305B09012000FA8E
:1026800002F2203341F82320BFF34F8F00BFBFF386
:102690006F8F00BF00BF0C37BD465DF8047B7047ED
:1026A00000E100E080B483B000AF03463960FB80F6
:1026B000B7F90630002B0ADB3B68DAB20C49B7F9F0
:1026C00006305201D2B20B4483F800230AE03B6883
:1026D000DAB20849FB8803F00F03043B5201D2B27F
:1026E0000B441A7600BF0C37BD465DF8047B70477B
:1026F00000E100E000ED00E080B584B000AF0346EB
:10270000FB800023FB60B7F9063013F1800F02D184
:102710000123FB6004E0B7F906301846FFF79EFF7F
:10272000FB6818461037BD4680BD000080B400AF7E
:10273000044BD3F80C3403F07F031846BD465DF814
:10274000047B704700B0034080B582B000AF786072
:102750007B6823F07F03002B06D0074B074A4FF41A
:102760008171074865F0EEFF064A7B68136100BF80
:102770000837BD4680BD00BF8CC106084050080820
:10278000BCC106080010034080B483B000AF78607D
:1027900039607B683A685A6000BF0C37BD465DF807
:1027A000047B704780B483B000AF786039607B6889
:1027B0003A689A6000BF0C37BD465DF8047B7047ED
:1027C00080B485B000AF78607B689B68FB607B68F5
:1027D0009B68BB60FA68BB689A42F5D1BB68184633
:1027E0001437BD465DF8047B704780B483B000AFFA
:1027F00078600B46FB70FB78002B06D07B681B686B
:1028000043F010027B681A6005E07B681B6823F0C8
:1028100010027B681A6000BF0C37BD465DF8047B70
:10282000704780B485B000AF786039607B681B6802
:10283000FB60FB6823F00C03FB60FA683B68134302
:10284000FB607B68FA681A6000BF1437BD465DF80C
:10285000047B704780B483B000AF78600B46FB7098
:10286000FB78002B06D07B681B6843F080027B68F6
:102870001A6005E07B681B6823F080027B681A60A1
:1028800000BF0C37BD465DF8047B704780B485B04F
:1028900000AF78600023FB6011E01B4AFB6852F830
:1028A0002330002B08D0184AFB6852F823307A688E
:1028B0009A4201D1002321E0FB680133FB60FB68F1
:1028C000032BEAD90023FB600EE00F4AFB6852F8A5
:1028D0002330002B05D10C49FB687A6841F823208E
:1028E00005E0FB680133FB60FB68032BEDD9FB6857
:1028F000042B02D14FF0FF3300E0002318461437B9
:10290000BD465DF8047B7047EC1F052080B500AF25
:1029100001F0A0FA1E4BB3F1006F03D31C4BB3F1CF
:10292000805F07D31A4BB3F1C05F23D3184BB3F1C9
:10293000005F1FD201F03AFE85F012FD012028F061
:10294000E5F9144827F0B6FC85F0E2FD40F21110DD
:1029500027F0B0FC0A2027F0ADFC4FF4807027F080
:10296000A9FC40F2111027F059FB4FF4807027F0BA
:1029700055FB01E001F07EFD01F078FB064866F0B2
:1029800017FE58F089FB05482DF0BCFE00BF80BD46
:102990006D400008050001009C0C00200000034071
:1029A00080B582B000AF03463A60FB710B46BB7145
:1029B000104B1B68012B02D043F6206316E0FB7915
:1029C000002B07D1BB79032B0FD158F075FB29F0F1
:1029D000D1FF0AE0FB79012B07D1BB79032B04D18E
:1029E000FFF794FF044B00221A70002318460837A3
:1029F000BD4680BD807D07207C7D0720B0B584B0BA
:102A000000AFC7E900011248FFF7DAFEF860D7E926
:102A100000231049541843F100050F4A4FF00003FA
:102A200020462946FFF734FC02460B46FB68134458
:102A3000FB60F9680648FFF7A7FE08482EF074FD12
:102A400001210348FFF706FF00BF1037BD46B0BDA8
:102A5000000003403F420F0040420F00342C03208F
:102A600080B500AF00210A48FFF7F4FE00210848B6
:102A7000FFF78AFE00210648FFF794FE05482EF076
:102A8000ADFD04210248FFF7CCFE00BF80BD00BFB2
:102A900000000340342C032080B582B002AF202018
:102AA000FFF72AFE202066F099F9202066F052FBFD
:102AB0000A482DF027FE01210848FFF796FE042161
:102AC0000648FFF7AEFE002300930023044A0549A1
:102AD00005482EF05DFC00BFBD4680BD00000340F0
:102AE000612A0008FD290008602B032080B500AF93
:102AF000142200210A4868F037FD142200210948F9
:102B000068F032FD01230022482105482EF0B4FC74
:102B100000230022202103482EF0AEFC00BF80BD20
:102B2000202C0320342C032080B500AF10482EF059
:102B3000B9FAFFF7B1FF03212020FFF7B3FD03210E
:102B40006520FFF7AFFD0B4900202EF065FC0A4918
:102B500002202EF061FCFFF7C9FF01202EF01AFBC6
:102B60000648FFF793FE064B00221A6000BF80BDA7
:102B7000602B0320201F0020A00C00203932000809
:102B800060FD042080B582B000AF0C4866F010FDF7
:102B9000FFF7CCFD78607968094829F01DFF786857
:102BA000FFF7D2FDFFF7C0FF03216520FFF77AFD95
:102BB000002318460837BD4680BD00BF9C0C00208E
:102BC00008C2060880B483B000AF0346FB80B7F9A3
:102BD0000630002B0BDBFB8803F01F020749B7F917
:102BE00006305B09012000FA02F241F8232000BF01
:102BF0000C37BD465DF8047B704700BF00E100E084
:102C000080B483B000AF0346FB80B7F90630002BD9
:102C100012DBFB8803F01F020A49B7F906305B0993
:102C2000012000FA02F2203341F82320BFF34F8F36
:102C300000BFBFF36F8F00BF00BF0C37BD465DF80C
:102C4000047B704700E100E080B483B000AF03462E
:102C5000FB80B7F90630002B0CDBFB8803F01F026A
:102C60000749B7F906305B09012000FA02F2603328
:102C700041F8232000BF0C37BD465DF8047B704748
:102C800000E100E080B584B000AF0346FB80002384
:102C9000FB60B7F9063013F1800F02D10123FB600E
:102CA00004E0B7F906301846FFF78CFFFB681846BA
:102CB0001037BD4680BD80B584B000AF0346FB80B1
:102CC0000023FB60B7F9063013F1800F02D1012316
:102CD000FB6004E0B7F906301846FFF791FFFB6888
:102CE00018461037BD4680BD80B483B000AFEFF307
:102CF00010833B603B687B6072B600BF7B68184600
:102D00000C37BD465DF8047B704780B485B000AFDA
:102D100078607B68FB60FB6883F3108800BF00BFAE
:102D20001437BD465DF8047B7047000080B483B063
:102D300000AF03460A46FB711346BB710A4B5A6942
:102D4000FB79012101FA03F3DB431A40B979FB79DE
:102D500001FA03F3044913434B6100BF0C37BD462E
:102D60005DF8047B704700BF0010034080B483B05F
:102D700000AF78607B681B6803F00C0318460C37C3
:102D8000BD465DF8047B704780B485B000AF7860C5
:102D900039607B681B68FB60FB6823F00C03FB60F9
:102DA000FA683B681343FB607B68FA681A6000BFEF
:102DB0001437BD465DF8047B7047000080B483B0D3
:102DC00000AF786039603A680B4B13403B603A685B
:102DD0000A4B13403A68120CD2B21A437B68DA608D
:102DE0003A68074B13407A68C2F8103E00BF0C37B0
:102DF000BD465DF8047B70470FF8290000FF010015
:102E00000F00000F80B500AF0C48FFF7AFFF03467F
:102E100003F00403002B0FD004210848FFF7B4FF90
:102E20002020FFF748FF202065F0D8FF202066F023
:102E300091F9034B02221A6000BF80BD00000340DD
:102E400060FD042080B500AF01210120FFF76EFF77
:102E50006520FFF7F9FE6520FFF72DFF652065F07F
:102E6000BDFF652066F076F9024B04221A6000BFB0
:102E700080BD00BF60FD042080B582B000AF7860E7
:102E800085F076FB00BF0837BD4680BD80B582B0B7
:102E900000AF78603960114A114B1B6993620F4A89
:102EA0000F4B5B6913620F4A0D4B9B68C2F860358C
:102EB0000C4A0B4BDB68C2F864350B4A084B1B68A5
:102EC000C2F83034084A064B5B68C2F8343466F006
:102ED000CBFF00BF0837BD4680BD00BF009010404B
:102EE000582C0320001002400010004080B500AFB5
:102EF000054B1B7A032B04D1044B01221A7058F0A6
:102F0000E5F800BF80BD00BF602B03207C7D07205B
:102F100080B582B000AF786000210120FFF706FF86
:102F20006520FFF791FE6520FFF7ACFE652065F098
:102F300055FF652066F01CF8482065F04FFF4820DB
:102F400066F016F879680D4829F046FD7B68022B7B
:102F50000FD10A210A48FFF731FF112065F03EFF2B
:102F6000112066F005F8002300220021054866F0D4
:102F700097FB00BF0837BD4680BD00BF48C20608AA
:102F8000009010400100002080B584B000AF786050
:102F9000FFF7AAFEF86001210120FFF7C7FE6520B8
:102FA000FFF752FE6520FFF786FE652065F016FFED
:102FB000652066F0CFF8F868FFF7A7FE482065F0B7
:102FC0000DFF7B68022B18D1112065F017FE034618
:102FD000002B02D0144B08221A60112065F0FEFE6F
:102FE000112066F0B7F8002300220021002066F0CF
:102FF00057FB00210220FFF749FF0C4B1B7883F0A1
:103000000103DBB2002B08D0094B1B68022B04D153
:1030100084F046FE07482BF0DBFA074829F0DCFC79
:1030200000BF1037BD4680BD60FD0420847D0720B1
:10303000787D0720482C032064C2060880B500AFC5
:103040000F4B1B68012B02D185F0FAFA16E00C4BEE
:103050001B68022B03D10B4829F0BEFC0EE0084B85
:103060001B68042B03D1084829F0B6FC06E0044B8A
:103070001B68082B02D1054829F0AEFC00BF80BDBB
:1030800060FD04207CC2060890C20608A4C206089F
:1030900080B483B000AF78607B684FF4C0121A60D0
:1030A0007B6800225A607B6804229A607B684FF438
:1030B0008072DA607B6800221A6100BF0C37BD465F
:1030C0005DF8047B7047000080B588B000AF786081
:1030D000244B1B7883F00103DBB2002B03D0224882
:1030E00029F07AFC3BE007F10C031422002118467A
:1030F00068F03AFA7B68012B04DD07F10C031846EF
:10310000FFF7C6FF7868FFF703FF7B6807F10C0243
:103110001146184684F01CFD7B68032B01D1FFF794
:10312000F5FB4FF077FE0346002B01D04CF0BCFAC4
:103130007868FFF729FF7B68012B06D10B4829F03F
:103140004BFC0B4829F048FC01E0FFF777FF094BE7
:1031500000221A6084F044FE024B00221A702037CD
:10316000BD4680BD847D0720BCC20608E4C20608B7
:10317000F8C2060860FD042080B584B000AF786016
:1031800039600023FB607B68012B12DC194829F0B1
:1031900023FC194829F020FC184829F01DFC184888
:1031A00029F01AFC174829F017FC174829F014FCDD
:1031B0001CE03B6804331B68184668F069F9F86046
:1031C000FB68002B02DDFB68042B06DD0F4829F0AD
:1031D00003FC0F4829F000FC08E0FB68042B02D137
:1031E0000C4829F0F9FBF868FFF76EFF1037BD4671
:1031F00080BD00BF38C3060860C306086CC306085C
:103200008CC30608ACC30608B8C30608D0C30608BA
:10321000ECC3060814C4060880B400AF054BD3F80D
:103220001431DBB203F00F03DBB21846BD465DF884
:10323000047B70470010004580B586B006AF494B4F
:103240001B68002B00F08A80474B1B78002B00F096
:10325000858084F0EDFD0346002B7FD1FFF7DCFF76
:103260000346012B04D0FFF7D7FF0346022B17D1EB
:103270004FF48063049340F21713039340F2151345
:10328000029340F21313019340F21113009340F2A2
:103290000F1340F20D12072103202EF0F1F916E072
:1032A0004FF48063049340F2162303934FF40573A5
:1032B000029340F2122301934FF40473009340F2FF
:1032C0000E234FF40372072102202EF0D9F9274B69
:1032D000D3E90023104619462DF0C8FFFFF7AEFED4
:1032E000234B00221A6084F07BFDFFF795FF034615
:1032F000012B04D0FFF790FF0346022B17D14FF4A8
:103300008063049340F21713039340F21513029362
:1033100040F21313019340F21113009340F20F1384
:1033200040F20D12072103202EF0DCFA16E04FF4D4
:103330008063049340F2162303934FF405730293C2
:1033400040F2122301934FF40473009340F20E23D2
:103350004FF40372072102202EF0C4FA00BFBD46CD
:1033600080BD00BF787D0720602B0320502C0320F8
:1033700060FD042080B582B000AF00237B6012E0C6
:103380007A6813465B0013449B000B4A13441846AB
:1033900057F0FAFD0346002B02D04FF0FF3306E052
:1033A0007B6801337B607B68002BE9D000231846E3
:1033B0000837BD4680BD00BFB00C002080B584B08A
:1033C00004AFFFF7DFFB0346002B05D00B4829F0C5
:1033D00003FB4FF0FF330DE0012302930023019321
:1033E00000230093064B41F28832064906482BF031
:1033F00037F901231846BD4680BD00BFA8C40608A2
:10340000792E0008BCC40608482C032080B582B081
:1034100000AF78607B68184684F0CAFD00BF0837AB
:10342000BD4680BD80B483B000AF78607B6818462D
:103430000C37BD465DF8047B70470000B0B586B020
:1034400004AF78607B681B7818467B6801331B7873
:103450001C467B6802331B781D467B6803331B7850
:103460001A467B6804331B7819467B6805331B7842
:103470000293019100922B4622460146034829F00F
:10348000ABFA00BF0837BD46B0BD00BFC8C40608D0
:1034900080B584B000AF786039607B68FB6007F16D
:1034A0000C03184642F068FE03461946386868F077
:1034B000B4F900BF1037BD4680BD000080B500AF35
:1034C000024829F089FA00BF80BD00BFE8C40608A1
:1034D000B0B59EB000AF03463960FB713B683B67F7
:1034E000FFF7ECFFFB791946BA4829F075FAFFF7A8
:1034F000E5FFFB79212B00F22E8201A252F823F086
:10350000733600086B360008693700087137000809
:1035100079370008A5370008AD370008C337000821
:10352000CB37000857390008B5370008893500083F
:1035300063360008473900084F3900085938000839
:10354000AB380008CD380008EF38000857390008BC
:103550005739000821390008573900086339000835
:1035600063390008633900086339000863390008CB
:1035700063390008633900086339000863390008BB
:103580006339000863390008934829F025FAFFF7EA
:1035900095FF5AF0FFF8F866FB6E002B04D08F48B9
:1035A00029F01AFA0023E0E165F080F8F866FB6E76
:1035B000002B04D08A4829F00FFA0023D5E189486E
:1035C00029F00AFAFFF77AFF5BF02AFEF866FB6E35
:1035D000002B04D0824829F0FFF90023C5E182487E
:1035E00029F0FAF9FFF76AFFFFF7C4FEF866FB6EF1
:1035F000002B04D07A4829F0EFF90023B5E17B488D
:1036000029F0EAF9FFF75AFF58F0ACFCF866FB6EB8
:10361000002B04D0764829F0DFF90023A5E159F00A
:10362000FFFFF866FB6E002B04D0724829F0D4F936
:1036300000239AE165F062F8F866FB6E002B04D077
:103640006D4829F0C9F900238FE16C4829F0C4F9CD
:10365000FFF734FF0021002057F04CFCFFF72EFF4E
:1036600082E1674829F0B8F97EE1664829F0B4F9AB
:103670007AE1654829F0B0F907F11803184651F0CE
:10368000DDFBF866FB6E002B04D0604829F0A4F93E
:1036900000236AE1BB6D07F1080211461846FFF7E7
:1036A000F7FE5B4850F0B8FAF866FB6E002B04D0CA
:1036B000584829F091F9002357E1574829F08CF92F
:1036C0005649574829F088F9BB6D002B05D007F102
:1036D00008031946534829F07FF900237B6739E036
:1036E0007A6F13469B0013449B0078333B444F3B57
:1036F0001B7803F01003002B29D007F118017A6F13
:1037000013469B0013449B000B44184649F026FCCB
:10371000044607F118017A6F13469B0013449B007F
:103720000B44184634F036FB05467A6F13469B006F
:1037300013449B0078333B444F3B1B78184649F0B9
:10374000E1FB03462A462146374829F045F97B6FBD
:1037500001337B677B6F022BC2DD344829F03CF9D3
:10376000334B00221A60FFE0324829F035F9FBE0C4
:10377000314829F031F9F7E0304829F02DF92C4B88
:103780001B6801332A4A1360294B1B68022B40F344
:10379000EA802B4829F020F950F05EFC244B0022EF
:1037A0001A60E0E0274829F017F9DDE0264829F003
:1037B00013F9D9E0254829F00FF91D4B00221A60B2
:1037C000D2E0234829F008F9CEE0224829F004F994
:1037D000CAE000BF14C5060838C5060854C5060867
:1037E0007CC50608A0C50608BCC50608E4C50608D1
:1037F00008C6060828C606084CC6060874C6060889
:1038000088C60608B0C60608DCC6060804C706084F
:10381000802C032020C7060844C70608A02C0320DC
:1038200064C7060874C706088CC70608ACC7060834
:10383000B0300320B0C70608D0C70608F4C7060892
:1038400024C8060850C8060870C806089CC80608A0
:10385000B4C80608D0C80608464829F0BDF846484E
:1038600050F012FAF866FB6E002B04D0434829F0A2
:10387000B3F8002379E0FFF721FE4149414829F0E0
:10388000ABF8FFF71BFE49F075FE0346184647F0FC
:1038900011FE0346002B02D03B4829F09DF83B481F
:1038A00029F09AF8FFF70AFE5EE0394829F094F80B
:1038B000FFF704FE374829F08FF83868FFF7BEFDA0
:1038C000354829F089F8FFF7F9FD4DE0334829F034
:1038D00083F8FFF7F3FD2F4829F07EF83868FFF7EB
:1038E000ADFD2F4829F078F8FFF7E8FD3CE0FFF741
:1038F000E5FD2C4829F070F82B4829F06DF83B6F56
:1039000004331846FFF79AFD284829F065F83B6F05
:103910001B681946264829F05FF8FFF7CFFD23E022
:10392000244829F059F8FFF7C9FD1549224829F024
:1039300053F8FFF7C3FD47F0F5FD204829F04CF898
:10394000FFF7BCFD10E01E4829F046F80CE01D48CA
:1039500029F042F808E0FB7919461B4829F03CF8A9
:1039600002E000BF00E000BF002318467837BD46E4
:10397000B0BD00BFF0C80608982E03200CC9060889
:10398000B82E03202CC9060850C9060870C90608BD
:1039900094C90608BCC90608C8C90608E4C90608CF
:1039A0000CCA060828CA060850CA060860CA0608D3
:1039B00074CA06087CCA060898CA0608BCCA060863
:1039C000E0CA0608FCCA060814CB060880B582B017
:1039D00000AF00237B60134B1B68134A126811462B
:1039E00018464FF007F978607B68002B06D00F4B24
:1039F0000F4A40F241110F4864F0A4FE0E484FF008
:103A000039FA78607B68002B06D0084B084A40F2F0
:103A10004511084864F096FE7B6818460837BD4695
:103A200080BD00BF702C0320742C032038CB060807
:103A30005850080844CB0608D134000880B584B03B
:103A400000AF78600023FB60FFF7B8FC164828F051
:103A5000C3FFFFF733FD57F045FBF860FB68002B11
:103A600006D0124B124A40F29311124864F06AFEDB
:103A7000114828F0B1FFFFF721FDFFF7A7FFF8601D
:103A8000FB68002B06D0094B094A40F29B110948FC
:103A900064F058FE41F28830FFF7C4FC0346184634
:103AA000FFF7B4FCF6E700BF9CCB0608B0CB0608D6
:103AB0006C50080844CB0608C8CB060880B584B013
:103AC00002AF00237B6000F0C5F9314BB3F1006F0A
:103AD00003D32F4BB3F1805F07D32D4BB3F1C05FFE
:103AE00023D32B4BB3F1005F1FD200F05FFD84F0B6
:103AF00037FC012027F00AF9264826F0DBFB84F08A
:103B000007FD40F2111026F0D5FB0A2026F0D2FB6B
:103B10004FF4807026F0CEFB40F2111026F07EFAB2
:103B20004FF4807026F07AFA01E000F0A3FC00F078
:103B30009DFA1C2026F072FA002065F001FC00F0CE
:103B4000B7FA65F0C7FEFFF7B9FC134828F044FF49
:103B5000FFF7B4FC4FF448731846104B1B68012262
:103B600011460F4A0192009102460E490E4884F018
:103B7000B7FA78607B68012B06D00C4B0C4A4FF4E7
:103B8000EB710C4864F0DEFD84F06AFAFEE700BFDA
:103B90006D40000805000100E4CB0608782C0320E6
:103BA0007C2C0320F4CB06083D3A0008FCCB060829
:103BB0007850080844CB060880B586B000AFF8609E
:103BC000B9607A603B609D4B7B613B6803F40033D6
:103BD000002B08D04FF040231A68BB68DB434FF03E
:103BE000402113400B603B6803F48033002B11D05D
:103BF0004FF040231A6BFB68DB434FF0402113402A
:103C00000B634FF040235A6BBB68DB434FF04021FE
:103C100013404B633B681B0B03F00F030F2B25D1A5
:103C20003B6AB3F5004F06D0854B864A40F2B96136
:103C3000854864F087FD4FF040239B684FF0402299
:103C400023F0800393604FF04023DB684FF0402265
:103C500023F49F6323F00503D3604FF040231B69D7
:103C60004FF0402223F48763136119E03B68C3F3EC
:103C70000A03002B14D03B681B0B03F00F039B00BF
:103C80007A69134419683B68C3F30A03DA433B6853
:103C90001B0B03F00F039B00786903440A401A6072
:103CA0007B6A002B08D04FF040231A6A7B6ADB4303
:103CB0004FF0402113400B62FB6AC3F30E03002B4D
:103CC0000AD04FF040235A6AFB6AC3F30E03DB436A
:103CD0004FF0402113404B62FB6A1B0CC3F30E03F1
:103CE000002B0BD04FF040239A6AFB6A1B0CC3F3E6
:103CF0000E03DB434FF0402113408B627B6B002BA4
:103D000008D04FF04023DA6A7B6BDB434FF0402151
:103D10001340CB627B6803F40033002B07D04FF0D5
:103D200040231A684FF04021BB6813430B607B6847
:103D300003F48033002B0FD04FF040231A6B4FF069
:103D40004021FB6813430B634FF040235A6B4FF045
:103D50004021BB6813434B637B68C3F30A03002B0A
:103D600013D07B681B0B03F00F039B007A6913448D
:103D700019687B68C3F30A027B681B0B03F00F030F
:103D80009B00786903440A431A603B6A002B07D002
:103D90004FF040231A6A4FF040213B6A13430B62F5
:103DA000BB6AC3F30E03002B09D04FF040235A6ABD
:103DB000BB6AC3F30E034FF0402113434B62BB6A4F
:103DC0001B0CC3F30E03002B0AD04FF040239A6A5A
:103DD000BB6A1B0CC3F30E034FF0402113438B62ED
:103DE0003B6B002B07D04FF04023DA6A4FF04021A5
:103DF0003B6B1343CB62FB6803F07C633B61134B6B
:103E0000D3F838253B69D943FB680B400F4913436E
:103E1000C1F838350D4BD3F83C250C49BB6813432A
:103E2000C1F83C350A4BD3F8382509493B6913439F
:103E3000C1F8383500BF1837BD4680BD044000408A
:103E400010CC06088050080840CC06080010004539
:103E50000008004580B500AF00F002F800BF80BD4B
:103E600080B586B006AF4FF001130593002304938D
:103E70000023039300230293002301930023009364
:103E8000264B4FF4007200210C20FFF795FE4FF0F7
:103E900010130593002304934FF040130393002362
:103EA00002934FF040430193002300931C4B4FF4C7
:103EB000485200214FF0A060FFF77EFE00230593DB
:103EC000002304934FF080130393002302934FF4D5
:103ED000803301930023009343F2ED034FF48032CB
:103EE00000214FF00070FFF767FE4FF002130593BB
:103EF0000023049300230393002302934FF4000351
:103F00000193002300932D234FF4803200211020D1
:103F1000FFF752FE00BFBD4680BD00BF2E0101006D
:103F2000EE31010080B586B000AF78600B46FB70C3
:103F30007B683F2B06D9244B244A40F23671244833
:103F400064F000FC7B6803F01F03FB600122FB6848
:103F500002FA03F3BB607B68152B02D97B681B2B2D
:103F60000CD97B681F2B04D81A4B7B611A4B3B6121
:103F700008E01A4B7B611A4B3B6103E0194B7B61F4
:103F8000194B3B61FB78022B07D17B691A68BB6830
:103F9000DB431A407B691A6011E07B691A68BB68D1
:103FA0001A437B691A603B691A68BB68DB431A4095
:103FB000F978FB6801FA03F31A433B691A6000BF02
:103FC0001837BD4680BD00BF8CCC06089450080849
:103FD00098CC06088C1000459810004590100045BC
:103FE0009C1000458C0800459808004580B584B0B9
:103FF00000AF78600B46FB707B68032B06D9174B2C
:10400000174A40F26971174864F09CFB4FF00112A7
:104010007B6802FA03F3FB60FB78022B07D1124B9B
:104020001A6BFB68DB43104913400B6311E00E4B26
:104030001A6BFB68DB431A4001217B6801FA03F32A
:104040001A43F9787B68103301FA03F306491343E6
:104050000B6300BF1037BD4680BD00BFE4CC06082F
:10406000B450080898CC06080010004580B582B00E
:1040700000AF00237B600D4B1B683B603B4618463E
:1040800026F04CFC4CF2685026F032FA032026F061
:10409000A7FC78607B6801224FF4E131032028F00F
:1040A000D3FB00BF0837BD4680BD00BFF0CC06087B
:1040B00080B582B000AF00237B6007E07B68002101
:1040C0001846FFF72FFF7B6801337B607B68152B59
:1040D000F4DD1C237B6007E07B6800211846FFF7B6
:1040E00021FF7B6801337B607B683F2BF4DD00237D
:1040F0007B6007E07B6800211846FFF777FF7B684D
:1041000001337B607B68032BF4DD00BF00BF083701
:10411000BD4680BD80B592B000AF786039607B68E5
:10412000DB683968184665F095FC02467B68DA6002
:104130004B4B0222C3F8A8274FF0804302225A6754
:1041400065F020FFC7E91001D7E910014FF0000228
:104150004FF000030A0000231346FB633B6CBB6374
:10416000FB6B44F2DD42934203D1BB6B3D4A934269
:1041700006D03D4B3D4A40F2A9113D4864F0E2FAB9
:10418000012065F0FBFFC7E90C01D7E90C014FF0F6
:1041900000024FF000030A0000231346FB623B6B52
:1041A000BB62FB6A43F2B942934203D1BB6A314A14
:1041B000934206D02C4B2D4A4FF4D9712C4864F011
:1041C000C1FA786866F094F8C7E90801D7E90801F0
:1041D0004FF000024FF000030A0000231346FB617A
:1041E0003B6ABB61FB6946F63C12934203D1BB6953
:1041F0001C4A934206D01C4B1C4A40F2BB111C487F
:1042000064F0A0FA012065F0B9FFC7E90401D7E91D
:1042100004014FF000024FF000030A000023134690
:10422000FB603B69BB60FB6843F2B942934203D138
:10423000BB68104A934206D00B4B0C4A4FF4E17115
:104240000B4864F07FFA00BF0B4B1B6803F00103BF
:10425000002BF9D100BF00BF4837BD4680BD00BF6D
:1042600000100040072E550514CD0608D45008084C
:104270001CCD0608032E55050070004080B58CB09B
:1042800000AF4D4BD3F81431DBB2FB6207F12003D2
:1042900018462CF0E1F9B86284F062F8BB6A002B92
:1042A00073D107F11C0318462CF0F8F9B862BB6A09
:1042B000002B0DD1FB6A022B04D1D7E9082313464A
:1042C0001B0C00E00023FA691146184665F056FB06
:1042D000BB6A002B06D13B46194695202CF0BCF852
:1042E000034600E0BB6ABB62BB6A002B07D13B46BA
:1042F0000433194696202CF0AFF8034600E0BB6A61
:10430000BB62BB6A002B07D13B4608331946972096
:104310002CF0A2F8034600E0BB6ABB62BB6A002B2C
:104320000DD1FB6A022B01D19B2200E098223B4673
:104330000C33194610462CF08FF8034600E0BB6A98
:10434000BB62BB6A002B07D13B461033194699204C
:104350002CF082F8034600E0BB6ABB62BB6A002B0C
:1043600007D13B46143319469A202CF075F80346C2
:1043700000E0BB6ABB62BB6A002B16D1FA693B4600
:1043800011461846FFF7C6FE0FE065F06DFD0B4BBA
:10439000062283F85A200A4B0A4A5A640A4B1B68C1
:1043A00019464FF4167025F0E3FC84F0B1F800BF15
:1043B0003037BD4680BD00BF0010004500200045DD
:1043C0000010034054602260C039002080B500AF67
:1043D0002CF002F8FFF752FF2CF018F8144BB3F151
:1043E000006F03D3124BB3F1805F07D3104BB3F1CF
:1043F000C05F09D30E4BB3F1005F05D20422062142
:104400000C4883F09DFD10E0102025F07FFD094849
:1044100083F056FC47F2206026F06AF8102025F061
:10442000DDFF102025F0F0FC00BF00BF80BD00BF05
:104430006D4000080040134080B500AF0B4BB3F156
:10444000006F03D3094BB3F1805F07D3074BB3F180
:10445000C05F08D3054BB3F1005F04D202220221F2
:10446000034883F06DFD00BF80BD00BF6D400008B4
:104470000040134080B500AF00F002F800BF80BDDF
:1044800080B500AF83F06CFF3B4B9B6A03F00203E7
:10449000002B02D1394825F00DFF394BD3F890306D
:1044A00003F40073002B02D0364825F003FF0120EF
:1044B00026F02CFC344825F0FDFE344825F0FAFEA9
:1044C000FFF784FF324826F013F801214FF4806093
:1044D00026F088F802212F4826F06EFB4FF480303A
:1044E00025F0E8FE012026F0B9FB2B4825F0E2FE7E
:1044F00001214FF4127026F075F8284826F050FE7E
:10450000012148F2402026F06DF801214FF480602F
:1045100026F068F801214FF4107026F063F842F29B
:10452000344025F0E5FF012140F2647026F05AF88E
:104530004FF4EC6025F0DCFF0D2148F2FC6026F022
:1045400051F8FFF779FF422025F0D2FF144BD3F842
:10455000283423F47C33124A43F47833C2F82834E5
:10456000642148F2687026F03DF883F0D1FF0D4BCE
:104570000D4A1A6000BF80BD0010034020000100FA
:1045800000300040090001000400010005000100A6
:1045900030043404006CF7B903000100E05008084F
:1045A00000100045C039002000497F0F80B500AFE2
:1045B00083F0D6FE092025F011FF40F2012025F0FE
:1045C0000DFF4FF4427025F009FF40F20A3025F04C
:1045D00005FF40F20B3025F001FF4FF4826025F01B
:1045E000FDFE40F2032025F0F9FE092025F00CFC29
:1045F00040F2012025F008FC4FF4427025F004FC45
:1046000040F20A3025F000FC40F20B3025F0FCFBB4
:104610004FF4826025F0F8FB2E4B9B6A03F00203F7
:10462000002B02D12C4825F045FE2C4BD3F89030BE
:1046300003F40073002B02D0294825F03BFE012033
:1046400026F064FB274825F035FEFFF7BFFE26481D
:1046500025F04EFF01214FF4806025F0C3FF0221B9
:10466000224826F0A9FA4FF4803025F023FE0121DC
:104670004FF4127025F0B6FF01214FF4806025F051
:10468000B1FF01214FF4107025F0ACFF42F234402D
:1046900025F02EFF012140F2647025F0A3FF4FF4B6
:1046A000EC6025F025FF0D2148F2FC6025F09AFF13
:1046B000FFF7C2FE0B4825F091FE26F05BFB26F0CB
:1046C00005FB26F0B9FD83F023FF094B094A1A6068
:1046D00000BF80BD001003402000010000300040FA
:1046E000090001000500010030043404006CF7B932
:1046F000C039002000497F0F80B582B000AF1C2078
:104700002DF062FA78607B68002B07D07B6800226E
:104710001A607B680433184600F0C0F97B681846BD
:104720000837BD4680BD80B58CB000AFF860B96079
:104730007A603B60FB687B620023BB6200233B62C4
:10474000FB68002B02D183F083FBFEE7BB6803F01C
:104750007F43002B02D083F07BFBFEE7BB68002B7E
:1047600002D183F075FBFEE783F0FAF90346002BD4
:1047700002D1BB6B002B01D1012300E00023002BF1
:1047800002D183F065FBFEE783F0C2FA7B6A1B6807
:10479000FB613A68B968F86900F04AF9B861BB6929
:1047A000002B0ED0FB69FB620023BB637B68002BF0
:1047B00028D07B6A1A68BB68DB431A407B6A1A60A0
:1047C00020E0BB6B002B04D1FB69FB6201233B6241
:1047D00018E07B68002B03D0BB6A43F08073BB6298
:1047E0003B68002B03D0BB6A43F08063BB627B6AEB
:1047F000181DBA68BB6A1343BA6B194683F010FFE1
:104800000023FB6283F0BCF97861BB6B002B2BD0DB
:104810007B69002B01D183F0C3FD83F049FAF86274
:10482000FB6A03F00073002B1AD183F009FD7B6A49
:104830001B68FB623A68B968F86A00F0F9F8034649
:10484000002B09D07B68002B06D07B6A1A68BB68F6
:10485000DB431A407B6A1A6001233B6283F018FE37
:10486000FB6A23F07F43FB62FB6A18463037BD4684
:1048700080BD80B584B000AF786039607B68FB6034
:104880007B68002B02D183F0E3FAFEE73B6803F07C
:104890007F43002B02D083F0DBFAFEE783F0D0FCED
:1048A000FB681B68BB60FB681A683B68DB431A4007
:1048B000FB681A6083F0ECFDBB6818461037BD46F4
:1048C00080BD80B58CB000AF786039600023BB62DA
:1048D0007B683B6200237B627B68002B02D183F004
:1048E000B7FAFEE73B6803F07F43002B02D083F06A
:1048F000AFFAFEE73B6A0433FB61FB690833BB6137
:1049000083F006FAFB69DB68FB623B6A1A683B6866
:104910001A433B6A1A603CE0FB6A5B687B61FB6A96
:104920001B683B6100237B623B6903F07F43FB60B4
:104930003B6923F07F433B61FB6803F08063002BFE
:1049400008D13B6A1A683B691340002B0BD0012346
:104950007B6208E03B6A1A683B6913403A699A42F5
:1049600001D101237B627B6A002B10D0FB6803F02E
:104970008073002B03D0BA6A3B691343BB623B6A66
:104980001B6843F000731946F86A83F0D1FC7B6919
:10499000FB62FA6ABB699A42BED13B6A1A68BB6A7B
:1049A000DB431A403B6A1A6083F0EAF83B6A1B68F3
:1049B00018463037BD4680BD80B584B000AF786002
:1049C0007B68FB60FB68002B02D183F041FAFEE7B5
:1049D000FB680433BB6083F09BF90FE0BB68DA68C7
:1049E000BB6808339A4202D183F032FAFEE7BB6813
:1049F000DB684FF00071184683F09AFCBB681B68B7
:104A0000002BEBD183F0BCF8F8682DF087F900BFDC
:104A10001037BD4680BD80B582B000AF7860396088
:104A200039687868FFF74DFF00BF0837BD4680BD85
:104A300080B487B000AFF860B9607A6000237B6112
:104A40007B68002B07D1FA68BB681340002B0AD0A3
:104A500001237B6107E0FA68BB681340BA689A4299
:104A600001D101237B617B6918461C37BD465DF887
:104A7000047B704780B586B000AFF860B9607A609B
:104A80007B68BA68F968044883F07AFD78617B69CD
:104A900018461837BD4680BD174A000880B483B059
:104AA00000AF78607B6803F108027B685A607B681E
:104AB0004FF0FF329A607B6803F108027B68DA608E
:104AC0007B6803F108027B681A617B6800221A6028
:104AD00000BF0C37BD465DF8047B704780B483B0DF
:104AE00000AF78607B6800221A6100BF0C37BD46BA
:104AF0005DF8047B704780B485B000AF78603960A2
:104B00007B685B68FB603B68FA685A60FB689A6880
:104B10003B689A60FB689B683A685A60FB683A6831
:104B20009A603B687A681A617B681B685A1C7B68CC
:104B30001A6000BF1437BD465DF8047B704780B42F
:104B400085B000AF786039603B681B68BB60BB68AC
:104B5000B3F1FF3F03D17B681B69FB600CE07B680E
:104B60000833FB6002E0FB685B68FB60FB685B6826
:104B70001B68BA689A42F6D2FB685A683B685A606A
:104B80003B685B683A689A603B68FA689A60FB68C1
:104B90003A685A603B687A681A617B681B685A1CDD
:104BA0007B681A6000BF1437BD465DF8047B704710
:104BB00080B485B000AF78607B681B69FB607B6860
:104BC0005B687A6892689A607B689B687A685268CA
:104BD0005A60FB685B687A689A4203D17B689A687E
:104BE000FB685A607B6800221A61FB681B685A1ECA
:104BF000FB681A60FB681B6818461437BD465DF8F1
:104C0000047B704780B487B000AFF8607A601A46C2
:104C10000B46FB721346BB720023FB75FB7A03F055
:104C20004003002B00F089817B68243BA02B00F21D
:104C3000818101A252F823F0BD4E0008354F0008D3
:104C4000354F0008354F0008BD4E0008354F0008AD
:104C5000354F0008354F0008BD4E0008354F00089D
:104C6000354F0008354F0008BD4E0008354F00088D
:104C7000354F0008354F0008C94E0008354F000871
:104C8000354F0008354F0008C94E0008354F000861
:104C9000354F0008354F0008C94E0008354F000851
:104CA000354F0008354F0008C94E0008354F000841
:104CB000354F0008354F0008354F0008354F0008C4
:104CC000354F0008354F0008354F0008354F0008B4
:104CD000354F0008354F0008354F0008354F0008A4
:104CE000354F0008354F0008354F0008354F000894
:104CF000354F0008354F0008354F0008354F000884
:104D0000354F0008354F0008354F0008354F000873
:104D1000354F0008354F0008354F0008354F000863
:104D2000354F0008354F0008354F0008354F000853
:104D3000354F0008354F0008E14E0008354F000898
:104D4000354F0008354F0008E14E0008354F000888
:104D5000354F0008354F0008E14E0008354F000878
:104D6000354F0008354F0008E14E0008354F000868
:104D7000354F0008354F0008ED4E0008354F00084C
:104D8000354F0008354F0008ED4E0008354F00083C
:104D9000354F0008354F0008ED4E0008354F00082C
:104DA000354F0008354F0008ED4E0008354F00081C
:104DB000354F0008354F0008054F0008354F0008F3
:104DC000354F0008354F0008054F0008354F0008E3
:104DD000354F0008354F0008054F0008354F0008D3
:104DE000354F0008354F0008054F0008354F0008C3
:104DF000354F0008354F0008354F0008114F0008A7
:104E0000354F0008354F0008354F0008114F000896
:104E1000354F0008354F0008354F0008114F000886
:104E2000354F0008354F0008354F0008114F000876
:104E3000354F0008354F0008354F00081D4F00085A
:104E4000354F0008354F0008354F00081D4F00084A
:104E5000354F0008354F0008354F00081D4F00083A
:104E6000354F0008354F0008354F00081D4F00082A
:104E7000354F0008354F0008354F0008354F000802
:104E8000354F0008354F0008294F0008354F0008FE
:104E9000354F0008354F0008294F0008354F0008EE
:104EA000354F0008354F0008294F0008354F0008DE
:104EB000354F0008354F0008294F0008BB7A042BF6
:104EC00002D12A23FB7539E0BB7A042B02D13A23A5
:104ED000FB7533E0BB7A052B02D13223FB752DE045
:104EE000BB7A042B02D16A23FB7527E0BB7A042B23
:104EF00002D17A23FB7521E0BB7A052B02D1722304
:104F0000FB751BE0BB7A042B02D18A23FB7515E0ED
:104F1000BB7A042B02D19B23FB750FE0BB7A042BD9
:104F200002D1AB23FB7509E0BB7A042B02D1BE236F
:104F3000FB7503E02A23FB7500E000BFFB7D1846EC
:104F40001C37BD465DF8047B704700BF80B485B058
:104F500000AF0346FB800023BB730123FB7317E004
:104F6000FA88FB7B013B5B0042FA03F303F0030387
:104F7000032B0AD0FB7B013B012202FA03F35AB256
:104F800097F90E3013435BB2BB73FB7B0133FB73AA
:104F9000FB7B082BE4D9BB7B18461437BD465DF874
:104FA000047B704780B485B000AF0346FB800023CC
:104FB000BB730123FB730FE0FA88FB7B013B5B00B3
:104FC00042FA03F303F00303032B02D0BB7B01334C
:104FD000BB73FB7B0133FB73FB7B082BECD9BB7BE7
:104FE00018461437BD465DF8047B704780B487B01F
:104FF00000AFF860B9601346FB71FB681B683B614A
:10500000FB7903F00403002B04D03B69D3F8B833D9
:105010007B6103E03B69D3F8B4337B61BB687A6999
:105020001A60BB681B6803F00303002B05D0BB6844
:105030001B6823F00302BB681A6000BF1C37BD4623
:105040005DF8047B7047000080B58EB002AFF86059
:105050000B467A60FB720023FB62FB681B68FB61F6
:1050600000237B8500237B620023BB6100237B61DF
:10507000002387F82330FB7A012B40F0A381FB68E3
:105080009B79002B06D17B685B68032B02D14FF024
:10509000FF3326E2FB689B79012B06D17B685B68B6
:1050A000032B02D04FF0FF331BE27B68DA68FB6909
:1050B000D3F8A8331A409F4B13407B627B68DB68B0
:1050C00003F00303BB61FB69D3F8A83303F00303C8
:1050D0007B617A69BB69934228BF134603F00303DF
:1050E0007A6A13437B627B68DB689B0803F00303E7
:1050F000BB61FB69D3F8A8339B0803F003037B6112
:105100007A69BB69934228BF13469B0003F00C03E6
:105110007A6A13437B627B68DB681B0A03F0070330
:10512000BB61FB69D3F8A8331B0A03F007037B615B
:105130007A69BB69934228BF13461B0203F4E063FC
:105140007A6A13437B627B68DB685B0B03F00703BF
:10515000BB61FB69D3F8A8335B0B03F007037B61EA
:105160007A69BB69934228BF13465B039BB27A6A94
:1051700013437B627B68DB681B0C03F00703BB6196
:10518000FB69D3F8A8331B0C03F007037B617A6932
:10519000BB69934228BF13461B0403F4E0237A6AD9
:1051A00013437B627B68DB68DB0D03F00703BB61A5
:1051B000FB69D3F8A833DB0D03F007037B617A6941
:1051C000BB69934228BF1346DB0503F060737A6A1C
:1051D00013437B627B68DB689B0E03F00303BB61B8
:1051E000FB69D3F8A8339B0E03F003037B617A6954
:1051F000BB69934228BF13469B0603F040637A6A5B
:1052000013437B627B687A6ADA607B685B6803F0D1
:105210000203002B00F0D6807B685B69B3F1FF3F8F
:1052200005D1FB69D3F8BC339AB27B685A6101237C
:1052300087F8233040E07B685A6997F82330013BB8
:105240005B0022FA03F303F00303BB61FB69D3F8AD
:10525000AC2397F82330013B5B0022FA03F303F001
:1052600003037B617B69032B02D0BB69032B0CD149
:105270007B685B6997F82320013A5200032101FA09
:1052800002F21A437B685A6111E07B685A697969B6
:10529000BB698B4228BF0B4603F0030197F823300C
:1052A000013B5B0001FA03F31A437B685A6197F8EC
:1052B0002330013387F8233097F82330082BBAD9ED
:1052C0007B681B69B3F1FF3F05D1FB69D3F8BC33A1
:1052D0001A0C7B681A61012387F8233043E07B684E
:1052E0001A6997F82330013B5B0022FA03F303F0BD
:1052F0000303BB61FB69D3F8AC2397F82330073372
:105300005B0022FA03F303F003037B617B69032B49
:1053100002D0BB69032B0FD17B681B6997F8232050
:10532000013A5200032101FA02F21A437B681A6122
:1053300014E000BFF01878307B681A697969BB699E
:105340008B4228BF0B4603F0030197F82330013B43
:105350005B0001FA03F31A437B681A6197F8233064
:10536000013387F8233097F82330082BB7D97B68AF
:105370001B7F002B23D1FB69D3F8BC331B0C1B0410
:10538000FA69C2F8BC33FB69D3F8BC237B685B695C
:105390009BB21A43FB69C3F8BC23FB69D3F8BC3347
:1053A0009AB2FB69C3F8BC23FB69D3F8BC237B68C2
:1053B0001B691B041A43FB69C3F8BC2302E07B682A
:1053C00000221A77FB689B79002B70D17B685B68A1
:1053D00003F00203002B6AD0FB7A012B20D17B68FB
:1053E0001B68012B04D1FB697A6AC3F8B42310E06F
:1053F0007B681B68022B04D1FB697A6AC3F8B82367
:1054000007E0FB697A6AC3F8B423FB697A6AC3F8D8
:10541000B8237B689B68DAB2FB6983F8C02344E059
:105420007B681B68012B05D1FB69D3F8B4237B682B
:10543000DA600CE07B681B68022B05D1FB69D3F8AE
:10544000B8237B68DA6002E04FF0FF33FB62FB6950
:1054500093F8C0331A467B689A60FB69D3F8BC3373
:105460009AB27B685A61FB69D3F8BC331A0C7B682B
:105470001A617B681B68D9B27B685B699BB21A466C
:10548000F86800F033F803461A467B681A837B6895
:105490001B68D9B27B681B699BB21A46F86800F09A
:1054A00025F803461A467B685A83FB6A19E0FB7AA3
:1054B000012B02D101237B8501E000237B857A8DBE
:1054C0007B6801930023009300234FF48971F868EF
:1054D0000CF036F8F862FB6A002B01D10123FB6265
:1054E000FB6A18463037BD4680BD00BFB0B4B9B0C6
:1054F00000AF78600B46FB7013463B807B681B68EF
:10550000C7F8CC300023A7F8DA300023C7F8D4302E
:10551000914B07F19C041D460FCD0FC40FCD0FC456
:1055200095E80F0084E80F008C4B07F16C041D46D2
:105530000FCD0FC40FCD0FC495E80F0084E80F0006
:10554000874B07F13C041D460FCD0FC40FCD0FC490
:1055500095E80F0084E80F00824B07F10C041D460C
:105560000FCD0FC40FCD0FC495E80F0084E80F00D6
:10557000FB7803F04003002B0CD0D7F8CC30D3F8E5
:10558000B833C7F8D430D7F8CC30D3F8A033C7F845
:10559000D0300BE0D7F8CC30D3F8B433C7F8D430E0
:1055A000D7F8CC30D3F89C33C7F8D030002387F835
:1055B000DE30002387F8DF3017E03A8897F8DF30D5
:1055C0005B0042FA03F3DBB203F0030387F8DD303C
:1055D00097F8DD30022B03D897F8DF3087F8DE30FC
:1055E00097F8DF30013387F8DF3097F8DF30072B8B
:1055F000E3D93A8897F8DE305B0042FA03F3DBB276
:1056000003F0030387F8DD3097F8DD30022B02D971
:10561000022387F8DD30D7F8D4309B0803F003036A
:10562000002B27D097F8DE2097F8DD1013465B009B
:1056300013440B445B00E0333B4433F8D43CA7F8FD
:10564000DA3097F8DD30002B7FD0B7F8DA30002B56
:105650007BD197F8DE2097F8DD30591E13465B00AA
:1056600013440B445B00E0333B4433F8D43CA7F8CD
:10567000DA306AE0D7F8CC3093F8C033012B27D169
:1056800097F8DE2097F8DD1013465B0013440B44B7
:105690005B00E0333B4433F8A43CA7F8DA3097F8DA
:1056A000DD30002B51D0B7F8DA30002B4DD197F810
:1056B000DE2097F8DD30591E13465B0013440B447F
:1056C0005B00E0333B4433F8A43CA7F8DA303CE01D
:1056D000D7F8D03003F40033002B0FD097F8DE203A
:1056E00097F8DD1013465B0013440B445B00E03376
:1056F0003B4433F8743CA7F8DA3026E097F8DE2014
:1057000097F8DD1013465B0013440B445B00E03355
:105710003B4433F8443CA7F8DA3097F8DD30002BEF
:1057200013D0B7F8DA30002B0FD197F8DE2097F8B6
:10573000DD30591E13465B0013440B445B00E0331D
:105740003B4433F8443CA7F8DA30B7F8DA3018466F
:10575000E437BD46B0BC7047C4CD0608F4CD06089A
:1057600024CE060854CE060880B58AB000AFF86093
:10577000B96011461A460B46FB711346BB71FB68B4
:105780001B68FB6100237B830023FB840023BB8415
:1057900000233B830023FB82BB680433FA7919465C
:1057A000F868FFF723FCBB685A68BB685A60FB695E
:1057B000D3F8BC337B837B8BFB84BB79002B05D078
:1057C000BB681A7A5B7A1B021343FB840023BB84F9
:1057D00001237B843CE07A8B7B8C013B5B0042FAAB
:1057E00003F39BB203F003033B83FA8C7B8C013BF6
:1057F0005B0042FA03F39BB203F00303FB823B8B93
:10580000032B02D0FB8A032B0CD17B8C013B5B006A
:10581000032202FA03F31AB2B7F9243013431BB27E
:10582000BB8412E0FA8A3B8B934228BF13469BB29B
:1058300003F003027B8C013B5B0002FA03F31AB214
:10584000B7F9243013431BB2BB847B8C01337B84B8
:105850007B8C082BBFD9BB68BA8C1A81BA8CFB79B8
:105860001946F868FFF742FE03461A46BB685A819C
:10587000BB685B899AB2BB685A81FB69D3F8BC33B9
:105880001B0C7B837B8BFB84BB79002B05D0BB6817
:105890001A7B5B7B1B021343FB840023BB84012325
:1058A0007B843CE07A8B7B8C013B5B0042FA03F308
:1058B0009BB203F003033B83FA8C7B8C013B5B00C0
:1058C00042FA03F39BB203F00303FB823B8B032BEF
:1058D00002D0FB8A032B0CD17B8C013B5B000322A3
:1058E00002FA03F31AB2B7F9243013431BB2BB8494
:1058F00012E0FA8A3B8B934228BF13469BB203F017
:1059000003027B8C013B5B0002FA03F31AB2B7F986
:10591000243013431BB2BB847B8C01337B847B8C90
:10592000082BBFD9BB68BA8C9A81BA8CFB7919460F
:10593000F868FFF7DBFD03461A46BB68DA81BB68EF
:10594000DB899AB2BB68DA8100BF2837BD4680BDCB
:1059500080B58AB000AFF860B9607A60FB681B68F8
:105960007B6200237B840023FB617B68002B01D1D9
:10597000002300E17B681B68002B01D10023FAE0C3
:10598000BB68D3F8E030002B5FD0BB68D3F8E030C1
:10599000DB889BB21846FFF7D9FA0346002B54D098
:1059A0007B681B68BB6110220021B86965F0DCFDD3
:1059B000BB69002262F040021A7000225A70BB6973
:1059C000002242F00C029A700022DA70BB69181DA6
:1059D000BB68D3F8E030991CBB695B889BB21A4660
:1059E000FBF710FFBB68B3F89630DAB20123B96950
:1059F000F868FFF7B9FE7B681B6803F110027B684B
:105A00001A60FB691033FB61BB695B889AB2BB69A2
:105A10005A807B681B687B6105220021786965F0EC
:105A2000A3FD7B69002262F038021A7000225A70CE
:105A30007B69002242F001029A700022DA707B6AD0
:105A400093F8C133002B07D101E0002393E07B6A78
:105A500093F8C233002B44D07B691B795AB27B6A1E
:105A600093F8C233013B1B015BB213435BB2DAB262
:105A70007B691A717B691B795AB27B6A93F8C133CF
:105A8000013BDBB25BB213435BB2DAB27B691A71E2
:105A9000BB68B3F8963003F00203002B5CD07B693F
:105AA0001B7903F00303002B56D0BB68D3F8CC302E
:105AB0005B889BB203F00203002B0AD07B691B7941
:105AC00023F00303DBB243F00103DAB27B691A71FE
:105AD00042E07B691B7923F00303DAB27B691A7118
:105AE0003AE07B691B7923F00303DBB243F0020346
:105AF000DAB27B691A717B6AD3F8BC337B847B8C06
:105B00001846FFF74FFA03467B827B691B795AB22E
:105B10007B8A013B1B015BB213435BB2DAB27B6948
:105B20001A71BB6893F89430002B02D0012B08D077
:105B300013E07B691B7923F00303DAB27B691A71E6
:105B40000BE07B691B7923F00303DBB243F0010315
:105B5000DAB27B691A7100E000BF7B681B685A1DCE
:105B60007B681A60FB690533FB617B695B889AB2CD
:105B70007B695A80FB6918462837BD4680BD80B5D1
:105B800086B000AFF860B9603B601346FB80BB682D
:105B900008337B613B683B61BB68002242F0120224
:105BA0001A70002242F001025A70BB68002242F0D3
:105BB00018029A700022DA70FB685B79012B06D11B
:105BC000BB6800221A71002242F010025A717B69F0
:105BD000FA881A803B691B68DAB27B699A703B6964
:105BE0005B68DBB203F00303DAB27B69DA707B69CE
:105BF000DB78022B0AD07B69DA783B699B68DBB2E1
:105C00009B00DBB21343DAB27B69DA703B69DA6876
:105C10007B695A603B695A693B695A617B6903F148
:105C200008003B69143304221946FBF7EBFD3B697E
:105C30001A693B691A617B6903F10C003B691033F7
:105C400004221946FBF7DEFD002318461837BD462F
:105C500080BD80B483B000AF78600B46FB707B687A
:105C60005B69022B1BD1FB7803F00203002B08D0E9
:105C70007B681B68B3F86833DBB203F02003DBB248
:105C800028E0FB7803F00403002B22D07B681B681C
:105C9000B3F86833DBB203F04003DBB21AE0FB7801
:105CA00003F00203002B07D07B68B3F86036DBB249
:105CB00003F02003DBB20DE0FB7803F00403002BBC
:105CC00007D07B68B3F86036DBB203F04003DBB289
:105CD00000E0002318460C37BD465DF8047B704792
:105CE00080B483B000AF78607B68D3F8F832002BC3
:105CF00001D100231CE07B68D3F8F832DB7803F095
:105D00000403002B01D1002312E07B68D3F8F430A8
:105D1000002B01D100230BE07B68D3F8F430DB7A51
:105D200003F04003DBB2002B01D1002300E001238C
:105D300018460C37BD465DF8047B704780B586B0C9
:105D400000AF786039607B681B68FB607B68263336
:105D50007B61FB6803F571733B613B68002B07D0E7
:105D60003868FFF7BDFF0346002B01D1002329E06F
:105D70003B68002B15D03B68B3F8963003F0040362
:105D8000002B07D0FB6803F571733B617B682633FA
:105D90007B6106E0FB6803F2FB333B617B685D33AC
:105DA0007B613B695B7903F00203002B01D1002387
:105DB00008E07B695B7903F00203002B01D001232B
:105DC00000E0002318461837BD4680BD80B586B078
:105DD00000AFF8607A601A460B46FB721346BB723E
:105DE0000023FB827B68002B01D100232CE0FB7A8F
:105DF00003F00403002B0ED0FB6803F12601FB68BF
:105E000093F825301A467868FBF7FCFCFB6893F89A
:105E10002530FB820DE0FB6803F15D01FB6893F820
:105E20005C301A467868FBF7EDFCFB6893F85C3051
:105E3000FB827B681B889AB27B681A807B685B88D0
:105E40009AB27B685A80FB8A18461837BD4680BDD7
:105E500080B586B000AFF860B9607A6000233B611E
:105E600000237B617B68002B01D1002368E07B6805
:105E70001B68002B01D1002362E0BB68D3F8F83225
:105E8000002B01D100235BE07B681B683B61BB6892
:105E9000B3F8963003F00403002B17D07B68186822
:105EA000FB6803F12601FB6893F825301A46FBF7DF
:105EB000A9FC7B681B68FA6892F825201A447B6865
:105EC0001A60FB6893F825307B6116E07B681868E0
:105ED000FB6803F15D01FB6893F85C301A46FBF741
:105EE00091FC7B681B68FA6892F85C201A447B6816
:105EF0001A60FB6893F85C307B613B691B889AB23F
:105F00003B691A803B695B889AB23B695A803B695E
:105F1000DB7A23F01803DAB23B69DA720A4826F01A
:105F20005BFD3B691B889BB21946084826F054FD6F
:105F30003B695B889BB21946054826F04DFD7B699D
:105F400018461837BD4680BD84CE06089CCE06088C
:105F5000A8CE060880B586B000AFF860B9607A6058
:105F60000023FB750023BB7500233B61BB685B8886
:105F70009BB20433362B00F2D0807B68002B28D1F3
:105F8000BB685B889BB2DBB20433DAB2FB6883F890
:105F9000FA23FB6803F2FB30BB685B889BB20433D7
:105FA0001A46B968FBF72EFCFB68B3F8663343F476
:105FB00080739AB2FB68A3F86623FB68B3F86A3370
:105FC00043F480739AB2FB68A3F86A230123BB757C
:105FD00025E0FB68B3F8663343F400739AB2FB68BC
:105FE000A3F86623FB68B3F86A3343F400739AB2EC
:105FF000FB68A3F86A23BB685B889BB2DBB20433FF
:10600000DAB2FB6883F8C323FB6803F57170BB68E1
:106010005B889BB204331A46B968FBF7F3FB002395
:10602000FB7574E0FB7DFA689B0013445B68002BF2
:106030006AD0FB7DFA689B0013445B68FA68B2F88B
:106040006A23A3F86026BB7D002B1AD0FB7DFA687B
:106050009B0013445B68FA6892F8FA2383F85C208B
:10606000FB7DFA689B0013445B6803F15D00FB68ED
:1060700003F2FB31FB6893F8FA331A46FBF7C2FBD5
:1060800019E0FB7DFA689B0013445B68FA6892F89C
:10609000C32383F82520FB7DFA689B0013445B68CB
:1060A00003F12600FB6803F57171FB6893F8C333B5
:1060B0001A46FBF7A7FBBB7D002B07D0FB7DFA68D8
:1060C0009B0013445B685D333B6106E0FB7DFA682F
:1060D0009B0013445B6826333B61FB7DFA689B00A1
:1060E00013445B689B79002B07D13B695B7923F0F4
:1060F0000403DAB23B695A7106E03B695B7923F02D
:106100000203DAB23B695A71FB7D0133FB75FB6810
:106110001B7BFA7D9A4285D300E000BF1837BD464D
:1061200080BD80B483B000AF78600B467B807B6815
:106130001B68D3F8943003F08003002B01D10023B7
:1061400036E07B685B69022B19D17B8803F0020380
:10615000002B07D07B681B68B3F8683303F48073A7
:106160009BB225E07B8803F00403002B1FD07B68E3
:106170001B68B3F8683303F400739BB218E07B88A4
:1061800003F00203002B06D07B68B3F8603603F4FB
:1061900080739BB20CE07B8803F00403002B06D0D5
:1061A0007B68B3F8603603F400739BB200E0002311
:1061B00018460C37BD465DF8047B704780B588B043
:1061C00000AFF8600B467A607B810023FB610023FF
:1061D000BB6100237B6181F0CBFE81F009FE386159
:1061E0003B69002242F066021A70002242F002026D
:1061F0005A703B69002242F00B029A700022DA705A
:106200003B690833FB61FB697A891A807B681A78DD
:10621000FB699A70FB690333BB617B68B3F8033099
:106220009BB2002B31D07B685B79232B2DD1BB69CE
:106230007B617B68B3F801309AB27B691A807B6816
:10624000B3F803309AB27B695A807B69181D7B686A
:10625000591D7B68B3F803309BB21A46FBF7D2FA9C
:106260003B695B889AB27B68B3F803309BB21344F6
:106270009BB204339AB23B695A807B68B3F803300F
:106280009BB20433BA691344BB61FB681B799BB2B0
:106290001B039AB23B699A803B6900229A710022E3
:1062A000DA71786881F0FCFE024BDB6D184620370E
:1062B000BD4680BDD0FC042080B588B000AFF8603A
:1062C000B9603B601346FB80BB680833FB613B68E9
:1062D000BB61BB6908337B61BB6908333B61BB6849
:1062E000002242F06D021A70002242F002025A703F
:1062F000BB68002242F00C029A700022DA70FB693F
:10630000FA881A80BB695B689AB2FB695A80BB69DC
:106310005B6840F20512934203D0B3F5837F0FD040
:106320001DE0FB690433042279691846FBF76AFA19
:10633000BB685B889BB204339AB2BB685A800EE09C
:10634000FB690433396904221846FBF75BFABB6822
:106350005B889BB204339AB2BB685A8000BFBB68AB
:106360005B889AB2BB685A80002318462037BD4626
:1063700080BD80B58AB000AFF860B9607A60BB6854
:106380000833FB610023BB6100237B6200237B8415
:106390000023FB820023BB827B68002B6ED0FB694D
:1063A0009A787B681A707B680133BB61BB685B8835
:1063B0009BB20B3B7B84FB6903337B625AE07B6AB5
:1063C0001A785B781B021343FB827B6A9A78DB782E
:1063D0001B021343BB82FB8AFF2B3DD17B6A1B79D7
:1063E000232B3BD1BB69FA8A1A80BB69BA8A5A80CF
:1063F000BB69181D7B6A0433BA8A1946FBF702FA97
:106400007B681B7803F00203002B12D0FB6803F1BA
:106410002600BB8A04331A46796AFBF7F3F9BB8A74
:106420000433362B28BF3623DAB2FB6883F82520E5
:1064300015E0FB6803F15D00BB8A04331A46796AF4
:10644000FBF7E0F9BB8A0433362B28BF3623DAB2D8
:10645000FB6883F85C2002E000BF00E000BF7A8C9C
:10646000BB8AD31A9BB2043B7B84BB8A04337A6A0F
:1064700013447B627B8C042BA1D800E000BF002377
:1064800018462837BD4680BD80B58AB000AFF86099
:10649000B9603B601346FB80BB6808333B623B68D6
:1064A000FB610023BB6100237B6100233B61002370
:1064B0007B62BB68002242F070021A70002242F038
:1064C00002025A703B6AFA881A80FB695B689AB2CA
:1064D0003B6A5A80BB68002242F00C029A7000228C
:1064E000DA703B6A5B889BB2B3F58B7F65D0B3F5FE
:1064F0008B7F76DCB3F58A7F04D040F2151293428D
:106500003FD06EE03B6A0433BB610F220021B869C3
:1065100065F02AF8FB691A7ABB691A70FB695A7A26
:10652000BB695A70FB699A7ABB699A70FB69DA7A1F
:10653000BB69DA70FB691A7BBB691A71FB695A7B0C
:10654000BB695A71FB699A7BBB699A71FB69DA7BFB
:10655000BB69DA71FB691A7CBB691A72FB69B3F813
:1065600011309AB2BB69A3F80920FB69DA7CBB69D8
:10657000DA72BB685B889BB20F339AB2BB685A80F1
:1065800033E03B6A04337B6107220021786964F0C1
:10659000EBFFFB691A7A7B691A70FB695A7A7B698F
:1065A0005A70FB699A7A7B699A70BB685B889BB268
:1065B00007339AB2BB685A8017E03B6A04333B61E9
:1065C00040220021386964F0CFFFFB691A7A3B69E9
:1065D0001A70BB685B889BB240339AB2BB685A8022
:1065E00003E04FF0FF337B6200BFBB685B889AB269
:1065F000BB685A807B6A18462837BD4680BD0000BC
:1066000080B500AF074B5B68C3F30803002B03D0D2
:1066100082F00EF8034602E081F0EAFF03461846D6
:1066200080BD00BF00ED00E080B485B000AF7860B1
:106630000B46FB700023FB601DE07A68FB689B0043
:1066400013445B68002B13D0FB78FF2B0AD07A68C9
:10665000FB689B0013445B689B7903F00102FB78A5
:106660009A4205D17A68FB689B0013445B680DE091
:10667000FB680133FB607B681B7B022B28BF022376
:10668000DBB21A46FB689342D7DB00231846143767
:10669000BD465DF8047B704780B586B000AFF860FA
:1066A000B9607A600D23BB750023FB7517E0FB7D95
:1066B0009B00104A13440322B968184664F02AFF6D
:1066C0000346002B08D1FB7D0A4A9B001344DA786D
:1066D0007B681A70002308E0FB7D0133FB75FA7DAF
:1066E000BB7D9A42E3D34FF0FF3318461837BD46BF
:1066F00080BD00BFE450080880B485B000AF78606A
:106700000B46FB700D23BB730023FB730FE0FB7B79
:106710000C4A9B001344DB78FA789A4204D1FB7B45
:106720009B00084A134407E0FB7B0133FB73FA7BB1
:10673000BB7B9A42EBD3044B18461437BD465DF839
:10674000047B7047E4500808B4CE060880B588B0D2
:1067500000AFF8607B600B46FB721346BB727B6830
:10676000BB617B6893F8A030FB750023FB770023A7
:10677000BB770023FB7731E0FB7F9B00BA691344B2
:106780001B78BA7A9A4226D1FB7F9B00BA691344E0
:106790005B78FA7A9A421ED10123BB77FB7A03F029
:1067A0000403002B15D00021F868FFF73DFF386186
:1067B0003B69002B0DD0BB7A1946386901F0C7F947
:1067C0000346002B05D0FB7F9B00BA691344DB789E
:1067D000BB77BB7F07E0FB7F0133FB77FA7FFB7D55
:1067E0009A42C9D3BB7F18462037BD4680BD80B4CE
:1067F00087B000AFF860B9607A60BB68002B31D019
:10680000BB685B687B617B69002B2DD00023FB7428
:106810001DE07B691B88FA7CD9B27B6803F82210E3
:10682000FB7CBA6891787A689B0013440A465A70D8
:106830007B691A89FB7CD1B27A689B0013440A46B3
:106840009A70FB7C0133FB747B6910337B61BB68FE
