:020000040800F2
:10000000FFFFFFFFFFFFFFFFFFFFFFFFFFFFFFFF00
:10001000FFFFFFFFFFFFFFFFFFFFFFFFFFFFFFFFF0
:10002000FFFFFFFFFFFFFFFFFFFFFFFFFFFFFFFFE0
:10003000FFFFFFFFFFFFFFFFFFFFFFFFFFFFFFFFD0
:1004000046434642000000000000000001030300D4
:1004100001000000010200000002000000000000D6
:1004200000000000000000000000000000000000CC
:1004300000000000000000000000000000000000BC
:1004400000000000010407000000000000000000A0
:10045000000000010000000000000000000000009B
:10046000000000000000000000000000000000008C
:10047000000000000000000000000000000000007C
:10048000EB04180A001E04320426000000000000DD
:10049000050404240000000000000000000000002B
:1004A0000104022000000000000000000000000025
:1004B0000604000000000000000000000000000032
:1004C000000000000000000000000000000000002C
:1004D00020041808000000000000000000000000D8
:1004E000000000000000000000000000000000000C
:1004F00000000000000000000000000000000000FC
:100500005204180800000000000000000000000075
:100510000204180800200000000000000000000095
:1005200000000000000000000000000000000000CB
:100530006004000000000000000000000000000057
:1005400000000000000000000000000000000000AB
:10055000000000000000000000000000000000009B
:10056000000000000000000000000000000000008B
:10057000000000000000000000000000000000007B
:10058000000000000000000000000000000000006B
:10059000000000000000000000000000000000005B
:1005A000000000000000000000000000000000004B
:1005B000000000000000000000000000000000003B
:1005C000000100000010000000000000000000001A
:1005D000008000000000000000000000000000009B
:1005E000000000000000000000000000000000000B
:1005F00000000000000000000000000000000000FB
:10060000FFFFFFFF000000000000000000000000EE
:1006100000000000000000000000000000000000DA
:1006200000000000000000000000000000000000CA
:1006300000000000000000000000000000000000BA
:1006400000000000000000000000000000000000AA
:10100000003012203D130008D5130008D913000842
:10101000D1130008D1130008D1130008D113000820
:1010200000D20500000000000000000001220020A6
:10103000D11300080010000891210020F91D0020A4
:10104000E9130008ED130008F1130008F513000878
:10105000F9130008FD130008011400080514000826
:10106000091400080D1400081114000815140008D4
:10107000191400081D140008211400082514000884
:10108000291400082D140008311400083514000834
:10109000391400083D1400084114000845140008E4
:1010A000491400084D140008511400085514000894
:1010B000591400085D140008611400086514000844
:1010C000691400086D1400087114000875140008F4
:1010D000791400087D1400088114000885140008A4
:1010E000891400088D140008911400089514000854
:1010F000991400089D140008A1140008A514000804
:10110000A9140008AD140008B1140008B5140008B3
:10111000B9140008BD140008C1140008C514000863
:10112000C9140008CD140008D1140008D514000813
:10113000D9140008DD140008E1140008E5140008C3
:10114000E9140008ED140008F1140008F514000873
:10115000F9140008FD140008011500080515000821
:10116000091500080D1500081115000815150008CF
:10117000191500081D15000821150008251500087F
:10118000291500082D15000831150008351500082F
:10119000391500083D1500084115000845150008DF
:1011A000491500084D15000851150008551500088F
:1011B000591500085D15000861150008651500083F
:1011C000691500086D1500087115000875150008EF
:1011D000791500087D15000881150008851500089F
:1011E000891500088D15000891150008951500084F
:1011F000991500089D150008A1150008A5150008FF
:10120000A9150008AD150008B1150008B5150008AE
:10121000B9150008BD150008C1150008C51500085E
:10122000C9150008CD150008D1150008D51500080E
:10123000D9150008DD150008E1150008E5150008BE
:10124000E915000800000000000000000000000098
:10125000000000000000000000000000000000008E
:10126000000000000000000000000000000000007E
:10127000000000000000000000000000000000006E
:1012800010B5054C237833B9044B13B1044800E082
:1012900000BF0123237010BD804101200000000029
:1012A0008C96040808B5034B1BB10349034800E0C2
:1012B00000BF08BD00000000844101208C96040896
:1012C000A3F5803A704700BF174B002B08BF134BA4
:1012D0009D46FFF7F5FF00218B460F461348144A41
:1012E000121A3DF089F90E4B002B00D098470D4B98
:1012F000002B00D098470020002104000D000D486D
:10130000002802D00C4800E000BF3DF027F9200083
:10131000290000F029FD3DF00DF900BF0000080094
:101320000000000000000000003012208041012079
:1013300018DB0520000000000000000072B617480E
:10134000174901600A6882F30888164880F30A8802
:10135000154880471549164A164B9A42BEBF51F8A8
:10136000040B42F8040BF8E71349144A0020914299
:10137000BCBF41F8040BFAE700201149114A914221
:10138000BCBF41F8040BFAE706490F4A9142BCBFC3
:1013900041F8040BFAE762B60C48804708ED00E01C
:1013A00000100008002C1220DD53000898A004084B
:1013B00000000020684101208041012018DB052049
:1013C00018DB052018DF052000301220C9120008A4
:1013D000FFF7FEBF8548004785480047854800471E
:1013E00085480047854800478548004785480047AD
:1013F000854800478548004785480047854800479D
:10140000854800478548004785480047854800478C
:10141000854800478548004785480047854800477C
:10142000854800478548004785480047854800476C
:10143000854800478548004785480047854800475C
:10144000854800478548004785480047854800474C
:10145000854800478548004785480047854800473C
:10146000854800478548004785480047854800472C
:10147000854800478548004785480047854800471C
:10148000854800478548004785480047854800470C
:1014900085480047854800478548004785480047FC
:1014A00085480047854800478548004785480047EC
:1014B00085480047854800478548004785480047DC
:1014C00085480047854800478548004785480047CC
:1014D00085480047854800478548004785480047BC
:1014E00085480047854800478548004785480047AC
:1014F000854800478548004785480047854800479C
:10150000854800478548004785480047854800478B
:10151000854800478548004785480047854800477B
:10152000854800478548004785480047854800476B
:10153000854800478548004785480047854800475B
:10154000854800478548004785480047854800474B
:10155000854800478548004785480047854800473B
:10156000854800478548004785480047854800472B
:10157000854800478548004785480047854800471B
:10158000854800478548004785480047854800470B
:1015900085480047854800478548004785480047FB
:1015A00085480047854800478548004785480047EB
:1015B00085480047854800478548004785480047DB
:1015C00085480047854800478548004785480047CB
:1015D00085480047854800478548004785480047BB
:1015E000854800478548004785480047D5130008CF
:1015F000D91300080122002091210020F91D0020AC
:10160000D1130008D1130008D1130008D11300082A
:10161000D1130008D1130008D1130008D11300081A
:10162000D1130008D1130008D1130008D11300080A
:10163000D1130008D11300082D86000895860008F4
:10164000FD86000865870008D1130008D113000843
:10165000CD870008D1130008D1130008D11300086A
:10166000D1130008D1130008D1130008D1130008CA
:10167000D1130008D1130008D1130008D1130008BA
:10168000D1130008D1130008D1130008D1130008AA
:10169000D1130008D1130008D1130008D11300089A
:1016A000D1130008D113000821A80008D1130008A5
:1016B000D1130008D1130008D1130008D11300087A
:1016C000D1130008D1130008D1130008D11300086A
:1016D000D1130008D1130008D1130008D11300085A
:1016E000D1130008D1130008D1130008D11300084A
:1016F000D1130008D113000801B30008D11300086A
:10170000170F0120D1130008D1130008D1130008CE
:10171000D1130008D1130008D1130008D113000819
:101720001D520008D1130008D1130008D11300087E
:10173000D1130008D1130008D1130008D1130008F9
:10174000D1130008D1130008D1130008D1130008E9
:10175000D1130008D1130008D1130008D1130008D9
:10176000D1130008D113000865520008D1130008F6
:10177000D1130008D1130008D1130008D1130008B9
:10178000D1130008D1130008D1130008D1130008A9
:10179000D1130008D1130008D1130008D113000899
:1017A000D1130008D1130008D1130008D113000889
:1017B000D1130008D1130008D1130008D113000879
:1017C000D1130008D1130008D1130008D113000869
:1017D000D1130008D1130008D1130008D113000859
:1017E000D1130008D1130008D1130008D113000849
:1017F000D1130008D1130008D1130008D113000839
:1018000045A8000810F8012B11F8013B012A28BF58
:101810009A42F7D0D01A7047034613F8012B002ADA
:10182000FBD1181A013870477BB972B90029BEBFC5
:1018300000204FF0004106E008BF00281CBF6FF0F9
:1018400000414FF0FF3000F0CDB9ADF1080C6DE96B
:1018500004CE002909DB002B1ADB00F04DF8DDF87F
:1018600004E0DDE9022304B07047404261EB41012E
:10187000002B1BDB00F040F8DDF804E0DDE902237B
:1018800004B0404261EB4101524263EB43037047B5
:10189000524263EB430300F02FF8DDF804E0DDE98A
:1018A000022304B0404261EB41017047524263EBB6
:1018B000430300F021F8DDF804E0DDE9022304B081
:1018C000524263EB4303704753B94AB9002908BF3A
:1018D00000281CBF4FF0FF314FF0FF3000F082B9FD
:1018E000ADF1080C6DE904CE00F006F8DDF804E077
:1018F000DDE9022304B070472DE9F04F099D04464D
:101900000F46002B48D18A42944661D9B2FA82F33D
:1019100043B1C3F120019F4002FA03FC9C4020FA2E
:1019200001F10F434FEA1C411FFA8CFE220CB7FB5A
:10193000F1F601FB167706FB0EF042EA07429042F1
:1019400008D91CEB020206F1FF3702D2904200F2E6
:1019500037813E46121AA4B2B2FBF1F001FB10220D
:1019600000FB0EFE44EA0244A64508D91CEB040421
:1019700000F1FF3202D2A64500F21C81104640EA77
:101980000640A4EB0E0400261DB1DC400023C5E98F
:1019900000433146BDE8F08F8B4209D9002D00F09D
:1019A000FD800026C5E9000130463146BDE8F08FD4
:1019B000B3FA83F6002E4BD18B42C0F0F280824204
:1019C00040F2EF803046002DE3D0C5E90047E0E764
:1019D00002B9FFDEB2FA82F3002B40F09D80891A33
:1019E0004FEA124E97B20126200CB1FBFEF20EFB1D
:1019F000121140EA014107FB02F088420FD91CEBAB
:101A0000010102F1FF382CBF4FF001094FF000092E
:101A1000884203D9B9F1000F00F0CF804246091A7D
:101A2000A4B2B1FBFEF00EFB101100FB07F744EA75
:101A30000144A74208D91CEB040400F1FF3102D293
:101A4000A74200F2B4800846E41B40EA02409BE74C
:101A5000C6F12007B34001FA06F422FA07FCF94068
:101A6000B2404CEA030C20FA07F34FEA1C491C432E
:101A70001FFA8CFE00FA06F3200CB1FBF9F809FB03
:101A8000181140EA014108FB0EF088420FD91CEB07
:101A9000010108F1FF3A2CBF4FF0010B4FF0000B92
:101AA000884203D9BBF1000F00F08D80D046091A9F
:101AB000A4B2B1FBF9F009FB101100FB0EFE44EAE1
:101AC00001418E4507D91CEB010100F1FF3401D221
:101AD0008E457FD8204640EA0840A1EB0E01A0FBCE
:101AE000029841454C46C64602D306D14B4504D226
:101AF0000138B9EB020468EB0C0E002D70D01A1BF4
:101B000061EB0E0122FA06F301FA07F7F140002615
:101B10001F43C5E900713CE702FA03FCC3F1200052
:101B200001FA03F221FA00F64FEA1C4E24FA00F102
:101B30001FFA8CF79C401143B6FBFEF00A0C0EFB1B
:101B4000106642EA064200FB07F696420ED91CEBED
:101B5000020200F1FF382CBF4FF001094FF00009DD
:101B6000964202D9B9F1000F31D04046921B89B29A
:101B7000B2FBFEF60EFB162241EA024106FB07F21B
:101B80008A4207D91CEB010106F1FF3801D28A42D3
:101B900023D84646891A46EA004625E72E462846B7
:101BA000F7E6841A61EB030301201F460BE7644448
:101BB000023849E764440238E1E6023A61442EE71C
:101BC000023E6244C6E6A8F1020861446FE70238AB
:101BD0006244CBE7023861447DE7023E6144D9E7C5
:101BE0002E46D6E6704700BF80B500AF02483BF0F6
:101BF00067FD00BF80BD00BFACE6030880B582B0C2
:101C000000AF03463960FB71FB790C2B02D00D2B22
:101C100004D007E009483BF053FD09E008483BF0D9
:101C20004FFD05E0FB79194606483BF049FD00BF32
:101C3000002318460837BD4680BD00BFD8E603081C
:101C4000ECE603080CE7030880B584B000AF7860C9
:101C50004FF0FF33FB6017F06DFD0346FB60FB6840
:101C6000002B03D04FF0FF33FB6004E0786817F0DF
:101C70006CFD0346FB60FB68002B02D04FF0FF3386
:101C8000FB60FB6818461037BD4680BDB0B58AB012
:101C900004AF786000237B6118F0AEFC78617B694B
:101CA000002B05D0274B284A6B2128483BF0F6FB38
:101CB00027483BF005FDFFF797FF264B1B68264A98
:101CC00012681146184616F01BFD78617B69002BDF
:101CD00005D01C4B1C4A73211C483BF0DFFB1F48FE
:101CE00016F016FE78617B69002B05D0154B164A5D
:101CF000772116483BF0D2FB07F108031846FFF79F
:101D0000A3FF03463B613B69002B05D0144B0E4AF1
:101D10007D210E483BF0C2FB3B7A18467B7A1C467D
:101D2000BB7A1D46FB7A3A7B797B02910192009344
:101D30002B46224601460B483BF0C2FC00BF183739
:101D4000BD46B0BD30E70308BC73040848E703088C
:101D5000B0E70308E8B10320DC810408FD1B00089C
:101D6000CCE70308E4E7030880B500AF48F05CF86F
:101D700000F09AF9214BB3F1006F03D31F4BB3F17D
:101D8000805F07D31D4BB3F1C05F19D31B4BB3F179
:101D9000005F15D200F0BCFC40F2111003F014FEFD
:101DA0000A2003F011FE4FF4807003F00DFE40F2A4
:101DB00011100AF067F84FF480700AF063F801E040
:101DC00000F01CFC00F050FA1C200AF05BF8002028
:101DD00009F0A2FB00F06AFAFFF706FF08483BF0A3
:101DE0006FFCFFF701FF00220649074848F054F84E
:101DF00048F0EAF80023184680BD00BF69220008B9
:101E000010E803089C7304089C41012080B586B04B
:101E100000AFF860B9607A603B609D4B7B613B68C6
:101E200003F40033002B08D04FF040231A68BB683E
:101E3000DB434FF0402113400B603B6803F48033D9
:101E4000002B11D04FF040231A6BFB68DB434FF09F
:101E5000402113400B634FF040235A6BBB68DB43B8
:101E60004FF0402113404B633B681B0B03F00F0303
:101E70000F2B25D13B6AB3F5004F06D0854B864A20
:101E800040F2466185483BF009FB4FF040239B68D8
:101E90004FF0402223F0800393604FF04023DB6833
:101EA0004FF0402223F49F6323F00503D3604FF0EB
:101EB00040231B694FF0402223F48763136119E02C
:101EC0003B68C3F30A03002B14D03B681B0B03F0E1
:101ED0000F039B007A69134419683B68C3F30A0334
:101EE000DA433B681B0B03F00F039B007869034444
:101EF0000A401A607B6A002B08D04FF040231A6A10
:101F00007B6ADB434FF0402113400B62FB6AC3F353
:101F10000E03002B0AD04FF040235A6AFB6AC3F32A
:101F20000E03DB434FF0402113404B62FB6A1B0C56
:101F3000C3F30E03002B0BD04FF040239A6AFB6AC9
:101F40001B0CC3F30E03DB434FF0402113408B62A5
:101F50007B6B002B08D04FF04023DA6A7B6BDB43AE
:101F60004FF040211340CB627B6803F40033002B19
:101F700007D04FF040231A684FF04021BB6813434D
:101F80000B607B6803F48033002B0FD04FF04023AD
:101F90001A6B4FF04021FB6813430B634FF0402353
:101FA0005A6B4FF04021BB6813434B637B68C3F30C
:101FB0000A03002B13D07B681B0B03F00F039B005D
:101FC0007A69134419687B68C3F30A027B681B0BA8
:101FD00003F00F039B00786903440A431A603B6ACD
:101FE000002B07D04FF040231A6A4FF040213B6A84
:101FF00013430B62BB6AC3F30E03002B09D04FF0EF
:1020000040235A6ABB6AC3F30E034FF040211343C7
:102010004B62BB6A1B0CC3F30E03002B0AD04FF0BC
:1020200040239A6ABB6A1B0CC3F30E034FF0402196
:1020300013438B623B6B002B07D04FF04023DA6ACF
:102040004FF040213B6B1343CB62FB6803F07C6392
:102050003B61134BD3F838253B69D943FB680B40F0
:102060000F491343C1F838350D4BD3F83C250C49C3
:10207000BB681343C1F83C350A4BD3F838250949EE
:102080003B691343C1F8383500BF1837BD4680BDE2
:102090000440004044E80308C873040874E80308D7
:1020A000001000450008004580B500AF00F002F8C0
:1020B00000BF80BD80B586B006AF4FF0101305930A
:1020C000002304934FF040130393002302934FF037
:1020D0004043019300230093104B4FF448520021DA
:1020E0004FF0A060FFF792FE0023059300230493B6
:1020F0004FF080130393002302934FF48033019336
:102100000023009343F2ED034FF4803200214FF09F
:102110000070FFF77BFE00BFBD4680BDEE310100C1
:1021200080B586B000AF78600B46FB707B683F2BB4
:1021300006D9244B244A40F2C36124483BF0AEF94F
:102140007B6803F01F03FB600122FB6802FA03F3C4
:10215000BB607B68152B02D97B681B2B0CD97B6875
:102160001F2B04D81A4B7B611A4B3B6108E01A4BBA
:102170007B611A4B3B6103E0194B7B61194B3B615F
:10218000FB78022B07D17B691A68BB68DB431A40D6
:102190007B691A6011E07B691A68BB681A437B6926
:1021A0001A603B691A68BB68DB431A40F978FB6820
:1021B00001FA03F31A433B691A6000BF1837BD46A2
:1021C00080BD00BFC8E80308DC730408D4E8030836
:1021D0008C10004598100045901000459C1000455B
:1021E0008C0800459808004580B584B000AF786041
:1021F0000B46FB707B68032B06D9174B174A40F23E
:10220000F66117483BF04AF94FF001127B6802FA79
:1022100003F3FB60FB78022B07D1124B1A6BFB68B0
:10222000DB43104913400B6311E00E4B1A6BFB6844
:10223000DB431A4001217B6801FA03F31A43F97862
:102240007B68103301FA03F3064913430B6300BFA5
:102250001037BD4680BD00BF28E90308FC730408A1
:10226000D4E803080010004580B582B000AF002319
:102270007B600D4B1B683B603B46184603F0D8FE65
:102280004CF2685003F0BEFC032003F033FF78608B
:102290007B6801224FF4E13103203BF075F900BF68
:1022A0000837BD4680BD00BF34E9030880B582B061
:1022B00000AF00237B6007E07B6800211846FFF732
:1022C0002FFF7B6801337B607B68152BF4DD1C23BB
:1022D0007B6007E07B6800211846FFF721FF7B68E1
:1022E00001337B607B683F2BF4DD00237B6007E0DC
:1022F0007B6800211846FFF777FF7B6801337B601E
:102300007B68032BF4DD00BF00BF0837BD4680BDEE
:1023100080B58CB000AF7860012387F82F302B4B4D
:10232000D3F8903003F02003002B03D0002387F86C
:102330002F3003E0264B0222C3F8A82797F82F304E
:10234000002B1CD0786800F007FCC7E90801D7E92A
:1023500008014FF000024FF000030A00002313466B
:10236000FB613B6ABB61FB6946F63C12934203D1B9
:10237000BB69184A934202D0002387F82F3097F8A0
:102380002F30002B1CD0012000F02AFBC7E90401EC
:10239000D7E904014FF000024FF000030A000023C8
:1023A0001346FB603B69BB60FB6843F2B942934252
:1023B00003D1BB68084A934202D0002387F82F302C
:1023C00097F82F3018463037BD4680BD00300040AA
:1023D00000100040072E5505032E550580B58CB022
:1023E00000AF3B4600221A605A609A60DA601A61B8
:1023F0005A619A614E4BD3F81431DBB2FB6207F19C
:102400002003184608F0F8FCB862BB6A002B7AD1AA
:1024100007F11C03184608F011FDB862BB6A002BD7
:102420000DD1FB6A022B04D1D7E9082313461B0CFC
:1024300000E00023FA691146184609F023FBBB6A45
:10244000002B06D13B461946952008F0D5FB0346E4
:1024500000E0BB6ABB62BB6A002B07D13B4604337A
:102460001946962008F0C8FB034600E0BB6ABB6231
:10247000BB6A002B07D13B4608331946972008F06A
:10248000BBFB034600E0BB6ABB62BB6A002B0DD1FD
:10249000FB6A022B01D19B2200E098223B460C33C1
:1024A0001946104608F0A8FB034600E0BB6ABB6271
:1024B000BB6A002B07D13B4610331946992008F020
:1024C0009BFB034600E0BB6ABB62BB6A002B07D1E3
:1024D0003B46143319469A2008F08EFB034600E071
:1024E000BB6ABB62BB6A002B06D0124B124A4FF488
:1024F000EC7112483AF0D2FFFA693B46194610488F
:1025000009F078FA0FE003F0BDF80E4B062283F8CD
:102510005A200D4B0D4A5A640D4B1B6819464FF457
:10252000167004F04DFA00BF3037BD4680BD00BFC5
:102530000010004558E903081C74040874E90308F6
:102540001123000800200045001003405460226061
:10255000F00C002080B500AF08F012FBFFF73EFF43
:1025600008F028FB144BB3F1006F03D3124BB3F107
:10257000805F07D3104BB3F1C05F09D30E4BB3F1AB
:10258000005F05D2042206210C4847F0BDFC10E094
:10259000102009F0EFFB094847F03EF947F22060B0
:1025A00003F030FB102003F0A3FA102009F060FBC9
:1025B00000BF00BF80BD00BF69220008004013407B
:1025C00080B500AF0B4BB3F1006F03D3094BB3F1F0
:1025D000805F07D3074BB3F1C05F08D3054BB3F15E
:1025E000005F04D202220221034847F08DFC00BFA5
:1025F00080BD00BF692200080040134080B500AFD5
:1026000000F002F800BF80BD80B500AF47F084F84D
:10261000334B9B6A03F00203002B02D1314803F0D5
:10262000D3F9314BD3F8903003F40073002B02D070
:102630002E4803F0C9F9012003F0F2FE2C4803F004
:10264000C3F92C4803F0C0F9FFF784FF2A4803F0D0
:10265000D9FA01214FF4806003F04EFB0221274894
:1026600003F034FE4FF4803003F0AEF9012003F0A4
:102670007FFE234803F0A8F9224804F01BF97120DB
:1026800003F0C0FA4FF4EC6003F0BCFA012148F209
:10269000402003F031FB0D2148F2FC6003F02CFBDD
:1026A00001214FF4107003F027FB01214FF4127049
:1026B00003F022FB012140F2647003F01DFB0521B1
:1026C0004FF4F06003F018FB42F2344003F09AFA42
:1026D000FFF776FF0C4B0D4A1A6000BF80BD00BFAC
:1026E00000100340200001000030004009000100FC
:1026F000040001000500010030043404006CF7B947
:10270000030001002C740408F00C002000497F0F26
:1027100080B500AF47F000F82C4B9B6A03F0020332
:10272000002B02D12A4803F04FF92A4BD3F89030FE
:1027300003F40073002B02D0274803F045F9012071
:1027400003F06EFE254803F03FF9FFF703FF24482E
:1027500003F058FA01214FF4806003F0CDFA022112
:10276000204803F0B3FD4FF4803003F02DF97120C1
:1027700003F048FA4FF4EC6003F044FA0D2148F2FC
:10278000FC6003F0B9FA01214FF4107003F0B4FAC1
:1027900001214FF4127003F0AFFA012140F264708E
:1027A00003F0AAFA05214FF4F06003F0A5FA42F213
:1027B000344003F027FA04F0C9F803F011FEFFF7E4
:1027C000FFFE094B094A1A6000BF80BD001003409C
:1027D0002000010000300040090001000500010058
:1027E00030043404006CF7B9F00C002000497F0F6E
:1027F00080B485B000AFF860B9607A60FA68BB68F1
:102800001A407B6822FA03F318461437BD465DF878
:10281000047B704780B400AF064B1B6803F00103D4
:10282000002B14BF01230023DBB21846BD465DF820
:10283000047B7047007000402DE9B04F8AB000AFB4
:10284000786145F252033B625B4B7B625B4B1B68DA
:10285000022204211846FFF7CBFF0346012B5ED16D
:10286000564BDB6C042210211846FFF7C1FF0346CC
:10287000012B02D1524B7B6253E0504BDB6C0322A5
:1028800008211846FFF7B4FF0346012B02D14D4B38
:102890007B6246E0494BDB6C012202211846FFF7C0
:1028A000A7FF0346012B02D1474B7B6239E0434B24
:1028B000DB6C022204211846FFF79AFF0346012B26
:1028C00002D1424B7B622CE03C4BDB6C00220121AD
:1028D0001846FFF78DFF0346012B02D13C4B7B626C
:1028E0001FE0364BDB6C052220211846FFF780FFE6
:1028F0000346012B02D1374B7B6212E02F4BDB6C7E
:1029000008224FF480711846FFF772FF0346012B2F
:1029100002D1314B7B6204E0274B7B6201E02F4BFD
:102920007B627B69012B27D100F09AF8C7E9060189
:10293000D7E906014FF000024FF000030A00002320
:102940003B6A13443B623B6AA3F59A430B3B3B62F1
:102950007B6A00229A4693463B6A0022BB60FA607B
:102960004FF000024FF00003B9680B0000224AEA62
:1029700002044BEA030517E03B6A03F510530433E6
:102980003B627B6A0022984691463B6A00223B608C
:102990007A604FF000024FF0000339680B0000220C
:1029A00048EA020449EA030522462B461046194626
:1029B0002837BD46BDE8B08FF0F0550500700040E7
:1029C0003053550570535505385355053453550547
:1029D0003C5355057453550578535505032E55053D
:1029E0002DE9B04F88B000AF78601C4BFB6100BF91
:1029F000FFF710FF0346002BFAD17868FFF71CFFA2
:102A0000C7E90401D7E904014FF000024FF00003C9
:102A10000A000023FB691344FB613B69FB60FB690F
:102A200003F512532133FB61FB6800221C46154657
:102A3000FB6900229A4693464FF000024FF00003D4
:102A40005346002244EA020845EA030942464B463F
:102A5000104619462037BD46BDE8B08FC29BFFFF28
:102A60002DE9B04382B000AF45F20A037B60012339
:102A70003B60174A3B68136500BF154B1B68022279
:102A800004211846FFF7B4FE0346002BF5D17B68FE
:102A900003F5045305337B607B680022984691461A
:102AA0004FF000024FF000034346002242F0AA64B8
:102AB00044F4A52444F4C06444F003041D462246B3
:102AC0002B46104619460837BD46BDE8B08300BF07
:102AD0000070004080B483B000AF7860044A7B6827
:102AE000136200BF0C37BD465DF8047B704700BF22
:102AF0000070004080B487B000AFF860B9607A60C1
:102B0000FB68DB00DAB27B681B0203F480731343BB
:102B100043F003037B61064ABB689360044A7B6908
:102B2000536000BF1C37BD465DF8047B704700BF93
:102B30000070004080B400AF064B1B6803F0010337
:102B4000002B14BF01230023DBB21846BD465DF8FD
:102B5000047B7047007000402DE9B04F84B000AF97
:102B6000786044F61803FB60FFF7E4FF0346002B90
:102B700016D0FB6803F504532433FB60FB68002286
:102B80009A4693464FF000024FF00003534600224E
:102B900042F0AA6444F4AA2444F46C741D461FE075
:102BA0007868FFF797FF012200211E20FFF7A2FFA0
:102BB000FB6803F504532433FB60FB68002298464E
:102BC00091464FF000024FF000034346002242F0CE
:102BD000AA6444F4A52444F4C06444F007041D46E8
:102BE00022462B46104619461037BD46BDE8B08F29
:102BF00080B485B000AF786039600023FB817B68CA
:102C0000DB68002B08D07B68DA687B689B689A4297
:102C100002D143F27A73FB81FB8918461437BD4613
:102C20005DF8047B704780B483B000AF7860396092
:102C30007B6800221A607B6800225A607B683A68D1
:102C4000DA607B6800229A6000BF0C37BD465DF8F1
:102C5000047B704780B584B000AF78603960002392
:102C6000BB6007F10803184647F00EF90023FB810B
:102C700039687868FFF7BCFF0346FB81FB89002BAE
:102C800019D17B689B68002B03D17B683A681A6076
:102C900003E07B685B683A681A603B687A685A6050
:102CA0003B6800221A607B683A685A607B689B68C0
:102CB0005A1C7B689A60BB68184646F065FFFB8922
:102CC00018461037BD4680BD80B586B000AF78602D
:102CD0000023FB820023BB6007F10803184647F07E
:102CE000D3F87B685B68002B03D143F27C73FB82D3
:102CF00034E07B685B681B683B610023FB601AE083
:102D00007B685B681B687A689A4205D17B685B6860
:102D10003A6912681A6011E03B691B687A689A4246
:102D200006D13B69FB607B681A683B691A6005E065
:102D30003B691B683B613B69002BE1D17B681B68E9
:102D4000002B03D17B685B68FA685A607B685B681C
:102D50009A68013A9A607B6800225A60BB681846FC
:102D600046F012FFFB8A18461837BD4680BD80B476
:102D700083B000AF78607B681B6843F001027B681A
:102D80001A6000BF7B681B6803F00103002BF9D1B8
:102D900000BF00BF0C37BD465DF8047B704780B5AF
:102DA0008AB000AF7860012387F826300023FB60EB
:102DB00000233B7402237B740123FB740C23BB743C
:102DC00007F11C037B610123BB6107F10C0319466A
:102DD000786807F095FC38623B6A002B01D03B6AAB
:102DE00021E097F82630002B0CD0FB6903F001039B
:102DF000002B03D0012387F827300FE0002387F84A
:102E000027300BE0FB6903F00103002B03D0002304
:102E100087F8273002E0012387F8273097F827301A
:102E2000002BD2D13B6A18462837BD4680BD80B5FD
:102E300088B000AF786039603B68FB6000233B746A
:102E400000237B740123FB740223BB7407F10C0382
:102E50001946786807F054FCF861FB69184620377A
:102E6000BD4680BD80B588B000AF78604CF240733D
:102E7000BB6000217868FFF7DAFFF861FB69002B7F
:102E800001D0FB6922E00023FB6000233B74032395
:102E90007B740123FB740123BB7407F108037B617E
:102EA0000223BB6107F10C031946786807F028FC80
:102EB000F861FB69002B01D0FB6907E07868FFF738
:102EC0006EFFF8617868FFF752FFFB6918462037FC
:102ED000BD4680BD80B58AB000AFF860B9607A6049
:102EE0003B60BB683B623B6A3B6100233B7502234E
:102EF0007B750123FB750023BB757B68BB613B6859
:102F0000FB6107F110031946F86807F0F9FB7862D6
:102F10007B6A002B03D1F868FFF741FF78627B6A78
:102F200018462837BD4680BD80B596B000AFEFF398
:102F300010833B653B6D7B6572B63B46184607F0D8
:102F40006BF8012387F84A3001233B700123BB70E3
:102F5000012387F84B30012387F84C303B46194654
:102F6000174806F015FF00221649154807F042F9E8
:102F70003C23154A0021124807F02CFA1048FFF7AD
:102F800071FF124BD3F80038104A43F00543C2F8E2
:102F9000003800BF0D4BD3F80038002BFADB0B4B89
:102FA000D3F80038094A23F0A063C2F800387B6DDB
:102FB000002B00D162B6002318465837BD4680BDAD
:102FC00000401340D80B0020F80B002000300340D5
:102FD00080B500AFFFF7A8FF0346184680BD00008C
:102FE00080B588B000AFF860B9607A60EFF3108305
:102FF0007B617B69FB6172B67B68BA68F9680948D6
:10300000FFF768FFB8610748FFF7B1FEFB69002BC7
:1030100000D162B6BFF36F8F00BFBB69184620377F
:10302000BD4680BD0040134080B584B000AFF8605D
:10303000B9607A60BB6803F00303002B04D17B689E
:1030400003F00303002B01D0042305E07A68B9687C
:10305000F868FFF7C5FF034618461037BD4680BD28
:1030600080B483B000AFEFF310833B603B687B60BC
:1030700072B600BF7B6818460C37BD465DF8047B0E
:10308000704780B485B000AF78607B68FB60FB68F8
:1030900083F3108800BF00BF1437BD465DF8047B82
:1030A000704780B586B000AFF860B9607A603B6069
:1030B00043F22153FB82FB681B78012B08D1FB688C
:1030C0000C333A687968184600F0E0F80346FB8252
:1030D000FB8A18461837BD4680BD80B586B000AF64
:1030E000F860B9607A60FB68002BFCD0BB68002BED
:1030F000FCD07B68002BFCD0FB687B617B691B6884
:103100003B613B69002BFCD07B68BA687969386900
:10311000FFF7C7FF034618461837BD4680BD80B588
:1031200084B000AF7860396043F22153FB813B6883
:10313000002BFCD07B68002BFCD000BF7B68BB6001
:1031400014220021B8683BF057FA3B681A78BB6834
:103150001A703B681B78012B0BD1BB6803F10C0282
:103160003B685B681946104600F071F80346FB8126
:1031700000E000BFFB8918461037BD4680BD80B512
:1031800086B000AF786039607B68002BFCD03B686C
:10319000002BFCD000BF7B687B613B683B61FFF785
:1031A0005FFFF8607B699B685A1C7B699A60F868CE
:1031B000FFF767FF0422002138683BF01DFA3B69E6
:1031C0007A691A60002318461837BD4680BD80B55D
:1031D00086B000AF786039600023FB827B68002BEB
:1031E000FCD03B68002BFCD000BF7B683B613B6898
:1031F000FB60FFF735FFB8603B695B68002B03D0CD
:1032000043F22253FB820AE03B69FA685A600422C7
:10321000002138683BF0F0F9FB683A691A60B86839
:10322000FFF72FFFFB8A18461837BD4680BD80B5D3
:1032300084B000AFF860B9607A607A68B968F868FD
:10324000FFF74BFF034618461037BD4680BD80B5DB
:1032500084B000AF786039600023FB813B68002BAD
:10326000FCD07B68002BFCD000BF7B68BB60BB68D8
:103270003968184600F0D4F80346FB81FB89002B1F
:10328000FCD1FB8918461037BD4680BD80B586B09D
:1032900000AFF860B9607A60FB68002BFCD0BB68B7
:1032A000002BFCD07B68002BFCD0FB687B617B692A
:1032B0007A68B968184600F0CFF803461846183700
:1032C000BD4680BD80B483B000AF78607B68002BC2
:1032D00001D1002301E042F6AF7318460C37BD461A
:1032E0005DF8047B7047000080B588B000AF78605F
:1032F00039607B68002B06D1424B434A4FF48C71F6
:1033000042483AF0CBF83B68002B06D1404B3E4A8E
:1033100040F219113D483AF0C1F83B689B7B042B01
:1033200006D93C4B384A4FF48D7138483AF0B6F81C
:103330003B689B7B1A46384B53F82230002B06D152
:10334000364B314A40F21B1130483AF0A7F807F1EA
:103350000803184605F0F4FC3B685B68BB603B68FB
:103360001B7B002B03D13B685B7B002B01D001232F
:103370003B753B681B7A022B02D102233B7308E0AA
:103380003B681B7A032B02D103233B7301E000232C
:103390003B733B685B7A012B02D101237B7301E015
:1033A00000237B733B689B7A002B14BF012300230F
:1033B000DBB23B743B68DB7A002B14BF0123002394
:1033C000DBB27B7400237B750023BB753B689B7B62
:1033D0001A46114B53F822003B681A6807F108039C
:1033E000194605F0BFFBF861FB69002B04D0F869B2
:1033F000FFF768FF034600E0002318462037BD466C
:1034000080BD00BFB8EA030890750408C0EA03084D
:1034100014EB03081CEB03087C75040864EB030839
:1034200080B584B000AF7860396039687868FFF79C
:103430005BFF0346FB81FB89002B01D0FB8906E083
:103440007B68BB603B689A7BBB681A700023184698
:103450001037BD4680BD000080B586B000AFF86073
:10346000B9607A60FB68002B06D1164B164A4FF400
:10347000CB7116483AF012F8BB68002B06D1144BFA
:10348000114A40F2971111483AF008F87B68002B76
:1034900006D1104B0C4A4FF4CC710C4839F0FEFFAA
:1034A000FB687B617B691B781A460B4B53F8223013
:1034B0007A68B968184605F059FD00231846183790
:1034C000BD4680BDB8EA0308A4750408C0EA030835
:1034D0008CEB030894EB03087C75040880B483B07C
:1034E00000AF0346FB80B7F90630002B0BDBFB88EF
:1034F00003F01F020749B7F906305B09012000FA03
:1035000002F241F8232000BF0C37BD465DF8047B72
:10351000704700BF00E100E080B483B000AF034615
:10352000FB80B7F90630002B12DBFB8803F01F028B
:103530000A49B7F906305B09012000FA02F220338C
:1035400041F82320BFF34F8F00BFBFF36F8F00BF41
:1035500000BF0C37BD465DF8047B704700E100E01A
:1035600080B483B000AF0346FB80B7F90630002B70
:103570000CDBFB8803F01F020749B7F906305B0933
:10358000012000FA02F2603341F8232000BF0C371B
:10359000BD465DF8047B704700E100E080B483B075
:1035A00000AF03463960FB80B7F90630002B0ADB19
:1035B0003B68DAB20C49B7F906305201D2B20B447B
:1035C00083F800230AE03B68DAB20849FB8803F07D
:1035D0000F03043B5201D2B20B441A7600BF0C37E2
:1035E000BD465DF8047B704700E100E000ED00E0BF
:1035F00080B584B000AF0346FB800023FB60B7F9C1
:10360000063013F1800F02D10123FB6004E0B7F90B
:1036100006301846FFF762FFFB6818461037BD46B4
:1036200080BD80B584B000AF0346FB800023FB6003
:10363000B7F9063013F1800F02D10123FB6004E0DB
:10364000B7F906301846FFF767FFFB6818461037D2
:10365000BD4680BD80B483B000AF03463960FB71C6
:10366000FB79002B01D1094B00E0094BD968FB79AC
:10367000002B01D1054B00E0054B3A680A43DA60A4
:1036800000BF0C37BD465DF8047B704720F83F4112
:1036900004F83F4480B483B000AF78607B687A68F8
:1036A0001A607B687A685A6000BF0C37BD465DF8C7
:1036B000047B704780B483B000AF0346FB7100BF4A
:1036C0000C37BD465DF8047B7047000080B584B0C0
:1036D00000AF786039607B68002B05D1104B114A30
:1036E000FE21114839F0DAFE7B68D3F8B430FB6074
:1036F0000BE0FB68BB60BB689B683A689A4201D1EB
:10370000BB6808E0FB681B68FB607B68B433FA6841
:103710009A42EED1002318461037BD4680BD00BF47
:1037200044EC0308FC75040858EC030880B588B025
:1037300000AF78607B68002B06D1204B204A4FF405
:103740009F71204839F0AAFE7B680C33FB61FB694E
:103750001A68FB695B689A4201D1002329E0FB6982
:103760005B6803F01F02FB69023253F82230BB6131
:10377000FB695B6803F000437B61FB695B6803F0F6
:103780001F033B613B69013303F01F03FB60FA68D1
:103790003B699A4207D87B6983F00042FB681A4371
:1037A000FB695A6004E0FA687B691A43FB695A6056
:1037B000BB6918462037BD4680BD00BF44EC0308F6
:1037C0001C76040858EC030880B588B000AF786018
:1037D00039600023FB777B68002B06D1254B264AF6
:1037E0004FF4A971254839F059FE7B680C33BB6151
:1037F000BB691A68BB695B685340002B0BDABB6975
:103800001A68BB695B68534003F01F03002B02D1A9
:103810000123FB7728E0BB691B6803F01F023968AE
:10382000BB69023243F82210BB691B6803F00043F6
:103830007B61BB691B6803F01F033B613B6901337C
:1038400003F01F03FB60FA683B699A4207D87B6963
:1038500083F00042FB681A43BB691A6004E0FA680F
:103860007B691A43BB691A60FB7F18462037BD4647
:1038700080BD00BF44EC03083076040858EC030810
:1038800080B58CB000AF78603960002387F82F30A6
:103890000023FB607B68002B06D14C4B4C4A4FF455
:1038A000CA714C4839F0FAFD7B68BC33BB6207F142
:1038B0000C03184646F0E8FA7B681B78012B3DD1D3
:1038C000BB6A1A68BB6A5B685340002B0CDABB6AA0
:1038D0001A68BB6A5B68534003F00F03002B03D1E7
:1038E000012387F82F3066E0BB6A1B6803F00F02E4
:1038F0003968BB6A023243F82210BB6A1B6803F0C6
:103900000043BB61BB6A1B6803F00F037B617B69EB
:10391000013303F00F033B613A697B699A4207D890
:10392000BB6983F000423B691A43BB6A1A6042E0FC
:103930003A69BB691A43BB6A1A603CE0BB6A1A6801
:10394000BB6A5B685340002B0CDABB6A1A68BB6A1F
:103950005B68534003F00703002B03D1012387F872
:103960002F3028E0BB6A1B6803F007023968BB6A86
:10397000023243F82210BB6A1B6803F000437B62EB
:10398000BB6A1B6803F007033B623B6A013303F029
:103990000703FB61FA693B6A9A4207D87B6A83F0A6
:1039A0000042FB691A43BB6A1A6004E0FA697B6A49
:1039B0001A43BB6A1A60FB68184646F0E5F897F8A8
:1039C0002F3018463037BD4680BD00BF44EC030899
:1039D0004476040858EC030880B584B000AF034671
:1039E000FB71FB79012B06D90C4B0D4A40F2BB1140
:1039F0000C4839F053FDFB794FF4947202FB03F34A
:103A0000094A1344FB60FB685B78022B01D1002359
:103A100000E0012318461037BD4680BDC4EC030802
:103A20005876040858EC0308C441012080B485B0DE
:103A300000AF0346FB710023FB60FB794FF49472E7
:103A400002FB03F3074A1344FB60FB680022DA60C1
:103A5000FB6800221A6100BF1437BD465DF8047B85
:103A6000704700BFC441012080B590B000AFF8603E
:103A70007B600B46FB721346BB7200233B61002345
:103A8000FB63FB68002B06D1744B754A40F2D911D9
:103A9000744839F003FDBB6C082B06D9724B704A91
:103AA0004FF4ED716F4839F0F9FC07F1140324224B
:103AB000002118463AF0A0FDFB7A3B75BB7A7B7576
:103AC0006A4B1B78BB75FB7A082B72D801A252F89F
:103AD00023F000BFF93A00084F3B0008B33B000851
:103AE000B33B0008673B0008B33B0008713B00088C
:103AF000B33B0008993B0008BB7A092B1AD0BB7A6C
:103B00000A2B17D0BB7A062B14D0BB7A072B11D007
:103B1000BB7A082B0ED0BB7A0B2B0BD0BB7A0C2BAD
:103B200008D0BB7A0D2B05D0BB7A0E2B02D0BB7A06
:103B3000042B40D1BB6C9A0007F11403043379685D
:103B4000184646F081FABB6CDBB2FB7533E0FB68CC
:103B50001B79002B05D00123FB75FB689B68BB61BB
:103B60002AE0012375E00123FB757B68BB6123E03C
:103B7000FB6803F19401FB68DB789B001A4607F1B0
:103B800014030433184646F05FFAFB68DB78FB75D4
:103B9000FB680022DA700FE0BB6C9A0007F1140397
:103BA00004337968184646F04FFABB6CDBB2FB75FC
:103BB00002E000BF00E000BF00BFFB681B78002BE5
:103BC00001D12B4B00E02B4B9B6803F00203002B31
:103BD000F3D107F11003184646F056F9FB681B783D
:103BE000002B04D1244B1B6803F5127203E0234B16
:103BF0001B6803F51272FB681B78002B01D11C4B6C
:103C000000E01C4B9B681B0C03F00F010B46DB0014
:103C10000B449B001344BB63FB7DDBB29B001A1D6E
:103C200007F114031946B86B46F00EFAFB681B78CF
:103C3000B96B97F84C20184606F0BAFEF8633B695A
:103C4000184645F0A1FFFB6B002B01D1002300E0DB
:103C5000012318464037BD4680BD00BF44EC030831
:103C60006876040858EC0308E4EC03081C440120BF
:103C700020F83F4104F83F44E80C0020EC0C002001
:103C800080B586B002AFF8607B600B46FB721346CE
:103C9000BB72BA7AF97A00230193BB6900937B68FF
:103CA000F868FFF7E1FE034618461037BD4680BDB1
:103CB00080B586B002AF78600023FB730023BB6041
:103CC0007B68002B06D12D4B2D4A40F22E212D482A
:103CD00039F0E4FB7B681B78002B03D12A4B1B686F
:103CE000043302E0294B1B680433294A1A6000BFE1
:103CF0007B681B78002B03D1234B1B68043302E045
:103D0000224B1B6804331B68214A9342F0D107F110
:103D10000803184646F0B8F87B685B78002B23D17F
:103D20007B681B78002B02D1174B1B6801E0174BF7
:103D30001B681B68164A934216D100230093002388
:103D4000012200217868FFF79BFF0346002B09D171
:103D50007B6801225A700F4B1B780133DAB20D4B8E
:103D60001A7001E00123FB73BB68184645F00CFF95
:103D7000FB7B18461037BD4680BD00BF44EC0308EE
:103D80008876040858EC0308E80C0020EC0C0020AE
:103D900089EFCDAB1C44012080B58AB002AFF8603A
:103DA000B9601346FB710023FB7700233B61FB687E
:103DB000002B06D11E4B1F4A40F26A211E4839F0E3
:103DC0006DFBFB681B781846FFF706FE0346012BC8
:103DD00001D1012328E007F11003184646F054F8FA
:103DE000BB687B61FB79002B02D00123BB6101E042
:103DF0000023BB6107F11403022200920C22002170
:103E0000F868FFF73DFF0346002B06D10B4B1B78EC
:103E10000133DAB2094B1A7001E00123FB773B69E9
:103E2000184645F0B1FEFB7F18462037BD4680BDE1
:103E300044EC03089876040858EC03081C4401205D
:103E400080B586B002AF786039600023FB73002331
:103E5000BB607B68002B06D1194B1A4A40F28F21B8
:103E6000194839F01BFB7B681B781846FFF7B4FD37
:103E70000346012B01D101231DE007F10803184679
:103E800046F002F8012300933B680D220021786878
:103E9000FFF7F6FE0346002B06D10C4B1B780133CF
:103EA000DAB20A4B1A7001E00123FB73BB681846B3
:103EB00045F06AFEFB7B18461037BD4680BD00BF4B
:103EC00044EC0308B476040858EC03081C440120B1
:103ED00080B588B002AFF860B9601346FB7100236B
:103EE000FB7500233B61FB68002B06D1194B1A4A76
:103EF00040F2A921194839F0D1FAFB681B7818461D
:103F0000FFF76AFD0346012B01D101231DE007F1F4
:103F10001003184645F0B8FFFB790093BB680722F1
:103F20000021F868FFF7ACFE0346002B06D10C4BCE
:103F30001B780133DAB20A4B1A7001E00123FB75DA
:103F40003B69184645F020FEFB7D18461837BD46F4
:103F500080BD00BF44EC0308CC76040858EC03088D
:103F60001C44012080B588B002AFF860B9601346E8
:103F7000FB710023FB7500233B61FB68002B06D11E
:103F8000194B1A4A40F2E121194839F087FAFB68C7
:103F90001B781846FFF720FD0346012B01D10123B2
:103FA0001DE007F11003184645F06EFFFB79009302
:103FB000BB6808220021F868FFF762FE0346002B69
:103FC00006D10C4B1B780133DAB20A4B1A7001E0B0
:103FD0000123FB753B69184645F0D6FDFB7D18466D
:103FE0001837BD4680BD00BF44EC0308E0760408E6
:103FF00058EC03081C44012080B588B002AFF8607B
:10400000B9601346FB710023FB7500233B61FB681D
:10401000002B06D1194B1A4A40F2FB21194839F0FE
:104020003DFAFB681B781846FFF7D6FC0346012BC8
:1040300001D101231DE007F11003184645F024FFCC
:10404000FB790093BB680A220021F868FFF718FE8D
:104050000346002B06D10C4B1B780133DAB20A4B16
:104060001A7001E00123FB753B69184645F08CFD91
:10407000FB7D18461837BD4680BD00BF44EC0308E1
:10408000FC76040858EC03081C44012080B58AB073
:1040900002AF0346B9607A60FB730023FB7700230D
:1040A0007B61FB7B012B06D9284B294A40F2173153
:1040B000284839F0F3F9FB7B4FF4947202FB03F3C9
:1040C000254A1344BB61BB691B781846FFF784FC83
:1040D0000346012B06D0BB691B7983F00103DBB2D9
:1040E000002B01D001232DE07B68002B17D0BB698A
:1040F0009B687A68B968184645F0A6FF07F1140373
:10410000184645F0C1FE0023009300230022012140
:10411000B869FFF7B5FD0346002B0CD101E0012380
:1041200010E00E4B1B780133DAB20C4B1A70BB69EE
:1041300000221A7101E00123FB777B69184645F0E4
:1041400023FDFB7F18462037BD4680BDC4EC030825
:104150001077040858EC0308C44101201C440120D6
:1041600080B58AB002AF0346B9607A60FB73002362
:10417000FB7700233B61FB7B012B06D9284B294AA7
:1041800040F23F31284839F089F9FB7B4FF49472B3
:1041900002FB03F3254A1344BB61BB691B78184635
:1041A000FFF71AFC0346012B01D1012334E0B86963
:1041B000FFF7BCFA78617B69002B19D07B68002B74
:1041C00016D07A68B968786945F03EFF00BF07F1FC
:1041D0001003184645F058FE012300937B69002226
:1041E0000421B869FFF74CFD0346002B09D101E01B
:1041F000012311E00E4B1B780133DAB20C4B1A701D
:1042000005E07969B869FFF7DFFA0123FB773B69BD
:10421000184645F0B9FCFB7F18462037BD4680BDE7
:10422000C4EC03082477040858EC0308C4410120B7
:104230001C44012080B588B000AF0346B9607A60A5
:10424000FB730023FB77FB7B012B06D9244B254A0C
:1042500040F26731244839F021F9BB68002B06D1C0
:10426000224B204A4FF45A711F4839F017F97B68E6
:10427000002B06D11E4B1B4A40F269311A4839F017
:104280000DF9FB7B4FF4947202FB03F3194A1344BC
:10429000BB61BB69DB78072B01D901231CE0B8693E
:1042A000FFF744FA78617B69002B01D1012313E009
:1042B0007A68B968786945F0C7FEBB69DB787A69C6
:1042C000B96924339B000B445A60BB69DB78013326
:1042D000DAB2BB69DA70FB7F18462037BD4680BD75
:1042E000C4EC03083877040858EC030814ED0308FD
:1042F00024ED0308C441012080B588B002AF034615
:10430000FB710023FB750023FB60FB79012B06D9B1
:104310001E4B1F4A40F2AA311E4839F0BFF8FB7904
:104320004FF4947202FB03F31B4A13443B613B6955
:104330001B781846FFF750FB0346012B01D10123E0
:1043400020E007F10C03184645F09EFD0023009382
:104350000023002206213869FFF792FC0346002B58
:1043600009D10E4B1B780133DAB20C4B1A703B6942
:104370000022DA7001E00123FB75FB68184645F066
:1043800003FCFB7D18461837BD4680BDC4EC03080E
:104390005077040858EC0308C44101201C44012054
:1043A00080B586B002AF78600023FB730023BB604A
:1043B0007B68002B06D1144B144A40F2C5311448D7
:1043C00039F06CF807F10803184645F05DFD00234D
:1043D00000930023022200217868FFF751FC034676
:1043E000002B06D10B4B1B780133DAB2094B1A7044
:1043F00001E00123FB73BB68184645F0C5FBFB7B5E
:1044000018461037BD4680BD44EC030868770408A1
:1044100058EC03081C44012080B586B002AF7860D8
:104420000023FB730023BB607B68002B06D1194B74
:10443000194A40F2DA31194839F030F87B681B78B4
:104440001846FFF7C9FA0346012B01D101231DE0ED
:1044500007F10803184645F017FD002300930023D9
:10446000032200217868FFF70BFC0346002B06D1DE
:104470000B4B1B780133DAB2094B1A7001E00123B0
:10448000FB73BB68184645F07FFBFB7B1846103773
:10449000BD4680BD44EC03087C77040858EC030853
:1044A0001C44012080B588B002AF0346FB71002395
:1044B000BB750023BB60FB79012B06D93A4B3B4A05
:1044C0004FF47E713A4838F0E9FFFB794FF494726B
:1044D00002FB03F3374A13443B610023FB75386941
:1044E000FFF724F9F860FB68002B30D0FB7DFA68F9
:1044F000396924339B000B445A60FB7D0133FB7503
:10450000FB7D082BEBD107F10803184645F0BCFCF6
:104510003B69943308220092092200213869FFF791
:10452000AFFB0346002B05D0BB68184645F02CFBBB
:10453000012334E0204B1B780133DAB21E4B1A7092
:104540000023FB75BB68184645F01EFBC7E700BF9C
:10455000FB7D002B22D007F10803184645F094FCA0
:104560003B6903F19402FB7D00931346092200216D
:104570003869FFF785FB0346002B05D0BB6818465A
:1045800045F002FB01230AE00B4B1B780133DAB242
:10459000094B1A70BB68184645F0F6FABB7D184601
:1045A0001837BD4680BD00BF00ED030890770408B2
:1045B00058EC0308C44101201C44012080B586B09A
:1045C00002AF78600023FB730023BB607B68002B85
:1045D00006D1194B194A40F23241194838F05EFFB2
:1045E0007B681B781846FFF7F7F90346012B01D1CA
:1045F00001231DE007F10803184645F045FC0023A0
:1046000000930023052200217868FFF739FB034659
:10461000002B06D10B4B1B780133DAB2094B1A7011
:1046200001E00123FB73BB68184645F0ADFAFB7B44
:1046300018461037BD4680BD44EC0308A87704082F
:1046400058EC03081C44012080B58CB000AFF86022
:10465000B9607A60BB683B62002387F82F30002383
:104660003B61FB68002B06D1964B974A40F25241C2
:10467000964838F013FF3B6A5B78FB7707F110032D
:10468000184645F001FCFB7F013B0C2B00F20B812F
:1046900001A252F823F000BFF346000815470008B6
:1046A000CD460008A7480008754700081D470008C8
:1046B000A7480008A74800083F470008A748000887
:1046C000D94700083148000899480008FB681B7862
:1046D000002B01D17E4B00E07E4BDA68FB681B7833
:1046E000002B01D17A4B00E07A4B22F40032DA60E1
:1046F000DEE0F868FFF754FEFB681B78012B02D15F
:10470000FB6802225A70F868FFF74AFEFB68022233
:104710005A70CDE0FB6802225A70C9E03B6A5B68C0
:104720001A46FB689A60FB6801221A71FB685B7885
:10473000022B00F0BA80FB6802225A70B5E0002319
:1047400087F826300EE097F826303A6A9B0013442B
:104750005B681946F868FFF737F897F82630013399
:1047600087F826303B6ADB78DBB297F826209A423E
:10477000E9D39DE0FB6800225A70FB681B78012199
:104780001846FEF767FFFB681B7802211846FEF704
:1047900061FFFB681B78002B01D1482300E05A23FE
:1047A0001846FEF73EFFFB681B78184606F0F4F843
:1047B000FB681B78002B03D1474B1B68043302E0D6
:1047C000464B1B68043300221A60FB680022DA6043
:1047D000FB6800221A616BE03B6A5B681946F86867
:1047E000FEF774FF78617B69002B16D07B6901228C
:1047F0005A743B6A5B6801221946F868FFF7CCFAE5
:10480000034687F82F30FB681B781A460123934034
:104810001946334845F0E8FA4AE03B6A5B680022F3
:104820001946F868FFF7B8FA034687F82F303FE0DB
:10483000002387F82730FB68D3F8B430BB6218E058
:10484000BB6ABB61BB69DA683B6A5B689A420DD19F
:104850003B6A9B68002B06D0012387F82730BB6991
:1048600001225A7402E0BB6900225A74BB6A1B68B9
:10487000BB62FB68B433BA6A9A42E1D197F8273039
:10488000002B14D0FB681B781A460123934019466D
:10489000134845F0A9FA0AE03B6A5B681946F868D4
:1048A000FEF7EEFF04E000BF02E000BF00E000BF43
:1048B0003B69184645F068F997F82F3018463037AD
:1048C000BD4680BD44EC0308BC77040858EC0308DF
:1048D00020F83F4104F83F44E80C0020EC0C002095
:1048E0004C44012080B59AB000AF0346FB71002311
:1048F0003B660023FB65092387F85B30002387F8BC
:104900006730002387F86630FB79012B06D99A4B74
:104910009A4A4FF49A619A4838F0C0FDFB794FF4F7
:10492000947202FB03F3974A1344FB65FB6D1B78FB
:10493000002B01D1944B00E0944B9B6803F00803DB
:10494000002B28D0FB6D1B7801211846FEF782FE54
:10495000FB6D1B78002B01D1482300E05A23184639
:10496000FEF7FEFDFB6D1B78002B01D1884B00E0AC
:10497000884B1A68FB6D1B78002B01D1844B00E03B
:10498000844B42F001021A6000BF97F86730002B99
:1049900000F0488143E1FB6D1B78002B01D17C4B7B
:1049A00000E07C4B1A68FB6D1B78002B01D1784B23
:1049B00000E0784B22F001021A60FB6D1B78002B9F
:1049C00001D1754B00E0754B5B683B663B6E002B7D
:1049D0000ED0FB6D1B78002B01D16B4B00E06B4BB5
:1049E0009B6803F00103002B02D0012387F8673096
:1049F0003B6E002B9AD007F12C032422396E184607
:104A000045F022FB07F12C033B663B6E1B7887F8D1
:104A10005B3097F85B30082B00F2F08001A252F86F
:104A200023F000BF494A0008FD4B0008854A0008F2
:104A3000D94A0008FD4B0008274B0008FD4B000831
:104A4000274B0008A54B00083B6EDB78DBB21A460B
:104A5000396EF86DFFF7F8FD034687F86630FB6D99
:104A6000D3F80431002B00F0CB80FB6DD3F8043178
:104A70003A6ED278D2B21146386E9847034687F81C
:104A80006630BDE0FB6DD3F80C31002B0BD0FB6D15
:104A9000D3F80C313A6ED278D2B21146386E9847BC
:104AA000034687F8663097F86630002B06D03C4BFB
:104AB000324A40F20751324838F0F0FC3B6E043382
:104AC00001221946F86DFFF74DFA034687F8663064
:104AD000FB6D01221A7196E0FB6DD3F81031002BAB
:104AE0000BD0FB6DD3F810313A6ED278D2B21146AA
:104AF000386E9847034687F8663097F86630002B83
:104B000006D0274B1D4A40F211511D4838F0C6FC13
:104B10003B6E043301221946F86DFFF7D9F90346BD
:104B200087F866306FE007F108032422396E1846D3
:104B300045F08AFAFB6DD3F81831002B0BD0FB6DD2
:104B4000D3F818313A6ED278D2B21146386E9847FF
:104B5000034687F8663007F108033B663B6E191D74
:104B60003B6EDB78DBB21A46F86DFFF745FA034679
:104B700087F8663047E000BFC4EC0308D07704082C
:104B800058EC0308C441012000F83F4118F83F44A5
:104B90008C24384188FE3C4420F83F4104F83F44CF
:104BA00034ED03083B6E04337B657B6D5B6819460F
:104BB000F86DFEF78BFD38653B6D002B10D03B6D1B
:104BC0005B69002B0CD03B6D5B693A6D90697A6D27
:104BD000126911467A6D92899847034687F86630C4
:104BE00097F86630002B0DD17B6D10331946F86DA8
:104BF000FFF726F9034687F8663003E000BF02E0BE
:104C000000BF00E000BF97F86630002B3FF48EAE87
:104C10000C4B0D4A40F235510C4838F03FFCF86D12
:104C2000FFF7FAFBFB6D1B78002B01D1482300E056
:104C30005A231846FEF7DCFC97F8663018466837AA
:104C4000BD4680BD34ED0308D077040858EC030856
:104C500080B586B002AF78600023FB6000F0A4FB53
:104C600007F10C0300934FF0FF33002203210E489D
:104C700044F0EAFFFB68002B04D10C4B1B78002B9F
:104C80000AD10CE000F074FB0020FFF72BFE074B6D
:104C90001B78002B02D0E1E700BFDFE700BF00BFB9
:104CA0001037BD4680BD00BF3C4401202F7404086E
:104CB00080B586B002AF78600023FB6007F10C037B
:104CC00000934FF0FF33002203210D4844F0BCFF56
:104CD000FB68002B04D10B4B1B78002B08D10AE09A
:104CE0000120FFF7FFFD074B1B78002B02D0E5E703
:104CF00000BFE3E700BF00BF1037BD4680BD00BF67
:104D0000444401202F74040880B582B000AF0346EC
:104D1000FB71FB79002B1ED1214B1B781A46FB79C6
:104D200022FA03F303F00103002B14D100221D49E2
:104D30001D4845F0B1F801211C4845F035F8FB79D4
:104D4000012202FA03F3DAB2154B1B781343DAB2ED
:104D5000134B1A7020E0FB79012B1DD1104B1B78EF
:104D60001A46FB7922FA03F303F00103002B13D157
:104D700000220F490F4845F08FF801210E4845F0F9
:104D800013F8FB79012202FA03F3DAB2044B1B7821
:104D90001343DAB2024B1A7000BF0837BD4680BD1C
:104DA0001E440120BC750408244401203C44012019
:104DB000DC750408304401204444012080B582B0F1
:104DC00000AF0346FB71FB79002B1DD1204B1B78F4
:104DD0001A46FB7922FA03F303F00103002B13D0E8
:104DE0001C4844F0C1FC1C4844F08EFDFB790122B4
:104DF00002FA03F3DBB2DB43DAB2154B1B78134044
:104E0000DAB2134B1A701FE0FB79012B1CD1104B47
:104E10001B781A46FB7922FA03F303F00103002BF7
:104E200012D00E4844F0A0FC0D4844F06DFDFB7913
:104E3000012202FA03F3DBB2DB43DAB2044B1B7844
:104E40001340DAB2024B1A7000BF0837BD4680BD6E
:104E50001E4401203C4401202444012044440120FC
:104E60003044012080B586B000AF0346FB710023BB
:104E7000BB750023FB60FB79012B06D95B4B5C4AB9
:104E800040F227615B4838F009FBFB794FF49472DC
:104E900002FB03F3584A13443B613B69FA791A70E9
:104EA00007F10C03184644F0EFFF544B1B781A46E9
:104EB0003B691B7822FA03F303F00103002B7CD13A
:104EC0003B691B781846FFF71FFFFB79184605F072
:104ED00027FD0346002B01D0012383E0FB7901214C
:104EE0001846FEF7B7FBFB79002B01D1482300E001
:104EF0005A231846FEF734FBFB79002B01D14823D7
:104F000000E05A2302211846FEF748FBFB79002BEC
:104F100001D1482300E05A231846FEF769FB3B699C
:104F20000022DA603B6900221A613B690022DA70D4
:104F30003B690022C3F8BC203B690022C3F8C020B3
:104F4000FB79002B11D10023FB750AE0FB7D5B028E
:104F50002B4A134419463869FEF792FCFB7D013356
:104F6000FB75FB7D072BF1D916E0FB79012B13D1E3
:104F70000023FB750DE0FA7D13465B011344DB0053
:104F8000204A134419463869FEF77AFCFB7D013349
:104F9000FB75FB7D0F2BEED93B69B4331846FEF74A
:104FA00079FB3B691B781A4601239340DAB2134B15
:104FB0001B781343DAB2114B1A70104B1B78032B7A
:104FC00002D10120FEF776FB3B695B78002B04D110
:104FD0003869FEF76DFE0346BB75FB68184644F062
:104FE000D3FD002318461837BD4680BD00ED0308E9
:104FF000E077040858EC0308C44101201D44012057
:105000008804384108153C4480B586B000AF03469B
:105010003960FB710023FB750023FB60FB79012BDA
:1050200006D94D4B4D4A40F27C614D4838F036FA76
:10503000FB794FF4947202FB03F34A4A13443B6139
:1050400007F10C03184644F01FFF3B6803F001030F
:10505000002B11D1FB791846FFF724FA3869FFF7C6
:10506000ADFA0346FB75FB7D012B05D1FB681846A5
:1050700044F08AFD01236BE03B691B78012118464F
:10508000FEF7E8FA3B691B7802211846FEF7E2FAC0
:105090003B691B78002B01D1482300E05A231846B6
:1050A000FEF7BFFA3B691B78184605F075FC3B69B3
:1050B00000225A703B691B78002B03D12A4B1B68D6
:1050C000043302E0294B1B68043300221A603B6959
:1050D0001B781A4601239340DBB2DB43DAB2244B40
:1050E0001B781340DAB2224B1A703B690022DA6057
:1050F0003B6900221A613B690022DA703B69002299
:105100009A603B6900221A713B6900225A713B6820
:1051100003F00103002B0CD100BF3B691B78002B6F
:1051200002D1114B1B6801E0104B1B681B68002B60
:10513000F3D13B6803F00203002B04D13B691B78D9
:105140001846FFF73BFEFB68184644F01DFD0023A0
:1051500018461837BD4680BD00ED0308EC770408FB
:1051600058EC0308C4410120E80C0020EC0C00209E
:105170001D44012080B584B000AF03463960FB7147
:105180001346BB71FB79012B06D9124B124A4FF41F
:10519000F161124838F082F9BB79082B06D9104B1F
:1051A0000D4A40F289710D4838F078F9FB794FF4D7
:1051B000947202FB03F30B4A1344FB60BB79FA6859
:1051C00040339B0013443A685A6000231846103756
:1051D000BD4680BDC4EC0308FC77040858EC030806
:1051E00048EE0308C441012080B582B000AF78606A
:1051F0007B6803F00103002B04D07968054844F074
:10520000F3FD03E07968044844F0EEFD00BF083781
:10521000BD4680BD3C4401204444012080B582B09D
:1052200000AF4823FB80B7F906301846FEF7F9F9BE
:105230000B4B9B6803F00803002B03D10120FFF701
:10524000D3FF08E001210020FEF704FAB7F9063089
:105250001846FEF7CDF900BF0837BD4680BD00BF38
:1052600000F83F4180B582B000AF5A23FB80B7F908
:1052700006301846FEF7D5F90E4B9B6803F008037D
:10528000002B03D10220FFF7AFFF0FE00A4B5B6852
:10529000002B02D0084B5B68984701210120FEF7E4
:1052A000D9F9B7F906301846FEF7A2F900BF08375A
:1052B000BD4680BD18F83F441444012080B584B039
:1052C00000AF0346FB71FB79012B06D90F4B104A47
:1052D00040F656010F4838F0E1F8FB794FF494722C
:1052E00002FB03F30C4A1344FB60FB680C33BB6006
:1052F000BB681A68BB685B689A420CBF0123002335
:10530000DBB218461037BD4680BD00BFC4EC0308B1
:105310001478040858EC0308C441012080B582B019
:1053200000AF0A4B1B68002B0BD1084844F0D4FB9C
:105330000346FB80FB8843F2DD72934201D10123D7
:1053400000E0002318460837BD4680BD20440120F8
:1053500080B500AF054B1B68002B05D0034844F017
:1053600083FB024B00221A6000BF80BD2044012055
:1053700080B582B000AF0B4B1B68002B01D100231E
:105380000CE04FF0FF31074844F0CEFA0346FB80B3
:10539000FB88002B14BF01230023DBB2184608371B
:1053A000BD4680BD2044012080B582B000AF0A4BCD
:1053B0001B68002B01D100230AE0074844F0C4FC1D
:1053C0000346FB80FB88002B14BF01230023DBB2C4
:1053D00018460837BD4680BD2044012080B500AF87
:1053E0002B4BD3F888302A4A43F47003C2F8883034
:1053F000274BD3F88830264A43F00F03C2F8883091
:10540000234BD3F88C30224A43F4406343F0030328
:10541000C2F88C301F4BB3F1006F03D31D4BB3F1B7
:10542000805F07D31B4BB3F1C05F2DD3194BB3F192
:10543000005F29D2184BDB69002B25D1164B4FF0AA
:10544000A062C3F80028144BD3F80038124A43F086
:105450000043C2F8003800BF0F4BD3F80038002BD0
:10546000FADB0D4B0322C3F800280B4B0B4A5A61A1
:10547000094B00229A61084B0122DA61BFF36F8F5A
:1054800000BFBFF34F8F00BF00F05EF900BF80BDCB
:1054900000ED00E0855600080030034000FCFF07E7
:1054A00080B483B000AF00237B600E4B93F8D930FB
:1054B000DBB203F00F03052B02D10B4B7B6009E03D
:1054C000084B93F8D930DBB203F00F030A2B01D15C
:1054D000064B7B607B6818460C37BD465DF8047B45
:1054E000704700BF00200045236E8C033E07E10299
:1054F00080B483B000AF00237B601E4BD3F88830AC
:105500005B0ADBB23B601C4BD3F8803403F0200312
:10551000002B10D03B684A2B0DD93B68602B0AD872
:105520003B684B3B3B603B68144A03FB02F2144B65
:1055300013447B6016E0104BD3F8803403F0200353
:10554000002B0FD13B684D2B0CD93B68642B09D83D
:105550003B684E3B3B603B680A4A03FB02F20A4B46
:1055600013447B607B6818460C37BD465DF8047BAE
:10557000704700BF0030004000080045005A62023A
:10558000005ED0B200F04902002087B280B483B040
:1055900000AF044B7B607B6818460C37BD465DF856
:1055A000047B70470040420F80B582B000AFFFF728
:1055B0009FFF0346044AA2FB0323DB087B607B6852
:1055C00018460837BD4680BDABAAAAAA80B400AF72
:1055D0000C4BD3F86831002B0AD10B4BD3F8803435
:1055E00003F02003002B01D1084B05E0084B03E03A
:1055F000044BD3F8683100231846BD465DF8047BA0
:10560000704700BF001000400008004500F049024C
:10561000005A620280B500AFFFF742FF034618460A
:1056200080BD000080B400AF074BD3F8803403F096
:105630002003002B01D1054B00E0054B1846BD4669
:105640005DF8047B704700BF0008004500A60E000F
:1056500040420F0080B500AFFFF798FF03461B09DB
:10566000184680BD80B500AFFFF79EFF0246044B91
:10567000D3F84032DBB20133B2FBF3F3184680BDFE
:105680000010004080B582B000AF00237B602C4B3F
:10569000D3F8343403F00303032B3FD801A252F8AC
:1056A00023F000BFB5560008055700080D57000845
:1056B00015570008224BD3F8303403F00303032BB3
:1056C0001CD801A252F823F0D9560008E156000870
:1056D000ED560008F5560008FFF778FF786010E0F7
:1056E000FFF798FF03469B087B600AE0FFF79AFFED
:1056F000786006E0FFF78EFF786002E000237B60B1
:1057000000BF0EE0FFF7A6FF78600AE0FFF7AAFFF0
:10571000786006E04FF400437B6002E000237B608A
:1057200000BF074BD3F80034DBB201337A68B2FB19
:10573000F3F3044A136000BF0837BD4680BD00BFC5
:1057400000100040F00C002080B400AF00BFBD4648
:105750005DF8047B7047000080B400AF0E4BD3F8B7
:105760006831002B0AD10D4BD3F8803403F02003AD
:10577000002B01D10A4B0AE00A4B08E0064BD3F894
:105780006831012B02D1084B1B6800E0002318464A
:10579000BD465DF8047B70470010004000080045DE
:1057A00000F04902005A62025444012080B400AF64
:1057B000034B1B681846BD465DF8047B704700BF6D
:1057C0005844012080B400AF074BD3F8803403F075
:1057D0002003002B01D1054B00E0054B1846BD46C8
:1057E0005DF8047B704700BF0008004500A60E006E
:1057F00040420F0080B400AF4FF400431846BD464E
:105800005DF8047B704780B483B000AF78607B683C
:10581000002B03D07B68013B002BFCD100BF0C3771
:10582000BD465DF8047B704780B584B000AF7860FA
:105830000D4B1B6803F5742303F23F230B4AA2FBB5
:1058400003239A0C7B6802FB03F3FB60FB680233C3
:10585000074AA2FB03235B081846FFF7D4FF00BFEB
:105860001037BD4680BD00BFF00C002083DE1B4317
:10587000ABAAAAAA80B582B000AF00237B60104B10
:1058800093F8D930DBB203F00F03052B02D10D4B97
:105890007B6010E00A4B93F8D930DBB203F00F03C2
:1058A0000A2B02D1084B7B6005E0084B084A8D218A
:1058B000084837F0F3FD7B6818460837BD4680BDC1
:1058C00000200045236E8C033E07E102A4EE03088E
:1058D000E0780408ACEE030880B483B000AF044B5A
:1058E0007B607B6818460C37BD465DF8047B7047CB
:1058F0000040420F80B582B000AF00237B60204B98
:10590000D3F888305B0ADBB23B601E4BD3F880349F
:1059100003F02003002B10D03B684A2B0DD93B68C5
:10592000602B0AD83B684B3B3B603B68164A03FB45
:1059300002F2164B13447B601DE0124BD3F8803407
:1059400003F02003002B10D13B684D2B0DD93B6891
:10595000642B0AD83B684E3B3B603B680C4A03FB18
:1059600002F20C4B13447B6005E00B4B0B4AC42145
:105970000B4837F093FD7B6818460837BD4680BD5D
:105980000030004000080045005A6202005ED0B2BC
:1059900000F04902002087B2A4EE0308FC78040856
:1059A000ACEE030880B582B000AFFFF7A3FF03465B
:1059B000044AA2FB0323DB087B607B681846083798
:1059C000BD4680BDABAAAAAA80B584B000AF7860FE
:1059D0007B683F4A93420DD13E4B9B6A3D4A23F080
:1059E0000403936200BF3B4B9B6A03F00203002B4E
:1059F000F9D069E07B6803F48033002B10D0364B7C
:105A0000D3F890207B68DBB2012101FA03F3DB437A
:105A100031491340C1F890300420FFF7F4FE53E001
:105A20007B681B0ADBB2FB60FB68052B3ED801A23A
:105A300052F823F04D5A00085D5A00086D5A0008CC
:105A40007D5A00088D5A00089D5A00087B68DBB219
:105A5000224A012101FA03F313642EE07B68DBB2D2
:105A60001E4A012101FA03F3536426E07B68DBB28E
:105A70001A4A012101FA03F393641EE07B68DBB24A
:105A8000174A012101FA03F3136416E07B68DBB2C5
:105A9000134A012101FA03F353640EE07B68DBB281
:105AA0000F4A012101FA03F3936406E00D4B0E4AFD
:105AB00040F221110D4837F0F1FC7B68B3F5887F87
:105AC00002D1054B1F221A6400BF1037BD4680BDAE
:105AD0002000010000100340003000400010004092
:105AE00000100240A4EE030814790408ACEE030889
:105AF00080B584B000AF78607B683A4A934206D1A3
:105B0000394B9B6A384A43F00403936266E07B6832
:105B100003F48033002B0CD0344BD3F890207B68F7
:105B2000DBB2012101FA03F330491343C1F890308D
:105B300054E07B681B0ADBB2FB60FB68052B3FD897
:105B400001A252F823F000BF615B0008715B0008FE
:105B5000815B0008915B0008A15B0008B15B000855
:105B60007B68DBB2224A012101FA03F313672EE0BE
:105B70007B68DBB21E4A012101FA03F3536726E07A
:105B80007B68DBB21A4A012101FA03F393671EE036
:105B90007B68DBB2174A012101FA03F3136716E0B1
:105BA0007B68DBB2134A012101FA03F353670EE06D
:105BB0007B68DBB20F4A012101FA03F3936706E029
:105BC0000D4B0E4A40F257110D4837F067FC7B68C9
:105BD000B3F5887F02D1054B00221A6400BF10374D
:105BE000BD4680BD20000100001003400030004091
:105BF0000010004000100240A4EE030828790408B9
:105C0000ACEE030880B487B000AF78600023FB756A
:105C10007B6803F00103002B0ED07B681A0B7968B8
:105C200040F6FC730B4003F1804303F544331946FF
:105C300002F003030B6056E07B6803F00203002BC5
:105C400015D07B681B092B4A03F00703C2F86037A5
:105C50007B681B0A274A03F00703C2F864377B6896
:105C60001B0B244A03F00703C2F86C373BE0002308
:105C70003B612FE03B691B017A6822FA03F37B60EA
:105C80007B6803F40043002B09D07A6840F6FC736C
:105C9000134003F1804303F50433FB6008E07A68A6
:105CA00040F6FC73134003F1804303F58053FB601F
:105CB0007A6840F6FC731340002B06D07B681B0B00
:105CC00003F00702FB681A6001E00123FB753B69E2
:105CD00001333B613B69012B05D8FB7D83F0010358
:105CE000DBB2002BC6D100BF1C37BD465DF8047B7C
:105CF000704700BF0010024080B485B000AF03467B
:105D00003960FB80B7F90630002B09DAFA8840F6D3
:105D1000FC73134003F1804303F50433FB6008E098
:105D2000FA8840F6FC73134003F1804303F5805377
:105D3000FB60FB681B6843F00052FB681A603B681D
:105D4000002B06D1FB681B6843F08042FB681A6099
:105D500008E03B685A1EFB681A6000BFFB681B68BE
:105D6000002BFBDB00BF1437BD465DF8047B70479A
:105D700080B500AFFFF77EFD0346184680BD80B5B5
:105D800000AFFFF7A9FD03461B09184680BD0000C0
:105D900080B485B000AF124B1B6ADB0CC3F30C035D
:105DA0007B600023BB600123FB600FE00D4AFB68B2
:105DB00052F823307A689A4205D10B4AFB6852F8B0
:105DC0002330BB6005E0FB680133FB60FB680A2BF6
:105DD000ECD9BB6818461437BD465DF8047B7047A4
:105DE00000300040887804083078040880B500AF9F
:105DF000FFF7D8FD0246044BD3F84032DBB2013343
:105E0000B2FBF3F3184680BD0010004080B500AF30
:105E1000FFF7BEFF0246044BD3F84032DBB201333A
:105E2000B2FBF3F3184680BD0010024080B582B08B
:105E300000AF00237B60274BD3F8343403F0030317
:105E4000032B3FD801A252F823F000BF5D5E00088B
:105E5000AD5E0008B55E0008BD5E00081D4BD3F8BE
:105E6000303403F00303032B1CD801A252F823F0B3
:105E7000815E0008895E0008955E00089D5E00084E
:105E8000FFF76AFC786010E0FFF772FF03469B089B
:105E90007B600AE0FFF796FC786006E0FFF768FF9A
:105EA000786002E000237B6000BF0EE0FFF767FF31
:105EB00078600AE0FFF79AFF786006E0FFF79AFC47
:105EC000786002E000237B6000BF7B6818460837DB
:105ED000BD4680BD001000402DE9B04F8CB000AF32
:105EE00078610023FB620123FB610023BB62002376
:105EF0007B6200233B627B69032B1CD8484A7B6989
:105F000028335B0113441B6803F00703BB62444A58
:105F10007B6928335B01134404331B681B0ADBB223
:105F20003B623F4A7B6928335B01134404331B689F
:105F3000DBB27B621BE07B690E2B11D1384BD3F8AF
:105F4000C03603F00703BB62354BD3F8C4361B0AD7
:105F5000DBB23B62324BD3F8C436DBB27B6206E085
:105F6000304B314A40F29121304837F097FABB6A02
:105F7000032B25D801A252F823F000BF8D5F000843
:105F8000955F0008B15F0008B95F0008FFF74EFF9A
:105F9000F86218E0224BD3F8FC36DBB20133FB6128
:105FA000FFF724FF0246FB69B2FBF3F3FB620AE052
:105FB000FFF7E5FEF86206E0FFF7DAFEF86202E0BE
:105FC0000023FB6200BFFB6A00229A4693467B6A6D
:105FD0000022BB60FA60D7E902120B465C1C134634
:105FE00043F1000504FB0BF20AFB05F31344AAFB83
:105FF00004894B4499463A6A7B6A13440133002270
:106000003B607A60D7E9002340464946FBF75CFCD9
:1060100002460B46134618463037BD46BDE8B08FE2
:1060200000100240A4EE03083C790408ACEE03081B
:1060300080B584B000AF78607B681B78FB60FB683C
:106040000E2B06D9254B264A40F2B721254837F0BA
:1060500025FA7B689B78FF2B06D0234B204A4FF410
:106060002E71204837F01AFAFB68032B17D87B688B
:106070005B781E4A1946FB6828335B01134419609C
:106080007B68DB781B029BB27A68927817491A43C7
:10609000FB6828335B010B4404331A601AE0FB6889
:1060A0000E2B10D17B685A78104BC3F8C0267B6842
:1060B000DB781B029BB27A68927811460B4A0B433D
:1060C000C2F8C43606E00A4B054A40F2C62105482C
:1060D00037F0E4F91037BD4680BD00BF00EF03087C
:1060E00050790408ACEE03080CEF030800100240DE
:1060F000A4EE030880B584B000AF78600023FB6095
:106100000023BB607B68032B08D8234A7B685B01B4
:10611000134403F5A1631B68BB600EE07B680E2B84
:1061200004D11D4BD3F8C836BB6006E01B4B1C4A9C
:1061300040F286311B4837F0B1F9BB68042B22D8F6
:1061400001A252F823F000BF5D61000865610008FC
:106150006D610008756100087D610008FFF70FFEA2
:10616000F86013E0FFF704FEF8600FE0FFF74EFE63
:10617000F8600BE0FFF71AFBF86007E07868FFF7BC
:10618000ABFEF86002E00023FB6000BFFB6818462E
:106190001037BD4680BD00BF00100240A4EE0308CA
:1061A00064790408ACEE030880B584B000AF786071
:1061B0000B46FB700023FB600023BB60354BD3F81C
:1061C000803403F02003002B1ED07B68324A9342B8
:1061D00038BF1346FB60FB68304A934228BF134622
:1061E000FB60FA682E4B13442E4AA2FB03231B0EBE
:1061F000BB60BB682C4A03FB02F2274B1344FB60D5
:10620000BB684B33BB602CE0224BD3F8803403F0E7
:106210002003002B1ED17B68244A934238BF1346CB
:10622000FB60FB681D4A934228BF1346FB60FA6877
:106230001F4B13441F4AA2FB03231B0EBB60BB680A
:106240001D4A03FB02F2194B1344FB60BB684E333B
:10625000BB6006E0194B1A4A40F2B541194837F0C5
:106260001DF9194BD3F8883023F4FF3323F4C0739E
:10627000BA68520202F4FF321A43FB78DB0103F4DE
:10628000C07311491343C1F88830FB6818461037B2
:10629000BD4680BD00080045005ED0B200C0E1E40C
:1062A00000CF604E6BCA5F6B005A6202002087B25B
:1062B00000D89D4E851DD96F00F04902A4EE030859
:1062C00080790408ACEE03080030004080B584B04B
:1062D00000AF78600B46FB70134BD3F8883003F0A7
:1062E0002003002B01D000F023F8104B742283F818
:1062F000E820FB7819467868FFF756FFF8600A4BEC
:10630000D3F88830084A43F02003C2F8883000BF31
:10631000054BD3F8883003F04003002BF8D0FB681E
:1063200018461037BD4680BD0030004000200045B3
:1063300080B500AF0C4BD3F890300B4A43F0030309
:10634000C2F89030084BD3F88830074A23F0200376
:10635000C2F88830FFF796F90120FFF765FA034885
:10636000FFF7C6FB00BF80BD003000401C000100ED
:1063700080B582B000AF0346FB71174BD3F888306D
:1063800003F00803002B01D000F02AF8134B74220D
:1063900083F8A820104BD3F8883023F4C022FB796F
:1063A0005B0403F4C0230C491343C1F888300A4B43
:1063B000D3F88830084A43F00803C2F8883000BF99
:1063C000054BD3F8883003F01003002BF8D000BF42
:1063D00000BF0837BD4680BD0030004000200045AA
:1063E00080B500AF0C4BD3F890300B4A43F00C0350
:1063F000C2F89030084BD3F88830074A23F00803DE
:10640000C2F88830FFF73EF90120FFF70DFA034884
:10641000FFF76EFB00BF80BD003000401D00010093
:1064200080B582B000AF0346FB71154BD3F88830BE
:1064300003F00103002B01D000F026F8FB79002BBC
:1064400004D1104B052283F8D92003E00D4B0A221A
:1064500083F8D9200A4BD3F88830094A43F0010366
:10646000C2F8883000BF064BD3F8883003F002032F
:10647000002BF8D000BF00BF0837BD4680BD00BF6D
:10648000003000400020004580B500AFFFF7FAF86B
:106490000A4BD3F89030094A43F0F003C2F8903029
:1064A000064BD3F88830054A23F00103C2F8883040
:1064B0000120FFF7B9F900BF80BD00BF00300040E8
:1064C00080B489B000AF5123FB610023BB6114236A
:1064D0007B6102233B610223FB600323BB60042337
:1064E0007B6005233B602E4BD3F8803403F0200300
:1064F000002B06D15423FB6144F62413BB61132304
:106500007B61284B5A69284B13403A68D20602F047
:10651000F0421A43BB68DB0503F0F0631A437B6863
:106520001B0503F4E0031A437B69DB029BB21D49A0
:1065300013434B611B4B9B6923F47E623B695B01F8
:1065400003F47E63174913438B61164BDB6823F01A
:106550001E02FB685B0003F01E0312491343CB606D
:10656000104B1B6923F0FF5323F48013FA691105C4
:106570000E4A0A400B4913430B610A4BDB6A0C4A73
:106580001A40BB69DB0123F07C4323F07F030549FC
:106590001343CB6200BF2437BD465DF8047B7047D0
:1065A0000008004500300040FF070F800000F01F8A
:1065B0007F0000F080B483B000AF0346FB71FB792D
:1065C000002B27D0164B5B6923F04002FB7915495D
:1065D00051F823309B0103F04003114913434B61F1
:1065E0000F4B1B69104A1A40FB79104951F82330B0
:1065F00059000F4B0B400A4913430B61084B1B6AB0
:10660000C3F31202FB790B4951F82330DB04044930
:1066100013430B6200BF0C37BD465DF8047B704727
:1066200000300040B47804080100F0FF5C780408F2
:10663000FEFF0F008878040880B483B000AF0346E3
:10664000FB71FB79002B1BD0104BDB6B23F000722E
:10665000FB790F4951F823305B0603F000730B49B7
:106660001343CB63FB790B4A52F82330C3F3120276
:10667000FB79094951F82330DB04044913438B6348
:1066800000BF0C37BD465DF8047B7047003000400A
:10669000B47804085C7804088878040880B582B06F
:1066A00000AF0A4B9B687B607B6803F48053002B30
:1066B00007D1064A7B6843F4805393603220FFF78A
:1066C000B3F800BF0837BD4680BD00BF00300040B2
:1066D00080B483B000AF094B9B687B607B6803F498
:1066E0008053002B04D0054A7B6823F480539360C9
:1066F00000BF0C37BD465DF8047B7047003000409A
:1067000080B584B000AF0346FB710B46BB711346E6
:106710007B71FB79002B05D04D4B5B694C4A43F0F4
:1067200010035361BB79002B05D0494BDB6B484A02
:1067300043F08073D363464BDB6A454A43F0400322
:10674000D3620320FFF770F8414BDB6A404A23F025
:106750004003D3620220FFF767F83D4BDB6A3C4AF7
:1067600023F00103D3620520FFF75EF87B79002B4D
:1067700005D0374B5B69364A43F4803353610520BB
:10678000FFF752F8FB79002B05D0314BDB6A304A1A
:1067900023F00203D362BB79002B07D02C4BD3F834
:1067A000C0302B4A23F00103C2F8C0300220FFF7AB
:1067B0003BF8FB79002B05D0254B1B69244A43F09D
:1067C00001031361BB79002B05D0214BDB6B204A01
:1067D00043F08063D3630220FFF726F8FB79002B98
:1067E00005D01B4B1B691A4A23F001031361BB79C7
:1067F000002B05D0164BDB6B154A23F08063D36367
:106800000C20FFF711F87B79002B1CD00023FB60D4
:1068100005E0FB680A33FB600A20FFF705F80C4B24
:106820009B6A03F00073B3F1007F03D0FB68B3F5FC
:10683000167FEED30A20FEF7F7FF054B5B69044A8B
:1068400023F48033536100BF1037BD4680BD00BFC5
