:020000040800F2
:10000000FFFFFFFFFFFFFFFFFFFFFFFFFFFFFFFF00
:10001000FFFFFFFFFFFFFFFFFFFFFFFFFFFFFFFFF0
:10002000FFFFFFFFFFFFFFFFFFFFFFFFFFFFFFFFE0
:10003000FFFFFFFFFFFFFFFFFFFFFFFFFFFFFFFFD0
:1004000046434642000000000000000001030300D4
:10041000010000000102000040C7000000000000D1
:1004200000000000000000000000000000000000CC
:1004300000000000000000000000000000000000BC
:1004400000000000010407000000000000000000A0
:100450000000000400000000000000000000000098
:10046000000000000000000000000000000000008C
:10047000000000000000000000000000000000007C
:10048000EB04180A0A3204260000000000000000F5
:10049000050404240000000000000000000000002B
:1004A0000104022000000000000000000000000025
:1004B0000604000000000000000000000000000032
:1004C000000000000000000000000000000000002C
:1004D00020041808000000000000000000000000D8
:1004E000000000000000000000000000000000000C
:1004F00000000000000000000000000000000000FC
:100500005204180800000000000000000000000075
:100510000204180800200000000000000000000095
:1005200000000000000000000000000000000000CB
:100530006004000000000000000000000000000057
:1005400000000000000000000000000000000000AB
:10055000000000000000000000000000000000009B
:10056000000000000000000000000000000000008B
:10057000000000000000000000000000000000007B
:10058000000000000000000000000000000000006B
:10059000000000000000000000000000000000005B
:1005A000000000000000000000000000000000004B
:1005B000000000000000000000000000000000003B
:1005C000000100000010000000000000000000001A
:1005D000008000000000000000000000000000009B
:1005E000000000000000000000000000000000000B
:1005F00000000000000000000000000000000000FB
:10060000FFFFFFFF000000000000000000000000EE
:1006100000000000000000000000000000000000DA
:1006200000000000000000000000000000000000CA
:1006300000000000000000000000000000000000BA
:1006400000000000000000000000000000000000AA
:101000000000132059120008F1120008B15900081D
:10101000F5120008F7120008F9120008FB12000888
:10102000746900000000000000000000FD120008CC
:10103000FF12000800100008011300080313000845
:10104000A9550008B1550008B9550008C155000858
:10105000C9550008D1550008D9550008E1550008C8
:10106000E9550008F1550008F95500080156000837
:1010700009560008115600081956000821560008A4
:101080002956000831560008395600084156000814
:101090004956000851560008595600086156000884
:1010A00069560008715600087956000881560008F4
:1010B000895600089156000899560008A156000864
:1010C000A9560008B1560008B9560008C1560008D4
:1010D000C9560008D1560008D9560008E156000844
:1010E000E9560008F1560008F956000801570008B3
:1010F0000957000811570008195700082157000820
:10110000295700083157000839570008415700088F
:1011100049570008515700085957000861570008FF
:10112000695700087157000879570008815700086F
:10113000895700089157000899570008A1570008DF
:10114000A9570008B1570008B9570008C15700084F
:10115000C9570008D1570008D9570008E1570008BF
:10116000E9570008F1570008F9570008015800082E
:10117000095800081158000819580008215800089B
:10118000295800083158000839580008415800080B
:10119000495800085158000859580008615800087B
:1011A00069580008715800087958000881580008EB
:1011B000895800089158000899580008A15800085B
:1011C000A9580008B1580008B9580008C1580008CB
:1011D000C9580008D1580008D9580008E15800083B
:1011E000E9580008F1580008F958000801590008AA
:1011F0000959000811590008195900082159000817
:101200002959000831590008395900084159000886
:1012100049590008515900085959000861590008F6
:101220006959000871590008795900088159000866
:10123000895900089159000899590008A1590008D6
:10124000A9590008B86D000800000020BC0B000080
:10125000BC0B00205C02000072B6134B134A174807
:101260000360196881F3088882F30A8803F008F89C
:101270000F4B07E003F10C049A685968186800F0F6
:101280001FF823460B4A9342F4D306E01C465968E4
:1012900054F8080B00F023F82346074A9342F5D38D
:1012A00062B604F0B0FDFEE70010000800F0122066
:1012B00044120008501200085812000808ED00E01F
:1012C000002393420AD210B450F8044B41F8044B67
:1012D00004339342F8D35DF8044B70477047002302
:1012E00003E0002240F8042B04338B42F9D370470B
:1012F000FEE7FEE7FEE7FEE7FEE7FEE7FEE7FEE7C6
:10130000FEE7FEE7FEE7FFFF80B584B000AF786040
:101310000023FB604FF0FF33BB607968044804F0A2
:10132000ACF8BA68F968786804F09AF800BEFDE78E
:101330007062000880B58AB000AFB9607B60034678
:10134000FB731346BB73BB7B012B01D001232AE047
:10135000174ABB7B13747B687B61BB68BB6100234E
:101360003B7700237B770123BB770123FB770023A7
:1013700087F82030002387F82130FB7B87F8223064
:10138000002387F82330002387F8243007F1140363
:101390001946074804F0B2FC054B064A9A60044B14
:1013A000054ADA60002318462837BD4680BD00BFD5
:1013B000BC0B002049470008DD46000880B584B01A
:1013C00000AF786039600023FB60094B1B7C002B69
:1013D00002D14FF0FF3306E03A687968054800F023
:1013E00041F8F860FB6818461037BD4680BD00BF65
:1013F000BC0B0020F913000880B582B000AF786004
:10140000084B1B7C002B02D14FF0FF3306E0054B4D
:101410009B68391D01220348984701231846083765
:10142000BD4680BDBC0B002080B582B000AF0C4B28
:101430001B7C002B05D14FF0FF330DE04FF0FF3345
:101440000AE000BF064BDB68F91D012204489847FB
:101450000346002BF2D1FB7918460837BD4680BD04
:10146000BC0B002080B59CB002AFF860B9607A6018
:1014700000233B660023FB650023FB61002387F804
:101480004A3000237B61BB687B667B6E1B78002B38
:1014900000F0D2817B6E1B7887F8493097F849308D
:1014A000252B0BD097F84920FB6810469847FB691D
:1014B0000133FB617B6E01337B66BCE1012387F85E
:1014C0004B3000237B65002387F85B3020E07B6E88
:1014D00001337B667B6E1B7887F8493097F849307B
:1014E0002F2B0FD997F84930392B0BD87A6D13462B
:1014F0009B0013445B001A4697F849301344303B75
:101500007B6505E07B6E013B7B66012387F85B30E2
:1015100097F85B3083F00103DBB2002BD7D17B6EF1
:1015200001337B667B6E1B782E2B2ED100233B650F
:10153000002387F85B3020E07B6E01337B667B6E97
:101540001B7887F8493097F849302F2B0FD997F837
:101550004930392B0BD83A6D13469B0013445B007E
:101560001A4697F849301344303B3B6505E07B6EE3
:10157000013B7B66012387F85B3097F85B3083F093
:101580000103DBB2002BD7D102E07B6E013B7B660F
:101590007B6E01337B667B6E1B7887F8493097F84A
:1015A0004930642B24D097F84930692B20D097F824
:1015B0004930662B1CD097F84930462B18D097F845
:1015C0004930782B14D097F84930582B10D097F821
:1015D00049306F2B0CD097F84930622B08D097F820
:1015E0004930702B04D097F84930752B40F0DC80DF
:1015F00097F84930642B03D097F84930692B15D1FF
:101600007B681A1D7A601B68BB6107F1180107F13E
:10161000200097F84B3000930A23012203F063FF68
:10162000F86507F12002FB6D13443B6697F84930DB
:10163000582B03D097F84930782B1CD197F84930B4
:10164000782B02D1002387F84B307B681A1D7A6013
:101650001B687B6107F1140107F1200097F84B30FC
:1016600000931023002203F03EFFF86507F12002EB
:10167000FB6D13443B6697F849306F2B0BD097F8FE
:101680004930622B07D097F84930702B03D097F878
:101690004930752B6AD197F84930702B0DD17B6892
:1016A0001A1D7A601B683B6107F1100107F11403F2
:1016B0000422184600F0C6F804E07B681A1D7A6020
:1016C0001B687B6197F84930623B132B3AD801A223
:1016D00052F823F02D170008451700084517000899
:1016E000451700084517000845170008451700086A
:1016F000451700084517000845170008451700085A
:101700004517000845170008251700083517000879
:101710004517000845170008451700084517000839
:101720003D170008082387F84A300CE0022387F8A9
:101730004A3008E0102387F84A3004E00A2387F88B
:101740004A3000E000BF97F84A2007F1140107F182
:10175000200097F84B3000931346002203F0C3FE9D
:10176000F86507F12002FB6D13443B667A6D07F1C3
:101770001C01FB6800930B46F96D202003F093FEDB
:101780003B6E002B54D00AE03B6E5A1E3A661B7823
:101790001A46FB6810469847FB690133FB613B6EB4
:1017A0001B78002BF0D143E097F84930632B0BD125
:1017B0007B681A1D7A601B687B64FB68786C9847AD
:1017C000FB690133FB6133E097F84930732B27D174
:1017D0007B681A1D7A601B68FB64FB6C002B27D0AA
:1017E000F86C04F050FB0346FB657A6D07F11C01B1
:1017F000FB6800930B46F96D202003F054FE0AE0CD
:10180000FB6C5A1CFA641B781A46FB681046984712
:10181000FB690133FB61FB6C1B78002BF0D107E007
:1018200097F84920FB6810469847FB690133FB6134
:101830007B6E01337B6628E600BFFB69184668377C
:10184000BD4680BDF1B5002A4BD011F0030306D090
:1018500011F8014B013A00F8014B42D0F5E710F0C6
:1018600003031BD1102A04DB103AF0C9102AF0C080
:10187000FAD2130744BF30C930C0530744BF51F8F0
:10188000044B40F8044B930744BF31F8024B20F857
:10189000024BD30744BF0C78047022E0C3070AD47C
:1018A000042A16D351F8044B043A20F8024B250CB5
:1018B00020F8025BF4E7042A0BD351F8044B043AF6
:1018C00000F8014B250A20F8025B260E00F8016B98
:1018D000F1E7002A1EBF11F8014B00F8014B013A55
:1018E000F7D1F1BD80B582B000AF04F086FA04F004
:1018F0007EFA03F0FDF8064803F0BFFDFFF794FD04
:101900000346FB71FB791846FFF776FDF6E700BF4B
:101910008462000880B400AF0E4BD3F86831002B0E
:101920000AD10D4BD3F8803403F02003002B01D1F2
:101930000A4B0AE00A4B08E0064BD3F86831012B4A
:1019400002D1084B1B6800E000231846BD465DF835
:10195000047B7047001000400008004500F0490279
:10196000005A6202D00B002080B400AF034B1B680A
:101970001846BD465DF8047B704700BFD40B0020BD
:1019800080B400AF074BD3F8803403F02003002B62
:1019900001D1054B00E0054B1846BD465DF8047BC0
:1019A000704700BF0008004500A60E0040420F002F
:1019B00080B584B000AF78600D4B1B6803F57423CD
:1019C00003F23F230B4AA2FB03239A0C7B6802FB22
:1019D00003F3FB60FB680233074AA2FB03235B08A7
:1019E000184604F009F800BF1037BD4680BD00BF9F
:1019F000B80B002083DE1B43ABAAAAAA80B582B035
:101A000000AF00237B60144B1B6903F48063002B41
:101A10001DD04FF080431B6903F48063002B16D167
:101A20000E4B5B6803F00103002B10D005E07B68D0
:101A300001337B600120FFF7BBFF084B1B6803F4F9
:101A40008063002B03D07B68054A9342EFD900BF27
:101A50000837BD4680BD00BF001000400070004048
:101A60009F86010080B582B000AF00237B600F4BE2
:101A700093F8D930DBB203F00F03052B02D10C4BE6
:101A80007B600DE0094B93F8D930DBB203F00F0314
:101A90000A2B02D1074B7B6002E00748FFF734FCBA
:101AA0007B6818460837BD4680BD00BF0020004552
:101AB000236E8C033E07E1024463000880B483B0C8
:101AC00000AF044B7B607B6818460C37BD465DF861
:101AD000047B70470040420F80B582B000AF002306
:101AE0007B601F4BD3F888305B0ADBB23B601D4B39
:101AF000D3F8803403F02003002B10D03B684A2B2E
:101B00000DD93B68602B0AD83B684B3B3B603B6878
:101B1000154A03FB02F2154B13447B601AE0114B8C
:101B2000D3F8803403F02003002B10D13B684D2BF9
:101B30000DD93B68642B0AD83B684E3B3B603B6841
:101B40000B4A03FB02F20B4B13447B6002E00A4892
:101B5000FFF7DAFB7B6818460837BD4680BD00BF3B
:101B60000030004000080045005A6202005ED0B21A
:101B700000F04902002087B25C63000880B582B0A3
:101B800000AFFFF7A9FF0346044AA2FB0323DB08CB
:101B90007B607B6818460837BD4680BDABAAAAAA01
:101BA00080B584B000AF78607B683D4A93420DD128
:101BB0003C4B9B6A3B4A23F00403936200BF394BC2
:101BC0009B6A03F00203002BF9D065E07B6803F405
:101BD0008033002B10D0344BD3F890207B68DBB2DD
:101BE000012101FA03F3DB432F491340C1F8903080
:101BF000042003F001FF4FE07B681B0ADBB2FB60AF
:101C0000FB68052B3ED801A252F823F0251C0008E2
:101C1000351C0008451C0008551C0008651C000800
:101C2000751C00087B68DBB2204A012101FA03F32E
:101C300013642AE07B68DBB21C4A012101FA03F33A
:101C4000536422E07B68DBB2184A012101FA03F3F6
:101C500093641AE07B68DBB2154A012101FA03F3B1
:101C6000136412E07B68DBB2114A012101FA03F32D
:101C700053640AE07B68DBB20D4A012101FA03F3E9
:101C8000936402E00B48FFF73FFB7B68B3F5887F66
:101C900002D1054B1F221A6400BF1037BD4680BD1C
:101CA0002000010000100340003000400010004000
:101CB000001002407463000880B584B000AF786003
:101CC0007B683B4A934206D13A4B9B6A394A43F0C0
:101CD0000403936268E07B6803F48033002B12D026
:101CE0007B68354A934201D1FFF788FE334BD3F826
:101CF00090207B68DBB2012101FA03F32F491343E3
:101D0000C1F8903050E07B681B0ADBB2FB60FB68D7
:101D1000052B3FD801A252F823F000BF351D000863
:101D2000451D0008551D0008651D0008751D0008AB
:101D3000851D00087B68DBB2214A012101FA03F30B
:101D400013672AE07B68DBB21D4A012101FA03F325
:101D5000536722E07B68DBB2194A012101FA03F3E1
:101D600093671AE07B68DBB2164A012101FA03F39C
:101D7000136712E07B68DBB2124A012101FA03F318
:101D800053670AE07B68DBB20E4A012101FA03F3D4
:101D9000936702E00C48FFF7B7FA7B68B3F5887FDA
:101DA00002D1064B00221A6400BF1037BD4680BD29
:101DB0002000010000100340050001000030004039
:101DC00000100040001002408C63000880B487B00F
:101DD00000AF78600023FB757B6803F00103002BE4
:101DE0000ED07B681A0B796840F6FC730B4003F148
:101DF000804303F54433194602F003030B6056E0B9
:101E00007B6803F00203002B15D07B681B092B4A6B
:101E100003F00703C2F860377B681B0A274A03F008
:101E20000703C2F864377B681B0B244A03F00703DF
:101E3000C2F86C373BE000233B612FE03B691B019C
:101E40007A6822FA03F37B607B6803F40043002B7B
:101E500009D07A6840F6FC73134003F1804303F520
:101E60000433FB6008E07A6840F6FC73134003F12A
:101E7000804303F58053FB607A6840F6FC7313409F
:101E8000002B06D07B681B0B03F00702FB681A606F
:101E900001E00123FB753B6901333B613B69012B89
:101EA00005D8FB7D83F00103DBB2002BC6D100BF58
:101EB0001C37BD465DF8047B704700BF0010024030
:101EC00080B485B000AF124B1B6ADB0CC3F30C036C
:101ED0007B600023BB600123FB600FE00D4AFB68C1
:101EE00052F823307A689A4205D10B4AFB6852F8BF
:101EF0002330BB6005E0FB680133FB60FB680A2B05
:101F0000ECD9BB6818461437BD465DF8047B7047B2
:101F100000300040EC6200089462000880B500AF19
:101F2000FFF72CFE0246044BD3F84032DBB20133FC
:101F3000B2FBF3F3184680BD0010004080B500AF3F
:101F4000FFF7BEFF0246044BD3F84032DBB2013349
:101F5000B2FBF3F3184680BD0010024080B582B09A
:101F600000AF00237B60274BD3F8343403F0030326
:101F7000032B3FD801A252F823F000BF8D1F0008A9
:101F8000DD1F0008E51F0008ED1F00081D4BD3F8FA
:101F9000303403F00303032B1CD801A252F823F0C2
:101FA000B11F0008B91F0008C51F0008CD1F000899
:101FB000FFF7B0FC786010E003F06BFD03469B0870
:101FC0007B600AE0FFF7DCFC786006E003F061FD6F
:101FD000786002E000237B6000BF0EE003F060FD4C
:101FE00078600AE0FFF79AFF786006E003F0FBFCF8
:101FF000786002E000237B6000BF7B6818460837EA
:10200000BD4680BD001000402DE9B04F8CB000AF40
:1020100078610023FB620123FB610023BB62002384
:102020007B6200233B627B69032B1CD8464A7B6999
:1020300028335B0113441B6803F00703BB62424A69
:102040007B6928335B01134404331B681B0ADBB232
:102050003B623D4A7B6928335B01134404331B68B0
:10206000DBB27B6217E07B690E2B11D1364BD3F8C4
:10207000C03603F00703BB62334BD3F8C4361B0AE8
:10208000DBB23B62304BD3F8C436DBB27B6202E09A
:102090002E48FFF739F9BB6A032B25D801A252F865
:1020A00023F000BFB5200008BD200008D92000089B
:1020B000E1200008FFF752FFF86218E0224BD3F846
:1020C000FC36DBB20133FB61FFF728FF0246FB69F8
:1020D000B2FBF3F3FB620AE003F0E2FCF86206E015
:1020E00003F0D7FCF86202E00023FB6200BFFB6A4A
:1020F00000229A4693467B6A0022BB60FA60D7E9C9
:1021000002120B465C1C134643F1000504FB0BF264
:102110000AFB05F31344AAFB04894B4499463A6A27
:102120007B6A1344013300223B607A60D7E90023C5
:102130004046494603F0A1FF02460B4613461846A7
:102140003037BD46BDE8B08F00100240A4630008E0
:1021500080B584B000AF78607B681B78FB60FB685B
:102160000E2B02D91F48FFF7CFF87B689B78FF2B17
:1021700002D01D48FFF7C8F8FB68032B17D87B680F
:102180005B781A4A1946FB6828335B0113441960CF
:102190007B68DB781B029BB27A68927813491A43FA
:1021A000FB6828335B010B4404331A6016E0FB68BC
:1021B0000E2B10D17B685A780C4BC3F8C0267B6875
:1021C000DB781B029BB27A6892781146074A0B4370
:1021D000C2F8C43602E00648FFF796F81037BD464D
:1021E00080BD00BFBC630008D86300080010024037
:1021F0000464000880B584B000AF78600023FB6001
:102200000023BB607B68032B08D8214A7B685B01F5
:10221000134403F5A1631B68BB600AE07B680E2BC7
:1022200004D11B4BD3F8C836BB6002E01948FFF756
:102230006BF8BB68042B22D801A252F823F000BF30
:10224000552200085D220008652200086D22000862
:102250007522000803F024FCF86013E003F019FC79
:10226000F8600FE0FFF76AFEF8600BE0FFF77CFB19
:10227000F86007E07868FFF7C7FEF86002E0002327
:10228000FB6000BFFB6818461037BD4680BD00BF2D
:10229000001002401C64000880B584B000AF786074
:1022A0000B46FB700023FB600023BB60334BD3F86D
:1022B000803403F02003002B1ED07B68304A934209
:1022C00038BF1346FB60FB682E4A934228BF134673
:1022D000FB60FA682C4B13442C4AA2FB03231B0E11
:1022E000BB60BB682A4A03FB02F2254B1344FB6028
:1022F000BB684B33BB6028E0204BD3F8803403F03D
:102300002003002B1ED17B68224A934238BF13461C
:10231000FB60FB681B4A934228BF1346FB60FA68C8
:102320001D4B13441D4AA2FB03231B0EBB60BB685D
:102330001B4A03FB02F2174B1344FB60BB684E338E
:10234000BB6002E01748FEF7DFFF174BD3F8883079
:1023500023F4FF3323F4C073BA68520202F4FF324D
:102360001A43FB78DB0103F4C0730F491343C1F830
:102370008830FB6818461037BD4680BD0008004510
:10238000005ED0B200C0E1E400CF604E6BCA5F6B6C
:10239000005A6202002087B200D89D4E851DD96F79
:1023A00000F04902346400080030004080B584B079
:1023B00000AF78600B46FB70134BD3F8883003F006
:1023C0002003002B01D000F023F8104B742283F877
:1023D000E820FB7819467868FFF75EFFF8600A4B43
:1023E000D3F88830084A43F02003C2F8883000BF91
:1023F000054BD3F8883003F04003002BF8D0FB687E
:1024000018461037BD4680BD003000400020004512
:1024100080B500AF0C4BD3F890300B4A43F0030368
:10242000C2F89030084BD3F88830074A23F02003D5
:10243000C2F8883002F068F80120FFF7B9FA0348C3
:10244000FFF73AFC00BF80BD003000401C000100D7
:1024500080B582B000AF0346FB71174BD3F88830CC
:1024600003F00803002B01D000F02AF8134B74226C
:1024700083F8A820104BD3F8883023F4C022FB79CE
:102480005B0403F4C0230C491343C1F888300A4BA2
:10249000D3F88830084A43F00803C2F8883000BFF8
:1024A000054BD3F8883003F01003002BF8D000BFA1
:1024B00000BF0837BD4680BD003000400020004509
:1024C00080B500AF0C4BD3F890300B4A43F00C03AF
:1024D000C2F89030084BD3F88830074A23F008033D
:1024E000C2F8883002F010F80120FFF761FA0348C3
:1024F000FFF7E2FB00BF80BD003000401D0001007F
:1025000080B582B000AF0346FB71154BD3F888301D
:1025100003F00103002B01D000F026F8FB79002B1B
:1025200004D1104B052283F8D92003E00D4B0A2279
:1025300083F8D9200A4BD3F88830094A43F00103C5
:10254000C2F8883000BF064BD3F8883003F002038E
:10255000002BF8D000BF00BF0837BD4680BD00BFCC
:10256000003000400020004580B500AF01F0CCFFF6
:10257000FFF744FA0A4BD3F89030094A43F0F003CE
:10258000C2F89030064BD3F88830054A23F0010397
:10259000C2F888300120FFF70BFA00BF80BD00BFF2
:1025A0000030004080B489B000AF5123FB610023AC
:1025B000BB6114237B6102233B610223FB60032385
:1025C000BB6004237B6005233B602E4BD3F8803433
:1025D00003F02003002B06D15423FB6144F624139F
:1025E000BB6113237B61284B5A69284B13403A681F
:1025F000D20602F0F0421A43BB68DB0503F0F06339
:102600001A437B681B0503F4E0031A437B69DB0272
:102610009BB21D4913434B611B4B9B6923F47E62A4
:102620003B695B0103F47E63174913438B61164BCF
:10263000DB6823F01E02FB685B0003F01E031249F7
:102640001343CB60104B1B6923F0FF5323F480131B
:10265000FA6911050E4A0A400B4913430B610A4BF4
:10266000DB6A0C4A1A40BB69DB0123F07C4323F090
:102670007F0305491343CB6200BF2437BD465DF895
:10268000047B70470008004500300040FF070F80C2
:102690000000F01F7F0000F080B483B000AF03465D
:1026A000FB71FB79002B27D0164B5B6923F04002AE
:1026B000FB79154951F823309B0103F04003114980
:1026C00013434B610F4B1B69104A1A40FB791049A9
:1026D00051F8233059000F4B0B400A4913430B614B
:1026E000084B1B6AC3F31202FB790B4951F82330E4
:1026F000DB04044913430B6200BF0C37BD465DF891
:10270000047B704700300040186300080100F0FFB0
:10271000C0620008FEFF0F00EC62000880B483B0C6
:1027200000AF0346FB71FB79002B1BD0104BDB6B1A
:1027300023F00072FB790F4951F823305B0603F058
:1027400000730B491343CB63FB790B4A52F82330D8
:10275000C3F31202FB79094951F82330DB04044921
:1027600013438B6300BF0C37BD465DF8047B704795
:102770000030004018630008C0620008EC620008E6
:1027800080B582B000AF0A4B9B687B607B6803F426
:102790008053002B07D1064A7B6843F48053936033
:1027A0003220FFF705F900BF0837BD4680BD00BFE6
:1027B0000030004080B483B000AF094B9B687B6061
:1027C0007B6803F48053002B04D0054A7B6823F414
:1027D0008053936000BF0C37BD465DF8047B7047A3
:1027E0000030004080B584B000AF0346FB710B465B
:1027F000BB7113467B71FB79002B05D04D4B5B6998
:102800004C4A43F010035361BB79002B05D0494B70
:10281000DB6B484A43F08073D363464BDB6A454A1F
:1028200043F04003D3620320FFF7C2F8414BDB6A59
:10283000404A23F04003D3620220FFF7B9F83D4B32
:10284000DB6A3C4A23F00103D3620520FFF7B0F8AE
:102850007B79002B05D0374B5B69364A43F48033D4
:1028600053610520FFF7A4F8FB79002B05D0314B0D
:10287000DB6A304A23F00203D362BB79002B07D016
:102880002C4BD3F8C0302B4A23F00103C2F8C030E0
:102890000220FFF78DF8FB79002B05D0254B1B6933
:1028A000244A43F001031361BB79002B05D0214B6F
:1028B000DB6B204A43F08063D3630220FFF778F894
:1028C000FB79002B05D01B4B1B691A4A23F001032F
:1028D0001361BB79002B05D0164BDB6B154A23F037
:1028E0008063D3630C20FFF763F87B79002B1CD047
:1028F0000023FB6005E0FB680A33FB600A20FFF75A
:1029000057F80C4B9B6A03F00073B3F1007F03D0C0
:10291000FB68B3F5167FEED30A20FFF749F8054BA5
:102920005B69044A23F48033536100BF1037BD460E
:1029300080BD00BF0030004080B483B000AF0346CC
:102940000A46FB711346BB71FB79002B0BD0114B70
:10295000DB6A104A43F00203D3620E4B5B690D4AF7
:1029600023F010035361BB79002B0DD0094BD3F832
:10297000C030084A43F00103C2F8C030054BDB6B9E
:10298000044A23F08073D36300BF0C37BD465DF863
:10299000047B70470030004080B582B000AF7860A3
:1029A0007B68002B02D11C48FEF7AEFC1B4B5B6919
:1029B00003F02003002B01D000F032F801F0A4FD59
:1029C000FFF7DEFEFFF7EEFD7B681B781846FFF78A
:1029D00063FE7B685B781846FFF7A0FE0F4B5B69D0
:1029E0000E4A43F0200353610F20FEF7E1FF0B4B2B
:1029F000DB6A0A4A23F00403D3620F20FEF7D8FFF4
:102A00007B689B781A4601210120FFF7EBFE00BF8F
:102A10000837BD4680BD00BF50640008003000404C
:102A200080B500AF01210120FFF786FF0F4BDB6A65
:102A30000E4A43F00403D3620C4BDB6A0B4A43F0AB
:102A40000103D362094B5B69084A23F020035361F9
:102A50000748FFF731F9054B5B6803F00403002BCF
:102A600001D1FFF7A7FE00BF80BD00BF00300040CE
:102A70001E0001002DE9B04384B000AF78603960DA
:102A80007968002932D07968002088468146396803
:102A900000200A46034602FB09F008FB03F101444B
:102AA000A8FB02454B191D46134A4FF00003204670
:102AB000294603F0E2FA02460B46C7E90223D7E9AA
:102AC0000223012B02D30D48FEF71EFCD7E90201B9
:102AD0004FF000024FF00003820842EA81728B0837
:102AE000C7E90223BB68184602F0E2FF00BF1037B7
:102AF000BD46BDE8B08300BF40420F0068640008D7
:102B000080B584B000AF78600023FB6009E00D4A17
:102B1000FB6852F823207B689A4206D0FB68013399
:102B2000FB60FB68042BF2D900E000BFFB68042BBC
:102B300002D90548FEF7E8FBFB6818461037BD468A
:102B400080BD00BF94640008C864000880B584B0EC
:102B500000AF78600B46FB707868FFF7D1FFF86034
:102B60000C4AFB6852F823301846FFF719F80A4A56
:102B7000FB6832F81330184603F06CF8FB7800223B
:102B80001946786802F0D6FF034618461037BD464E
:102B900080BD00BFA8640008BC64000880B582B096
:102BA00000AF1048FFF7ACFF78600F4A7B6852F81F
:102BB0002330002B02D10D48FEF7A6FB0A4A7B68A2
:102BC00052F823300A497A6851F822201046094900
:102BD0007A6851F822201146984700BF0837BD4651
:102BE00080BD00BF00601040D80B00200C650008BD
:102BF00094640008EC0B002080B582B000AF104850
:102C0000FFF77EFF78600F4A7B6852F82330002B75
:102C100002D10D48FEF778FB0A4A7B6852F8233050
:102C20000A497A6851F82220104609497A6851F811
:102C300022201146984700BF0837BD4680BD00BF1F
:102C400000701040D80B002048650008946400080C
:102C5000EC0B002080B582B000AF1048FFF750FFAA
:102C600078600F4A7B6852F82330002B02D10D4860
:102C7000FEF74AFB0A4A7B6852F823300A497A6811
:102C800051F82220104609497A6851F8222011464D
:102C9000984700BF0837BD4680BD00BF0080104088
:102CA000D80B00208465000894640008EC0B002019
:102CB00080B582B000AF1048FFF722FF78600F4A5E
:102CC0007B6852F82330002B02D10D48FEF71CFB25
:102CD0000A4A7B6852F823300A497A6851F8222060
:102CE000104609497A6851F822201146984700BFDA
:102CF0000837BD4680BD00BF00901040D80B0020B3
:102D0000C065000894640008EC0B002080B582B018
:102D100000AF1048FFF7F4FE78600F4A7B6852F866
:102D20002330002B02D10D48FEF7EEFA0A4A7B68E9
:102D300052F823300A497A6851F82220104609498E
:102D40007A6851F822201146984700BF0837BD46DF
:102D500080BD00BF00601240D80B0020FC65000859
:102D600094640008EC0B002080B500AF044B1B6896
:102D7000044A126811460448984700BF80BD00BF4E
:102D8000040C0020000C00200040134080B485B0EB
:102D900000AF154BD3F82C38BB60BB6823F46163DC
:102DA00023F00F03002B16D00023FB6010E0FB681C
:102DB000BA6822FA03F303F00103002B05D0FB6885
:102DC00003F54E4340337B6005E0FB680133FB6055
:102DD000FB681F2BEBDD00237B607B6818461437F4
:102DE000BD465DF8047B704700A0004080B483B00E
:102DF00000AF104B7B6002E07B68013B7B600E4BB9
:102E0000D3F8203803F48003002B02D07B68002B1A
:102E1000F2D17B68002B03D14CF647633B6001E0A5
:102E200000233B603B6818460C37BD465DF8047BC9
:102E3000704700BFE070720000A0004080B400AF97
:102E4000064B4FF48052C3F82028044B044AC3F8C1
:102E50002C2800BFBD465DF8047B704700A00040F1
:102E6000E0F1FFFF80B500AF40F21110FEF798FED1
:102E700040F2111002F0EEFE064B4FF6FF72A3F87F
:102E80005022044B4FF6FF72A3F84C220023184641
:102E900080BD00BF0034004580B582B000AFFFF7B1
:102EA000A5FF78607B68002B0BD10C4B0122C3F887
:102EB000042840F21110FEF7FFFE40F2111000F05E
:102EC0002DFE074B0022A3F85022054B0022A3F849
:102ED0004C227B6818460837BD4680BD00A00040E4
:102EE0000034004580B584B000AF786039600423B9
:102EF000FB603B68002B23D0FFF778FFF860FB688E
:102F0000002B1FD1FFF79AFF124A7B68C3F3080317
:102F1000C2F800380F4B0122C3F80C28FFF766FFF8
:102F2000F860FB68002B0FD1FFF730FFF860FB68FB
:102F3000002B0AD1074BD3F810283B681A6004E035
:102F400000BF02E000BF00E000BFFB68184610377A
:102F5000BD4680BD00A000402DE9F00F8EB000AF4F
:102F6000F862B9624AF210437B63424AFB6A9BB241
:102F7000A2F81C323F4A0023A2F83C323D4A00230B
:102F8000A2F828323B4BB3F828329BB2394A43F0BF
:102F900001039BB2A2F8283202E07B6B013B7B630A
:102FA0007B6B002B06D0334BB3F820329BB21BB2A5
:102FB000002BF2DA7B6B002B54D02E4BB3F8183277
:102FC0009BB203F00203002B4CD02A4BB3F814320F
:102FD0009BB29BB200223B627A624FF000004FF03E
:102FE00000013B6A19040020224BB3F810329BB257
:102FF0009BB20022BB61FA614FF000024FF0000368
:10300000BE693300002240EA020A41EA030B194B71
:10301000B3F80C329BB29BB200223B617A61D7E9D4
:1030200004120B464FEA13490B464FEA03484AEA9B
:1030300008044BEA09050F4BB3F808329BB29BB268
:103040000022BB60FA60D7E902120B4623433B60C3
:1030500013462B437B60BB6AD7E90012C3E9001219
:10306000012300E0002318463837BD46BDE8F00FC5
:10307000704700BF0034004580B584B000AF786071
:103080000123FB607B68002B02D10748FEF73CF967
:1030900040F24E21786802F087FDF860FB68184620
:1030A0001037BD4680BD00BF3866000880B586B0C9
:1030B00000AF786001237B614FF000024FF0000306
:1030C000C7E902237B68002B02D10D48FEF71CF9EB
:1030D00007F1080340F25D11184602F065FD7861C2
:1030E0007B69002B06D1D7E9022313461B0CDAB209
:1030F0007B681A607B6918461837BD4680BD00BFE3
:103100005866000880B485B000AF78607B6803F033
:103110000703FB600C4BDB68BB60BA684FF6FF032C
:103120001340BB60FB681A02BB68134343F0BF63E4
:1031300043F40033BB60044ABB68D36000BF14375C
:10314000BD465DF8047B704700ED00E080B400AF41
:10315000044BDB681B0A03F007031846BD465DF805
:10316000047B704700ED00E080B584B000AFF860EC
:10317000B9607A603B60BB68002B02D13948FEF72A
:10318000C3F87B68002B02D13748FEF7BDF83B68D7
:10319000002B02D13548FEF7B7F8BB6849F2A352BD
:1031A0001A60BB68324A5A60BB6840F2EE229A60ED
:1031B000FB68022B37D0FB68022B4BD8FB68002B37
:1031C00003D0FB68012B17D044E07B6845F2126204
:1031D0001A607B68274A5A607B684FF45C729A6079
:1031E0003B6843F27C221A603B68234A5A603B6882
:1031F0004FF496629A6030E07B6845F28F521A6015
:103200007B681E4A5A607B6840F225329A603B68B0
:1032100043F27C221A603B68174A5A603B684FF4BD
:1032200096629A6019E07B6845F28C621A607B684E
:10323000134A5A607B6840F225329A603B6843F239
:1032400075221A603B680F4A5A603B684FF49662D9
:103250009A6002E00C48FEF757F800BF1037BD46F1
:1032600080BD00BFB4670008CC670008E4670008B1
:10327000D0FCAF1E600E411EC0D1091E909CA51E41
:1032800020218C1E2056981EFC67000880B584B053
:1032900000AF4FF0E0235B6803F00F030133BB6026
:1032A000BB685B017B60BB68052B02D94248FEF717
:1032B0002BF87B68A02B02D94048FEF725F8FFF7D2
:1032C00045FF03463E4A13600023FB600BE03D4A86
:1032D000FB6852F823203A49FB689B000B445A6074
:1032E000FB680133FB60FA68BB689A42EFD30023A6
:1032F000FB600FE0334AFB68134403F540731B780F
:10330000D9B22F4AFB68134418330A461A70FB6877
:103310000133FB60FA687B689A42EBD32A4B5B6807
:10332000274AC2F8C430284B9B68254AC2F8C830E7
:10333000254BDB68224AC2F8CC30234B1B69204A5C
:10334000C2F8D030204B5B691D4AC2F8D4301E4B06
:103350005B6A1B4AC2F8D8301B4B5B6B184AC2F839
:10336000DC30194B9B6B164AC2F8E030164BD3F891
:103370008830134AC2F8E430134BD3F88C30104A2B
:10338000C2F8E8300023FB600EE00F4AFB681344EC
:1033900018331B78D9B20A4AFB681344B8330A467B
:1033A0001A70FB680133FB60FB680B2BEDD900BF83
:1033B00000BF1037BD4680BD146800085068000883
:1033C000080C002000E100E000ED00E080B584B0D2
:1033D00000AF4FF0E0235B6803F00F030133BB60E5
:1033E000BB685B017B603D4B1B681846FFF78AFE9C
:1033F0000023FB600BE03A49384AFB689B0013440A
:103400005A68FB6841F82320FB680133FB60FA68C7
:10341000BB689A42EFD30023FB600EE0304A2F498D
:10342000FB680B4418331978FB68134403F54073A9
:103430000A461A70FB680133FB60FA687B689A429F
:10344000ECD3284A254BD3F8C4305360254A234B8C
:10345000D3F8C8309360234A204BD3F8CC30D360E4
:10346000204A1E4BD3F8D03013611E4A1B4BD3F8B1
:10347000D43053611B4A194BD3F8D8305362194AE0
:10348000164BD3F8DC305363164A144BD3F8E030B4
:103490009363144A114BD3F8E430C2F88830114AD0
:1034A0000E4BD3F8E830C2F88C300023FB600DE0FF
:1034B0000C4A0A49FB680B44B8331978FB6813447B
:1034C00018330A461A70FB680133FB60FB680B2B4C
:1034D000EED900BF00BF1037BD4680BD080C0020EC
:1034E00000E100E000ED00E080B500AF084B1B6B91
:1034F000074A43F080031363064B1B68002B05D07B
:10350000044B1B68044A12681046984700BF80BDF0
:1035100000100340280D00202C0D002080B584B041
:1035200000AF0346FB80B7F90630FB60B7F9063001
:10353000002B02DA6C48FDF7E7FEB7F906301D2BC9
:103540000BDC6A4BD3F884200121FB6801FA03F3FA
:1035500066491343C1F8843024E0B7F90630382BAC
:103560000CDC624BD3F88820FB68203B012101FA78
:1035700003F35E491343C1F8883013E0B7F906300E
:10358000772B0FDCB7F906306B2B0BDD574BD3F8DD
:103590009020FB68603B012101FA03F35349134378
:1035A000C1F89030B7F90630202B6DD0202BC0F237
:1035B0009580652B00F392803E2BC0F28F803E3BBE
:1035C000272B00F28B8001A252F823F097360008D7
:1035D000DD360008DD360008DD360008DD3600087F
:1035E000DD360008DD360008DD360008DD3600086F
:1035F000DD360008A5360008B3360008DD360008C1
:10360000DD360008DD360008DD360008DD3600084E
:10361000DD360008DD360008DD360008DD3600083E
:10362000DD360008DD360008DD360008DD3600082E
:10363000DD360008DD360008DD360008C13600083A
:10364000CF360008DD360008DD360008DD3600081C
:10365000DD360008DD360008DD360008DD360008FE
:10366000DD3600086D3600087B3600081F4B9B696D
:103670001E4A43F00103936131E01C4B9B691B4AD6
:1036800043F0020393612AE0184B9B69174A43F009
:103690000403936123E0154B9B69144A43F0100324
:1036A00093611CE0114B9B69104A43F02003936126
:1036B00015E00E4B9B690D4A43F0400393610EE009
:1036C0000A4B9B69094A43F08003936107E0074B6B
:1036D0009B69064A43F48073936100E000BF00BF1A
:1036E0001037BD4680BD00BF8C6800080010034045
:1036F00080B58EB000AF03463960FB7107F124033B
:1037000000221A605A609A6007F1180300221A60BA
:103710005A609A6007F10C0300221A605A609A609E
:1037200007F10C0307F1180207F124013868FFF7CD
:103730001BFD664B9B697B63644A7B6B23F0020332
:103740009361FA7913469B00134403F276233B639B
:103750007A6B5F4B13407B63796A3A6B13469B002D
:1037600013445B001A46FB6A134403FB01F2BB6A75
:10377000134403F5742303F23F23564AA2FB0323A9
:103780009B0C1A05544B13407A6B13437B63796A85
:103790003A6B13469B0013445B001A46FB6AD31A2C
:1037A00003FB01F2BB6A13444A4AA2FB03239B0CAE
:1037B0001A024A4B13407A6B13437B63434A7B6B79
:1037C00023F002039361414A7B6B93613F4B1B6A79
:1037D0007B633E4A7B6B23F0020313627A6B3C4BA4
:1037E00013407B63BA693B6A03F59343543303FB8D
:1037F00002F2FB69134403F5742303F23F23354AB5
:10380000A2FB03239B0C1A05334B13407A6B134323
:103810007B63BA693B6AC3F585434C3303FB02F211
:10382000FB6913442B4AA2FB03239B0C1A022B4B6C
:1038300013407A6B13437B63244A7B6B23F00203B0
:103840001362224A7B6B1362204B9B6A7B631F4A85
:103850007B6B23F0020393627A6B1D4B13407B63F7
:10386000FA687B6903F50D43CC3303FB02F23B6935
:10387000134403F5742303F23F23164AA2FB0323E8
:103880009B0C1A05144B13407A6B13437B63FA6845
:103890007B69C3F59043443303FB02F23B69134455
:1038A0000C4AA2FB03239B0C1A020C4B13407A6BAD
:1038B00013437B63054A7B6B23F002039362034A45
:1038C0007B6B936200BF3837BD4680BD004000452A
:1038D000FF000CC083DE1B430000F03F00FF03002D
:1038E00080B584B000AFF860B9607A60FB68002BE7
:1038F00002D11248FDF708FDBB68002B02D1104829
:10390000FDF702FD7B68022B02D90E48FDF7FCFC97
:103910000D4AFB6813601C22B9680C48FDF792FF42
:10392000BB68DB687968184600F05CF80346074A14
:10393000D36000BF1037BD4680BD00BFB06800082F
:10394000D4680008F4680008400D0020440D0020F1
:1039500080B584B000AF7860396000F0D5FD1C4BB5
:10396000062283F85A207B68002B02D16023FB7368
:1039700017E07B68174AA2FB03239B097B607B68E7
:10398000C3F12403BB60BB68002B02DBBB68122BB6
:1039900002D91148FDF7B8FC104ABB6813441B78E4
:1039A000FB73FB7B03F07F030D4A43F0602343F47A
:1039B000081353644FF4167002F052FCFB7B396815
:1039C0001846FFF795FE00BF1037BD4680BD00BF0B
:1039D00000200045D34D621014690008A06700085C
:1039E0000010034080B58AB000AF786039607B6812
:1039F0003B62444BD3F81431DBB2FB61FB69022B11
:103A00007AD17B68DBB2BB613B68002B1BD1BB6901
:103A100003FB03F21346DB0013445B001946BB694A
:103A200040F2213202FB03F30B4403F5D52303F2EA
:103A30002A437B617B69344A82FB03121213DB1732
:103A4000D31A7B623BE03B68012B18D1BB6903FBB7
:103A500003F3522203FB02F2BB692C4901FB03F37F
:103A6000134403F5082303F6D8037B617B69264AD8
:103A700082FB03121213DB17D31A7B621FE03B6831
:103A8000022B02D02248FDF73FFCBB6903FB03F287
:103A900013469B0013449A001A44BB6940F2395103
:103AA00001FB03F3134403F5BA23D4337B617B6931
:103AB000154A82FB03121213DB17D31A7B627B6A4F
:103AC0001B063B62134B1B693B614FF080431B6934
:103AD000FB60104B4FF000721A644FF080434FF0C0
:103AE00000721A670C4A3B6A13600A4A3B69136109
:103AF0004FF08042FB6813613B6A18462837BD4689
:103B000080BD00BF00100045AD8BDB68CDEBFFFF33
:103B10005C690008001000400CC0154080B586B0FC
:103B200000AF0346FB80FB881B0A9BB27B61FB88CE
:103B3000DBB23B6101223B6902FA03F3FB603B69A4
:103B40001F2B02D93148FDF7DFFB7B69052B57D8C6
:103B500001A252F823F000BF713B00088B3B000824
:103B6000A53B0008BF3B0008D53B0008EB3B000825
:103B70004FF08042FB68136400BF4FF080431A6926
:103B8000FB681340002BF8D03BE04FF08042FB680D
:103B9000536400BF4FF080435A69FB681340002B09
:103BA000F8D02EE04FF08042FB68936400BF4FF0E6
:103BB00080439A69FB681340002BF8D021E0144A37
:103BC000FB68136400BF124B1A69FB681340002B9B
:103BD000F9D016E00E4AFB68536400BF0C4B5A69DB
:103BE000FB681340002BF9D00BE0094AFB68936493
:103BF00000BF074B9A69FB681340002BF9D000E027
:103C000000BF00BF1837BD4680BD00BF7C690008FB
:103C10000000024080B586B000AF0346FB80FB8801
:103C20001B0A9BB27B61FB88DBB23B6101223B69D3
:103C300002FA03F3FB603B691F2B02D93448FDF7FE
:103C400063FB7B69052B5DD801A252F823F000BF0E
:103C5000693C0008853C0008A13C0008BD3C000808
:103C6000D53C0008ED3C00084FF08042FB6813672C
:103C700000BF4FF080431A69FB681340FA689A420C
:103C8000F7D040E04FF08042FB68536700BF4FF031
:103C900080435A69FB681340FA689A42F7D032E0D1
:103CA0004FF08042FB68936700BF4FF080439A69F2
:103CB000FB681340FA689A42F7D024E0154AFB6883
:103CC000136700BF134B1A69FB681340FA689A42E6
:103CD000F8D018E00F4AFB68536700BF0D4B5A69D4
:103CE000FB681340FA689A42F8D00CE0094AFB6876
:103CF000936700BF074B9A69FB681340FA689A42C2
:103D0000F8D000E000BF00BF1837BD4680BD00BF3F
:103D10009C6900080000024080B586B000AFF860E2
:103D2000B9607A60FB68002B05D0BB68002B02D01D
:103D30007B68002B02D16A48FDF7E6FAFB68002B8E
:103D400005D0BB68002B02D07B68002B01D1042377
:103D5000C2E00121F868FEF7F9FE78617B69002B6B
:103D600001D07B69B8E0BB685B7A002B23D0FB688D
:103D7000D3F8003E43F00112FB68C3F8002EFB6845
:103D8000D3F8083E23F47062FB68C3F8082EFB6882
:103D9000D3F8082EBB685B7B1B0203F470631A43E5
:103DA000FB68C3F8082EFB68D3F8083E43F0010215
:103DB000FB68C3F8082EBB681B7A002B23D0FB6876
:103DC000D3F8003E43F00212FB68C3F8002EFB68F4
:103DD000D3F8083E23F47022FB68C3F8082EFB6872
:103DE000D3F8082EBB689B7B1B0403F470231A4393
:103DF000FB68C3F8082EFB68D3F8083E43F00202C4
:103E0000FB68C3F8082EBB681B791B0103F0300266
:103E1000BB685B799B0103F040031A43BB689B7945
:103E20009B0003F00C031A43BB68DB79DB039BB2F6
:103E30001A43BB68DB7B5B08DBB2DB0203F4006385
:103E40001A43BB68DB7B9B0303F480431A43BB68C4
:103E50001B7C1B0303F480531A43BB68DB7ADB0132
:103E6000DBB21A43BB681B7B5B0203F40073134392
:103E700043F00102FB681A60BB68DB7A002B17D0A5
:103E8000BB681B684FF41652B2FBF3F101FB03F35E
:103E9000D31A002B09D1BB681B684FF41652B2FB32
:103EA000F3F35A1EFB681A620FE041F2516313E00C
:103EB000BB681B687A681946F86800F053F87861A7
:103EC0007B69002B01D07B6906E0BB689B7A1946B1
:103ED000F86801F0D0FE002318461837BD4680BDB3
:103EE000BC69000880B582B000AF78607B68002BA9
:103EF00002D11B48FDF708FA14220021786801F06E
:103F000089FF7B684FF4E1321A607B6800221A71E6
:103F10007B6800225A717B6801229A717B680022BB
:103F2000DA717B6800221A727B6800225A727B6801
:103F30000022DA727B6800225A737B6800229A732F
:103F40007B680022DA737B6800229A727B68002209
:103F50001A747B6800221A7300BF0837BD4680BD03
:103F60000C6A000880B58CB000AFF860B9607A6068
:103F70004FF0FF33FB620F23BB624FF0FF337B62D6
:103F8000FB68002B05D0BB68002B02D07B68002BA0
:103F900002D15448FDF7B8F9FB68002B05D0BB6887
:103FA000002B02D07B68002B01D1042395E0FB6835
:103FB0001B6803F40063002B10D0FB681B6803F43C
:103FC0008043002B00F088807A68BB68B2FBF3F373
:103FD000BB61BB695A1EFB681A627DE0BB68424A3E
:103FE000A2FB03235A0913465B001344FB61BB6A1F
:103FF0003B6242E03B6A082B03D8FA6AFB699A42AB
:104000003FD97A6813469B0013445B0019463B6A0C
:104010000133BA6802FB03F3B1FBF3F3053B334A08
:10402000A2FB0323DB08BB61BB69B3F5803F20D251
:104030003B6A0133BA69013202FB03F37A68B2FBCF
:10404000F3F37B61BA687B699A4203D27A69BB68F1
:10405000D31A02E0BA687B69D31A3B613A69FB6AFA
:104060009A4207D23B69FB623B6ABB62BB697B62D7
:1040700000E000BF3B6A013B3B623B6A032BB9D8BF
:1040800000E000BFBB6A01337A6A013202FB03F32E
:104090007A68B2FBF3F37B61BA687B699A4203D218
:1040A0007A69BB68D31A02E0BA687B69D31A3B61AC
:1040B0003A69FB699A4202D941F251630DE07B6A89
:1040C000B3F5803F02D341F2516306E0FB68BA6A60
:1040D0009A62FB687A6A1A62002318463037BD4636
:1040E00080BD00BF306A00081F85EB51CDCCCCCC21
:1040F00080B584B000AFF860B9607A60FB68002BCF
:1041000002D0BB68002B02D11B48FDF7FDF8FB680D
:10411000002B02D0BB68002B01D1042327E0FB68F1
:10412000D3F8003E03F00103002B15D104231EE059
:1041300000BFFB68D3F8043E03F02003002BF8D047
:10414000BB681B781A46FB68C3F8202EBB68013396
:10415000BB607B68013B7B607B68002BE8D100BFC4
:10416000FB689B6803F00803002BF9D00023184676
:104170001037BD4680BD00BF846A000880B586B098
:1041800000AFF860B9607A6000237B61FB68002BA8
:1041900002D0BB68002B02D13848FDF7B5F8FB68A8
:1041A000002B02D0BB68002B01D1042361E0FB6827
:1041B000D3F8003E03F00203002B54D1012358E052
:1041C00000BFFB68D3F8043E03F04003002BF8D097
:1041D000FB68D3F8043E03F00203002B13D0FB6806
:1041E000D3F8003E43F40032FB68C3F8002EFB68AE
:1041F000D3F8043E43F00202FB68C3F8042E41F2F8
:104200004D637B6134E0FB689B683B61FB689A68A7
:104210003B691A43FB689A603B6903F48043002BB7
:1042200002D041F250637B613B6903F40053002BE1
:1042300002D041F24F637B613B6903F40043002BE2
:1042400002D041F24E637B617B69002B0FD1FB688A
:10425000D3F8303EDAB2BB681A70BB680133BB607A
:104260007B68013B7B607B68002BA9D100E000BF2D
:104270007B6918461837BD4680BD00BFBC6A000880
:1042800080B500AF2B4BD3F888302A4A43F4700333
:10429000C2F88830274BD3F88830264A43F00F0302
:1042A000C2F88830234BD3F88C30224A43F4406361
:1042B00043F00303C2F88C301F4BB3F1006F03D3FC
:1042C0001D4BB3F1805F07D31B4BB3F1C05F2DD300
:1042D000194BB3F1005F29D2184BDB69002B25D1B4
:1042E000164B4FF0A062C3F80028144BD3F80038E7
:1042F000124A43F00043C2F8003800BF0F4BD3F816
:104300000038002BFADB0D4B0322C3F800280B4BBF
:104310000B4A5A61094B00229A61084B0122DA616B
:10432000BFF36F8F00BFBFF34F8F00BF01F0CEFC14
:1043300000BF80BD00ED00E00945000800300340EB
:1043400000FCFF0780B483B000AF00237B600E4BFE
:1043500093F8D930DBB203F00F03052B02D10B4BDE
:104360007B6009E0084B93F8D930DBB203F00F0310
:104370000A2B01D1064B7B607B6818460C37BD4683
:104380005DF8047B704700BF00200045236E8C035E
:104390003E07E10280B483B000AF00237B601E4B78
:1043A000D3F888305B0ADBB23B601C4BD3F8803417
:1043B00003F02003002B10D03B684A2B0DD93B683B
:1043C000602B0AD83B684B3B3B603B68144A03FBBD
:1043D00002F2144B13447B6016E0104BD3F8803488
:1043E00003F02003002B0FD13B684D2B0CD93B6809
:1043F000642B09D83B684E3B3B603B680A4A03FB91
:1044000002F20A4B13447B607B6818460C37BD46AA
:104410005DF8047B704700BF003000400008004595
:10442000005A6202005ED0B200F04902002087B25A
:1044300080B483B000AF044B7B607B6818460C37B8
:10444000BD465DF8047B70470040420F80B582B0E6
:1044500000AFFFF79FFF0346044AA2FB0323DB08DC
:104460007B607B6818460837BD4680BDABAAAAAA08
:1044700080B400AF0C4BD3F86831002B0AD10B4B42
:10448000D3F8803403F02003002B01D1084B05E062
:10449000084B03E0044BD3F8683100231846BD46AF
:1044A0005DF8047B704700BF001000400008004525
:1044B00000F04902005A620280B400AF074BD3F803
:1044C000803403F02003002B01D1054B00E0054BA5
:1044D0001846BD465DF8047B704700BF00080045E4
:1044E00000A60E0040420F0080B500AFFFF7AEFF00
:1044F0000246044BD3F84032DBB20133B2FBF3F394
:10450000184680BD0010004080B582B000AF002387
:104510007B602C4BD3F8343403F00303032B3FD8D8
:1045200001A252F823F000BF394500088945000870
:104530009145000899450008224BD3F8303403F028
:104540000303032B1CD801A252F823F05D45000899
:10455000654500087145000879450008FFF788FFA8
:10456000786010E001F0A3FB03469B087B600AE043
:10457000FFF7A2FF786006E001F099FB786002E0A7
:1045800000237B6000BF0EE001F098FB78600AE03A
:10459000FFF7AAFF786006E04FF400437B6002E07B
:1045A00000237B6000BF074BD3F80034DBB201333C
:1045B0007A68B2FBF3F3044A136000BF0837BD46C4
:1045C00080BD00BF00100040B80B002080B588B04F
:1045D00000AF786039607B68002B02D13A48FCF765
:1045E00093FE3B68002B02D13848FCF78DFE3B68F8
:1045F0009B7B042B02D93648FCF786FE3B689B7BED
:104600001A46344B53F82230002B02D13248FCF7C3
:104610007BFE07F108031846FFF764FC3B685B6804
:10462000BB603B681B7B002B03D13B685B7B002B93
:1046300001D001233B753B681B7A022B02D1022378
:104640003B7308E03B681B7A032B02D103233B73C7
:1046500001E000233B733B685B7A012B02D101230D
:104660007B7301E000237B733B689B7A002B14BFB4
:1046700001230023DBB23B743B68DB7A002B14BFC1
:1046800001230023DBB27B7400237B750023BB7501
:104690003B689B7B1A460F4B53F822003B681A6815
:1046A00007F108031946FFF737FBF861FB69002B98
:1046B00004D0F86901F011FB034600E0002318461E
:1046C0002037BD4680BD00BF086B00082C6B00087A
:1046D000506B0008F46A0008B46B000880B586B01F
:1046E00000AFF860B9607A60FB68002B02D1124815
:1046F000FCF70AFEBB68002B02D11048FCF704FE51
:104700007B68002B02D10E48FCF7FEFDFB687B6145
:104710007B691B781A460B4B53F822307A68B968CC
:104720001846FFF72BFD3861386901F0D6FA0346C9
:1047300018461837BD4680BDF46B0008186C000899
:10474000386C0008F46A000880B586B000AFF860E5
:10475000B9607A60FB68002B02D11048FCF7D4FDE9
:10476000BB68002B02D10E48FCF7CEFD7B68002B06
:1047700002D10C48FCF7C8FDFB687B617B691B78A4
:104780001A46094B53F822307A68B9681846FFF781
:10479000AFFC002318461837BD4680BD5C6C00088E
:1047A000806C0008A06C0008F46A000880B400AFB8
:1047B000064B1B6803F00103002B14BF01230023E9
:1047C000DBB21846BD465DF8047B704700700040C0
:1047D0002DE9B04F8AB000AF786145F252033B62D9
:1047E0005B4B7B625B4B1B6802220421184601F085
:1047F000A0FA0346012B5ED1564BDB6C042210213C
:10480000184601F096FA0346012B02D1524B7B6207
:1048100053E0504BDB6C03220821184601F089FA63
:104820000346012B02D14D4B7B6246E0494BDB6CCA
:1048300001220221184601F07CFA0346012B02D125
:10484000474B7B6239E0434BDB6C02220421184664
:1048500001F06FFA0346012B02D1424B7B622CE040
:104860003C4BDB6C00220121184601F062FA034642
:10487000012B02D13C4B7B621FE0364BDB6C0522E7
:104880002021184601F055FA0346012B02D1374B7F
:104890007B6212E02F4BDB6C08224FF480711846CC
:1048A00001F047FA0346012B02D1314B7B6204E051
:1048B000274B7B6201E02F4B7B627B69012B27D169
:1048C00000F09AF8C7E90601D7E906014FF00002A7
:1048D0004FF000030A0000233B6A13443B623B6A2B
:1048E000A3F59A430B3B3B627B6A00229A469346B0
:1048F0003B6A0022BB60FA604FF000024FF00003F9
:10490000B9680B0000224AEA02044BEA030517E0EB
:104910003B6A03F5105304333B627B6A00229846DE
:1049200091463B6A00223B607A604FF000024FF0F4
:10493000000339680B00002248EA020449EA030533
:1049400022462B46104619462837BD46BDE8B08F93
:10495000F0F0550500700040305355057053550573
:1049600038535505345355053C5355057453550577
:1049700078535505032E55052DE9B04F88B000AF8B
:1049800078601C4BFB6100BFFFF710FF0346002B54
:10499000FAD17868FFF71CFFC7E90401D7E90401E1
:1049A0004FF000024FF000030A000023FB6913449C
:1049B000FB613B69FB60FB6903F512532133FB612B
:1049C000FB6800221C461546FB6900229A46934666
:1049D0004FF000024FF000035346002244EA020861
:1049E00045EA030942464B46104619462037BD4664
:1049F000BDE8B08FC29BFFFF2DE9B04382B000AF8E
:104A000045F20A037B6001233B60174A3B6813654C
:104A100000BF154B1B6802220421184601F089F9DA
:104A20000346002BF5D17B6803F5045305337B6007
:104A30007B680022984691464FF000024FF0000339
:104A40004346002242F0AA6444F4A52444F4C0641E
:104A500044F003041D4622462B46104619460837EB
:104A6000BD46BDE8B08300BF0070004080B483B095
:104A700000AF7860044A7B68136200BF0C37BD4604
:104A80005DF8047B704700BF0070004080B487B0C1
:104A900000AFF860B9607A60FB68DB00DAB27B686F
:104AA0001B0203F48073134343F003037B61064A44
:104AB000BB689360044A7B69536000BF1C37BD46E6
:104AC0005DF8047B704700BF0070004080B400AF09
:104AD000064B1B6803F00103002B14BF01230023C6
:104AE000DBB21846BD465DF8047B7047007000409D
:104AF00080B582B000AF00237B600D4B1B683B602C
:104B00003B461846FDF724FB4CF26850FDF75EF972
:104B10000320FDF76FFB78607B6801224FF4E131E1
:104B20000320FCF707FC00BF0837BD4680BD00BF6F
:104B3000C46C000880B58CB000AF7860012387F8A2
:104B40002F302B4BD3F8903003F02003002B03D0F1
:104B5000002387F82F3003E0264B0222C3F8A82752
:104B600097F82F30002B1CD0786801F0F4F8C7E9D3
:104B70000801D7E908014FF000024FF000030A00D6
:104B800000231346FB613B6ABB61FB6946F63C129E
:104B9000934203D1BB69184A934202D0002387F89D
:104BA0002F3097F82F30002B1CD00120FFF7E4FEA8
:104BB000C7E90401D7E904014FF000024FF00003F8
:104BC0000A0000231346FB603B69BB60FB6843F2AD
:104BD000B942934203D1BB68084A934202D00023F2
:104BE00087F82F3097F82F3018463037BD4680BDF4
:104BF0000030004000100040072E5505032E5505DB
:104C000080B58CB000AF3B4600221A605A609A60B3
:104C1000DA601A615A619A614C4BD3F81431DBB2F5
:104C2000FB6207F120031846FEF726FAB862BB6A5A
:104C3000002B76D107F11C031846FEF737FAB8624D
:104C4000BB6A002B0DD1FB6A022B04D1D7E90823E4
:104C500013461B0C00E00023FA6911461846FEF7C4
:104C600077FEBB6A002B06D13B4619469520FEF71E
:104C700039F9034600E0BB6ABB62BB6A002B07D16F
:104C80003B46043319469620FEF72CF9034600E014
:104C9000BB6ABB62BB6A002B07D13B46083319468F
:104CA0009720FEF71FF9034600E0BB6ABB62BB6AB0
:104CB000002B0DD1FB6A022B01D19B2200E0982230
:104CC0003B460C3319461046FEF70CF9034600E04C
:104CD000BB6ABB62BB6A002B07D13B461033194647
:104CE0009920FEF7FFF8034600E0BB6ABB62BB6A8F
:104CF000002B07D13B46143319469A20FEF7F2F8F1
:104D0000034600E0BB6ABB62BB6A002B02D01048BE
:104D1000FCF7FAFAFA693B4619460E48FEF7E0FD41
:104D20000FE0FFF7F1FB0C4B062283F85A200B4BE8
:104D30000B4A5A640B4B1B6819464FF41670FDF76B
:104D400099FE00BF3037BD4680BD00BF0010004552
:104D5000E86C0008354B00080020004500100340B7
:104D600054602260B80B002080B500AFFEF77AF8DF
:104D7000FFF746FFFEF790F8144BB3F1006F03D333
:104D8000124BB3F1805F07D3104BB3F1C05F09D36F
:104D90000E4BB3F1005F05D2042206210C4801F04E
:104DA00063FA10E01020FEF735FF094801F054FACD
:104DB00047F22060FDF70AF81020FCF77DFF102075
:104DC000FEF7ACFE00BF00BF80BD00BFF14A000887
:104DD0000040134080B500AF0B4BB3F1006F03D31D
:104DE000094BB3F1805F07D3074BB3F1C05F08D322
:104DF000054BB3F1005F04D202220221034801F007
:104E000033FA00BF80BD00BFF14A000800401340E4
:104E100080B500AF01F01CFA3A4B9B6A03F0020325
:104E2000002B02D13848FCF7BBFE384BD3F890304A
:104E300003F40073002B02D03548FCF7B1FE0120CB
:104E4000FDF75EFB3348FCF7ABFE3348FCF7A8FEEA
:104E5000FFF78AFF3148FCF7B9FF01214FF480606A
:104E600000F0DBFD02212E48FDF7A0FA4FF4803060
:104E7000FCF796FE0120FDF7EBFA2A48FCF790FEBE
:104E800001214FF4127000F0C8FD2748FDF784FDA2
:104E9000012148F2402000F0C0FD01214FF4806064
:104EA00000F0BBFD01214FF4107000F0B6FD42F29E
:104EB0003440FCF78BFF012140F2647000F0ADFD3F
:104EC0004FF4EC60FCF782FF0D2148F2FC6000F02B
:104ED000A4FDFFF77FFF4220FCF778FF134BD3F8C8
:104EE000283423F47C33114A43F47833C2F828344D
:104EF000642148F2687000F090FD0D4B0D4A1A6075
:104F000000BF80BD001003402000010000300040C1
:104F10000900010004000100050001003004340410
:104F2000006CF7B903000100106D00080010004587
:104F3000B80B002000497F0F80B586B000AFF86045
:104F4000B9607A603B609B4B7B613B6803F4003344
:104F5000002B08D04FF040231A68BB68DB434FF0AA
:104F6000402113400B603B6803F48033002B11D0C9
:104F70004FF040231A6BFB68DB434FF04021134096
:104F80000B634FF040235A6BBB68DB434FF040216B
:104F900013404B633B681B0B03F00F030F2B21D116
:104FA0003B6AB3F5004F02D08348FCF7ADF94FF0F0
:104FB00040239B684FF0402223F0800393604FF022
:104FC0004023DB684FF0402223F49F6323F0050366
:104FD000D3604FF040231B694FF0402223F48763D6
:104FE000136119E03B68C3F30A03002B14D03B683C
:104FF0001B0B03F00F039B007A69134419683B688D
:10500000C3F30A03DA433B681B0B03F00F039B0057
:10501000786903440A401A607B6A002B08D04FF07D
:1050200040231A6A7B6ADB434FF0402113400B6236
:10503000FB6AC3F30E03002B0AD04FF040235A6AD9
:10504000FB6AC3F30E03DB434FF0402113404B6276
:10505000FB6A1B0CC3F30E03002B0BD04FF0402355
:105060009A6AFB6A1B0CC3F30E03DB434FF040212B
:1050700013408B627B6B002B08D04FF04023DA6A21
:105080007B6BDB434FF040211340CB627B6803F422
:105090000033002B07D04FF040231A684FF0402117
:1050A000BB6813430B607B6803F48033002B0FD085
:1050B0004FF040231A6B4FF04021FB6813430B6302
:1050C0004FF040235A6B4FF04021BB6813434B63B2
:1050D0007B68C3F30A03002B13D07B681B0B03F020
:1050E0000F039B007A69134419687B68C3F30A02B3
:1050F0007B681B0B03F00F039B00786903440A4392
:105100001A603B6A002B07D04FF040231A6A4FF019
:1051100040213B6A13430B62BB6AC3F30E03002BAF
:1051200009D04FF040235A6ABB6AC3F30E034FF015
:10513000402113434B62BB6A1B0CC3F30E03002BCD
:105140000AD04FF040239A6ABB6A1B0CC3F30E03CC
:105150004FF0402113438B623B6B002B07D04FF085
:105160004023DA6A4FF040213B6B1343CB62FB686C
:1051700003F07C633B61114BD3F838253B69D9437D
:10518000FB680B400D491343C1F838350B4BD3F87E
:105190003C250A49BB681343C1F83C35084BD3F89A
:1051A000382507493B691343C1F8383500BF183724
:1051B000BD4680BD04400040146D0008001000454D
:1051C0000008004580B586B006AF4FF01013059378
:1051D000002304934FF040130393002302934FF0F6
:1051E0004043019300230093054B4FF448520021A4
:1051F0004FF0A060FFF7A0FE00BFBD4680BD00BF1E
:10520000EE31010010B5174A1749002000F082FE68
:105210004FF480734FF480620021124800F014FEB6
:10522000124A1349012000F075FE4FF480734FF4C9
:10523000806200210D4800F007FE0E4B1B68022B18
:105240000EDD0D4A0A49022000F064FEBDE8104060
:105250004FF480734FF480620021074800F0F4BDE2
:1052600010BD00BF640D0020B46D0008A00D00202B
:10527000B66D0008B06D0008DC0D00202DE9F0418E
:10528000D5688046EB020E461446576905D5384668
:1052900000F0CAFF45F01005A061124B2B408BB106
:1052A0003846A16900F0C9FF002806DAE3684FF02C
:1052B000FF3043F08003E36011E025F4003525F072
:1052C0001005E56032464146384600F0BCFF20F04C
:1052D0000043F61AA3693344A3610028E6D1BDE870
:1052E000F08100BF10000200F8B5044638B9054649
:1052F0000A4B0B4E1F68A74205DC2846F8BDBDE8E7
:10530000F84000F09ABE304600F097FE002818BF23
:105310004FF0FF3501343C36EDE700BFB06D0008BB
:10532000640D00202DE9F843C6683B4B044633402A
:105330000D469046D0F814906BB1484600F077FFC8
:10534000074640B9B8F1010F09D0B8F1020F31D0CA
:10535000B8F1000F07D002273846BDE8F883204691
:1053600000F05CF80544002DF5DBB30404D5236898
:10537000E26A9A4238BFE362A069A8420EDC236861
:10538000E26A934238BF134622691918891AA94262
:1053900004DB216B00EB010CAC452CDC0023C4E9E1
:1053A000013346F02006A56226F4032626F04006C7
:1053B000E660D1E7484600F037FFB0F1000CE26844
:1053C00004DA42F080020127E260C5E72168A369A0
:1053D000E06A81422CBF5B181B1821699206A3EB7F
:1053E000010303D5A26A9342B8BF13466345ACBF1D
:1053F000ED186544B7E72D1AB00744BF691AA160DC
:10540000F10744BF9B1AEB1A2A4448BF636022602D
:1054100026F02006C8E700BF03001000C3689A0703
:1054200005D121220D4B4FF0FF301A60704703F079
:1054300020021B0309D512B1806A01387047036846
:10544000826900691344181AF7E70AB1806A704745
:105450000368826900691344181A7047600D0020C0
:1054600080B485B000AFF860B9607A600023184658
:105470001437BD465DF8047B70470FB480B582B029
:1054800000AF00237B6007F114033B603968386983
:10549000FBF794FF78607B6818460837BD46BDE887
:1054A000804004B0704780B586B000AFB9607A60C4
:1054B0003B600346FB73BB687B610BE0FA7B3B6A96
:1054C000104698473B681B685A1C3B681A607B690A
:1054D00001337B617A697B689A42EFDB00BF00BFD2
:1054E0001837BD4680BD80B48FB000AFF860B9609A
:1054F0007A603B600023FB62FB68BB62BB6A5A1C9C
:10550000BA6200221A7000237B6000237B620023B2
:105510003B620023FB6100237B630023BB6100230C
:105520003B6300237B61BB681B687B637B6B002B49
:1055300030D1BB6A30221A70FB6A0133FB62FB6A0E
:105540002CE03B687A6BB2FBF3F3BB613B68BA6952
:1055500002FB03F37A6BD31A3B633B6B092B03D833
:105560003B6B30333B630AE097F84030002B01D0AF
:10557000412200E061223B6B13440A3B3B63BB6961
:105580007B63BB6A5A1CBA623A6BD2B21A70FB6A6E
:105590000133FB627B6B002BD3D1FB6A18463C378F
:1055A000BD465DF8047B704708B5FBF7ABFE08BD50
:1055B00008B5FBF7A7FE08BD08B5FBF7A3FE08BDBD
:1055C00008B5FBF79FFE08BD08B5FBF79BFE08BDBD
:1055D00008B5FBF797FE08BD08B5FBF793FE08BDBD
:1055E00008B5FBF78FFE08BD08B5FBF78BFE08BDBD
:1055F00008B5FBF787FE08BD08B5FBF783FE08BDBD
:1056000008B5FBF77FFE08BD08B5FBF77BFE08BDBC
:1056100008B5FBF777FE08BD08B5FDF7BFFA08BD72
:1056200008B5FDF7E9FA08BD08B5FDF713FB08BD9D
:1056300008B5FDF73DFB08BD08B5FBF763FE08BDE7
:1056400008B5FBF75FFE08BD08B5FDF75FFB08BDB9
:1056500008B5FBF757FE08BD08B5FBF753FE08BDBC
:1056600008B5FBF74FFE08BD08B5FBF74BFE08BDBC
:1056700008B5FBF747FE08BD08B5FBF743FE08BDBC
:1056800008B5FBF73FFE08BD08B5FBF73BFE08BDBC
:1056900008B5FBF737FE08BD08B5FBF733FE08BDBC
:1056A00008B5FBF72FFE08BD08B5FBF72BFE08BDBC
:1056B00008B5FBF727FE08BD08B5FBF723FE08BDBC
:1056C00008B5FBF71FFE08BD08B5FBF71BFE08BDBC
:1056D00008B5FBF717FE08BD08B5FBF713FE08BDBC
:1056E00008B5FBF70FFE08BD08B5FBF70BFE08BDBC
:1056F00008B5FBF707FE08BD08B5FDF735FB08BD8B
:1057000008B5FBF7FFFD08BD08B5FBF7FBFD08BDBD
:1057100008B5FBF7F7FD08BD08B5FBF7F3FD08BDBD
:1057200008B5FBF7EFFD08BD08B5FBF7EBFD08BDBD
:1057300008B5FBF7E7FD08BD08B5FBF7E3FD08BDBD
:1057400008B5FBF7DFFD08BD08B5FBF7DBFD08BDBD
:1057500008B5FBF7D7FD08BD08B5FBF7D3FD08BDBD
:1057600008B5FBF7CFFD08BD08B5FBF7CBFD08BDBD
:1057700008B5FBF7C7FD08BD08B5FBF7C3FD08BDBD
:1057800008B5FBF7BFFD08BD08B5FBF7BBFD08BDBD
:1057900008B5FBF7B7FD08BD08B5FDF7A5FE08BDC8
:1057A00008B5FBF7AFFD08BD08B5FBF7ABFD08BDBD
:1057B00008B5FBF7A7FD08BD08B5FBF7A3FD08BDBD
:1057C00008B5FBF79FFD08BD08B5FBF79BFD08BDBD
:1057D00008B5FBF797FD08BD08B5FBF793FD08BDBD
:1057E00008B5FBF78FFD08BD08B5FBF78BFD08BDBD
:1057F00008B5FBF787FD08BD08B5FBF783FD08BDBD
:1058000008B5FBF77FFD08BD08B5FBF77BFD08BDBC
:1058100008B5FBF777FD08BD08B5FBF773FD08BDBC
:1058200008B5FBF76FFD08BD08B5FBF76BFD08BDBC
:1058300008B5FBF767FD08BD08B5FBF763FD08BDBC
:1058400008B5FBF75FFD08BD08B5FBF75BFD08BDBC
:1058500008B5FBF757FD08BD08B5FBF753FD08BDBC
:1058600008B5FBF74FFD08BD08B5FBF74BFD08BDBC
:1058700008B5FBF747FD08BD08B5FBF743FD08BDBC
:1058800008B5FBF73FFD08BD08B5FBF73BFD08BDBC
:1058900008B5FBF737FD08BD08B5FBF733FD08BDBC
:1058A00008B5FBF72FFD08BD08B5FBF72BFD08BDBC
:1058B00008B5FBF727FD08BD08B5FBF723FD08BDBC
:1058C00008B5FBF71FFD08BD08B5FBF71BFD08BDBC
:1058D00008B5FBF717FD08BD08B5FBF713FD08BDBC
:1058E00008B5FBF70FFD08BD08B5FBF70BFD08BDBC
:1058F00008B5FBF707FD08BD08B5FBF703FD08BDBC
:1059000008B5FBF7FFFC08BD08B5FBF7FBFC08BDBD
:1059100008B5FBF7F7FC08BD08B5FBF7F3FC08BDBD
:1059200008B5FBF7EFFC08BD08B5FBF7EBFC08BDBD
:1059300008B5FBF7E7FC08BD08B5FBF7E3FC08BDBD
:1059400008B5FBF7DFFC08BD08B5FBF7DBFC08BDBD
:1059500008B5FBF7D7FC08BD08B5FBF7D3FC08BDBD
:1059600008B5FBF7CFFC08BD08B5FBF7CBFC08BDBD
:1059700008B5FBF7C7FC08BD08B5FBF7C3FC08BDBD
:1059800008B5FBF7BFFC08BD08B5FBF7BBFC08BDBD
:1059900008B5FBF7B7FC08BD08B5FBF7B3FC08BDBD
:1059A00008B5FBF7AFFC08BD08B5FBF7ABFC08BDBD
:1059B00004207146084202D0EFF3098001E0EFF3C2
:1059C000088081690A884BF6AB639A4200D0FEE7F3
:1059D000023181610168012901D0002100E020210C
:1059E0000160704700BF80B400AF4FF40043184619
:1059F000BD465DF8047B704780B483B000AF78602B
:105A00007B68002B03D07B68013B002BFCD100BFDF
:105A10000C37BD465DF8047B704780B485B000AF9D
:105A200003463960FB80B7F90630002B09DAFA88A3
:105A300040F6FC73134003F1804303F50433FB602D
:105A400008E0FA8840F6FC73134003F1804303F545
:105A50008053FB60FB681B6843F00052FB681A60D0
:105A60003B68002B06D1FB681B6843F08042FB6853
:105A70001A6008E03B685A1EFB681A6000BFFB68AA
:105A80001B68002BFBDB00BF1437BD465DF8047BB1
:105A9000704780B500AFFBF7E5FF0346184680BDB1
:105AA00080B500AFFCF70AF803461B09184680BD15
:105AB00080B483B000AF78607B681846A0F1010025
:105AC0000028FBD100BF0C37BD465DF8047B704752
:105AD00080B483B000AF78600B46FB70FB78002B7E
:105AE00001D1012320E0FB78042B0ED87B68D3F88A
:105AF000F82FFB78033322FA03F303F00103002BA2
:105B000014BF01230023DBB20EE0FB78052B0AD182
:105B10007B68D3F8F83F03F08003002B14BF012308
:105B20000023DBB200E0002318460C37BD465DF8C9
:105B3000047B704780B584B000AFF8600B467A6094
:105B4000FB72FB7A1946F868FFF7C2FF034683F041
:105B50000103DBB2002B01D0032321E0FB68D3F863
:105B6000F83F03F00803002B09D0FB68D3F8F83F97
:105B700003F00702FB7A9A4201D0012310E07B6810
:105B8000002B08D0FB7A43F00803DBB21A46FB680F
:105B9000C3F8F82F03E0FA7AFB68C3F8F82F002364
:105BA00018461037BD4680BD2DE9B04384B000AF24
:105BB000786039600123FB607B68002B02D10423ED
:105BC000FB6020E00023BB601AE07968B868FDF74D
:105BD000C3F90346002B0FD07B68D3E9002394B2AE
:105BE00000253B680022984691464D4508BF444534
:105BF00003D10023FB6006E000BFBB680133BB603C
:105C0000BB683F2BE1D9FB6818461037BD46BDE89D
:105C1000B08380B483B000AFEFF310833B603B6888
:105C20007B6072B600BF7B6818460C37BD465DF8D6
:105C3000047B704780B485B000AF78607B68FB6000
:105C4000FB6883F3108800BF00BF1437BD465DF8C2
:105C5000047B704780B582B000AF0346FB80FB88B1
:105C60001846FDF75BFFFB881846FDF7D3FF00BF22
:105C70000837BD4680BD80B483B000AF78600B4666
:105C8000FB70FB78002B06D07B685B6843F4807266
:105C90007B685A6005E07B685B6823F480727B68F0
:105CA0005A6000BF0C37BD465DF8047B704780B575
:105CB00000AFFEF747FB0346184680BD80B500AF36
:105CC000FEF7B6FB03461B09184680BD80B400AF43
:105CD00000BFBD465DF8047B704780B483B000AF61
:105CE00078607B68002B01D1002301E042F6AF739E
:105CF00018460C37BD465DF8047B704780B584B00C
:105D000000AF7860396039687868FEF75FFC034659
:105D1000FB81FB89002B01D0FB8906E07B68BB601F
:105D20003B689A7BBB681A70002318461037BD4643
:105D300080BD80B485B000AFF860B9607A60FA6861
:105D4000BB681A407B6822FA03F318461437BD4635
:105D50005DF8047B70472DE9B04F84B000AF7860E8
:105D600044F61803FB60FEF7B1FE0346002B16D085
:105D7000FB6803F504532433FB60FB6800229A465A
:105D800093464FF000024FF000035346002242F0CA
:105D9000AA6444F4AA2444F46C741D461FE0786895
:105DA000FEF764FE012200211E20FEF76FFEFB6855
:105DB00003F504532433FB60FB68002298469146A8
:105DC0004FF000024FF000034346002242F0AA6465
:105DD00044F4A52444F4C06444F007041D4622465C
:105DE0002B46104619461037BD46BDE8B08F80B52A
:105DF00000AFFFF70DF800BF80BD80B500AFFFF723
:105E0000E1F900BF80BD08B5FFF7FCF9BDE8084027
:105E1000FBF768BD00F0ECB9A8B14FF0805340F833
:105E20000C3C50F8042C72B11368B3F1805F0AD1B6
:105E300050F8083C516803330B4440F8083C936821
:105E400040F8043CEDE7704770B5C468A50708D07A
:105E5000B2F5007F11D0B2F5806F04D0B2F5807F2B
:105E60000BD0012008E0012300F12401144301615B
:105E70000160C361C460002070BD6FF07F455E1E8D
:105E8000AE42F3D3EDE7034610B59A071C4615D191
:105E9000234654F8042BA2F1013121EA020111F04A
:105EA000803FF5D0D1B299B112F47F4F0ED012F4E9
:105EB0007F0F14BF23460333013003E01A4612F864
:105EC000011B09B9181A10BD1346DEE70233F3E7C8
:105ED0000133F1E7C36810B523F020038269C36082
:105EE000836A04469A420ED000F048F8E36823F42F
:105EF000405323F0100343F01003E360A36AA3614F
:105F00002369E3622360E36823F4804323F04003C2
:105F1000E36010BD70B50D4606461046144600F00D
:105F200056F82B78722B17D0772B18D0612B23D1F2
:105F3000082348F2020215F8011F2B2912D062290A
:105F400015D01B07E260666104D5022200212046BD
:105F5000FFF7E8F9204670BD00230122EBE7042398
:105F60000222E8E742F0030243F00203E3E742F0D3
:105F7000040243F00103DEE70024EBE738B50446F2
:105F8000C36805690168C26A23F40020E06003F079
:105F90008200022802D04FF0FF3038BDDB030CD561
:105FA000914238BF11468D4209D10023A360E368B6
:105FB000E56223F480332560E3600020EDE72246AC
:105FC0002846491BFFF75AF90028EED0E3E7F0B561
:105FD000D0E90467C4680546A10789B020D022072C
:105FE00016D4FFF781F9384600F01BF9230502D5D6
:105FF0003046FFF711FFA40DA40514F1A54F07D1FA
:1060000020226846296A00F01BF9684600F00BF868
:106010003C2200212846FFF7FDFE002009B0F0BD1C
:106020004FF0FF30FAE710B50446FFF72CFF0146AA
:106030002046BDE8104000F0FDB8C36870B513F00D
:106040000306044611D09B0611D5856AFFF742FF6F
:10605000E368204623F44053E360FFF78FFF0022FC
:10606000064629462046FFF75DF9304670BD836934
:1060700005681D440369ED1AEAE75FF0000C30B5CE
:106080001C0022D112006FD0914206D3054608466B
:10609000002100F06FF80446284600F06BF80A462D
:1060A0002146BDE830401CF0404F08BF704703D583
:1060B0004942404261F100015FEA8C0C38BF7047F1
:1060C0005B42524263F10003704742D41C0C04BF90
:1060D0001B040CF1100C13F07F4F04BF1B020CF1DA
:1060E000080C13F0704F04BF1B010CF1040C13F0EB
:1060F000404F04BF0CF1020C5FEA83035CBF0CF15C
:10610000010C5B00CCF1200E22FA0EF4234302FABC
:106110000CF200FA0CF520FA0EF001FA0CF4204310
:1061200021FA0EF114461A4600F024F8A4FB0023CD
:10613000AA1A71EB03033CBF1B190138CCF1200EE6
:1061400022FA0CF203FA0EF4224323FA0CF3002194
:10615000A7E7821A71EB03033CBF02460B464FF0E0
:10616000000141F100009CE700200021BDE8304023
:1061700000F03DB80423B1EB122F09D2090241EA25
:1061800010610002013B08BF7047B1EB122FF5D33D
:106190000018494134BF9142891A4041494134BFF6
:1061A0009142891A4041494134BF9142891A404184
:1061B000494134BF9142891A4041494134BF91421B
:1061C000891A4041494134BF9142891A40414941AD
:1061D00034BF9142891A4041494134BF9142891AE2
:1061E0004041A3F1010313F00F0FD2D17047704764
:1061F000034613F0030F0ED101F0FF0141EA012124
:1062000041EA0141043A24BF43F8041BB2F10402FD
:10621000F9D202F10402013A24BF03F8011BFAE7A4
:1062200070474FF0FF3070474FF0FF3070474FF02E
:10623000FF3070474FF0FF3070474FF0FF3070472E
:106240004FF0FF30704710467047FFFFFFFFFFFF22
:106250005FF800F0CD0000205FF800F0690A002030
:106260005FF800F07B0300205FF800F0E1090020F8
:10627000415353455254204552524F52202220251B
:1062800073200A0068656C6C6F20776F726C642EE7
:106290000D0A00FF0000000000401F0000803E00CB
:1062A00000C05D0000007D000044AC00001BB70092
:1062B0000080BB00000077010090D0030000DC05E7
:1062C0000000000053000000501000005D140400A6
:1062D0005D140400B3380000000000005D140400E9
:1062E0005D140400CDCC00005D140400000000002B
:1062F000170300008B01000008010000C600000029
:106300008F000000870000008400000042000000B1
:106310001900000010000000000000000000000054
:10632000000000000000000000000000000000006D
:10633000000000000000000000000000000000005D
:106340000100000066736C5F636C6F636B2E633AD1
:10635000313539203A2066616C73650066736C5F75
:10636000636C6F636B2E633A323134203A2066617E
:106370006C73650066736C5F636C6F636B2E633A5E
:10638000333037203A2066616C73650066736C5F4A
:10639000636C6F636B2E633A333636203A20666146
:1063A0006C73650066736C5F636C6F636B2E633A2E
:1063B000363538203A2066616C73650066736C5F11
:1063C000636C6F636B2E633A363936203A2069204E
:1063D0003C3D20313455000066736C5F636C6F6325
:1063E0006B2E633A363937203A20636F6E666967E1
:1063F0002D3E64697669646572203D3D20323535F5
:106400005500000066736C5F636C6F636B2E633ABC
:10641000373131203A2066616C73650066736C5FBA
:10642000636C6F636B2E633A393033203A206661B8
:106430006C73650066736C5F636C6F636B2E633A9D
:1064400031323036203A2066616C736500FFFFFF01
:1064500066736C5F636C6F636B2E633A31353531F5
:10646000203A20636E66670066736C5F636F6D6DC4
:106470006F6E5F61726D2E633A323133203A206362
:106480006F756E74203C3D2055494E5433325F4D3C
:10649000415800FF00601040007010400080104024
:1064A0000090104000601240080300000903000043
:1064B0000A0300000B030000160300000803090391
:1064C0000A030B031603FFFF66736C5F666C657847
:1064D000636F6D6D2E633A3935203A2069203C2078
:1064E0002875696E7433325F742946534C5F464594
:1064F00041545552455F534F435F464C4558434FB7
:106500004D4D5F434F554E5400FFFFFF66736C5F68
:10651000666C6578636F6D6D2E633A313732203A61
:1065200020735F666C6578636F6D6D497271486149
:106530006E646C65725B696E7374616E63655D2019
:10654000213D204E554C4C0066736C5F666C65783F
:10655000636F6D6D2E633A313836203A20735F6673
:106560006C6578636F6D6D49727148616E646C65BE
:10657000725B696E7374616E63655D20213D204EB0
:10658000554C4C0066736C5F666C6578636F6D6D1F
:106590002E633A323030203A20735F666C65786340
:1065A0006F6D6D49727148616E646C65725B696E86
:1065B0007374616E63655D20213D204E554C4C0027
:1065C00066736C5F666C6578636F6D6D2E633A32CF
:1065D0003134203A20735F666C6578636F6D6D4966
:1065E000727148616E646C65725B696E7374616E22
:1065F00063655D20213D204E554C4C0066736C5FF9
:10660000666C6578636F6D6D2E633A333639203A68
:1066100020735F666C6578636F6D6D497271486158
:106620006E646C65725B696E7374616E63655D2028
:10663000213D204E554C4C0066736C5F6F636F7448
:10664000702E633A323836203A2073766320213D2B
:10665000204E554C4C00FFFF66736C5F6F636F7488
:10666000702E633A323938203A207061636B2021F2
:106670003D204E554C4C00FF66736C5F706F776524
:10668000722E633A353639203A206D6F6465203CAE
:106690003D2034550000000066736C5F706F7765B5
:1066A000722E633A31303637203A206D6F646520A0
:1066B0003C3D20345500000066736C5F706F776559
:1066C000722E633A373137203A20286D6F64652087
:1066D0003E3D2031552920262620286D6F646520F7
:1066E0003C3D20345529000066736C5F706F776500
:1066F000722E633A373331203A20735F67646574D2
:1067000053656E736F72436F6E746578742E64692F
:106710007361626C65436F756E74203E20300000BB
:1067200066736C5F706F7765722E633A3737382007
:106730003A2066616C73650066736C5F706F776595
:10674000722E633A373934203A20286D6F64652001
:106750003E3D2031552920262620286D6F64652076
:106760003C3D20345529000066736C5F706F77657F
:10677000722E633A383233203A20735F676465744F
:1067800053656E736F72436F6E746578742E6469AF
:106790007361626C65436F756E74203E203000FF3C
:1067A000404346484C4F5254575A5D5F6265676993
:1067B000696969FF66736C5F706F7765722E633A03
:1067C000313537203A2076313100000066736C5F36
:1067D000706F7765722E633A313538203A20763102
:1067E0003800000066736C5F706F7765722E633AD5
:1067F000313539203A2076333300000066736C5F00
:10680000706F7765722E633A313931203A206661B4
:106810006C73650066736C5F706F7765722E633A98
:10682000323035203A2069727152656773203C3DE1
:106830002041525241595F53495A4528735F6E7641
:106840006963436F6E746578742E4953455229000D
